:020000040800F2
:10000000180A002071020008790200087B0200082B
:100010007D0200087F020008810200080000000045
:100020000000000000000000000000008302000843
:10003000850200080000000087020008490C000843
:100040008B0200088B0200088B0200088B0200085C
:100050008B0200088B0200088B0200088B0200084C
:100060008B0200088B0200088B0200086503000861
:100070008B0200088B0200088B0200088B0200082C
:100080008B0200088B0200088B0200088B0200081C
:100090008B0200088B0200088B0200088B0200080C
:1000A0008B0200088B0200088B0200088B020008FC
:1000B0008B0200088B0200088B0200088B020008EC
:1000C0008B0200088B0200088B0200088B020008DC
:1000D0008B0200088B0200088B0200088B020008CC
:1000E0008B0200088B0200088B0200088B020008BC
:1000F0008B0200086D0D00088B0200088B020008BF
:100100008B0200088B0200088B0200088B0200089B
:100110008B0200088D1E00088B0200088B0200086D
:10012000350400088B0200088B0200088B020008CF
:100130008B02000800000000000000008B02000895
:100140008B0200088B0200088B0200088B0200085B
:100150008B0200088B0200088B0200088B0200084B
:100160008B0200088B0200088B0200088B0200083B
:100170008B0200088B020008000000000000000055
:100180008B0200088B02000800F002F800F060F813
:100190000AA090E8000C82448344AAF10107DA45E2
:1001A00001D100F055F8AFF2090EBAE80F0013F0D4
:1001B000010F18BFFB1A43F0010318473C2300004E
:1001C0005C23000010F8013B0A4413F0030408BF4D
:1001D00010F8014B1D1108BF10F8015B641E05D01B
:1001E00010F8016B641E01F8016BF9D1002D15D0D8
:1001F00010F8014B03F00C030C2BA1EB04040ABF15
:1002000010F8013BA4EB8314A4EB032405F10103D4
:1002100014F8016B5B1E01F8016BF9D5914238BFF0
:1002200010F8013BD1D3704700230024002500269D
:10023000103A28BF78C1FBD8520728BF30C148BF49
:100240000B6070471FB502F04FF91FBD10B510BD10
:1002500000F031F81146FFF7F5FF01F0C1FF00F0A3
:100260004FF803B4FFF7F2FF03BC00F057F80000AB
:100270000948804709480047FEE7FEE7FEE7FEE73A
:10028000FEE7FEE7FEE7FEE7FEE7FEE70448054976
:10029000054A064B704700009D0C000889010008C4
:1002A00018040020180A0020180600201806002054
:1002B000704770477047754600F02CF8AE46050051
:1002C0006946534620F00700854618B020B5FFF771
:1002D000DDFFBDE820404FF000064FF000074FF073
:1002E00000084FF0000B21F00701AC46ACE8C00954
:1002F000ACE8C009ACE8C009ACE8C0098D4670475D
:1003000010B50446AFF300802046BDE81040FFF76B
:10031000A8BF000000487047B4030020014918201E
:10032000ABBEFEE726000200704700004FF064619C
:100330000A4AD160C0EBC001094A1144074AC432DD
:1003400011600721054AC2F8BC101146D1F8B81057
:1003500041F00101C2F8B81070470000006002408F
:100360003203002000B53D202C4988602C48C8612C
:10037000142048610846006940F0010008612848DF
:1003800000780D2849D1264840780A2845D12448CC
:10039000C078492806D050281FD0522825D055288B
:1003A00027D103E000201F49087022E01C48007993
:1003B000312803D100201B4908700DE0184800794E
:1003C000332803D016480079352805D11548007820
:1003D00010B90120134908700BE012480078022878
:1003E00002D103200F49087003E002200D49087074
:1003F00000BF00BF0C48007802280ED10B480078DF
:1004000001280AD107490978C1EBC10101EB41017B
:10041000074A8818152100F095FC00BD00600240D5
:1004200080030020660300205E030020600300209C
:100430003A02002030B52C48006840F03D002A49BF
:1004400008602A4800889E21484340F6FF7190FBCF
:10045000F1F0C4B2254840889E21484340F6FF7120
:1004600090FBF1F0C5B2642094FBF0F030302049ED
:100470004872642094FBF0F000EBC00101EB001027
:10048000A4EB80000A2190FBF1F03030184988720B
:100490000A2094FBF0F000EB8000A4EB4000303029
:1004A0000873642095FBF0F030300874642095FBED
:1004B000F0F000EBC00101EB0010A5EB80000A2179
:1004C00090FBF1F030300A4948740A2095FBF0F0B7
:1004D00000EB8000A5EB40003030C87419210448BF
:1004E00000F030FC30BD00000864024070030020C2
:1004F0001903002030B503460C463A48006840F422
:100500008070384D286007E036481430006800F4E9
:10051000807008B1012030BD32481430006800F00E
:1005200001000028F0D02F48143000682D48183002
:1005300000682C481030036013E02A48143000682B
:1005400000F4807028B927481430006800F48060F7
:1005500038B12448006840F40070224D2860022021
:10056000D9E720481430006800F002000028E4D0E9
:100570001C48143000681B4818300068002127E030
:10058000605C184D1035286013E016481430006880
:1005900000F4807028B913481430006800F48060BB
:1005A00038B11048006840F400700E4D28600320F8
:1005B000B1E70C481430006800F004000028E4D0D3
:1005C000084814300068074818300068481C81B299
:1005D0009142D5DB0348006840F40070014D28606B
:1005E000002098E7005400402D48006840F48070D7
:1005F0002B4908602B482C498860881548604FF4C7
:10060000D84008614FF48010C862832048632448B2
:100610001438006840F480002149143908602348E8
:10062000006842F610510843204908601E484C30CB
:100630001E49083108601E48091D086002201B4938
:10064000091D0860081F006840F00100091F0860CC
:1006500016480838006840F03D0014490839086021
:100660000F48001F006840F002000D49091F086094
:1006700042F2CF000F4908604FF47A70091D0860FC
:100680000C482438006840F020000A4924390860EA
:10069000081F006840F00100091F08607047000053
:1006A0004438024001030018002001401064024059
:1006B000700300202804004010B52148006840F471
:1006C00080101F4908602D201E49886042F21C00DE
:1006D000C860C02048611A481038006840F4001013
:1006E0001749103908601848184908611548001D55
:1006F00088611748C861142048610846006940F0C5
:10070000010008611148B830006820F00100C1F80C
:10071000B8000D4830300D49B83108600948001D57
:100720000A49C1F8C0000B48006840F4005009496C
:1007300008600B2001F0CEFC352001F0CBFC10BD91
:1007400040380240005000401004000800600240A1
:1007500080030020180802406148006840F00F0044
:100760005F4908605F4800685F4908435D49086069
:100770000846006840F0400008605C48006840F0AF
:1007800080605A4908605A48006A40F08800584919
:1007900008620846C06840F00500C86008468068E6
:1007A00040F00F0088600846006840F00A000860CA
:1007B0004C48406A40F4EE414A48416249480C3096
:1007C000006840F4A00047490C310860081F006829
:1007D000484908434349083108604248006840F4EA
:1007E0002000404908604148406A40F400213F48E9
:1007F00041624148006840F400603F4908603B485E
:100800000C30006840F0807038490C3108603A487C
:100810001438006840F01000374914390860334834
:100820000830006840F040703049083108603248B4
:100830001838006840F030002F49183908602B48FC
:10084000006840F00070294908602B482038006893
:1008500040F020002849203908602248406A40F0D2
:10086000440120484162006840F420201D4908608E
:100870001C480C30006840F4A0201A490C31086074
:100880001848001D006840F440701649091D0860B2
:10089000081D006840F47020091D086014480068B5
:1008A00020F04040124908600846C06820F04040EF
:1008B000C8600846006808600C4800680B4908607A
:1008C0000B48006840F47070094908600846806869
:1008D00040F4707088600846C068C86070470000C7
:1008E0003038024000040240100000550008024069
:1008F000000002400C003000200C02400A48006852
:1009000040F40010084908602D2008490860D220F2
:100910000649183108602B20091D08600120034991
:10092000091F08607047000040380240045400402E
:1009300010B50A48006840F480700849086042F227
:10094000CF000749886240F2CF70C8620120C860BA
:1009500008602D2001F0BEFB10BD000040380240B1
:10096000002000403CB50020019000904E480068F7
:1009700040F480304C49086000BF4B48006800F4E8
:10098000003000900198401C0190009818B901981F
:10099000B0F57A7FF1D14448006800F002000028E9
:1009A0005ED04248006840F48070404908600846C4
:1009B000006820F00F0008600846006840F005005D
:1009C000086039480830006837490831086008462F
:1009D000006840F4A05008600846006840F40040F9
:1009E0000860081F006840F48000091F086008467E
:1009F000006820F03F0008600846006840F00800EA
:100A000008600846006847F6C07188432649091DFA
:100A100008600846006840F428500860081F006815
:100A200040F08070091F086000BF1F48006800F098
:100A300000700028F9D01C480830006820F003003E
:100A40001949083108600846006840F00200086053
:100A500000BF15480830006800F00C000828F8D1E5
:100A600044F2A011481EB0F1807F00D31BE0481E65
:100A70004FF0E022506150170F22002804DB1307CB
:100A80001C0E0B4B1C5406E013071D0E094B00F007
:100A90000F04241F1D5500BF00204FF0E02290617D
:100AA0000720106100BF3CBD00380240003C0240FE
:100AB00000E400E018ED00E01B48006800F400408E
:100AC000B0F5004F2FD018483038006840F0805003
:100AD0001549303908601548006840F480701349A2
:100AE00008601148006840F480300F4908600846EB
:100AF000006820F4803008600846006840F4014037
:100B000008600846006840F00100086000BF064821
:100B1000006800F001000028F9D00448006820F4C3
:100B200080700249086070477038024000700040D1
:100B300000B585B020208DF80000204800780228FC
:100B400004D11F481F490978405C00E007208DF858
:100B5000010000208DF80200C7208DF803001A481C
:100B600000788DF8040090208DF8050050208DF855
:100B700006008DF807007F208DF8080000208DF812
:100B80000900FF208DF80A0000208DF80B008DF879
:100B90000C008DF80D008DF80E008DF80F008DF80B
:100BA000100039208DF8110000208DF8120013225A
:100BB00069468820FFF79EFC05B000BD5E0300205B
:100BC000F2240008600300206E0300201048006833
:100BD00040F480200E4908604FF4B6700D4908605B
:100BE00042F20800091D086080200A490C310860A3
:100BF00007481038006840F40010054910390860B3
:100C00000548064988650348001F086670470000CC
:100C1000403802400848004040040008006002409C
:100C20000748006840F400200549086041F21710A9
:100C30000449086042F20C00091D0860704700007A
:100C400040380240084C004012480068401C1149DE
:100C500008600846006841F28831884218D10020B7
:100C60000C4908600C48006800F0040040B10A48D4
:100C7000001D006840F480200749091D086007E056
:100C80000548001D006840F004000349091D086084
:100C900070470000740300201404024014480068E8
:100CA00040F47000124908601248006840F00100EA
:100CB0001049086000200F49083108600D4800689D
:100CC0000D4908400B4908600C48091D0860081FC1
:100CD000006820F48020091F0860002005490C31BD
:100CE00008604FF0006002498039086070470000DA
:100CF00088ED00E000380240FFFFF6FE10300024CF
:100D00001CB5044640F6354060430D4901EB4010E8
:100D10008000C0F3CF3420128DF80000E0B28DF8CF
:100D2000010010208DF8020012208DF80300002031
:100D30008DF8040005226946C020FFF7DBFB1CBDCF
:100D4000E86E0300084A5066D1654FF06462064BB6
:100D50009A601A46926D42F001029A6500BF024AFB
:100D6000D26D002AFBD17047006002400CB5002014
:100D7000FA490861FA480078401CF9490870F9A05E
:100D800000680190F8A000680090F84800788DF89D
:100D90000100F748006840F08050F5490860F548C8
:100DA000006900F4806000283CD00846006840F4E8
:100DB00080500860F0480078401CEF4908700846F1
:100DC000007814282DDBED480078022829D1142062
:100DD000087000208DF8040007208DF8050002221D
:100DE00001A98820FFF786FBE54908700120E34947
:100DF000087001F0CBF9E149097801EB4101E14AC2
:100E000002EB81000C21FFF79DFF6420D44908709C
:100E10000420FFF78BFAD648006840F00800D44958
:100E20000860E0E1D448007814287DDAD2480078E0
:100E3000002879D0D1480078022876D1D2480078AD
:100E4000401CD149087008460078032801DD0020C5
:100E5000087001F09BF900208DF80400CB48CA49C6
:100E60000978405C8DF80500022201A98820FFF76F
:100E700041FBC3490870C449097801EB4101C44AE8
:100E800002EBC1001821FFF75DFFBF48007830B1C9
:100E900001284ED002285FD003287AD170E00E21BD
:100EA000BC48FFF74FFFBC4800884FF47A7190FBB5
:100EB000F1F03030B9498872B74800884FF47A7140
:100EC00090FBF1F000EB4001C1EBC010B249098882
:100ED000A1EBC000642190FBF1F03030AF49C87243
:100EE000AD480088642190FBF1F000EBC00101EBFC
:100EF0000010A9490988A1EB80000A2190FBF1F0BC
:100F00003030A6490873A44800880A2190FBF1F00C
:100F100000EB8000A0490978A1EB400030309F49E8
:100F2000887316219D4801E0B2E033E0FFF70AFF25
:100F30002FE00E219748FFF705FF0020FFF7F6F995
:100F400097490978C1EBC10101EB4101954A881825
:100F50001521FFF7F7FE1CE00E219348FFF7F2FE84
:100F6000482000F0ADFF4C2000F0AAFF512000F017
:100F7000A7FF502000F0A4FF522000F0A1FF08E0DE
:100F80000E218448FFF7DEFE11218848FFF7DAFEC4
:100F900000BF00BF79480078012879D10220774945
:100FA000087001F0F3F87549097801EB4101754AC1
:100FB00002EB81000C21FFF7C5FE00208DF8040034
:100FC000724871490978405C8DF80500022201A938
:100FD0008820FFF78FFA6A4908706B49097801EB9E
:100FE00041016B4A02EBC1001821FFF7ABFE6648D6
:100FF000007830B101284CD002285DD0032878D188
:101000006EE00E216348FFF79DFE634800884FF4B1
:101010007A7190FBF1F03030604988725E48008848
:101020004FF47A7190FBF1F000EB4001C1EBC0107E
:1010300059490988A1EBC000642190FBF1F03030E0
:101040005649C87254480088642190FBF1F000EBC7
:10105000C00101EB001050490988A1EB80000A2172
:1010600090FBF1F030304D4908734B4800880A215D
:1010700090FBF1F000EB800047490978A1EB4000BC
:1010800030304649887316214448FFF75BFE30E054
:10109000A6E00E213F48FFF755FE0020FFF746F976
:1010A0003F490978C1EBC10101EB41013D4A881874
:1010B0001521FFF747FE1CE00E213B48FFF742FEDB
:1010C000482000F0FDFE4C2000F0FAFE512000F018
:1010D000F7FE502000F0F4FE522000F0F1FE08E090
:1010E0000E212C48FFF72EFE11213048FFF72AFE73
:1010F00000BF00BF1D4890F90000002801DD2B2033
:1011000000E02D202A494872184890F90000002874
:1011100006DD164890F900000A2190FBF1F006E088
:10112000124890F9000040420A2190FBF1F0303063
:101130001F4988720D4890F9000000283ADD0B48DD
:1011400090F900000A2190FBF1F000EB80000749C4
:1011500091F90010A1EB40003BE0000000200040AE
:101160007E03002000070000030000006E03002043
:101170001804024000000240620300205E030020C9
:10118000630300204C00002060030020F2240008CC
:101190007C0000200B0300206403002024020020B8
:1011A000660300203A020020FD0200208E0200208B
:1011B0009F020020F74890F9000040420A2190FB6E
:1011C000F1F000EB8000F34991F900104942A1EBE6
:1011D00040003030F049C8721221EF48FFF7B2FDED
:1011E0000020EE490870EE48006900F480500028A5
:1011F0007CD0EC48006840F48050EA490860EA4836
:101200000078022872D1E948007820B1012858D02E
:1012100002286AD159E0E6480088401CE449088069
:1012200008460088B0F5876F02DB40F25230088034
:10123000DF480088FFF764FD00F0A8FFDC48008865
:101240004FF47A7190FBF1F03030DA498872D84867
:1012500000884FF47A7190FBF1F000EB4001C1EB94
:10126000C010D3490988A1EBC000642190FBF1F0C4
:101270003030D049C872CE480088642190FBF1F02C
:1012800000EBC00101EB0010C9490988A1EB800007
:101290000A2190FBF1F03030C6490873C448008839
:1012A0000A2190FBF1F000EB8000C1490978A1EB25
:1012B00040003030BF4988731621BE48FFF742FD19
:1012C00013E00220FFF732F80FE0012000F0F8FDF4
:1012D0004C2000F0F5FD512000F0F2FD502000F010
:1012E000EFFD522000F0ECFD00BF00BFAC480069EC
:1012F00000F40040002869D0AA48006840F48050FB
:10130000A8490860A848007802285FD1A74800785B
:1013100060B3012804D0022806D0032855D126E066
:101320000120FFF703F850E0A348007801280ED110
:101330000E2000F0C5FD00209F4908707C209F49C9
:1013400081F820002C219D48FFF7FCFC0DE00D20CA
:1013500000F0B6FD0120984908703E20974981F8B9
:1013600020002C219548FFF7EDFC2EE000BF9448AB
:101370000078B0B10020924908708DF804009148BF
:101380008A490978405C8DF80500022201A988206D
:10139000FFF7B0F88C49087012217F48FFF7D2FCA4
:1013A00013E001208649087000208DF80400072012
:1013B0008DF80500022201A98820FFF79BF88249D9
:1013C000087012218148FFF7BDFC00BF7448006916
:1013D00000F4006000287DD07248006840F480501E
:1013E0007049086070480078022876D16F4800780C
:1013F00020B101285AD002286ED15BE06C480088E9
:10140000401E6B4908800846008840F252318842ED
:1014100003DC4FF487606649088065480088FFF761
:101420006FFC00F0B3FE624800884FF47A7190FBC5
:10143000F1F030305F4988725D4800884FF47A716E
:1014400090FBF1F000EB4001C1EBC0105849098856
:10145000A1EBC000642190FBF1F030305549C87217
:1014600053480088642190FBF1F000EBC00101EBD0
:1014700000104F490988A1EB80000A2190FBF1F090
:1014800030304C4908734A4800880A2190FBF1F03B
:1014900000EB800046490978A1EB40003030454917
:1014A000887316214348FFF74DFC15E00320FEF733
:1014B0003DFF11E0022000F003FD4C2000F000FD94
:1014C000512000F0FDFC502000F0FAFC522000F00A
:1014D000F7FC00E001E000BF00BF3D48006800F4F9
:1014E0008060002855D02F48006840F480502D4976
:1014F000086000203249087026480078401C40B23D
:1015000024490870084690F900000F2801DD0F20DB
:10151000087000F03BFE00208DF8040029482349A4
:101520000978405C8DF80500022201A98820FEF7A9
:10153000E1FF25490870174890F90000002803DDF5
:10154000144890F9000004E0124890F90000C0F13E
:101550001000C0B28DF80100022269468820FEF713
:10156000C9FF194908700B4890F90000002801DDF7
:101570002B2000E02D2008494872064890F9000011
:10158000002827DD034890F900000A2190FBF1F0C4
:1015900027E052E06E0300209F020020620300203B
:1015A00000000240180402405E0300206003002097
:1015B000640300202402002067030020C3020020EF
:1015C0006F030020F224000863030020B102002012
:1015D00010080240FE4890F9000040420A2190FBAA
:1015E000F1F03030FB498872F94890F9000000288A
:1015F0000DDDF74890F900000A2190FBF1F000EBB7
:101600008000F34991F90010A1EB40000EE0F04892
:1016100090F9000040420A2190FBF1F000EB8000BD
:10162000EB4991F900104942A1EB40003030E94903
:10163000C8721221E748FFF785FBE748006800F40D
:101640000060002873D0E548006840F48050E3490A
:1016500008600020E2490870DD480078401E40B272
:10166000DB490870084690F9000010F14F0F01DACD
:10167000B120087000F08AFD00208DF80400D948E0
:10168000D9490978405C8DF80500022201A988201B
:10169000FEF730FFD5490870CD4890F900000028CA
:1016A00003DDCB4890F9000004E0C94890F9000040
:1016B000C0F11000C0B28DF80100022269468820F6
:1016C000FEF718FFC9490870C14890F900000028CA
:1016D00001DD2B2000E02D20BE494872BC4890F966
:1016E0000000002806DDBA4890F900000A2190FBAE
:1016F000F1F006E0B64890F9000040420A2190FB64
:10170000F1F03030B3498872B14890F900000028F8
:101710000EDDAF4890F900000A2190FBF1F000EBDC
:101720008000AB4991F90010A1EB40000FE015E0FB
:10173000A74890F9000040420A2190FBF1F000EB2D
:101740008000A34991F900104942A1EB40003030DC
:10175000A049C87212219F48FFF7F4FAA448006913
:1017600000F4007000287CD0A2480078032878D1CB
:10177000A1480078072875D2DFE800F0042AA651B6
:101780007DCFF0009D480078401C9C4908700846B9
:101790000078182801DB00200870984800780A219A
:1017A00090FBF1F0303096494872944800780A2155
:1017B00090FBF1F000EB800090490978A1EB40002C
:1017C00030308F4988720F218D48FFF7BBFAA0E1B6
:1017D0008C480078401C8B490870084600783C28EB
:1017E00001DB00200870874800780A2190FBF1F0A7
:1017F000303083490876834800780A2190FBF1F065
:1018000000EB80007F490978A1EB400030307C4933
:1018100048760F217A480F30FFF794FA79E17A4839
:101820000078401C78490870084600780D2801DBD4
:1018300001200870744800780A2190FBF1F03030E4
:101840006F4981F82700704800780A2190FBF1F079
:1018500000EB80006C490978A1EB4000303068490A
:1018600001E057E154E181F828000F2164481E305F
:10187000FFF768FA4DE165480078401C634908703D
:1018800008460078202801DB012008705F480078B6
:101890000A2190FBF1F03030594981F836005B485D
:1018A00000780A2190FBF1F000EB8000574909789D
:1018B000A1EB40003030524981F837000F215048E9
:1018C0002D30FFF73FFA24E151480078401C504981
:1018D0000870084600781E2801DB122008704C486A
:1018E00000780A2190FBF1F03030454981F845003D
:1018F000474800780A2190FBF1F000EB8000444952
:101900000978A1EB400030303D4981F846000F21B5
:101910003B483C30FFF716FAFBE03E480078401C9D
:101920003C49087008460078082801DB012008704F
:1019300038480078401E00EBC00037490844304961
:1019400002684A6542688A65007A81F85C0017215E
:101950002B484B30FFF7F6F9DBE0FFE72F48007824
:10196000244908702E48006840F080502C490860D7
:101970002C48006840F480702A490860CA202A492F
:1019800008605320086028481838006840F080003C
:1019900025491839086000BF23481838006800F04E
:1019A00040000028F8D0174800780A2190FBF1F099
:1019B0000103144800780A2290FBF2F000EB80004B
:1019C000104A1278A2EB400041EA00200B492DE0BA
:1019D0006E0300209F0200201008024018040240FD
:1019E0006F030020F224000860030020630300203E
:1019F000000002405E0300205F0300207803002007
:101A000084010020790300207A0300207B0300205A
:101A10007D0300207C030020E501002061030020FD
:101A200040380240007000402428004009780A2213
:101A300091FBF2F140EA0151FE48007890FBF2F090
:101A400000EB8000FB4A1278A2EB400041EA004024
:101A5000F9490860F94800780A2190FBF1F000EBA1
:101A60008000F6490978A1EB4000F44909780A2280
:101A700091FBF2F140EA0110F149097891FBF2F192
:101A800040EA0131EE48007890FBF2F000EB800074
:101A9000EB4A1278A2EB400041EA0020E9490978BC
:101AA0000A2291FBF2F140EA0150E649097891FBE4
:101AB000F2F101EB8101E34A1278A2EB410140EA25
:101AC0000140E149097840EA4130DB49091D0860DD
:101AD000D9480C30006820F08000D7490C310860EC
:101AE000FF20D54924310860D848006820F4807070
:101AF000D6490860D649097801EB4101D54A02EB85
:101B000081000C21FFF71EF96420D349087000E022
:101B100000BF00BFD148006900F4807000287CD06D
:101B2000CB480078012804D0022803D0032875D1BF
:101B3000FCE000BFC6480078C94908700320C449CA
:101B40000870097801EB4101C24A02EB81000C21C7
:101B5000FFF7F8F80020C3490870097801EB41014C
:101B6000C14A02EBC1001821FFF7ECF8B248006847
:101B7000C0F30340B0490968C1F3015101EB810191
:101B800000EB4100AB490870AB480068C0F303208C
:101B9000A9490968C1F3023101EB810100EB410061
:101BA000B2490870A448001D006800F00F00A24967
:101BB000091D0968C1F3011101EB810100EB41002E
:101BC0009E4908709C48001D0068C0F303209A4994
:101BD000091D0968C1F3003101EB810100EB4100EF
:101BE000974908709448001D0068C0F3034092496B
:101BF000091D0968C1F3035101EB810100EB4100AC
:101C0000904908708C48001D0068C0F342308E492E
:101C10000870884800780A2101E09FE09CE090FB72
:101C2000F1F0303092494872824800780A2190FBE6
:101C3000F1F000EB80007F490978A1EB40003030E3
:101C40008B498872894800780A2190FBF1F0303086
:101C500087490876854800780A2190FBF1F000EB6F
:101C6000800082490978A1EB4000303080494876F5
:101C7000734800780A2190FBF1F030307C4981F8FC
:101C800027006F4800780A2190FBF1F000EB8000FC
:101C90006B490978A1EB40003030754981F8280084
:101CA000664800780A2190FBF1F03030704981F8E5
:101CB0003600624800780A2190FBF1F000EB8000CA
:101CC0005E490978A1EB40003030694981F837005E
:101CD0005C4800780A2190FBF1F03030644981F8CB
:101CE0004500584800780A2190FBF1F000EB800095
:101CF00054490978A1EB400030305D4981F8460035
:101D00004D48001D0068C0F34230401E00EBC0008B
:101D10005849014456480A6842654A688265097A0A
:101D200080F85C106121FFF70DF816E04D4800784F
:101D3000401C4C49087008460078062801DD002048
:101D400008704849097801EB4101474A02EBC1009C
:101D50001821FEF7F7FF00E000BF00BF3C48007805
:101D6000022803D03A480078012861D13A48007827
:101D700064285DDB002038490870FEF7D7FA2E484A
:101D80000068C0F3032030303B4988732A4800685C
:101D9000C0F302303030487327480068C0F3034076
:101DA0003030C87224480068C0F301503030887267
:101DB0002148001D006800F00F00303081F820003D
:101DC0001D48001D0068C0F301103030C8771A4864
:101DD000001D0068C0F30320303081F8230016484E
:101DE000001D0068C0F30030303081F82200124836
:101DF000001D0068C0F30340303081F826000E4813
:101E0000001D0068C0F30350303081F825000A48F7
:101E1000001D0068C0F34230401E00EBC0001549B1
:101E2000014415482B300A6802604A68426025E088
:101E30002AE0000078030020002800407B030020F7
:101E40007A0300207D0300207C0300200070004006
:101E50005E0300204C0000207E03002000000240B2
:101E6000610300205F030020DC00002079030020D4
:101E700084010020E501002014000020097A01728D
:101E800038212B38FEF75EFF0CBD000008B50A486C
:101E9000006800F0100068B107480068009006482C
:101EA0004068009000BF0548006920F00100034928
:101EB000086100BF08BD0000005000400060024003
:101EC00010B501465A4A917000220DE000BF594BEF
:101ED0001B6803F04003002BF9D0554B9B5C554C1D
:101EE000241D2360531CDAB2042AEFDB48291ED1DB
:101EF00004221AE000BF4F4B1B6803F02003002BA5
:101F0000F9D04C4B1B1D1B68D8B2612801DB57234D
:101F100000E03023C31A541EA400A340464C24887A
:101F20002343454C2380531EDAB2002AE2DC4C29BD
:101F30001ED104221AE000BF3E4B1B6803F02003B1
:101F4000002BF9D03B4B1B1D1B68D8B2612801DB6D
:101F5000572300E03023C31A541EA400A340364C7C
:101F600064882343344C6380531EDAB2002AE2DCD7
:101F700051291ED104221AE000BF2E4B1B6803F02A
:101F80002003002BF9D02B4B1B1D1B68D8B26128F6
:101F900001DB572300E03023C31A541EA400A340E2
:101FA000254CE4882343244CE380531EDAB2002AF4
:101FB000E2DC50291ED104221AE000BF1D4B1B6831
:101FC00003F02003002BF9D01A4B1B1D1B68D8B25D
:101FD000612801DB572300E03023C31A541EA400FC
:101FE000A340154CA4882343134CA380531EDAB29C
:101FF000002AE2DC522913D100220FE000BF0D4B72
:102000001B6803F02003002BF9D00A4B1B1D1B6833
:10201000D8B2094B08339854531CDAB20B2AEDDBC3
:10202000002200E0521C054B9A42FBD310BD000079
:1020300055030020004C0040A0030020A0252600EE
:1020400010B50A4620498870CA7000210DE000BF13
:102050001E4B1B6803F08003002BF9D01A4B5B5C0E
:102060001A4C241D23604B1CD9B20529EFDB09282B
:1020700011D100210CE000BF144C246804F02004AE
:10208000002CF9D0114C241D2468E3B24B1CD9B2AA
:102090000529F0DB10E000210CE000BF0B4C2468A8
:1020A00004F02004002CF9D0084C241D2468E3B26D
:1020B0004B1CD9B20229F0DB002100E0491C044B83
:1020C0009942FBD310BD000059030020004C004092
:1020D000404B4C00002809DB00F01F020121914019
:1020E0004209920002F1E022C2F80011704700009C
:1020F00000B502460D48006840F002000B49086038
:102100000846006840EAC20008600846006840F4DB
:102110008030086005E00548006820F002000349AF
:10212000086000F009F80028F5D000BD103C02401E
:10213000014608687047000002480068012121EA52
:10214000104070470C3C024000B502460B460E485A
:10215000006840F001000C4908600846006840F43F
:102160000070086000BFFFF7E7FF0028FBD0136096
:1021700000BFFFF7E1FF0028FBD00348006820F014
:1021800001000149086000BD103C024000B5032079
:10219000FFF7AEFF0D48007800060D4A127840EABE
:1021A00002400C4A92F900204FF47F4303EA0222D6
:1021B00040EA02010848FFF7C7FF08480088010409
:1021C0000548001DFFF7C0FF00BD00005E030020B2
:1021D000600300206E03002000C00008640300209C
:1021E000FEF7C0FBFEF7B8FAAA48006840F0080006
:1021F000A8490860A848006840F00050A649086057
:10220000A648A7490860A7480860FEF7EDF9FEF761
:10221000DDFC0721A448FEF795FD002000E0401CEE
:10222000A2498842FBD33220A14908723520487266
:102230000D219F48FEF786FDFEF73EFC35209C49A8
:102240000872302048720D219948FEF77BFDFEF799
:102250006FFB372096490872352048720D2194484B
:10226000FEF770FDFEF74AFBFEF726FAFEF7D8FCF4
:1022700000210920FFF7E4FE1E210620FFF7E0FE03
:1022800000211120FFF7DCFE8A48FFF751FF000E06
:10229000894908708748FFF74BFF00F47F00000C66
:1022A000864908708348FFF743FF000A40B284491B
:1022B00008708048001DFFF73BFF000C8149088033
:1022C0007D49097801EB41017F4A02EB81000C2135
:1022D000FEF738FDFEF72CFC7C4908707948008831
:1022E000FEF70EFD794908707348007802287DD109
:1022F0007249097801EB4101754A02EBC1001821CE
:10230000FEF720FD6E4890F90000002801DD2B202B
:1023100000E02D206F494872694890F900000028BC
:1023200006DD674890F900000A2190FBF1F006E015
:10233000634890F9000040420A2190FBF1F03030F0
:10234000644988725E4890F9000000280DDD5C4801
:1023500090F900000A2190FBF1F000EB8000584951
:1023600091F90010A1EB40000EE0554890F90000F3
:1023700040420A2190FBF1F000EB8000504991F9B6
:1023800000104942A1EB400030305249C87212217E
:102390005048FEF7D7FC4948007830B101284DD0AD
:1023A000022853D003286ED164E0464800884FF4D9
:1023B0007A7190FBF1F030304749887241480088CB
:1023C0004FF47A7190FBF1F000EB4001C1EBC010CB
:1023D0003C490988A1EBC000642190FBF1F030304A
:1023E0003D49C87237480088642100E04CE090FB0A
:1023F000F1F000EBC00101EB001032490988A1EBBC
:1024000080000A2190FBF1F03030334908732D48E9
:1024100000880A2190FBF1F000EB8000294909783F
:10242000A1EB400030302C4988730E212B48FEF779
:1024300089FC16212848FEF785FC24E00E21274858
:10244000FEF780FC0020FDF771FF1CE00E21244800
:10245000FEF778FC4820FFF733FD4C20FFF730FDF6
:102460005120FFF72DFD5020FFF72AFD5220FFF7E6
:1024700027FD08E00E211948FEF764FC11211948D8
:10248000FEF760FC00BF00BF3820FFF723FE00BF4F
:10249000FEE70000180402401808024023016745C7
:1024A000043C0240AB89EFCD0000002080969800EC
:1024B0000700002000C000085E0300206003002029
:1024C0006E030020640300204C0000206303002002
:1024D0007C0000209F020020240200200B0300202B
:1024E000FD0200208E0200204FF04070E1EE100A45
:1024F0007047FAF9FCFB00001825000800000020D6
:1025000080030000C4010008D826000880030020D2
:102510009806000028020008101272657374FFFF0D
:10252000FF6C6F642E76616C3D30300D1011746954
:102530006D652E7478743D2200003A000022205010
:1025400004646174133006202000002E0312200161
:10255000200A6461796F667765656B25600A706132
:102560006765206C6F61640C6005616F666618605A
:10257000056D61696E0C20047365747540044155E6
:10258000587511613004464D490C92310C21188365
:10259000425418610C21A4700455534230610C92CE
:1025A00030542118116771307004745F6818610C21
:1025B0004118926D18726D307004645F7948610C37
:1025C00041188130B264309264189264489277481E
:1025D000727790619C6190355C5004303022879115
:1025E0000FE2640FC2641EC2790F62774B51012162
:1025F0003414044D6F6EA915AF3005547565730A18
:1026000030055765646E0B300554687572134004CD
:1026100046726924200653617475721253537536DD
:102620007005746578745630062E3020464DA771BB
:1026300016C008204E4F2044657615D008436F6EB3
:102640006E6563742AE007504C4159202015D0056F
:102650004155534515191C21504004766F6CFDB04F
:10266000062D3739644212E0044D55543511F012ED
:102670002FF333205F0110052030303A0D40047CE9
:102680007C200A71B5B007666F6E743D340EB235AA
:102690000E2A379D634443F420042E30564311071D
:1026A000254D20084154234D560D0A07424107424B
:1026B0004407424507200F4A0D0A7E0200EF7E03C1
:1026C0000000EF01000113100405310BC30F0001DE
:0826D00003006400000000009B
:040000050800018965
:00000001FF
