:020000040800F2
:100000007808002071020008790200087B020008CD
:100010007D0200087F020008810200080000000045
:100020000000000000000000000000008302000843
:10003000850200080000000087020008D1070008C0
:100040008B0200088B0200088B0200088B0200085C
:100050008B0200088B0200088B0200088B0200084C
:100060008B0200088B0200088B0200088B0200083C
:100070008B0200088B0200088B0200088B0200082C
:100080008B0200088B0200088B0200088B0200081C
:100090008B0200088B0200088B0200088B0200080C
:1000A0008B0200088B0200088B0200088B020008FC
:1000B0008B0200088B0200088B0200088B020008EC
:1000C0008B0200088B0200088B0200088B020008DC
:1000D0008B0200088B0200088B0200088B020008CC
:1000E0008B0200088B0200088B0200088B020008BC
:1000F0008B020008810800088B0200088B020008B0
:100100008B0200088B0200088B0200088B0200089B
:100110008B0200088B0200088B0200088B0200088B
:100120008B0200088B0200088B0200088B0200087B
:100130008B02000800000000000000008B02000895
:100140008B0200088B0200088B0200088B0200085B
:100150008B0200088B0200088B0200088B0200084B
:100160008B0200088B0200088B0200088B0200083B
:100170008B0200088B020008000000000000000055
:100180008B0200088B02000800F002F800F060F813
:100190000AA090E8000C82448344AAF10107DA45E2
:1001A00001D100F055F8AFF2090EBAE80F0013F0D4
:1001B000010F18BFFB1A43F0010318472015000078
:1001C0004015000010F8013B0A4413F0030408BF77
:1001D00010F8014B1D1108BF10F8015B641E05D01B
:1001E00010F8016B641E01F8016BF9D1002D15D0D8
:1001F00010F8014B03F00C030C2BA1EB04040ABF15
:1002000010F8013BA4EB8314A4EB032405F10103D4
:1002100014F8016B5B1E01F8016BF9D5914238BFF0
:1002200010F8013BD1D3704700230024002500269D
:10023000103A28BF78C1FBD8520728BF30C148BF49
:100240000B6070471FB501F041FA1FBD10B510BD1E
:1002500000F031F81146FFF7F5FF01F055F900F015
:100260004FF803B4FFF7F2FF03BC00F057F80000AB
:100270000948804709480047FEE7FEE7FEE7FEE73A
:10028000FEE7FEE7FEE7FEE7FEE7FEE70448054976
:10029000054A064B70470000F50700088901000871
:1002A00078020020780800207804002078040020DC
:1002B000704770477047754600F02CF8AE46050051
:1002C0006946534620F00700854618B020B5FFF771
:1002D000DDFFBDE820404FF000064FF000074FF073
:1002E00000084FF0000B21F00701AC46ACE8C00954
:1002F000ACE8C009ACE8C009ACE8C0098D4670475D
:1003000010B50446AFF300802046BDE81040FFF76B
:10031000A8BF0000004870471402002001491820BF
:10032000ABBEFEE7260002007047000030B5034672
:100330000C463A48006840F48070384D286007E069
:1003400036481430006800F4807008B1012030BDD8
:1003500032481430006800F001000028F0D02F4827
:10036000143000682D48183000682C4810300360A5
:1003700013E02A481430006800F4807028B9274838
:100380001430006800F4806038B12448006840F4FC
:100390000070224D28600220D9E720481430006800
:1003A00000F002000028E4D01C48143000681B480C
:1003B00018300068002127E0605C184D1035286077
:1003C00013E016481430006800F4807028B9134810
:1003D0001430006800F4806038B11048006840F4C0
:1003E00000700E4D28600320B1E70C4814300068FF
:1003F00000F004000028E4D00848143000680748E2
:1004000018300068481C81B29142D5DB034800686F
:1004100040F40070014D2860002098E7005400402F
:100420002048006840F007001E4908601E48006A26
:1004300040F008001C4908620846C06840F001000E
:10044000C8600846806840F003008860084600687D
:1004500040F0020008601548406A40F0440113482B
:100460004162006840F42020104908600F480C30B9
:10047000006840F4A0200D490C3108600B48001DB5
:10048000006840F440700949091D0860081D0068B3
:1004900040F47020091D08600548006804490860A0
:1004A0007047000030380240000002400004024063
:1004B000000802400A48006840F40010084908603B
:1004C0002D2008490860D2200649183108602B20E9
:1004D000091D086001200349091F086070470000DA
:1004E00040380240045400400848006840F48070DE
:1004F0000649086042F2CF000549886240F2CF7099
:10050000C8620120C860086070470000403802409F
:10051000002000403CB50020019000904648006853
:1005200040F00100444908600846006800F00200FD
:1005300000285CD04148006840F480703F49086062
:100540000846006820F00F0008600846006840F088
:1005500005000860384808300068374908310860ED
:100560000846006840F4A05008600846006840F45F
:1005700000400860081F0068091F086008460068FE
:1005800020F03F0008600846006840F0080008605E
:100590000846006847F6C07188432749091D08606E
:1005A0000846006840F428500860081F006840F0C2
:1005B0008070091F086000BF1F48006800F00070CD
:1005C0000028F9D01C480830006820F003001A49C0
:1005D000083108600846006840F00200086000BF6B
:1005E00015480830006800F00C000828F8D144F2E3
:1005F000A011481EB0F1807F00D31BE0481E4FF0D1
:10060000E022506150170F22002804DB13071C0E54
:100610000B4B1C5406E013071D0E0A4B00F00F0491
:10062000241F1D5500BF00204FF0E02290610720DD
:10063000106100BF3CBD000000380240003C024099
:1006400000E400E018ED00E01B48006800F4004002
:10065000B0F5004F2FD018483038006840F0805077
:100660001549303908601548006840F48070134916
:1006700008601148006840F480300F49086008465F
:10068000006820F4803008600846006840F40140AB
:1006900008600846006840F00100086000BF064896
:1006A000006800F001000028F9D00448006820F438
:1006B0008070024908607047703802400070004046
:1006C00000B585B020208DF8000087208DF801004E
:1006D00000208DF80200C7208DF8030010208DF84F
:1006E000040090208DF8050050208DF806008DF84C
:1006F000070005208DF8080000208DF80900FF2074
:100700008DF80A0000208DF80B008DF80C008DF894
:100710000D008DF80E008DF80F008DF810003920B7
:100720008DF8110000208DF81200132269468820F0
:10073000FFF7FCFD05B000BD1048006840F4002044
:100740000E4908604FF4B6700D49086042F2080087
:10075000091D086080200A490C31086007481038DC
:10076000006840F400100549103908600548064942
:1007700008670348001F8867704700004038024040
:10078000084C004040040008006002401CB50446CC
:1007900040F6354060430D4901EB40108000C0F346
:1007A000CF3420128DF80000E0B28DF80100102047
:1007B0008DF802008DF8030000208DF8040005225A
:1007C0006946C020FFF7B2FD1CBD0000E86E0300C3
:1007D00007480068401C064908600846006841F266
:1007E0008831884202D1002001490860704700002A
:1007F000080200201448006840F4700012490860A4
:100800001248006840F001001049086000200F49BC
:10081000083108600D4800680D4908400B49086020
:100820000C48091D0860081F006820F48020091F7B
:100830000860002005490C3108604FF00060024953
:10084000803908607047000088ED00E00038024001
:10085000FFFFF6FE10300024084AD06751673922A6
:10086000064BDA601A46126F42F001021A6700BFA7
:10087000024A526F002AFBD170470000006002401C
:1008800008B50020FE490861FE480078401CFD497B
:100890000870FD48006800F0200070B3FB48007845
:1008A000401CFA49087008460078142824DBF848F0
:1008B0000078022820D11420087000208DF8000054
:1008C00007208DF80100022269468820FFF72EFDDF
:1008D000F04908700120EE49087000F0F7FDEC497E
:1008E000097801EB4101EC4A02EB81000C21FFF792
:1008F000B3FF6420E3490870F8E0FFE7E3480078BD
:10090000142870DAE148007800286CD0E0480078BC
:10091000022871D1E1480078401CE049087008467F
:100920000078032801DD0020087000F0CFFD0020D2
:100930008DF80000DA48D9490978405C8DF801004B
:10094000022269468820FFF7F1FCD2490870D3499A
:10095000097801EB4101D34A02EBC1001821FFF7EE
:100960007BFFCE480078E8BBCF4800884FF47A710F
:1009700090FBF1F03030CD498872CB4800884FF4BD
:100980007A7190FBF1F000EB4001C1EBC010C64959
:100990000988A1EBC000642190FBF1F03030C3491D
:1009A000C872C1480088642190FBF1F000EBC001DF
:1009B00001EB0010BC490988A1EB80000A2190FBE3
:1009C000F1F03030B9490873B74800880A2190FB2C
:1009D000F1F000EB8000B4490978A1EB4000303021
:1009E000B24902E007E076E006E088731621AF48DE
:1009F000FFF732FF00BF00BFA5480078012872D181
:100A00000220A349087000F061FDA149097801EBBB
:100A10004101A14A02EB81000C21FFF71DFF0020DC
:100A20008DF800009E489D490978405C8DF80100D2
:100A3000022269468820FFF779FC96490870974999
:100A4000097801EB4101974A02EBC1001821FFF739
:100A500003FF92480078E8BB934800884FF47A710E
:100A600090FBF1F03030914988728F4800884FF444
:100A70007A7190FBF1F000EB4001C1EBC0108A49A4
:100A80000988A1EBC000642190FBF1F03030874968
:100A9000C87285480088642190FBF1F000EBC0012A
:100AA00001EB001080490988A1EB80000A2190FB2E
:100AB000F1F030307D4908737B4800880A2190FBB3
:100AC000F1F000EB800078490978A1EB400030306C
:100AD000764901E006E006E0887316217348FFF7C7
:100AE000BBFE00BF00BF0020684908706648006870
:100AF00000F0100000285ED06548007802285AD126
:100B000066480078002855D167480088401C66492F
:100B1000088008460088B0F5876F02DB40F252304B
:100B2000088061480088FFF731FE00F0CFFC5E4886
:100B300000884FF47A7190FBF1F030305B49887295
:100B4000594800884FF47A7190FBF1F000EB4001B6
:100B5000C1EBC01054490988A1EBC000642190FB8F
:100B6000F1F030305149C8724F480088642190FB41
:100B7000F1F000EBC00101EB00104B490988A1EB3B
:100B800080000A2190FBF1F0303048490873464854
:100B900000880A2190FBF1F000EB800042490978BF
:100BA000A1EB400030304149887316213F48FFF7E0
:100BB00053FE00BF00BF3448006800F00400002866
:100BC0007BD033480078022877D134480078002859
:100BD00072D135480088401E334908800846008895
:100BE00040F25231884203DC4FF487602E4908807E
:100BF0002D480088FFF7CAFD00F068FC2A480088ED
:100C00004FF47A7190FBF1F0303028498872264811
:100C100000884FF47A7190FBF1F000EB4001C1EBDA
:100C2000C01021490988A1EBC000642190FBF1F0BC
:100C300030301E49C8721C480088642190FBF1F0D6
:100C400000EBC00101EB001017490988A1EB8000FF
:100C50000A2190FBF1F030301449087312480088E3
:100C60000A2190FBF1F000EB80000F490978A1EB1D
:100C7000400030300D49887316210C4819E01CE003
:100C80000020004012020020100802400302002051
:100C9000FF0100200402002041000020010200208A
:100CA000D61600087100002006020020E90100208D
:100CB00002E0FFF7D1FD00BF00BFFE48006800F46E
:100CC000807000287ED0FC48007803287AD1FB4849
:100CD0000078072877D2DFE800F0042AA6517DCFFC
:100CE000FD00F7480078401CF54908700846007878
:100CF000182801DB00200870F14800780A2190FBD9
:100D0000F1F03030EF494872ED4800780A2190FB4D
:100D1000F1F000EB8000EA490978A1EB40003030A7
:100D2000E84988720F21E748FFF796FD83E1E6481E
:100D30000078401CE4490870084600783C2801DB34
:100D400000200870E04800780A2190FBF1F0303074
:100D5000DC490876DC4800780A2190FBF1F000EBD2
:100D60008000D9490978A1EB40003030D549487658
:100D70000F21D4480F30FFF76FFD5CE1D3480078B6
:100D8000401CD2490870084600780D2801DB01207C
:100D90000870CE4800780A2190FBF1F03030C94944
:100DA00081F82700C94800780A2190FBF1F000EB98
:100DB0008000C6490978A1EB40003030C14981F874
:100DC000280001E038E135E10F21BE481E30FFF771
:100DD00043FD30E1BE480078401CBD49087008461C
:100DE0000078202801DB01200870B94800780A212A
:100DF00090FBF1F03030B34981F83600B448007808
:100E00000A2190FBF1F000EB8000B1490978A1EBD9
:100E100040003030AB4981F837000F21A9482D3010
:100E2000FFF71AFD07E1AB480078401CA94908709C
:100E3000084600781E2801DB12200870A5480078BB
:100E40000A2190FBF1F030309E4981F84500A1481D
:100E500000780A2190FBF1F000EB80009D490978B1
:100E6000A1EB40003030974981F846000F219548AA
:100E70003C30FFF7F1FCDEE097480078401C9649D3
:100E8000087008460078082801DB012008709248A5
:100E90000078401E00EB40009049085C894981F8C9
:100EA00054008D480078401E00EB40008B490844F8
:100EB0004078844981F8550087480078401E00EB4F
:100EC00040008649084480787E4981F85600102108
:100ED0007C4800E003E04B30FFF7BEFCABE080480D
:100EE0000078754908707F48006840F080507D495F
:100EF00008607D48006840F480707B490860CA2023
:100F00007A4908605320086078481838006840F033
:100F1000800076491839086000BF744818380068A6
:100F200000F040000028F8D0674800780A2190FBC4
:100F3000F1F00003644909780A2291FBF2F101EB18
:100F40008101614A1278A2EB410140EA01205C492B
:100F500009780A2291FBF2F140EA015058490978D8
:100F600091FBF2F101EB8101554A1278A2EB4101AC
:100F700040EA01405D4924390860554800780A215B
:100F800090FBF1F000EB800051490978A1EB4000A3
:100F90004F4909780A2291FBF2F140EA01104B49CE
:100FA000097891FBF2F140EA01304849097891FB58
:100FB000F2F101EB8101454A1278A2EB410140EACE
:100FC0000120444909780A2291FBF2F140EA0151DB
:100FD0004048007890FBF2F000EB80003D4A127828
:100FE000A2EB400041EA00403B49097840EA413029
:100FF0003E49203908603D481838006820F08000DC
:101000003A4918390860FF203849086036480068B6
:1010100020F48070344908602749097801EB4101C8
:10102000334A02EB81000C21FFF716FC64203149A2
:10103000087000E000BF00BF1E48006800F40070A8
:1010400000287DD01C480078012804D0022803D055
:10105000032876D133E100BF174800782049087093
:10106000032015490870097801EB4101204A02EB81
:1010700081000C21FFF7F0FB00201049087009786F
:1010800001EB41011C4A02EBC1001821FFF7E4FB10
:10109000164824380068C0F303401449243909680D
:1010A000C1F3015101EB810100EB410004490870DB
:1010B0000E4823E010080240FF010020000200203B
:1010C0000C020020790100200D0200200E020020F9
:1010D0000F0200201102002010020020D401002085
:1010E00002020020403802400070004024280040E6
:1010F0004100002012020020D100002024380068A6
:10110000C0F30320BC490968C1F3023101EB81013E
:1011100000EB4100B9490870B748001D006800F0B5
:101120000F00B549091D0968C1F3011101EB8101E7
:1011300000EB4100B2490870AF48001D006801E0B3
:10114000D5E0D2E0C0F30320AB49091D0968C1F323
:10115000003101EB810100EB4100AA490870A6486B
:10116000001D0068C0F30340A349091D0968C1F3CD
:10117000035101EB810100EB4100A34908709E4837
:10118000001D0068C0F34230A0490870A0480078F4
:101190000A2190FBF1F030309E4948729C4800785B
:1011A0000A2190FBF1F000EB800099490978A1EB4E
:1011B0004000303097498872904800780A2190FBAF
:1011C000F1F03030934908768C4800780A2190FB82
:1011D000F1F000EB800089490978A1EB4000303044
:1011E0008C494876874800780A2190FBF1F030302E
:1011F000884981F82700834800780A2190FBF1F0A4
:1012000000EB80007F490978A1EB40003030814934
:1012100081F828007A4800780A2190FBF1F03030FC
:101220007C4981F83600764800780A2190FBF1F07D
:1012300000EB800072490978A1EB4000303075491D
:1012400081F83700704800780A2190FBF1F03030C7
:10125000704981F845006C4800780A2190FBF1F054
:1012600000EB800068490978A1EB40003030694903
:1012700081F8460065480078401E00EB4000664952
:10128000085C644981F8540060480078401E00EB17
:1012900040006149084440785E4981F855005B4848
:1012A0000078401E00EB40005B49084480785949B3
:1012B00081F856005B215748FFF7CEFA16E05748F1
:1012C0000078401C5549087008460078062801DD62
:1012D000002008705149097801EB4101504A02EBA6
:1012E000C1001821FFF7B8FA00E000BF00BF4D4869
:1012F0000078022803D04B48007801287AD14A4868
:101300000078642876DB0020474908703A48006876
:10131000C0F3032030304549887337480068C0F374
:1013200002303030487334480068C0F30340303036
:10133000C87231480068C0F30150303088722E48BE
:10134000001D006800F00F00303088772A48001D2B
:101350000068C0F30110303048772748001D00684E
:10136000C0F30320303081F821002348001D0068BD
:10137000C0F30030303081F820001F48001D0068A5
:10138000C0F30340303081F824001B48001D006882
:10139000C0F30350303081F823001748001D006867
:1013A000C0F34230401E00EB40001B49085C1F495F
:1013B00081F826001048001D0068C0F34230401E2E
:1013C00000EB4000144908444078184981F8270090
:1013D0000948001D0068C0F34230401E00EB400089
:1013E0000D4908448078114981F828002D210F48C3
:1013F000FFF732FA08BD0000002800400D0200206F
:101400000F0200200E020020110200201002002016
:101410000C02002079010020D401002000020020ED
:10142000D1000020FF010020120200201400002043
:1014300000B502460D48006840F002000B49086004
:101440000846006840EAC20008600846006840F4A8
:101450008030086005E00548006820F0020003497C
:10146000086000F009F80028F5D000BD103C0240EB
:10147000014608687047000002480068012121EA1F
:10148000104070470C3C024000B502460B460E4827
:10149000006840F001000C4908600846006840F40C
:1014A0000070086000BFFFF7E7FF0028FBD0136063
:1014B00000BFFFF7E1FF0028FBD00348006820F0E1
:1014C00001000149086000BD103C024000B5032046
:1014D000FFF7AEFF084800780006084A127840EA95
:1014E00002410748FFF7D0FF06480088010404487E
:1014F000001DFFF7C9FF00BDFF0100200102002011
:1015000000C0000806020020FFF704F8FEF788FF7D
:1015100060486149086061480860FFF70DF90721DC
:101520005F48FFF799F9002000E0401C5D498842C0
:10153000FBD332205C490872352048720D215A488D
:10154000FFF78AF9FFF780F83520574908723020F5
:1015500048720D215448FFF77FF9FEF7C5FF372089
:1015600051490872352048720D214F48FFF774F930
:10157000FEF7A0FF4D480088FFF708F94C490870B6
:10158000FFF79EF84A4908704A48FFF771FF000EBE
:10159000494908704748FFF76BFF00F47F00000CD3
:1015A000464908704348001DFFF762FF000C3F49A1
:1015B00008804149097801EB4101414A02EB810071
:1015C0000C21FFF749F93C480078022852D13B49E9
:1015D000097801EB41013B4A02EBC1001821FFF7FA
:1015E0003BF936480078E8BB304800884FF47A7100
:1015F00090FBF1F03030344988722C4800884FF469
:101600007A7190FBF1F000EB4001C1EBC01027496B
:101610000988A1EBC000642190FBF1F030302A4929
:10162000C87222480088642190FBF1F000EBC001F1
:1016300001EB00101D490988A1EB80000A2190FBF5
:10164000F1F0303020490873184800880A2190FBD7
:10165000F1F000EB800015490978A1EB4000303033
:10166000194900E005E0887316211748FFF7F4F8E0
:1016700000BF00BF2D20002809DB00F01F02012160
:1016800091404209920002F1E022C2F8001100BF2D
:1016900000BFFEE723016745043C0240AB89EFCD64
:1016A000000000208096980007000020060200201D
:1016B0000402002000C00008FF01002001020020F9
:1016C0004100002071000020E90100204FF040702F
:1016D000E1EE100A7047828481830000FC16000846
:1016E0000000002014020000C4010008F4170008E4
:1016F000140200206406000028020008101272651F
:101700007374FFFFFF6C6F642E76616C3D30300D9B
:10171000101174696D652E7478743D2200003A00D2
:10172000002220700464617413322E032005206DA2
:101730006F6E1A600A70616765206C6F61640C607F
:1017400005616F66661860056D61696E0C20047333
:1017500065746A40044155586A11563004464D4933
:101760000C92310C211883425418610C2199700499
:1017700055534230610C923054211811677130700A
:1017800004745F6818610C4118926D18726D3070A6
:1017900004645F7948610C41188130B2643092640E
:1017A00018926448927748727790619C6190356492
:1017B000500430302287910FE2640FC2641EC27958
:1017C0000F62774B312E701A4D4F4E545545574589
:1017D0004454485546524953415453554E746578C4
:1017E000742620062E3020464D2B021000010300E7
:0417F0006400000091
:040000050800018965
:00000001FF
