:020000040800F2
:10000000A009002071020008790200087B020008A4
:100010007D0200087F020008810200080000000045
:100020000000000000000000000000008302000843
:10003000850200080000000087020008E90D0008A2
:100040008B0200088B0200088B0200088B0200085C
:100050008B0200088B0200088B0200088B0200084C
:100060008B0200088B0200088B020008C103000805
:10007000950500088B0200088B0200088B0200081F
:100080008B0200088B0200088B0200088B0200081C
:100090008B0200088B0200088B0200088B0200080C
:1000A0008B0200088B0200088B0200088B020008FC
:1000B0008B0200088B0200088B0200088B020008EC
:1000C0008B0200088B0200088B0200088B020008DC
:1000D0008B0200088B0200088B020008511B0008ED
:1000E0008B0200088B0200088B0200088B020008BC
:1000F0008B020008990E00088B0200088B02000892
:100100008B0200088B0200088B0200088B0200089B
:100110008B0200088B0200088B0200088B0200088B
:100120008B0200088B0200088B0200088B0200087B
:100130008B02000800000000000000008B02000895
:100140008B0200088B0200088B0200088B0200085B
:100150008B0200088B0200088B0200088B0200084B
:100160008B0200088B0200088B0200088B0200083B
:100170008B0200088B020008000000000000000055
:100180008B0200088B02000800F002F800F060F813
:100190000AA090E8000C82448344AAF10107DA45E2
:1001A00001D100F055F8AFF2090EBAE80F0013F0D4
:1001B000010F18BFFB1A43F001031847E81C0000A9
:1001C000081D000010F8013B0A4413F0030408BFA7
:1001D00010F8014B1D1108BF10F8015B641E05D01B
:1001E00010F8016B641E01F8016BF9D1002D15D0D8
:1001F00010F8014B03F00C030C2BA1EB04040ABF15
:1002000010F8013BA4EB8314A4EB032405F10103D4
:1002100014F8016B5B1E01F8016BF9D5914238BFF0
:1002200010F8013BD1D3704700230024002500269D
:10023000103A28BF78C1FBD8520728BF30C148BF49
:100240000B6070471FB501F025FE1FBD10B510BD36
:1002500000F031F81146FFF7F5FF01F00DFD00F059
:100260004FF803B4FFF7F2FF03BC00F057F80000AB
:100270000948804709480047FEE7FEE7FEE7FEE73A
:10028000FEE7FEE7FEE7FEE7FEE7FEE70448054976
:10029000054A064B704700000D0E00088901000852
:1002A000A0030020A0090020A0050020A005002038
:1002B000704770477047754600F02CF8AE46050051
:1002C0006946534620F00700854618B020B5FFF771
:1002D000DDFFBDE820404FF000064FF000074FF073
:1002E00000084FF0000B21F00701AC46ACE8C00954
:1002F000ACE8C009ACE8C009ACE8C0098D4670475D
:1003000010B50446AFF300802046BDE81040FFF76B
:10031000A8BF0000004870473C0300200149182096
:10032000ABBEFEE726000200704700004FF064619C
:10033000074A9160C0EBC001064A1144044A516665
:100340000721D1651146896D41F001019165704722
:1003500000600240D202002010B54FF06463164CDA
:10036000E360164BD87099715B78144CA4782344E1
:10037000124CE4782344114C247923440F4C6479C3
:1003800023440E4CA47923445B429AB2130A0B4CCB
:10039000E37122720A23084CBC342360064BD3F865
:1003A000B83043F00103241F236000BF024BBC336D
:1003B0001B68002BFAD110BD00600240FC02002037
:1003C00000B53D206F4988600846006940F0010093
:1003D00008616D4800787E287ED16B484078FF2800
:1003E000FAD16948C078472857D167488079642195
:1003F00090FBF1F030306549C8746348807964211E
:1004000090FBF1F000EBC00101EB00105E4989792F
:10041000A1EB80000A2190FBF1F030305B490875B8
:10042000594880790A2190FBF1F000EB8000564991
:100430008979A1EB400030305449487552488079A1
:10044000642190FBF1F03030C1B2504880F8331095
:100450004D488079642190FBF1F000EBC00101EB85
:10046000001049498979A1EB80000A2190FBF1F045
:100470003030C1B2454880F83410434880790A21B1
:1004800090FBF1F000EB80003F498979A1EB40003F
:100490003030C1B23D4880F835103B48C0784C2818
:1004A00059D139488079642190FBF1F030303749D7
:1004B000C87335488079642190FBF1F000EBC001EE
:1004C00001EB001030498979A1EB80000A2190FBF3
:1004D000F1F030302D4900E053E008742A4880796B
:1004E0000A2190FBF1F000EB800027498979A1EB0C
:1004F000400030302549487423488079642190FBBE
:10050000F1F03030C1B2214880F82F101E488079B8
:10051000642190FBF1F000EBC00101EB00101A49DF
:100520008979A1EB80000A2190FBF1F03030C1B253
:10053000164880F83010144880790A2190FBF1F0B9
:1005400000EB800010498979A1EB40003030C1B246
:100550000E4880F831100C48C078422809D10A486A
:100560008079012802D10A49087002E00020084978
:1005700008700649064A127801EB4210202100F06B
:1005800077FC00BD00600240300300209202002092
:100590000F03002000B54FF47460774988607748F6
:1005A00048631420C8620846806A40F001008862EF
:1005B00073480078022879D1724800780128FAD16E
:1005C0006E4800780D282FD16C4840780A28FAD15F
:1005D0006A48C078552828D16848007931280DD15B
:1005E000002069490870097801EB410202EBC10162
:1005F000664A02EB4100162100F03AFC5F480079A0
:10060000332803D05D480079352869D101205E493F
:100610000870097801EB410202EBC1015B4A02EB71
:100620004100162100F024FC5AE05448C0785028BC
:1006300027D15748007818B101205349087002E0CB
:100640000120534908705048007868B14E49097834
:10065000891C01EB410202EBC1014C4A02EB410053
:10066000162100F005FC3BE04749097801EB410207
:1006700002EBC101454A02EB4100162100F0F8FBF4
:100680002EE03E48C078522811D13F48007838B358
:100690003D490978491C01EB410202EBC1013B4A8B
:1006A00002EB4100162100F0E3FB19E03AE0334889
:1006B0008078492803D03148C078492810D10020DB
:1006C00031490870324908702F49097801EB41021D
:1006D00002EBC1012D4A02EB4100162100F0C8FBDC
:1006E000264800784D2845D12448407850282DD1FF
:1006F0002748007818B101202349087002E0012042
:10070000234908702048007868B11F490978891C7E
:1007100001EB410202EBC1011C4A02EB4100162130
:1007200000F0A6FB26E01448806D40F0010012495D
:1007300088651549097801EB410202EBC101134AB2
:1007400002EB4100162100F093FB13E00B484078C8
:1007500052280FD10C48007860B10B490978491C28
:1007600001EB410202EBC101084A02EB41001621F4
:1007700000F07EFB00BD0000006002401C03002072
:1007800006030020080300200E0300203A02002088
:100790001B03002030B503460C463A48006840F47D
:1007A0008070384D286007E036481430006800F447
:1007B000807008B1012030BD32481430006800F06C
:1007C00001000028F0D02F48143000682D48183060
:1007D00000682C481030036013E02A481430006889
:1007E00000F4807028B927481430006800F4806055
:1007F00038B12448006840F40070224D286002207F
:10080000D9E720481430006800F002000028E4D046
:100810001C48143000681B4818300068002127E08D
:10082000605C184D1035286013E0164814300068DD
:1008300000F4807028B913481430006800F4806018
:1008400038B11048006840F400700E4D2860032055
:10085000B1E70C481430006800F004000028E4D030
:10086000084814300068074818300068481C81B2F6
:100870009142D5DB0348006840F40070014D2860C8
:10088000002098E7005400401748006840F480209A
:10089000154908604FF4B6701449086042F21C0014
:1008A000091D0860C02011490C3108600E4810383D
:1008B000006840F400100C49103908600C480D49DC
:1008C00088620A48001F08630B4848631420C86206
:1008D0000846806A40F0010088620548303088652B
:1008E0000248001F08667047403802400848004030
:1008F00010040008006002401C0300201848006833
:1009000040F480101649086041F2171015498860BC
:1009100042F20C00C860C0204861134813490860C7
:100920001048001D1149B839C1F8C00010480F49DE
:100930000C3108600A200D49091D08600A48D030B2
:100940000A49B83908610748001D88610948C8612B
:100950000A2048610846006940F0010008617047BC
:10096000403802400050004040040008B860024097
:10097000FC020020300300204A48006840F00F00CD
:10098000484908604848006A40F008004649086243
:100990000846C06840F00100C8600846806840F022
:1009A000030088600846006840F0020008603F4885
:1009B000406A40F4EE413D4841623C480C300068DA
:1009C00040F4A00039490C310860081F006838491C
:1009D00008433649083108603448006840F4200074
:1009E000324908603348406A40F40021314841628E
:1009F0003148006840F400602F4908602D480C30F1
:100A0000006840F080702B490C3108602A48143887
:100A1000006840F010002849143908602548083063
:100A2000006840F0407023490831086022481838B7
:100A3000006840F030002049183908601D480068FF
:100A400040F000701B4908601B482038006840F0E7
:100A500020001949203908601448406A40F04401D8
:100A600012484162006840F42020104908600F4895
:100A70000C30006840F4A0200C490C3108600B4891
:100A8000001D006840F440700849091D0860081DF9
:100A9000006840F47020091D086006480068054998
:100AA00008607047303802400000024000040240F5
:100AB0000C00300000080240200C02400A48006888
:100AC00040F40010084908602D2008490860D22031
:100AD0000649183108602B20091D086001200349D0
:100AE000091F08607047000040380240045400406D
:100AF0000848006840F480700649086042F2CF0060
:100B00000549886240F2CF70C8620120C860086061
:100B10007047000040380240002000403CB50020F3
:100B2000019000904648006840F001004449086088
:100B30000846006800F0020000285CD041480068C8
:100B400040F480703F4908600846006820F00F00BC
:100B500008600846006840F0050008603848083022
:100B600000683749083108600846006840F4A05022
:100B700008600846006840F400400860081F0068EC
:100B8000091F08600846006820F03F00086008461A
:100B9000006840F0080008600846006847F6C07129
:100BA00088432749091D08600846006840F428501A
:100BB0000860081F006840F08070091F086000BFCF
:100BC0001F48006800F000700028F9D01C48083069
:100BD000006820F003001A490831086008460068E0
:100BE00040F00200086000BF15480830006800F0BF
:100BF0000C000828F8D144F2A011481EB0F1807F03
:100C000000D31BE0481E4FF0E022506150170F2226
:100C1000002804DB13071C0E0B4B1C5406E01307C3
:100C20001D0E0A4B00F00F04241F1D5500BF0020AD
:100C30004FF0E02290610720106100BF3CBD000032
:100C400000380240003C024000E400E018ED00E003
:100C50001B48006800F40040B0F5004F2FD0184842
:100C60003038006840F08050154930390860154828
:100C7000006840F48070134908601148006840F42F
:100C800080300F4908600846006820F48030086012
:100C90000846006840F4014008600846006840F0DB
:100CA0000100086000BF0648006800F0010000284D
:100CB000F9D00448006820F4807002490860704749
:100CC000703802400070004000B585B020208DF8DB
:100CD00000001D481D490978405C8DF80100002086
:100CE0008DF80200C7208DF8030010208DF8040055
:100CF00090208DF8050050208DF806008DF8070033
:100D000005208DF8080000208DF80900FF208DF8DF
:100D10000A0000208DF80B008DF80C008DF80D00F6
:100D20008DF80E008DF80F008DF8100039208DF829
:100D3000110000208DF81200132269468820FFF769
:100D400029FD05B000BD00009E1E0008080300201C
:100D50001048006840F400200E4908604FF4B67057
:100D60000D49086042F20800091D086080200A4908
:100D70000C31086007481038006840F4001005493D
:100D8000103908600548064908670348001F88674E
:100D90007047000040380240084C00404004000802
:100DA000006002401CB5044640F6354060430D49E2
:100DB00001EB40108000C0F3CF3420128DF800000A
:100DC000E0B28DF8010010208DF802008DF80300CC
:100DD00000208DF8040005226946C020FFF7DAFCE8
:100DE0001CBD0000E86E030007480068401C06496F
:100DF00008600846006841F28831884202D100202C
:100E00000149086070470000100300201448006882
:100E100040F47000124908601248006840F0010078
:100E20001049086000200F49083108600D4800682B
:100E30000D4908400B4908600C48091D0860081F4F
:100E4000006820F48020091F0860002005490C314B
:100E500008604FF000600249803908607047000068
:100E600088ED00E000380240FFFFF6FE103000245D
:100E7000084AD06751673922064BDA601A46126F6A
:100E800042F001021A6700BF024A526F002AFBD1EA
:100E9000704700000060024008B50020F949086171
:100EA000F9480078401CF8490870F848006800F0DC
:100EB000200088B3F6480078401CF54908700846C1
:100EC0000078142827DBF3480078022823D1142067
:100ED000087000208DF8000007208DF80100022224
:100EE00069468820FFF756FCEB4908700120E94964
:100EF000087000F0A3FEE749097801EB4101E74AD9
:100F000002EB81000C21FFF7B3FF6420DE4908707B
:100F10000420FFF70BFA28E1FFE7DD4800781428EA
:100F200079DADB480078002875D0DA4800780228A2
:100F300072D1DB480078401CD94908700846007817
:100F4000032801DD0020087000F078FE00208DF8F5
:100F50000000D448D2490978405C8DF80100022293
:100F600069468820FFF716FCCB490870CC49097800
:100F700001EB4101CC4A02EBC1001821FFF778FFD9
:100F8000C748007820B1012847D002285AD154E040
:100F9000C64800884FF47A7190FBF1F03030C449B4
:100FA0008872C24800884FF47A7190FBF1F000EB30
:100FB0004001C1EBC010BD490988A1EBC00064210C
:100FC00090FBF1F03030BA49C872B848008864210B
:100FD00090FBF1F000EBC00101EB0010B349098870
:100FE000A1EB80000A2190FBF1F03030B04908738A
:100FF000AE4800880A2190FBF1F000EB8000AB497D
:101000000978A1EB40003030A94988731621A8481F
:10101000FFF72EFF16E08EE015E00020FFF786F9BF
:10102000A449097801EB410202EBC101A24A02EB9B
:1010300041001621FFF71CFF04E000214C20FFF7C0
:101040008BF900BF00BF93480078012873D10220BC
:101050009049087000F0F2FD8E49097801EB4101DA
:101060008E4A02EB81000C21FFF702FF00208DF871
:1010700000008C488A490978405C8DF80100022202
:1010800069468820FFF786FB834908708449097800
:1010900001EB4101844A02EBC1001821FFF7E8FE91
:1010A0007F48007820B1012846D0022859D153E06A
:1010B0007E4800884FF47A7190FBF1F030307C4923
:1010C00088727A4800884FF47A7190FBF1F000EB57
:1010D0004001C1EBC01075490988A1EBC000642133
:1010E00090FBF1F030307249C8727048008864217A
:1010F00090FBF1F000EBC00101EB00106B49098897
:10110000A1EB80000A2190FBF1F0303068490873B0
:10111000664800880A2190FBF1F000EB80006349EB
:101120000978A1EB4000303061498873162160488E
:10113000FFF79EFE15E015E00020FFF7F7F85D4988
:10114000097801EB410202EBC1015B4A02EB41006D
:101150001621FFF78DFE04E000214C20FFF7FCF87C
:1011600000BF00BF00204A4908704848006800F0EE
:101170001000002875D047480078022871D14848EF
:10118000007820B1012858D0022869D159E0474899
:101190000088401C4549088008460088B0F5876FE4
:1011A00002DB40F25230088040480088FFF7FAFD29
:1011B00000F044FD3D4800884FF47A7190FBF1F057
:1011C00030303B498872394800884FF47A7190FB7F
:1011D000F1F000EB4001C1EBC01034490988A1EBEC
:1011E000C000642190FBF1F030303149C8722F48C3
:1011F0000088642190FBF1F000EBC00101EB0010CE
:101200002A490988A1EB80000A2190FBF1F03030D7
:1012100027490873254800880A2190FBF1F000EB6C
:10122000800022490978A1EB4000303020498873C2
:1012300016211F48FFF71CFE12E00220FFF776F888
:101240000EE000210120FFF787F8002000E0401C9D
:101250001A498842FBD300214C20FFF77DF800BFDC
:1012600000BF0A48006800F0080050B10948007843
:10127000022847D10A480078012821D0022840D10D
:1012800022E03FE0002000401A0300201008024046
:101290000A030020060300200B0300204C0000205E
:1012A000080300209E1E00087C0000200C03002084
:1012B000240200200E0300203A02002040420F00CA
:1012C0000120FFF733F81CE0FE48007838B1002118
:1012D0000E20FFF741F80020FA49087006E00021CF
:1012E0000D20FFF739F80120F6490870002000E0D2
:1012F000401CF5498842FBD300214C20FFF72CF815
:1013000000BF00BFF148006800F00400002877D05B
:10131000EF480078022873D1EE48007820B1012808
:101320005AD002286BD15BE0EB480088401EEA49A6
:1013300008800846008840F25231884203DC4FF4AE
:101340008760E5490880E4480088FFF72BFD00F03E
:1013500075FCE14800884FF47A7190FBF1F0303071
:10136000DE498872DC4800884FF47A7190FBF1F016
:1013700000EB4001C1EBC010D7490988A1EBC000C8
:10138000642190FBF1F03030D449C872D248008813
:10139000642190FBF1F000EBC00101EB0010CE499D
:1013A0000988A1EB80000A2190FBF1F03030CB4995
:1013B0000873C94800880A2190FBF1F000EB800017
:1013C000C5490978A1EB40003030C4498873162123
:1013D000C248FFF74DFD12E00320FEF7A7FF0EE025
:1013E00000210220FEF7B8FF002000E0401CB649B3
:1013F0008842FBD300214C20FEF7AEFF00BF00BFA8
:10140000B248006800F0020018B100214220FEF747
:10141000A3FFAE48006800F4807000287ED0AC487E
:10142000007803287AD1AE480078072877D2DFE821
:1014300000F0042AA6517DCFF200AA480078401C93
:10144000A849087008460078182801DB00200870B9
:10145000A44800780A2190FBF1F03030A24948728C
:10146000A04800780A2190FBF1F000EB80009D4934
:101470000978A1EB400030309B4988720F219A48CF
:10148000FFF7F6FC9DE199480078401C97490870E9
:10149000084600783C2801DB00200870934800785B
:1014A0000A2190FBF1F030308F4908768F480078A0
:1014B0000A2190FBF1F000EB80008C490978A1EB48
:1014C00040003030884948760F2187480F30FFF7B9
:1014D000CFFC76E186480078401C854908700846B4
:1014E00000780D2801DB01200870814800780A216E
:1014F00090FBF1F030307C4981F827007C4800787F
:101500000A2190FBF1F000EB800079490978A1EB0A
:1015100040003030744981F8280001E052E14FE189
:101520000F2171481E30FFF7A3FC4AE17148007893
:10153000401C7049087008460078202801DB012013
:1015400008706C4800780A2190FBF1F03030664951
:1015500081F83600674800780A2190FBF1F000EB33
:10156000800064490978A1EB400030305E4981F881
:1015700037000F215C482D30FFF77AFC21E15E48EF
:101580000078401C5C490870084600781E2801DB82
:1015900012200870584800780A2190FBF1F0303092
:1015A000514981F84500544800780A2190FBF1F038
:1015B00000EB800050490978A1EB400030304A49E7
:1015C00081F846000F2148483C30FFF751FCF8E015
:1015D0004A480078401C49490870084600780828A5
:1015E00001DB0120087046480068C0F34230401E0D
:1015F00000EBC000434908443B4902684A65426821
:101600008A65007A81F85C00102137484B30FFF77B
:101610002FFCD6E0FFE73C4800782D4908703B4896
:10162000006840F08050394908603948006840F44B
:10163000807037490860CA20314920310860532042
:1016400008602F480830006840F080002C490831BD
:10165000086000BF2A480830006800F040000028F9
:10166000F8D0224800780A2190FBF1F000031F49CE
:1016700009780A2291FBF2F101EB81011B4A1278F1
:10168000A2EB410140EA0120164909780A2291FBA8
:10169000F2F140EA01511348007890FBF2F000EBC0
:1016A0008000104A1278A2EB400041EA0040144941
:1016B000091F08600F4800780A2190FBF1F000EB49
:1016C000800027E00F03002040420F001008024076
:1016D00006030020080300200C0300202402002041
:1016E00007030020140300208401002015030020BC
:1016F0001603002017030020190300201803002000
:1017000004280040E5010020090300204038024081
:1017100000700040FA490978A1EB4000F8490978C7
:101720000A2291FBF2F140EA0110F649097891FB97
:10173000F2F140EA0130F349097891FBF2F101EB53
:101740008101F04A1278A2EB410140EA0120EE4902
:1017500009780A2291FBF2F140EA0150EA4909783E
:1017600091FBF2F101EB8101E74A1278A2EB410112
:1017700040EA0140E549097840EA4130E44908601F
:10178000E3480830006820F08000E1490831086033
:10179000FF20DF4920310860DE48006820F48070B7
:1017A000DC490860DC49097801EB4101DB4A02EBC6
:1017B00081000C21FFF75CFB6420D949087000E030
:1017C00000BF00BFD748006800F4007000287DD03B
:1017D000D1480078012804D0022803D0032876D10C
:1017E000F9E000BFCC480078CF4908700320CA490F
:1017F0000870097801EB4101C84A02EB81000C2115
:10180000FFF736FB0020C9490870097801EB410158
:10181000C74A02EBC1001821FFF72AFBBC48001F92
:101820000068C0F30340BA49091F0968C1F30151B8
:1018300001EB810100EB4100BE490870B448001F74
:101840000068C0F30320B249091F0968C1F30231DF
:1018500001EB810100EB4100B7490870AC4800681A
:1018600000F00F00AA490968C1F3011101EB8101E1
:1018700000EB4100A2490870A5480068C0F30320AE
:10188000A3490968C1F3003101EB810100EB41007C
:101890009C4908709E480068C0F303409C49096851
:1018A000C1F3035101EB810100EB4100964908703F
:1018B00097480068C0F34230944908709D4800780A
:1018C0000A2190FBF1F030309C4901E09BE098E068
:1018D0004872984800780A2190FBF1F000EB8000F4
:1018E00094490978A1EB40003030944988729248BD
:1018F00000780A2190FBF1F03030904908768E484C
:1019000000780A2190FBF1F000EB80008A49097809
:10191000A1EB40003030894948767A4800780A21A6
:1019200090FBF1F03030854981F827007548007848
:101930000A2190FBF1F000EB800072490978A1EBDD
:10194000400030307D4981F828006D4800780A2138
:1019500090FBF1F03030794981F836006848007822
:101960000A2190FBF1F000EB800065490978A1EBBA
:1019700040003030714981F83700634800780A210F
:1019800090FBF1F030306D4981F845005E480078F9
:101990000A2190FBF1F000EB80005B490978A1EB94
:1019A00040003030654981F8460059480068C0F36E
:1019B0004230401E00EBC000614908445F490268A4
:1019C0004A6542688A65007A81F85C0061215B485B
:1019D000FFF74EFA16E055480078401C534908704E
:1019E00008460078062801DD002008704F49097874
:1019F00001EB41014E4A02EBC1001821FFF738FA12
:101A000000E000BF00BF44480078022803D04248ED
:101A10000078012873D14248007864286FDB0020E9
:101A20003F4908703A48001F0068C0F30320303077
:101A3000444988733648001F0068C0F302303030D4
:101A400048733348001F0068C0F303403030C87249
:101A50002F48001F0068C0F30150303088722C48B6
:101A6000006800F00F00303081F82000284800683E
:101A7000C0F301103030C87725480068C0F3032058
:101A8000303081F8230022480068C0F30030303045
:101A900081F822001E480068C0F30340303081F80E
:101AA00026001B480068C0F30350303081F8250041
:101AB00017480068C0F34230401E00EBC0002049C8
:101AC000084420492B3102680A6042684A60007A63
:101AD000087238211B48FFF7CBF91B480078012812
:101AE00005D11A48007810B90020FEF71FFC1648EF
:101AF0000078022803D100214220FEF72DFC08BD0A
:101B000017030020160300201903002018030020EB
:101B10000428004000700040060300204C00002014
:101B20001A030020100802400903002007030020C8
:101B3000DC00002014030020150300208401002095
:101B4000E501002014000020080300200E030020FF
:101B500008B50A48006800F0100070B10748006836
:101B600000900648001D0068009000BF0448806A8D
:101B700020F001000249886200BF08BD0048004013
:101B800000600240002809DB00F01F0201219140A3
:101B90004209920002F1E022C2F8001170470000F1
:101BA00000B502460D48006840F002000B4908608D
:101BB0000846006840EAC20008600846006840F431
:101BC0008030086005E00548006820F00200034905
:101BD000086000F009F80028F5D000BD103C024074
:101BE000014608687047000002480068012121EAA8
:101BF000104070470C3C024000B502460B460E48B0
:101C0000006840F001000C4908600846006840F494
:101C10000070086000BFFFF7E7FF0028FBD01360EB
:101C200000BFFFF7E1FF0028FBD00348006820F069
:101C300001000149086000BD103C024000B50320CE
:101C4000FFF7AEFF084800780006084A127840EA1D
:101C500002410748FFF7D0FF064800880104044806
:101C6000001DFFF7C9FF00BD060300200803002088
:101C700000C000080C030020FEF750FFFEF77CFEBA
:101C800075487649086076480860FFF761F80721D3
:101C90007448FFF7EDF8002000E0401C72498842CC
:101CA000FBD3322071490872352048720D216F48EC
:101CB000FFF7DEF8FEF7CCFF35206C4908723020C4
:101CC00048720D216948FFF7D3F8FEF711FF37205E
:101CD00066490872352048720D216448FFF7C8F83C
:101CE000FEF7ECFEFEF7D0FDFEF708FE012109200D
:101CF000FEF732FB002000E0401C5D498842FBD328
:101D00001E210620FEF728FB002000E0401C584959
:101D10008842FBD300214220FEF71EFB002000E09A
:101D2000401C53498842FBD300214720FEF714FB97
:101D30005048FFF755FF000E4F4908704D48FFF718
:101D40004FFF00F47F00000C4C4908704948001D0B
:101D5000FFF746FF000C4A4908804749097801EB24
:101D60004101484A02EB81000C21FFF781F8FEF7A0
:101D7000ABFF4549087042480088FFF713F8424915
:101D800008703D480078022857D13C49097801EB9A
:101D900041013E4A02EBC1001821FFF769F83748BC
:101DA000007810B1012847D142E0354800884FF44F
:101DB0007A7190FBF1F030303549887230480088F4
:101DC0004FF47A7190FBF1F000EB4001C1EBC010D1
:101DD0002B490988A1EBC000642190FBF1F0303061
:101DE0002B49C87226480088642190FBF1F000EB73
:101DF000C00101EB001022490988A1EB80000A21F3
:101E000090FBF1F03030224908731D4800880A2108
:101E100090FBF1F000EB800019490978A1EB40003C
:101E200030301B49887316211948FFF721F803E069
:101E30000020FEF77BFA00BF00BF2D20FFF7A2FEB7
:101E40000C20FFF79FFE0B20FFF79CFE2720FFF7DB
:101E500099FE00BFFEE7000023016745043C0240F5
:101E6000AB89EFCD0000002080969800070000208D
:101E700040420F0000C000080603002008030020B5
:101E80000C0300204C0000200B0300207C000020ED
:101E9000240200204FF04070E1EE100A7047828467
:101EA00081830000C41E0008000000201C03000005
:101EB000C4010008442000081C0300208406000020
:101EC00028020008101272657374FFFFFF6C6F64C4
:101ED0002E76616C3D30300D101174696D652E7475
:101EE00078743D2200003A0000222050046461749E
:101EF000133006202000002E03122001200A646106
:101F0000796F667765656B25600A70616765206C1F
:101F10006F61640C6005616F66661860056D6169CC
:101F20006E0C200473657475400441555875116139
:101F30003004464D490C92310C21188342541861EB
:101F40000C21A4700455534230610C923054211876
:101F5000116771307004745F6818610C4118926DDC
:101F600018726D307004645F7948610C41188130DB
:101F7000B2643092641892644892774872779061A4
:101F80009C6190355C500430302287910FE2640FE1
:101F9000C2641EC2790F62774B5101213414044D83
:101FA0006F6EA915AF3005547565730A3005576516
:101FB000646E0B30055468757213400446726924D0
:101FC000200653617475721253537536700574652B
:101FD00078745630062E3020464DA77116C0094E33
:101FE0004F20434F4E4E20162113D0044543541624
:101FF0000008102020504C41592016D0054155535F
:1020000045421006736F6E6720C4122FC74121012D
:102010001A20215721ED20084154234D560D0A075F
:10202000424107424407424507324A1C3009435A9D
:102030000D0A7EFF0600010311EF0001030064009A
:04204000000000009C
:040000050800018965
:00000001FF
