:020000040800F2
:10000000580D002071020008790200087B020008E8
:100010007D0200087F020008810200080000000045
:100020000000000000000000000000008302000843
:10003000850200080000000087020008290E000861
:100040008B0200088B0200088B0200088B0200085C
:100050008B0200088B0200088B0200088B0200084C
:100060008B0200088B0200088B0200086503000861
:100070008B0200088B0200088B0200088B0200082C
:100080008B0200088B0200088B0200088B0200081C
:100090008B0200088B0200088B0200088B0200080C
:1000A0008B0200088B0200088B0200088B020008FC
:1000B0008B0200088B0200088B0200088B020008EC
:1000C0008B0200088B0200088B0200088B020008DC
:1000D0008B0200088B0200088B0200088B020008CC
:1000E0008B0200088B0200088B0200088B020008BC
:1000F0008B0200081D0F00088B0200088B0200080D
:100100008B0200088B0200088B0200088B0200089B
:100110008B020008F54400088B0200088B020008DF
:10012000350400088B0200088B0200088B020008CF
:100130008B02000800000000000000008B02000895
:100140008B0200088B0200088B0200088B0200085B
:100150008B0200088B0200088B0200088B0200084B
:100160008B0200088B0200088B0200088B0200083B
:100170008B0200088B020008000000000000000055
:100180008B0200088B02000800F002F800F060F813
:100190000AA090E8000C82448344AAF10107DA45E2
:1001A00001D100F055F8AFF2090EBAE80F0013F0D4
:1001B000010F18BFFB1A43F001031847604E0000FF
:1001C000804E000010F8013B0A4413F0030408BFFE
:1001D00010F8014B1D1108BF10F8015B641E05D01B
:1001E00010F8016B641E01F8016BF9D1002D15D0D8
:1001F00010F8014B03F00C030C2BA1EB04040ABF15
:1002000010F8013BA4EB8314A4EB032405F10103D4
:1002100014F8016B5B1E01F8016BF9D5914238BFF0
:1002200010F8013BD1D3704700230024002500269D
:10023000103A28BF78C1FBD8520728BF30C148BF49
:100240000B6070471FB504F0E1FE1FBD10B510BD77
:1002500000F031F81146FFF7F5FF04F031FC00F033
:100260004FF803B4FFF7F2FF03BC00F057F80000AB
:100270000948804709480047FEE7FEE7FEE7FEE73A
:10028000FEE7FEE7FEE7FEE7FEE7FEE70448054976
:10029000054A064B704700004D0E00088901000812
:1002A00058070020580D0020580900205809002048
:1002B000704770477047754600F02CF8AE46050051
:1002C0006946534620F00700854618B020B5FFF771
:1002D000DDFFBDE820404FF000064FF000074FF073
:1002E00000084FF0000B21F00701AC46ACE8C00954
:1002F000ACE8C009ACE8C009ACE8C0098D4670475D
:1003000010B50446AFF300802046BDE81040FFF76B
:10031000A8BF000000487047F806002001491820D7
:10032000ABBEFEE726000200704700004FF064619C
:100330000A4AD160C0EBC001094A1144074AC432DD
:1003400011600721054AC2F8BC101146D1F8B81057
:1003500041F00101C2F8B81070470000006002408F
:100360006006002000B53D202C4988602C48C861FB
:10037000142048610846006940F0010008612848DF
:1003800000780D2849D1264840780A2845D12448CC
:10039000C078492806D050281FD0522825D055288B
:1003A00027D103E000201F49087022E01C48007993
:1003B000312803D100201B4908700DE0184800794E
:1003C000332803D016480079352805D11548007820
:1003D00010B90120134908700BE012480078022878
:1003E00002D103200F49087003E002200D49087074
:1003F00000BF00BF0C48007802280ED10B480078DF
:1004000001280AD107490978C1EBC10101EB41017B
:10041000074A8818152100F06DFD00BD00600240FC
:10042000C40600209C0600208C0600208E060020BA
:100430007602002030B52C48006840F03D002A4983
:1004400008602A480088AE21484340F6FF7190FBBF
:10045000F1F0C4B2254840886421484340F6FF715A
:1004600090FBF1F0C5B2642094FBF0F030302049ED
:100470004872642094FBF0F000EBC00101EB001027
:10048000A4EB80000A2190FBF1F03030184988720B
:100490000A2094FBF0F000EB8000A4EB4000303029
:1004A0000873642095FBF0F030304874642095FBAD
:1004B000F0F000EBC00101EB0010A5EB80000A2179
:1004C00090FBF1F030300A4988740A2095FBF0F077
:1004D00000EB8000A5EB40003030C87419210448BF
:1004E00000F008FD30BD000008640240A2060020B4
:1004F0008603002030B503460C463A48006840F4B5
:100500008070384D286007E036481430006800F4E9
:10051000807008B1012030BD32481430006800F00E
:1005200001000028F0D02F48143000682D48183002
:1005300000682C481030036013E02A48143000682B
:1005400000F4807028B927481430006800F48060F7
:1005500038B12448006840F40070224D2860022021
:10056000D9E720481430006800F002000028E4D0E9
:100570001C48143000681B4818300068002127E030
:10058000605C184D1035286013E016481430006880
:1005900000F4807028B913481430006800F48060BB
:1005A00038B11048006840F400700E4D28600320F8
:1005B000B1E70C481430006800F004000028E4D0D3
:1005C000084814300068074818300068481C81B299
:1005D0009142D5DB0348006840F40070014D28606B
:1005E000002098E7005400404AF6AA20014908601C
:1005F00070470000003000402D48006840F48070D3
:100600002B4908602B482C498860881548604FF4B6
:10061000D84008614FF48010C862832048632448A2
:100620001438006840F480002149143908602348D8
:10063000006842F610510843204908601E484C30BB
:100640001E49083108601E48091D086002201B4928
:10065000091D0860081F006840F00100091F0860BC
:1006600016480838006840F03D0014490839086011
:100670000F48001F006840F002000D49091F086084
:1006800042F2CF000F4908604FF47A70091D0860EC
:100690000C482438006840F020000A4924390860DA
:1006A000081F006840F00100091F08607047000043
:1006B0004438024001030018002001401064024049
:1006C000A20600202804004010B52148006840F42C
:1006D00080101F4908602D201E49886042F21C00CE
:1006E000C860C02048611A481038006840F4001003
:1006F0001749103908601848184908611548001D45
:1007000088611748C861142048610846006940F0B4
:10071000010008611148B830006820F00100C1F8FC
:10072000B8000D4830300D49B83108600948001D47
:100730000A49C1F8C0000B48006840F4005009495C
:1007400008600B2004F0AAF8352004F0A7F810BDCB
:100750004038024000500040100400080060024091
:10076000C4060020180802407048006840F00F00DE
:100770006E4908606E4800686E4908436C4908601D
:100780000846006820F0C00008600846006840F095
:10079000400008606848006840F080606649086072
:1007A0006348006840F48050614908606348006A0B
:1007B00040F08800614908620846C06840F00500C2
:1007C000C8600846806840F00F00886008460068EE
:1007D00040F00A0008605648406A40F4EE41544830
:1007E000416253480C30006840F4A00050490C317D
:1007F0000860081F0068524908434D4908310860E5
:100800004B48006840F42000494908604A48406A63
:1008100040F40021484841624A48006840F40060C2
:100820004849086044480C30006840F080704249F4
:100830000C31086043481438006840F0100041490A
:10084000143908603C480830006840F040703A496C
:10085000083108603B481838006840F030003949DA
:10086000183908603448006840F000703249086068
:1008700034482038006840F02000324920390860B0
:100880002B48406A40F0440129484162006840F426
:1008900020202749086026480C30006840F4A0203A
:1008A00023490C3108602248001D006840F4407064
:1008B0001F49091D0860081D006840F47020091DCB
:1008C00008601E48006820F040401C490860084647
:1008D000C06820F04040C8601548006820F44070AF
:1008E0001349086012480C30006820F44070104929
:1008F0000C31086011480068104908600E48006813
:100900000D4908600A480068094908600B480068FA
:1009100040F47070094908600846806840F47070BF
:1009200088600846C068C8607047000030380240E0
:100930000004024010000055000802400000024080
:100940000C003000200C02400A48006840F40010FF
:10095000084908602D2008490860D220064918314E
:1009600008602B20091D086001200349091F086049
:1009700070470000403802400454004045F2555092
:10098000064908600320486040F6FF7088604AF618
:10099000AA2008604CF6CC40086070470030004048
:1009A0000848006840F480700649086042F2CF00B1
:1009B0000549886240F2CF70C8620120C8600860B3
:1009C0007047000040380240002000403CB5002045
:1009D000019000904E48006840F480304C49086017
:1009E00000BF4B48006800F4003000900198401CA4
:1009F0000190009818B90198B0F57A7FF1D1444878
:100A0000006800F0020000285ED04248006840F410
:100A10008070404908600846006820F00F000860B8
:100A20000846006840F00500086039480830006852
:100A30003749083108600846006840F4A050086053
:100A40000846006840F400400860081F006840F451
:100A50008000091F08600846006820F03F00086019
:100A60000846006840F0080008600846006847F63D
:100A7000C07188432649091D08600846006840F493
:100A800028500860081F006840F08070091F086047
:100A900000BF1F48006800F000700028F9D01C4813
:100AA0000830006820F00300194908310860084642
:100AB000006840F00200086000BF15480830006878
:100AC00000F00C000828F8D144F2A011481EB0F143
:100AD000807F00D31BE0481E4FF0E022506150178A
:100AE0000F22002804DB13071C0E0B4B1C5406E0DE
:100AF00013071D0E094B00F00F04241F1D5500BFE6
:100B000000204FF0E02290610720106100BF3CBD43
:100B100000380240003C024000E400E018ED00E034
:100B20001B48006800F40040B0F5004F2FD0184873
:100B30003038006840F08050154930390860154859
:100B4000006840F48070134908601148006840F460
:100B500080300F4908600846006820F48030086043
:100B60000846006840F4014008600846006840F00C
:100B70000100086000BF0648006800F0010000287E
:100B8000F9D00448006820F480700249086070477A
:100B9000703802400070004000B585B020208DF80C
:100BA000000079480078022804D17848784909780B
:100BB000405C00E007208DF801007648007800F0E6
:100BC0000F0074494978302202EA01110843714943
:100BD0008978402202EA811108438DF80200C7207B
:100BE0008DF803006C4890F90000002803DD6A4886
:100BF00090F9000004E0684890F90000C0F110008E
:100C0000C0B28DF80400654991F90010002905DD96
:100C1000624991F9001041F0100107E05F4991F934
:100C20000000002801DB014600E041425B4A5278A7
:100C3000602303EA421242F080021143C9B28DF8E8
:100C40000510574991F90010002905DD544991F923
:100C5000001041F0100107E0514991F9000000280F
:100C600001DB014600E0414201F01F014C4A92784D
:100C7000602303EA421211438DF80610494991F9A5
:100C80000010002905DD474991F9001041F01001DD
:100C900007E0444991F90000002801DB014600E02B
:100CA000414201F01F013F4A9278602303EA421259
:100CB00011438DF8071005208DF808003948407859
:100CC000302101EA0010364949780C2202EA8101FC
:100CD00008438DF80900FF208DF80A00324890F98A
:100CE0000000002803DD304890F9000004E02E48A1
:100CF00090F90000C0F11000C0B28DF80B002A4836
:100D000090F90100002803DD274890F9010004E074
:100D1000254890F90100C0F11000C0B28DF80C0018
:100D2000214890F90200002803DD1F4890F90200D5
:100D300004E01D4890F90200C0F11000C0B28DF827
:100D40000D00194890F90300002803DD164890F9BA
:100D5000030004E0144890F90300C0F11000C0B291
:100D60008DF80E0000208DF80F008DF8100039204E
:100D70008DF8110000208DF812001322694688209A
:100D8000FFF7B8FB05B000BD8C0600201650000828
:100D90008E060020A60600209F060020A90600203F
:100DA000AB060020AE060020B10600201048006807
:100DB00040F480200E4908604FF4B6700D49086079
:100DC00042F20800091D086080200A490C310860C1
:100DD00007481038006840F40010054910390860D1
:100DE0000548064988650348001F086670470000EB
:100DF00040380240084800404004000800600240BB
:100E00000748006840F400200549086041F21710C7
:100E10000449086042F20C00091D08607047000098
:100E200040380240084C004007480068401C064912
:100E300008600846006841F28831884202D10020EB
:100E40000149086070470000B80600201448006897
:100E500040F47000124908601248006840F0010038
:100E60001049086000200F49083108600D480068EB
:100E70000D4908400B4908600C48091D0860081F0F
:100E8000006820F48020091F0860002005490C310B
:100E900008604FF000600249803908607047000028
:100EA00088ED00E000380240FFFFF6FE103000241D
:100EB0001CB5044640F6354060430D4901EB401037
:100EC0008000C0F3CF3420128DF80000E0B28DF81E
:100ED000010010208DF8020012208DF80300002080
:100EE0008DF8040005226946C020FFF703FB1CBDF6
:100EF000E86E0300084A5066D1654FF06462064B05
:100F00009A601A46926D42F001029A6500BF024A49
:100F1000D26D002AFBD170470060024008B5002066
:100F2000FE490861FFF760FBFD480078401CFC4962
:100F30000870FC48006840F08050FA490860084694
:100F4000006840F400400860F748006900F48060E1
:100F5000002838D0F5480078401CF449087008464D
:100F6000007814282EDBF248007802282AD11420B9
:100F7000087000208DF8000007208DF80100022283
:100F800069468820FFF7B6FAEA4908700120E84967
:100F9000087003F0DFFCE849E54A127801EB021023
:100FA0001021FFF7A7FF6220DD4908700420FFF73A
:100FB000BDF90E2003F0B8FADA48006840F00800E6
:100FC000D849086003E3D948007814287EDAD74866
:100FD000007800287AD0D6480078022877D1D74800
:100FE0000078401CD549087008460078032801DDC8
:100FF0000020087003F0AEFC00208DF80000D048FF
:10100000CE490978405C8DF80100022269468820AB
:10101000FFF770FAC74908700020CA4908702021FC
:10102000C948FFF767FFC949C44A127801EB42106B
:101030002021FFF75FFFC148007830B101284ED072
:1010400002285FD0032849D1F6E00E21C048FFF7FF
:1010500051FFC04800884FF47A7190FBF1F03030B6
:10106000BD498872BB4800884FF47A7190FBF1F05B
:1010700000EB4001C1EBC010B6490988A1EBC000EC
:10108000642190FBF1F03030B349C872B148008858
:10109000642190FBF1F000EBC00101EB0010AD49C1
:1010A0000988A1EB80000A2190FBF1F03030AA49B9
:1010B0000873A84800880A2190FBF1F000EB80003B
:1010C000A4490978A1EB4000303001E024E1BDE003
:1010D000A14988731621A048FFF70CFFB5E00E2147
:1010E0009B48FFF707FF0020FFF720F99B4909788D
:1010F000C1EBC10101EB4101994A88181521FFF7A5
:10110000F9FEA2E00021092003F05EFB954908707A
:1011100008460078012804D115219348FFF7EAFE1C
:1011200089E00E219148FFF7E5FE1E21062003F01D
:101130004BFB0021112003F047FB482003F0F4F99A
:101140004C2003F0F1F9522003F0EEF988480088B2
:10115000642190FBF1F03030864988738448008820
:10116000642190FBF1F000EBC00101EB001080491D
:101170000988A1EB80000A2190FBF1F030307D4915
:10118000C8737B4800880A2190FBF1F000EB8000D7
:1011900077490978A1EB40003030764908747448EB
:1011A0004088642190FBF1F03030724988727048B9
:1011B0004088642190FBF1F000EBC00101EB0010CE
:1011C0006B494988A1EB80000A2190FBF1F0303097
:1011D0006849C872664840880A2190FBF1F000EB2C
:1011E000800063498978A1EB400030306149087381
:1011F0005F48007A88745E48407AC8745C48807A98
:1012000008755B48C07A48755948007B887558480E
:10121000407BC875502088774120C877552081F8D9
:101220002000532081F82100452081F822002C2144
:101230005048FFF75FFE08E00E214548FFF75AFED1
:1012400011214D48FFF756FE00BF00BF3848007817
:10125000012861D102203649087003F07BFB364932
:10126000334A127801EB02101021FFF743FE0020F1
:101270008DF80000324831490978405C8DF8010052
:10128000022269468820FFF735F92A4908700020B4
:101290002C49087020212C48FFF72CFE2B49274AA7
:1012A000127801EB42102021FFF724FE234800783A
:1012B00030B101287FD002287CD0032879D127E1E2
:1012C0000E212348FFF716FE224800884FF47A715A
:1012D00090FBF1F03030204988721E4800884FF4AE
:1012E0007A7190FBF1F000EB4001C1EBC01019499D
:1012F0000988A1EBC000642190FBF1F03030164961
:10130000C87214480088642190FBF1F000EBC00122
:1013100001EB00100F4931E056E14CE000200040A5
:10132000C206002018040240000002409606002079
:101330008C060020970600204C0000208E0600201E
:1013400016500008A0060020DB02002098000020B4
:10135000780300209A060020600200209C060020EE
:101360007602002098060020470300206A03002030
:10137000E40600201B030020CA0200200988A1EB1C
:1013800080000A2190FBF1F03030FE490873FE48DE
:1013900000880A2190FBF1F000EB8000FA490978FF
:1013A000A1EB40003030F74988731621F548FFF76C
:1013B000A1FDB6E012E00E21F448FFF79BFD0020EE
:1013C000FEF7B4FFF2490978C1EBC10101EB41011D
:1013D000F04A88181521FFF78DFDA2E000210920B1
:1013E00003F0F2F9EC49087008460078012804D1AE
:1013F0001521EA48FFF77EFD89E00E21E848FFF756
:1014000079FD1E21062003F0DFF90021112003F0F1
:10141000DBF9482003F088F84C2003F085F85220CF
:1014200003F082F8DF480088642190FBF1F030304F
:10143000DD498873DB480088642190FBF1F000EB04
:10144000C00101EB0010D7490988A1EB80000A21F7
:1014500090FBF1F03030D449C873D24800880A219B
:1014600090FBF1F000EB8000CE490978A1EB400041
:101470003030CD490874CB484088642190FBF1F0AE
:101480003030C9498872C7484088642190FBF1F028
:1014900000EBC00101EB0010C2494988A1EB8000BC
:1014A0000A2190FBF1F03030BF49C872BD48408836
:1014B0000A2190FBF1F000EB8000BA498978A1EB9A
:1014C00040003030B8490873B648007A8874B5488F
:1014D000407AC874B348807A0875B248C07A4875B3
:1014E000B048007B8875AF48407BC875502088772E
:1014F0004120C877552081F82000532081F8210031
:10150000452081F822002C21A748FFF7F3FC08E0D2
:101510000E219E48FFF7EEFC1121A448FFF7EAFCDC
:1015200000BF00BFA24890F90000002801DD2B2079
:1015300000E02D209F4948729D4890F90000002846
:1015400006DD9B4890F900000A2190FBF1F006E0CF
:10155000974890F9000040420A2190FBF1F03030AA
:1015600094498872924890F9000000280DDD904857
:1015700090F900000A2190FBF1F000EB80008C490B
:1015800091F90010A1EB40000EE0894890F90000AD
:1015900040420A2190FBF1F000EB8000844991F970
:1015A00000104942A1EB400030308249C87220212E
:1015B0008048FFF79FFC8048006840F400207E4987
:1015C000086062207D49087000207D4908707D48D0
:1015D000006900F4805000287ED07B480078022803
:1015E0007BD17A48007820B1012858D0022855D103
:1015F00059E065480088401C634908800846008817
:10160000B0F5876F02DB40F2523008805E480088F8
:10161000FFF74EFC03F09EF95B4800884FF47A71A7
:1016200090FBF1F0303057498872574800884FF4EA
:101630007A7190FBF1F000EB4001C1EBC010524910
:101640000988A1EBC000642190FBF1F030304D49D6
:10165000C8724D480088642190FBF1F000EBC00196
:1016600001EB001048490988A1EB80000A2190FB9A
:10167000F1F0303043490873434800880A2190FB59
:10168000F1F000EB800040490978A1EB40003030D8
:101690003C49887316213B48FFF72CFCA1E002204F
:1016A000FEF744FE9DE001204949087002F03CFF2E
:1016B0004C2002F039FF522002F036FF422002F0A7
:1016C00033FF38484088642190FBF1F030303649D0
:1016D00088723448408801E004E183E0642190FB93
:1016E000F1F000EBC00101EB00102E494988A1EB9D
:1016F00080000A2190FBF1F030302B49C872294854
:1017000040880A2190FBF1F000EB800025498978A0
:10171000A1EB40003030244908732248007A8874D5
:101720002048407AC8741F48807A08751D48C07ADE
:1017300048751C48007B88751A48407BC87524484A
:10174000007801280DD1502088774C20C87741209F
:1017500081F82000592081F82100202081F8220002
:101760003AE01B480078022836D150200E4988778D
:101770004120C877552081F82000532081F82100AE
:10178000452027E0600200209A0600207803002010
:101790009C060020760200209806002047030020C7
:1017A0006A030020E40600201B030020CA02002078
:1017B0009F060020DB02002018040240C206002021
:1017C00096060020000002408C0600208E060020B5
:1017D0009D06002081F822002C21F948FFF78AFBA2
:1017E00000BF00BFF748007804287BD1F648007896
:1017F000052876D2DFE800F0031C2A435C00F3489A
:101800000078401C40B2F1490870084690F9000089
:10181000022801DD02200870EC4991F9001001EB6B
:101820004101EB4A02EB01103021FFF763FB58E066
:101830000120E849087091F9001001EB4101E44AE8
:1018400002EB01103021FFF755FB4AE0E248007837
:10185000401C40B2E0490870084690F90000022898
:1018600001DD02200870DC4991F9001001EB410113
:10187000D74A02EB01103021FFF73CFB31E0D7489B
:101880000078401C40B2D5490870084690F9000025
:10189000022801DD02200870D04991F9001001EB07
:1018A0004101CB4A02EB01103021FFF723FB18E086
:1018B000CB480078401C40B2C9490870084690F9EE
:1018C0000000032801DD00200870C54991F90010CF
:1018D00001EB4101C34A02EB01103021FFF70AFB83
:1018E00000BF00BFC048006900F40040002879D064
:1018F000B4480078022875D1BC480078F0B30128BC
:1019000004D0022806D003286BD13CE00120FEF76A
:101910000DFD66E0B6480078012818D10E2002F0CF
:1019200003FE0220B24908705020A5498877412063
:10193000C877552081F82000532081F821004520E8
:1019400081F822002C219E48FFF7D4FA19E00D20DF
:1019500002F0EAFD0120A6490870502098498877D6
:101960004C20C877412081F82000592081F82100BF
:10197000202081F822002C21914800E002E0FFF7AE
:10198000B9FA2EE000BF9B480078B0B10020994919
:1019900008708DF80000984894490978405C8DF8EB
:1019A0000100022269468820FEF7A4FD93490870D1
:1019B00020219348FFF79EFA13E001208D4908701B
:1019C00000208DF8000007208DF8010002226946F2
:1019D0008820FEF78FFD8949087020218948FFF78C
:1019E00089FA00BF8048006900F4006000287DD0BB
:1019F0007448007802287AD17C48007820B1012808
:101A00005AD0022857D15BE07F480088401E7E49AB
:101A100008800846008840F25231884203DC4FF4C7
:101A200087607949088078480088FFF741FA02F01A
:101A300091FF754800884FF47A7190FBF1F03030D7
:101A400072498872704800884FF47A7190FBF1F007
:101A500000EB4001C1EBC0106B490988A1EBC0004D
:101A6000642190FBF1F030306849C8726648008804
:101A7000642190FBF1F000EBC00101EB0010624922
:101A80000988A1EB80000A2190FBF1F030305F491A
:101A900008735D4800880A2190FBF1F000EB80009C
:101AA00059490978A1EB4000303058498873162114
:101AB0005648FFF71FFA79E00320FEF737FC75E080
:101AC00001204B490870022002F02EFD4C2002F04C
:101AD0002BFD522002F028FD422002F025FD4C484B
:101AE0004088642190FBF1F0303001E0D7E05EE007
:101AF0003349887246484088642190FBF1F000EB3E
:101B0000C00101EB001042494988A1EB80000A2185
:101B100090FBF1F030302A49C8723D4840880A21D4
:101B200090FBF1F000EB800039498978A1EB40008F
:101B30003030234908733648007A88743448407A34
:101B4000C8743348807A08753148C07A487530487F
:101B5000007B88752E48407BC87525480078012891
:101B60000DD1502088774C20C877412081F8200083
:101B7000592081F82100202081F8220011E01C4822
:101B8000007802280DD150200D4988774120C87770
:101B9000552081F82000532081F82100452081F84C
:101BA00022002C210648FFF7A5F900BF00BF054819
:101BB0000078042873D104480078052847D229E02A
:101BC0001B0300208C0600209006002091060020B8
:101BD00003040020920600209306002094060020B3
:101BE0009506002093040020000002408E0600208D
:101BF0009D060020A0060020165000089706002031
:101C0000DB020020FB0200209A0600206002002078
:101C1000E4060020DFE800F0031C2A445D00FD48D4
:101C20000078401E40B2FB490870084690F9000059
:101C3000002801DA00200870F64991F9001001EB44
:101C40004101F54A02EB01103021FFF753F959E049
:101C50000020F249087091F9001001EB4101EE4AB1
:101C600002EB01103021FFF745F94BE0EC4800781A
:101C7000401E40B2EA490870084690F9000000286A
:101C800001DA00200870E64991F9001001EB4101EA
:101C9000E14A02EB01103021FFF72CF932E032E08B
:101CA000E0480078401E40B2DE490870084690F9CE
:101CB0000000002801DA00200870DA4991F90010CC
:101CC00001EB4101D44A02EB01103021FFF712F978
:101CD00018E0D5480078401E40B2D3490870084645
:101CE00090F90000002801DA03200870CE4991F92C
:101CF000001001EB4101CD4A02EB01103021FFF74A
:101D0000F9F800BF00BFCA48006800F480600028EE
:101D100073D0C8480078022870D10020C6490870E6
:101D2000C6480078401C40B2C4490870084690F983
:101D300000000F2801DD0F20087002F00BFE0020CC
:101D40008DF80000BE48BF490978405C8DF801005D
:101D5000022269468820FEF7CDFBBB4908700320AC
:101D60008DF80000B54890F90000002803DDB34865
:101D700090F9000004E0B14890F90000C0F11000B3
:101D8000C0B28DF80100022269468820FEF7B2FB3E
:101D9000AD490870A94890F90000002801DD2B200A
:101DA00000E02D20A9494872A44890F900000028BD
:101DB00006DDA24890F900000A2190FBF1F006E050
:101DC0009E4890F9000040420A2190FBF1F030302B
:101DD0009E498872994890F9000000280FDD9748C5
:101DE00090F900000A2190FBF1F000EB800093498C
:101DF00091F90010A1EB400010E099E015E08F4848
:101E000090F9000040420A2190FBF1F000EB8000C5
:101E10008A4991F900104942A1EB400030308B49CA
:101E2000C87220218948FFF765F8824800780428A5
:101E30007ED18748007805287BD2DFE800F003B523
:101E4000E9E8E700734890F9000020B1012855D077
:101E5000022852D178E07F484078401C7D49487084
:101E600008464078032801DD03204870794840780F
:101E700030B1012813D0022820D003283CD12CE017
:101E8000202075494872462088724C20C872412033
:101E900008735420487320208873C8732CE02020D6
:101EA0006D494872342088723020C872087320202F
:101EB0004873482088737A20C8731DE02020664943
:101EC0004872382088723020C87208732020487306
:101ED000482088737A20C8730EE032205E49487229
:101EE000342088723020C87208732020487348203C
:101EF00088737A20C87300BF00BF33E0554800786C
:101F000018B900205349087004E052480078401E78
:101F1000504908704F4800780A2190FBF1F03030AA
:101F20004D4988774B4800780A2190FBF1F001E099
:101F3000F8E309E200EB800046490978A1EB400094
:101F400030304549C8770DE0002042498870202094
:101F5000414981F830004F2081F831004E2081F84E
:101F6000320000BF00BF01208DF800003948007822
:101F700000F00F0037494978302202EA0111084386
:101F800034498978402202EA811108438DF8010022
:101F9000022269468820FEF7ADFA2B4908703721E6
:101FA0002D48FEF7A7FFCFE11C48007868BB2B48FF
:101FB0004078401C2949487008464078032801DDD4
:101FC000032048702548407800EBC00101EB001069
:101FD0000A2190FBF1F03030214988721F48407887
:101FE00000EBC00101EB00100A2190FBF1F000EBC7
:101FF00080001A49497801EBC10202EB0111A1EB03
:10200000400030301649087366E02BE0A8E29CE1FE
:102010008FE00000910600200304002092060020BB
:1020200093060020940600209506002093040020CB
:10203000100802408C060020A00600209F06002009
:10204000165000088E06002097060020DB020020B4
:1020500090060020A606002053050020A9060020B7
:102060008A050020FE480078401C40B2FC490870F8
:10207000084690F900000F2801DD0F200870F8488D
:1020800090F90000002801DD2B2000E02D20F5490B
:102090004877F34991F900100A2291FBF2F00028E9
:1020A00001DB014600E041423031EE4A9177EC49D4
:1020B00091F900100A2291FBF2F101EB8101E84A4B
:1020C00092F90020A2EB4100002801DB014600E06C
:1020D00041423031E34AD17704208DF80000E049D5
:1020E00091F90010002905DDDD4991F9001041F05A
:1020F000100107E0DA4991F90000002801DB0146F0
:1021000000E04142D64A5278602303EA421242F08C
:1021100080021143C9B28DF801100222694688205D
:10212000FEF7E8F9D04908702721CE48FEF7E2FE15
:10213000E9E3CE4890F9000020B1012833D002280D
:1021400030D16BE0CA484078401CC9494870084605
:102150004078032801DD03204870C5484078401CC2
:1021600000EB80000A2190FBF1F03030C149487249
:10217000BF484078401C00EB80000A2190FBF1F042
:1021800000EB8001BA484078401C00EB8000A0EBD7
:1021900041003030B7498872B5484078032801D1F2
:1021A000352088728BE0B2480078401C40B2B049BC
:1021B0000870084690F900000F2801DD0F20087014
:1021C000AB4890F90000002801DD2B2000E02D2015
:1021D000A8494877A64991F900100A2291FBF2F02C
:1021E000002801DB014600E041423031A14A9177ED
:1021F0009F4991F900100A2291FBF2F101EB810154
:102200009B4A92F90020A2EB4100002801DB014625
:1022100000E041423031974AD17750E094488078CD
:10222000401C9349887008468078032801DD03200C
:1022300088708F48807800EBC00101EB00103230CD
:10224000642190FBF1F030308A4981F830008848F1
:10225000807800EBC00101EB00103230642190FB6C
:10226000F1F000EBC00101EB00118148807800EB38
:10227000C00202EB00103230A0EB81000A2190FB7B
:10228000F1F030307B4981F832007948807800EBFA
:10229000C00101EB001032300A2190FBF1F000EB9D
:1022A00080017348807800EBC00202EB00103230EE
:1022B000A0EB410030306F4981F8330000BF00BF10
:1022C00005208DF800006A4991F90010002905DD0C
:1022D000674991F9001041F0100107E0644991F954
:1022E0000000002801DB014600E0414201F01F012F
:1022F0005F4A9278602303EA421211438DF801107D
:10230000022269468820FEF7F5F857490870082030
:102310008DF8000058484078302101EA001040F064
:10232000C000534949780C2202EA810108438DF824
:102330000100022269468820FEF7DCF84A4908704D
:1023400038214C48FEF7D6FDDDE24C4890F90000FC
:1023500020B1012831D002282ED169E046484078CA
:10236000401C4549487008464078032801DD032099
:1023700048704148407830B101280AD002280ED078
:10238000032818D111E020203D4948723620887278
:1023900011E020203A494872382088720BE0312041
:1023A000374948723020887205E03220344948723B
:1023B0003020887200BF00BF8EE02F480078401C9C
:1023C00040B22D490870084690F900000F2801DD41
:1023D0000F200870284890F90000002801DD2B200C
:1023E00000E02D2026490877234991F900100A22A0
:1023F00091FBF2F0002801DB014600E04142303160
:102400001F4A51771C4991F900100A2291FBF2F101
:1024100001EB8101184A92F90020A2EB410000284B
:1024200001DB014600E041423031154A917753E02B
:1024300011488078401C104988700846807803282D
:1024400001DD0320887031200D4981F82F000A48F2
:10245000807800EBC00101EB00100A2112E00000BF
:10246000A90600208A050020970600209306002078
:10247000AB060020B1050020AE0600209406002027
:10248000E905002090FBF1F03030F84981F8310087
:10249000F748807800EBC00101EB00100A2190FBA7
:1024A000F1F000EB8000F249897801EBC10202EB08
:1024B0000111A1EB40003030EC4981F83200EC48CA
:1024C0008078032807D1322081F82F00302081F84E
:1024D000310081F8320000BF00BF06208DF80000F7
:1024E000E34991F90010002905DDE14991F9001057
:1024F00041F0100107E0DE4991F90000002801DBFE
:10250000014600E0414201F01F01D94A9278602360
:1025100003EA421211438DF8011002226946882015
:10252000FDF7E8FFD349087008208DF80000D04877
:102530004078302101EA0010CF4949780C2202EAA4
:10254000810108438DF80100022269468820FDF7C9
:10255000D1FFC84908703721C448FEF7CBFCD2E14F
:10256000C64890F9000030B1012874D0022871D01B
:1025700003286DD141E1C2480078401C40B2C049F7
:102580000870084690F900000F2801DD0F20087040
:102590000A208DF80000BA4890F90000002803DDF9
:1025A000B74890F9000004E0B54890F90000C0F188
:1025B0001000C0B28DF80100022269468820FDF7A4
:1025C00099FFAC490870AE4890F90000002801DD81
:1025D0002B2000E02D20AB494872A94890F900005B
:1025E000002806DDA64890F900000A2190FBF1F0D2
:1025F00006E0A34890F9000040420A2190FBF1F068
:102600003030A04988729E4890F9000000280DDD06
:102610009B4890F900000A2190FBF1F000EB80004C
:10262000974991F90010A1EB40000EE0944890F911
:10263000000040420A2190FBF1F000EB800090493D
:1026400091F900104942A1EB400030308D49C87229
:102650004CE100E067E08A484078401C40B288497D
:102660004870084690F901000F2801DD0F204870DE
:102670000B208DF80000824890F90100002803DD4E
:102680007F4890F9010004E07D4890F90100C0F115
:102690001000C0B28DF80100794890F901000028BF
:1026A00001DD2B2000E02D2076494876744890F912
:1026B0000100002806DD724890F901000A2190FB14
:1026C000F1F006E06E4890F9010040420A2190FBCB
:1026D000F1F030306B498876694890F901000028A4
:1026E0000DDD674890F901000A2190FBF1F000EB45
:1026F0008000634991F90110A1EB40000EE06048B1
:1027000090F9010040420A2190FBF1F000EB8000BB
:102710005B4991F901104942A1EB40003030594921
:10272000C876E3E0F2E056488078401C40B2544955
:102730008870084690F902000F2801DD0F2088708C
:102740000C208DF800004E4890F90200002803DDAF
:102750004B4890F9020004E0494890F90200C0F1AA
:102760001000C0B28DF80100454890F90200002821
:1027700001DD2B2000E02D20424981F8290040484E
:1027800090F90200002806DD3D4890F902000A2178
:1027900090FBF1F006E03A4890F9020040420A212D
:1027A00090FBF1F03030374981F82A00344890F935
:1027B000020000280DDD324890F902000A2190FB4A
:1027C000F1F000EB80002E4991F90210A1EB4000DE
:1027D0000EE02B4890F9020040420A2190FBF1F0F4
:1027E00000EB8000264991F902104942A1EB40001C
:1027F0003030244981F82B0078E02148C078401C13
:1028000040B21F49C870084690F903000F2801DD47
:102810000F20C8700D208DF80000194890F90300B2
:10282000002803DD164890F9030004E0144890F9ED
:102830000300C0F11000C0B28DF80100104890F9FB
:102840000300002801DD2B2000E02D200D4981F838
:1028500039000B4890F90300002815DD084890F96D
:1028600003000A2190FBF1F015E00000E9050020CB
:10287000AE06002097060020AB060020950600203B
:10288000B106002020060020FE4890F903004042D7
:102890000A2190FBF1F03030FB4981F83A00F94809
:1028A00090F9030000280DDDF64890F903000A2195
:1028B00090FBF1F000EB8000F24991F90310A1EBDD
:1028C00040000EE0EF4890F9030040420A2190FBDF
:1028D000F1F000EB8000EB4991F903104942A1EBC4
:1028E00040003030E84981F83B0000BF00BF0222C1
:1028F00069468820FDF7FEFDE44908704021E24862
:10290000FEF7F8FA00BF00BF02F024F8E0480068C4
:1029100000F40060002874D0DE480078022871D1ED
:102920000020DD490870DD480078401E40B2DB49D8
:102930000870084690F9000010F14F0F01DAB1203D
:10294000087002F007F800208DF80000D448D5493F
:102950000978405C8DF80100022269468820FDF765
:10296000C9FDCA49087003208DF80000CB4890F9D2
:102970000000002803DDC94890F9000004E0C748C2
:1029800090F90000C0F11000C0B28DF801000222E1
:1029900069468820FDF7AEFDBC490870BF4890F934
:1029A0000000002801DD2B2000E02D20BE494872E8
:1029B000BA4890F90000002806DDB84890F90000F8
:1029C0000A2190FBF1F006E0B44890F90000404283
:1029D0000A2190FBF1F03030B3498872AF4890F98A
:1029E000000000280FDDAD4890F900000A2190FB9F
:1029F000F1F000EB8000A94991F90010A1EB400033
:102A000010E099E015E0A54890F9000040420A2145
:102A100090FBF1F000EB8000A04991F900104942D1
:102A2000A1EB40003030A049C87220219E48FEF73B
:102A300061FA9848007804287ED19C4800780528DF
:102A40007BD2DFE800F003B4E9E8E700984890F9AA
:102A5000000020B1012856D0022853D178E09548D3
:102A6000407818B900209349487004E091484078B4
:102A7000401E904948708F48407830B1012813D0EB
:102A8000022820D003283CD12CE020208A4948721B
:102A9000462088724C20C872412008735420487325
:102AA00020208873C8732CE020208349487234208A
:102AB00088723020C87208732020487348208873B9
:102AC0007A20C8731DE020207B4948723820887224
:102AD0003020C872087320204873482088737A20F9
:102AE000C8730EE032207449487234208872302056
:102AF000C872087320204873482088737A20C873EE
:102B000000BF00BF31E06B480078401C6949087085
:102B1000084600780F2801DD0F200870654800780E
:102B20000A2190FBF1F030306349887761480078E2
:102B30000A2190FBF1F001E0F3E307E200EB8000F3
:102B40005C490978A1EB400030305B49C8770CE064
:102B50000120584988704F20574981F8300046209D
:102B600081F8310081F8320000BF00BF01208DF8EC
:102B700000005048007800F00F004E49497830229C
:102B800002EA011108434B498978402202EA811187
:102B900008438DF80100022269468820FDF7AAFC4F
:102BA0003A49087037214448FEF7A4F9CEE143487A
:102BB000007870BB4248407818B9002040494870FE
:102BC00004E03F484078401E3D4948703C4840780A
:102BD00000EBC00101EB00100A2190FBF1F0303056
:102BE000384988723648407800EBC00101EB00108C
:102BF0000A2190FBF1F000EB80013148407800EBB6
:102C0000C00202EB0010A0EB410030302D490873E8
:102C100061E002E0A8E29AE18AE029480078401EDB
:102C200040B227490870084690F9000010F10F0FD4
:102C300001DAF1200870224890F90000002801DD37
:102C40002B2000E02D201F4948771D4991F90010E5
:102C50000A2291FBF2F0002801DB014600E041422C
:102C60003031184A9177164991F900100A2291FBE8
:102C7000F2F101EB8101124A92F90020A2EB41002E
:102C8000002821E0B1060020200600209706002041
:102C9000100802408C060020A00600209F0600209D
:102CA000165000088E060020DB020020900600204F
:102CB00091060020A6060020530500209206002061
:102CC000A90600208A05002001DB014600E0414200
:102CD0003031FE4AD17704208DF80000FC4991F98B
:102CE0000010002905DDFA4991F9001041F01001AA
:102CF00007E0F74991F90000002801DB014600E0F8
:102D00004142F34A5278602303EA421242F08002C1
:102D10001143C9B28DF80110022269468820FDF7DF
:102D2000E9FBEC4908702721E848FEF7E3F8DCE30B
:102D3000E94890F9000020B1012834D0022831D1AF
:102D40006DE0E648407818B90020E449487004E096
:102D5000E2484078401EE1494870E0484078401C15
:102D600000EB80000A2190FBF1F03030DC49487222
:102D7000DA484078401C00EB80000A2190FBF1F01B
:102D800000EB8001D5484078401C00EB8000A0EBB0
:102D900041003030D2498872D0484078032801D1B0
:102DA000352088728DE0CD480078401E40B2CB4976
:102DB0000870084690F9000010F10F0F01DAF120B9
:102DC0000870C64890F90000002801DD2B2000E0C3
:102DD0002D20C3494877C14991F900100A2291FB7F
:102DE000F2F0002801DB014600E041423031BC4AEC
:102DF0009177BA4991F900100A2291FBF2F101EBA7
:102E00008101B64A92F90020A2EB4100002801DBC3
:102E1000014600E041423031B14AD17751E0AF483C
:102E2000807818B90020AD49887004E0AB488078FC
:102E3000401EAA498870A948807800EBC00101EBC8
:102E400000103230642190FBF1F03030A44981F859
:102E50003000A248807800EBC00101EB0010323056
:102E6000642190FBF1F000EBC00101EB00119B48E5
:102E7000807800EBC00202EB00103230A0EB810042
:102E80000A2190FBF1F03030954981F832009348E7
:102E9000807800EBC00101EB001032300A2190FB7A
:102EA000F1F000EB80018D48807800EBC00202EB6E
:102EB00000103230A0EB41003030894981F83300F6
:102EC00000BF00BF05208DF80000844991F9001073
:102ED000002905DD814991F9001041F0100107E05A
:102EE0007E4991F90000002801DB014600E04142E3
:102EF00001F01F01794A9278602303EA42121143DC
:102F00008DF80110022269468820FDF7F3FA714915
:102F1000087008208DF8000072484078302101EADE
:102F2000001040F0C0006D4949780C2202EA81018E
:102F300008438DF80100022269468820FDF7DAFA7D
:102F40006449087038216648FDF7D4FFCDE2664831
:102F500090F9000020B1012832D002282FD16BE077
:102F60006048407818B900205E49487004E05D4828
:102F70004078401E5B4948705A48407830B101287B
:102F80000AD002280ED0032818D111E0202057497A
:102F900048723620887211E0202054494872382047
:102FA00088720BE03120514948723020887205E068
:102FB00032204E4948723020887200BF00BF7CE04A
:102FC00048480078401E40B246490870084690F9CB
:102FD000000010F10F0F01DAF1200870414890F95C
:102FE0000000002801DD2B2000E02D203F4908775C
:102FF0003C4991F900100A2291FBF2F0002801DB14
:10300000014600E041423031384A5177354991F963
:1030100000100A2291FBF2F101EB8101314A92F991
:103020000020A2EB4100002801DB014600E0414204
:1030300030312E4A917740E02A48807818B9002034
:103040002849887004E027488078401E2549887008
:103050003120264981F82F002248807800EBC001FA
:1030600001EB00100A2190FBF1F030301F4981F88C
:1030700031001C48807800EBC00101EB00100A21F0
:1030800090FBF1F000EB80001649897801EBC1025A
:1030900002EB0111A1EB40003030144981F83200FD
:1030A00010488078032807D1322081F82F00302083
:1030B00081F8310081F8320000BF00BF06208DF892
:1030C0000000084991F90010002911E08A0500204C
:1030D000A90600209706002093060020AB060020DA
:1030E000B1050020AE06002094060020E90500206E
:1030F00005DDFE4991F9001041F0100107E0FB49A0
:1031000091F90000002801DB014600E0414201F096
:103110001F01F64A9278602303EA421211438DF8A8
:103120000110022269468820FDF7E4F9F049087091
:1031300008208DF80000ED484078302101EA0010A9
:10314000EC4949780C2202EA810108438DF801001C
:10315000022269468820FDF7CDF9E549087037213C
:10316000E548FDF7C7FEC0E1E44890F9000030B142
:1031700001286CD002287DD0032867D13DE1E048CA
:103180000078401E40B2DE490870084690F9000001
:1031900010F14F0F01DAB12008700A208DF80000FD
:1031A000D74890F90000002803DDD54890F90000C9
:1031B00004E0D34890F90000C0F11000C0B28DF8CF
:1031C0000100CF4890F90000002801DD2B2000E02D
:1031D0002D20CC494872CA4890F90000002806DD2D
:1031E000C74890F900000A2190FBF1F006E0C448BE
:1031F00090F9000040420A2190FBF1F03030C149C3
:103200008872BF4890F9000000280DDDBC4890F995
:1032100000000A2190FBF1F000EB8000B84991F921
:103220000010A1EB40000EE0B54890F900004042CC
:103230000A2190FBF1F000EB8000B14991F90010F8
:103240004942A1EB40003030AE49C87240E1AC4881
:103250004078401E40B2AA494870084690F90100E3
:1032600010F14F0F01DAB12048700B208DF80000EB
:10327000A34800E056E090F90100002803DDA048D3
:1032800090F9010004E09E4890F90100C0F110009F
:10329000C0B28DF801009A4890F90100002801DDC4
:1032A0002B2000E02D2097494876954890F90100A1
:1032B000002806DD924890F901000A2190FBF1F008
:1032C00006E08F4890F9010040420A2190FBF1F09E
:1032D00030308C4988768A4890F9010000280DDD4D
:1032E000874890F901000A2190FBF1F000EB800083
:1032F000834991F90110A1EB40000EE0804890F95C
:10330000010040420A2190FBF1F000EB80007C4973
:1033100091F901104942A1EB400030307949C8765B
:10332000D6E0F4E076488078401E40B27449887058
:10333000084690F9020010F14F0F01DAB1208870B1
:103340000C208DF800006E4890F90200002803DD83
:103350006B4890F9020004E0694890F90200C0F15E
:103360001000C0B28DF80100654890F902000028F5
:1033700001DD2B2000E02D20624981F82900604802
:1033800090F90200002806DD5D4890F902000A214C
:1033900090FBF1F006E05A4890F9020040420A2101
:1033A00090FBF1F03030574981F82A00544890F9E9
:1033B000020000280DDD524890F902000A2190FB1E
:1033C000F1F000EB80004E4991F90210A1EB4000B2
:1033D0000EE04B4890F9020040420A2190FBF1F0C8
:1033E00000EB8000464991F902104942A1EB4000F0
:1033F0003030444981F82B006AE04148C078401ED3
:1034000040B23F49C870084690F9030010F14F0FD1
:1034100001DAB120C8700D208DF80000384890F90D
:103420000300002803DD364890F9030004E0344827
:1034300090F90300C0F11000C0B28DF801003048CF
:1034400090F90300002801DD2B2000E02D202D49FC
:1034500081F839002A4890F90300002806DD284841
:1034600090F903000A2190FBF1F006E0244890F95E
:10347000030040420A2190FBF1F03030214981F8ED
:103480003A001F4890F9030000280DDD1C4890F910
:1034900003000A2190FBF1F000EB8000184991F93C
:1034A0000310A1EB40000EE0154890F903004042E4
:1034B0000A2190FBF1F000EB8000114991F9031013
:1034C0004942A1EB400030300E4981F83B0000BF7B
:1034D00000BF022269468820FDF70CF804490870F5
:1034E00040210848FDF706FD00BF0DE0AE060020B4
:1034F00097060020AB060020E90500209506002075
:10350000B10600202006002000BF01F023FAFE488B
:10351000006900F4007098B3FC48007803282FD1AC
:10352000FB48007807287CD2DFE800F0042BA55286
:103530007CCEEE00F7480078401CF649087008463B
:103540000078182801DB00200870F24800780A2172
:1035500090FBF1F03030F0494872EE4800780A21D3
:1035600090FBF1F000EB8000EA490978A1EB400004
:103570003030E94988720F21E748FDF7BBFC6DE167
:103580006DE1E6480078401CE44908700846007880
:103590003C2801DB00200870E04800780A2190FBFD
:1035A000F1F03030DC490876DC4800780A2190FBE5
:1035B000F1F000EB8000D9490978A1EB40003030F0
:1035C000D54948760F21D4480F30FDF793FC45E1EB
:1035D000D3480078401CD2490870084600780D286E
:1035E00001DB01200870CE4800780A2190FBF1F041
:1035F0003030C94981F82700C94800780A2190FB7A
:10360000F1F000EB8000C6490978A1EB40003030B2
:10361000C14981F828000F21BF481E30FDF76AFC20
:103620001CE11AE1BF480078401CBE4908700846FA
:103630000078202801DB01200870BA4800780A21B0
:1036400090FBF1F03030B44981F83600B54800788D
:103650000A2190FBF1F000EB8000B2490978A1EB60
:1036600040003030AC4981F837000F21AA482D3096
:10367000FDF740FCF2E0AC480078401CAA49087015
:10368000084600781E2801DB12200870A648007842
:103690000A2190FBF1F030309F4981F84500A248A3
:1036A00000780A2190FBF1F000EB80009E49097838
:1036B000A1EB40003030984981F846000F21964830
:1036C0003C30FDF717FCC9E098480078401C97494A
:1036D000087008460078082801DB0120087093482C
:1036E0000078401E00EBC000914908448A490268F6
:1036F0004A6542688A65007A81F85C00172186482D
:103700004B30FDF7F7FBA9E08A4800787F49087045
:103710008948006840F08050874908608748006801
:1037200040F4807085490860CA20854908605320AC
:10373000086083481838006840F0800080491839D4
:10374000086000BF7E481838006800F0400000287C
:10375000F8D0724800780A2190FBF1F000036F491D
:1037600009780A2291FBF2F101EB81016B4A127890
:10377000A2EB410140EA0120664909780A2291FB47
:10378000F2F140EA01506349097891FBF2F101EB53
:103790008101604A1278A2EB410140EA0140684988
:1037A000243908605F4800780A2190FBF1F000EBB3
:1037B00080005C490978A1EB40005A4909780A2247
:1037C00091FBF2F140EA01105549097891FBF2F1C1
:1037D00040EA01315248007890FBF2F000EB8000A3
:1037E0004F4A1278A2EB400041EA00204E49097886
:1037F0000A2291FBF2F140EA01504B49097891FB12
:10380000F2F101EB8101484A1278A2EB410140EA52
:1038100001404649097840EA413049492039086069
:1038200047481838006820F080004549183908607A
:10383000FF20434908604148006820F480703F49F8
:1038400008604049314A127801EB02101021FDF75F
:1038500051FB62203C49087000E000BF00BF2A48CD
:10386000006900F48070E8B328480078012804D08B
:10387000022803D003286BD11FE100BF2348007842
:103880002C4908700320214908702E491F4A1278DC
:1038900001EB02101021FDF72DFB00201C490870E0
:1038A000097801EB4101294A02EBC1001821FDF71B
:1038B00021FB234824380068C0F303402049243901
:1038C0000968C1F3015101EB810100EB410011498D
:1038D00008701B4824380068C0F3032018492439B5
:1038E000096800E001E1C1F3023101EB810100EB65
:1038F00041000A49087012482038006800F00F00A3
:103900000F492039096824E0000002408C0600209D
:103910008D060020BC060020C0010020BD0600204E
:10392000BE060020BF060020C1060020C006002001
:10393000210200208F060020403802400070004025
:10394000242800404C000020C2060020180100205E
:10395000C9E0C1F3011101EB810100EB4100FE4917
:103960000870FE480068C0F30320FC490968C1F3F1
:10397000003101EB810100EB4100F9490870F74883
:103980000068C0F30340F5490968C1F3035101EB36
:10399000810100EB4100F3490870F0480068C0F372
:1039A0004230F1490870F14800780A2190FBF1F0AB
:1039B0003030EF494872ED4800780A2190FBF1F071
:1039C00000EB8000E9490978A1EB40003030E8497C
:1039D0008872E84800780A2190FBF1F03030E44921
:1039E0000876E44800780A2190FBF1F000EB8000B3
:1039F000E0490978A1EB40003030DD494876D848ED
:103A000000780A2190FBF1F03030D94981F8270085
:103A1000D34800780A2190FBF1F000EB8000D049F8
:103A20000978A1EB40003030D14981F82800CA481C
:103A300000780A2190FBF1F03030CD4981F8360052
:103A4000C54800780A2190FBF1F000EB8000C249E4
:103A50000978A1EB40003030C54981F83700C148F2
:103A600000780A2190FBF1F03030C14981F845001F
:103A7000BC4800780A2190FBF1F000EB8000B949C6
:103A80000978A1EB40003030B94981F84600B348CD
:103A90000068C0F34230401E00EBC000B649084445
:103AA000B34902684A6542688A65007A81F85C0019
:103AB0006121AF48FDF71EFA16E0B0480078401CBF
:103AC000AE49087008460078062801DD002008701D
:103AD000AA49097801EB4101A94A02EBC10018216A
:103AE000FDF708FA00E000BF00BFA648006800F03C
:103AF000200000287ED0A448007802287BD1042032
:103B0000A14908700020A1490870097801EB8101E2
:103B10009F4A02EB81001421FDF7ECF90C219D482E
:103B2000FDF7E8F900209C49087091F9001001EBBD
:103B300041019A4A02EB01103021FDF7DBF9984868
:103B4000407830B1012813D0022820D003283CD17E
:103B50002CE0202093494872462088724C20C8727D
:103B6000412008735420487320208873C8732CE0C8
:103B700020208C494872342088723020C872087323
:103B800020204873482088737A20C8731DE02020C5
:103B900084494872382088723020C8720873202007
:103BA0004873482088737A20C8730EE032207D491C
:103BB0004872342088723020C872087320204873FD
:103BC000482088737A20C87300BF00BF744800780B
:103BD0000A2190FBF1F03030724988777048007804
:103BE0000A2190FBF1F000EB80006D490978A1EB10
:103BF000400001E07DE31DE030306A49C877684845
:103C0000807840B14F2081F83000462081F83100A3
:103C100081F8320009E02020624981F830004F200D
:103C200081F831004E2081F8320037215D48FDF7E0
:103C300061F95EE3544800780428FAD153480078CB
:103C4000042812D102205049087057494E4A127870
:103C500001EB02101021FDF74DF90C214D48FDF745
:103C600049F962205149087043E348480078401CF4
:103C700046490870097801EB8101454A02EB810051
:103C80001421FDF737F90C214248FDF733F93F487D
:103C90000078012806D002285AD0032859D00428D9
:103CA00058D1D6E100204249087091F9001001EB8B
:103CB00041013A4A02EB01103021FDF71BF93D4862
:103CC000407800EBC00101EB00100A2190FBF1F0FD
:103CD0003030394988723748407800EBC00101EB39
:103CE00000100A2190FBF1F000EB80013148407890
:103CF00000EBC00202EB0010A0EB410030302E4977
:103D000008732C4890F90000002801DD2B2000E00A
:103D10002D2029494877274991F900100A2291FB63
:103D2000F2F0002801DB014600E041423031224A36
:103D30009177204991F900100A2291FBF2F101EBF1
:103D400081011C4A92F90020A2EB4100002835E0D5
:103D500040E0E8E0CCE20000BF060020042800407C
:103D6000BE060020C1060020C0060020BC060020C0
:103D7000C0010020BD060020210200208D06002089
:103D800018010020100402408C060020900600203C
:103D90009F0300208C0000209106002003040020D7
:103DA000A6060020530500204C000020C20600207B
:103DB00092060020A90600208A05002001DB0146AA
:103DC00000E041423031F74AD17727211046FDF714
:103DD00091F88DE20020F449087091F9001001EB90
:103DE0004101F24A02EB01103021FDF783F8F0485F
:103DF0004078401C00EB80000A2190FBF1F030304D
:103E0000EC494872EA484078401C00EB80000A21E7
:103E100090FBF1F000EB8001E5484078401C00EB9E
:103E20008000A0EB41003030E2498872E0484078E1
:103E3000032801D135208872DD4890F90000002860
:103E400001DD2B2000E02D20DA494877D84991F98F
:103E500000100A2291FBF2F0002801DB014600E08D
:103E600041423031D34A9177D14991F900100A2269
:103E700091FBF2F101EB8101CD4A92F90020A2EB16
:103E80004100002801DB014600E041423031C94ACF
:103E9000D177C748807800EBC00101EB00103230C9
:103EA000642190FBF1F03030114681F83000C048B9
:103EB000807800EBC00101EB00103230642190FBF0
:103EC000F1F000EBC00101EB0011B948807800EB84
:103ED000C00202EB00103230A0EB81000A2190FBFF
:103EE000F1F03030B34981F83200B148807800EB0E
:103EF000C00101EB001032300A2190FBF1F000EB21
:103F00008001AB48807800EBC00202EB0010323039
:103F1000A0EB41003030A74981F833003821A54893
:103F2000FCF7E8FFE4E10020A349087091F90010D4
:103F300001EB41019D4A02EB01103021FCF7DAFF51
:103F40009E48407830B101280AD002280ED00328BC
:103F500018D111E020209A4948723620887211E069
:103F6000202097494872382088720BE0312094490C
:103F700048723020887205E0322091494872302022
:103F8000887200BF00BF8D4890F90000002801DD55
:103F90002B2000E02D208A490877884991F90010EC
:103FA0000A2291FBF2F0002801DB014600E04142C9
:103FB0003031834A5177814991F900100A2291FBEF
:103FC000F2F101EB81017D4A92F90020A2EB410060
:103FD000002801DB014600E041423031784A917708
:103FE0003120114681F82F007448807800EBC00121
:103FF00001EB00100A2190FBF1F03030114681F8FE
:1040000031006E48807800EBC00101EB00100A21FE
:1040100090FBF1F000EB80006849897801EBC10268
:1040200002EB0111A1EB40003030654981F832000C
:1040300062488078032807D1322081F82F00302091
:1040400081F8310081F8320037215D48FCF752FFDA
:104050004EE100205B49087091F9001001EB41012D
:10406000594A02EB01103021FCF744FF554991F900
:10407000001001EB4101544A02EB01103021FCF722
:1040800039FF524890F90000002801DD2B2000E0A4
:104090002D204F4948724D4890F90000002806DD58
:1040A0004A4890F900000A2190FBF1F006E04748E9
:1040B00090F9000040420A2190FBF1F03030444971
:1040C0008872424890F9000000280DDD3F4890F9C1
:1040D00000000A2190FBF1F000EB80003B4991F9D0
:1040E0000010A1EB40000EE0384890F9000040427B
:1040F0000A2190FBF1F000EB8000344991F90010A7
:104100004942A1EB400030303149C8722F4890F944
:104110000100002801DD2B2000E02D202C494876ED
:104120002A4890F90100002806DD284890F901008E
:104130000A2190FBF1F006E0244890F9010040428A
:104140000A2190FBF1F03030214988761F4890F920
:10415000010000280DDD1D4890F901000A2190FBA7
:10416000F1F000EB8000194991F90110A1EB40003A
:104170000EE0164890F9010040420A2190FBF1F050
:1041800000EB8000114991F901104942A1EB400078
:1041900030300F49C8760D4890F90200002819DD2B
:1041A0002B2018E08A05002093060020030400203D
:1041B000AB060020B105002094060020AE060020CA
:1041C000E90500209506002093040020B106002098
:1041D000200600202D20BB4981F82900BA4890F91B
:1041E0000200002806DDB84890F902000A2190FB81
:1041F000F1F006E0B44890F9020040420A2190FB39
:10420000F1F03030AF4981F82A00AF4890F9020050
:1042100000280DDDAC4890F902000A2190FBF1F076
:1042200000EB8000A84991F90210A1EB40000EE0DC
:10423000A54890F9020040420A2190FBF1F000EB02
:104240008000A14991F902104942A1EB40003030B1
:104250009C4981F82B009C4890F90300002801DD5F
:104260002B2000E02D20974981F83900964890F9DD
:104270000300002806DD944890F903000A2190FB12
:10428000F1F006E0904890F9030040420A2190FBCB
:10429000F1F030308B4981F83A008B4890F90300F7
:1042A00000280DDD884890F903000A2190FBF1F009
:1042B00000EB8000844991F90310A1EB40000EE06F
:1042C000814890F9030040420A2190FBF1F000EB95
:1042D00080007D4991F903104942A1EB4000303044
:1042E000784981F83B0040217648FCF703FE00BF87
:1042F00000BF76480078022803D07448007801286F
:104300007ED17348007864287ADB002070490870F9
:10431000FCF70CF86F480068C0F3032030306E499A
:1043200088736C480068C0F30230303048736948C5
:104330000068C0F303403030C87266480068C0F3BC
:104340000150303088726348001D006800F00F0093
:10435000303081F820005F48001D0068C0F3011074
:104360003030C8775B48001D0068C0F30320303050
:1043700081F823005748001D0068C0F3003030303A
:1043800081F822005348001D0068C0F3034030301C
:1043900081F826004F48001D0068C0F303503030FC
:1043A00081F825004B48001D0068C0F34230401ED4
:1043B00000EBC0004949084447492B3102680A60B4
:1043C00042684A60007A087238214348FCF792FD3F
:1043D0004348007802286DD1422000F0A5F84C2017
:1043E00000F0A2F8522000F09FF83E484088642177
:1043F00090FBF1F030303C4988723A48408800E048
:1044000058E0642190FBF1F000EBC00101EB0010DB
:1044100034494988A1EB80000A2190FBF1F030304B
:104420003149C8722F4840880A2190FBF1F000EB17
:1044300080002C498978A1EB400030302A4908736C
:104440002848007A88742748407AC8742548807ABA
:1044500008752448C07A48752248007B8875214831
:10446000407BC8752148007801280DD150208877FD
:104470004C20C877412081F82000592081F8210084
:10448000202081F8220011E01848007802280DD180
:104490005020154988774120C877552081F82000A1
:1044A000532081F82100452081F822002C210E485C
:1044B000FCF720FD0E48006840F000400C49086001
:1044C00008BD000020060020B10600208C06002058
:1044D000C206002000280040140000202102002015
:1044E0008E060020E40600201B0300209D0600200D
:1044F0001804024008B50A48006800F0100068B1CE
:1045000007480068009006484068009000BF0548D2
:10451000006920F001000349086100BF08BD0000E8
:10452000005000400060024030B5034600219F4823
:1045300083709F48006800F0200018B19C48001D5F
:104540000068C2B200200DE000BF994C246804F05E
:104550004004002CF9D0954C245C954D2D1D2C6009
:10456000441CE0B20428EFDB482B3DD00CDC0D2BC3
:1045700079D004DC012B77D0022B34D1F4E00E2B60
:1045800073D0422BF9D108E04C2B54D0502B6DD076
:10459000512B7CD0522BF0D1C7E0042421E0002124
:1045A00005E0491C8348814201D1012030BD80488B
:1045B000006800F020000028F3D07D48001D00684E
:1045C000C2B2612A01DB572000E03020101A651EBC
:1045D000AD00A840784D2D782843774D2870601E97
:1045E000C4B2002CDBDCD8E0042421E0002105E08B
:1045F000491C7048814201D10120D7E76C4800680E
:1046000000F020000028F3D06948001D0068C2B205
:10461000612A01DB572000E03020101A651EAD0032
:10462000A840664D2D882843644D2880601EC4B282
:10463000002CDBDCB1E0042426E0002105E0491C6D
:104640005C48814201D10120B0E75948006800F080
:1046500020000028F3D05648001D0068C2B2612A2D
:1046600006DB572005E07CE07DE07BE036E00EE0F5
:104670003020101A651EAD00A840504D6D882843AB
:104680004E4D6880601EC4B2002CD6DC85E0042448
:1046900021E0002105E0491C4648814201D101206A
:1046A00084E74348006800F020000028F3D0404829
:1046B000001D0068C2B2612A01DB572000E03020F3
:1046C000101A651EAD00A8403C4DED8828433B4DB7
:1046D000E880601EC4B2002CDBDC5EE0042421E034
:1046E000002105E0491C3348814201D101205DE7EA
:1046F0002F48006800F020000028F3D02C48001D4F
:104700000068C2B2612A01DB572000E03020101A95
:10471000651EAD00A840294DAD882843274DA880CF
:10472000601EC4B2002CDBDC37E0002416E0002160
:1047300005E0491C1F48814201D1012036E71C4891
:10474000006800F020000028F3D01948001D006820
:10475000C2B21A4808300255601CC4B20B2CE6DB0A
:104760001BE000BF00BF00BF002413E0002105E0F4
:10477000491C1348814201D1012017E70C48006809
:1047800000F020000028F3D00948001D0068C5B2E1
:10479000601CC4B2022CE9DB00BF00BF002000E0B7
:1047A000401C084CA042FBD30020FFE683060020FB
:1047B000004C004080841E009D060020E40600207E
:1047C00040420F0060EC530070B502460B460021DA
:1047D0002E488270C3702E48006800F0200018B187
:1047E0002B48001D0068C4B200200DE000BF284D1A
:1047F0002D6805F08005002DF9D0244D2D5C244E48
:10480000361D3560451CE8B20528EFDB092A1CD1AE
:10481000002517E0002105E0491C1E48814201D116
:10482000012070BD1A48006800F020000028F3D075
:104830001748001D0068C4B2532C01D10120F0E7D5
:10484000681CC5B2052DE5DB17E0002513E000214B
:1048500005E0491C0F48814201D10120E1E70C48E5
:10486000006800F020000028F3D00948001D00680F
:10487000C4B2681CC5B2022DE9DB002000E0401C78
:10488000054DA842FBD30020CBE70000870600209F
:10489000004C004080841E0020AA4400002809DB50
:1048A00000F01F02012191404209920002F1E02232
:1048B000C2F800117047000000B502460D480068BC
:1048C00040F002000B4908600846006840EAC20058
:1048D00008600846006840F48030086005E005483C
:1048E000006820F002000349086000F009F8002881
:1048F000F5D000BD103C024001460868704700003A
:1049000002480068012121EA104070470C3C024037
:1049100000B502460B460E48006840F001000C4905
:1049200008600846006840F40070086000BFFFF7A8
:10493000E7FF0028FBD0136000BFFFF7E1FF00286E
:10494000FBD00348006820F001000149086000BD69
:10495000103C024010B50320FFF7AEFF4E48007830
:1049600004280FD14D4800784FF0007141EA004013
:104970004B4991F900104FF47F4202EA012140EACD
:1049800001040FE04448007800064449097840EAF1
:104990000140434991F900104FF47F4202EA01219E
:1049A00040EA010421463F48FFF7B2FF3E48008835
:1049B000040421463B48001DFFF7AAFF3B488078CE
:1049C00000063A49497840EA0140384909784FF4ED
:1049D0007F4202EA012140EA0104214631481030B9
:1049E000FFF796FF324890F900004FF47F0101EA8B
:1049F00000402F49497840EA016421462948143093
:104A0000FFF786FF2B48807800062A49497840EA5C
:104A10000140284991F900104FF47F4202EA012138
:104A200040EA010421461F481830FFF771FF224871
:104A3000807800062049497840EA01401E4991F9F2
:104A400000104FF47F4202EA012140EA01042146AE
:104A500014481C30FFF75CFF184800784FF07F4186
:104A600001EA0060154991F901104FF47F0202EA52
:104A700001410843114991F90210121202EA012181
:104A800008430E49C97840EA010421460548203010
:104A9000FFF73EFF10BD00008C0600208E060020B0
:104AA0009F06002000C000089A060020A6060020ED
:104AB000A9060020AB060020AE060020B1060020AB
:104AC000FBF784FFFBF750FEFE48006840F008004B
:104AD000FC490860FC48006840F00050FA49086052
:104AE000F848006840F04000F6490860F748F84987
:104AF0000860F8480860FCF759F90721F648FCF708
:104B0000F9F9002000E0401CF4498842FBD3312031
:104B1000F3490872342048720D21F148FCF7EAF994
:104B2000FBF76AFD3220EE490872382048720D21E9
:104B3000EB48FCF7DFF9FBF7F3FF3420E849087294
:104B4000322048720D21E648FCF7D4F9FBF728FF24
:104B50003520E3490872362048720D21E048FCF701
:104B6000C9F9FBF7F1FE3720DD49087230204872A1
:104B70000D21DB48FCF7BEF9FBF7A6FD3820D8492C
:104B80000872342048720D21D548FCF7B3F9FCF7C0
:104B900037F900210920FFF717FED24908700846AF
:104BA000007858B91E210620FFF70EFECD49087087
:104BB00000211120FFF708FECA4908703920C849B2
:104BC0000872382048720D21C548FCF793F9C64891
:104BD000FFF792FE0446601C002863D0200EC349F4
:104BE0000870C148FFF788FE00F47F00000CC04940
:104BF0000870BD48FFF780FE000A40B2BD4908704A
:104C0000B948001DFFF778FE0446200CBA49088019
:104C1000B5481030FFF770FE0446200EB749887083
:104C200004F47F00000C487004F47F40000A087010
:104C3000AD481430FFF760FE0446200EB0494870BE
:104C4000200C40B20870A8481830FFF755FE044603
:104C5000200EAC49887004F47F00000C4870200AD4
:104C600040B20870A0481C30FFF746FE0446200EF4
:104C7000A549887004F47F00000C4870200A40B2F7
:104C8000087099482030FFF737FE0446200E40B2E6
:104C90009E490870200C40B24870200A40B28870CB
:104CA00060B2C8709A49914A127801EB0210102143
:104CB000FCF720F90C219748FCF71CF9FBF76CFF77
:104CC000954908708C480088FCF7F2F89249087002
:104CD0008648007802287DD19049854A127801EBF8
:104CE00042102021FCF706F9824890F900000028C4
:104CF00001DD2B2000E02D20894948727D4890F984
:104D00000000002806DD7B4890F900000A2190FB96
:104D1000F1F006E0774890F9000040420A2190FB4C
:104D2000F1F030307E498872724890F90000002816
:104D30000DDD704890F900000A2190FBF1F000EBC6
:104D400080006C4991F90010A1EB40000EE0694829
:104D500090F9000040420A2190FBF1F000EB800046
:104D6000644991F900104942A1EB400030306C4990
:104D7000C87220216A48FCF7BDF85D48007830B160
:104D800001284DD0022853D0032848D10BE15A48BE
:104D900000884FF47A7190FBF1F0303061498872ED
:104DA000554800884FF47A7190FBF1F000EB400118
:104DB000C1EBC01050490988A1EBC000642190FBF1
:104DC000F1F030305749C8724B480088642190FB9D
:104DD000F1F000E0F7E000EBC00101EB0010464904
:104DE0000988A1EB80000A2190FBF1F030304D4999
:104DF0000873414800880A2190FBF1F000EB800025
:104E00003D490978A1EB40003030464988730E21B6
:104E10004548FCF76FF816214248FCF76BF8CBE0E9
:104E20000E214148FCF766F80020FBF77FFAC3E04B
:104E30002C480078012804D115213C48FCF75AF889
:104E4000B0E04820FFF770FB4C20FFF76DFB5220CD
:104E5000FFF76AFB36480088642190FBF1F03030A0
:104E60003449887332480088642190FBF1F000EBEC
:104E7000C00101EB00102E490988A1EB80000A2136
:104E800090FBF1F030302B49C873294800880A2183
:104E900090FBF1F000EB800025490978A1EB400080
:104EA00030302449087422484088642190FBF1F096
:104EB0003030204988721E484088642190FBF1F010
:104EC0003AE0000018040240180802402301674538
:104ED000043C0240AB89EFCD000000208096980092
:104EE000070000209806002000C000088C06002063
:104EF0008E0600209F0600209A060020A6060020AD
:104F0000A9060020AB060020AE060020B106002056
:104F10004C0000208C000020970600209800002004
:104F2000DB020020600200207803002047030020FD
:104F3000E40600201B03002000EBC00101EB001081
:104F40002C494988A1EB80000A2190FBF1F0303018
:104F50002949C872274840880A2190FBF1F000EBEC
:104F6000800024498978A1EB400030302249087341
:104F70002048007A88741F48407AC8741D48807A97
:104F800008751C48C07A48751A48007B887519480E
:104F9000407BC8750E211948FBF7ACFF2C21164841
:104FA000FBF7A8FF08E00E211548FBF7A3FF11212E
:104FB0001448FBF79FFF00BF00BF1348006840F490
:104FC0000020114908603820FFF768FC2D20FFF70A
:104FD00065FC0D48006840F004000B490860FBF7D1
:104FE000CDFC0948006840F480000749086000BF14
:104FF000FEE70000E40600201B0300206A030020F7
:1050000078030020CA020020180402404FF04070CC
:10501000E1EE100A7047FAF9FCFB00003C50000872
:1050200000000020C4060000C4010008D852000897
:10503000C4060020940600002802000810127265C1
:105040007374FFFFFF6C6F642E76616C3D30300D22
:10505000101174696D652E7478743D2200003A0059
:105060000022205004646174133006202000002EBA
:1050700003122001200A6461796F667765656B25EC
:10508000100A70616765206C6F6164311200013134
:1050900010A005616F666610A0056D61696E105005
:1050A0000573657474103004766130851231914057
:1050B00004696E70705004464D220FA00B62636F3E
:1050C0003D30333438313520B3425420A0063134DA
:1050D00038343740A00455534241123641A238407B
:1050E000B004415558201405343531320411974528
:1050F000112510735F6898610C4118926D18726DDC
:10510000307004645F79C8610C41188130B264303A
:10511000926418926448927748727790619C61908B
:1051200031C8500430302287910FE2640FC2641EF0
:10513000C2790F62774B510121341405204D6F6EF7
:10514000E615EC2005547565730A30055765646EE5
:105150000A3005546875721230052046726908409D
:105160000653617475720A427536700574657874F9
:105170005644042E3020CF8116C008204E4F2044C4
:10518000657615D008436F6E6E6563742AE007502C
:105190004C4159202015D005415553451555D34054
:1051A00004766F6CFD60042D37391035E3A00535AA
:1051B00035333520B0044D5554205923B1BB162F3B
:1051C0000F33205F0129F8522079210A0110D159AB
:1051D0007431E6B007666F6E743D340EB2350E2939
:1051E000AE64044144432510042E30565E152D7ED6
:1051F000255303BC087464615F6C6F7557032114F9
:10520000E0057472656214F0046D696428E005625B
:105210006173733C7F73617703110AB518B004683A
:105220005F7110BC04635F663B030117205130714E
:10523000505130011720E1705578126C3069DF52FF
:10524000720C29F77C046C5F72030392720C926CEF
:105250002492723C012A30A160022D3130A190527B
:1052600031F03D7B04392D5004487A22F4498C11E9
:10527000133E64920425476127A2223700061731A6
:105280005F2E5F6B37915E199201215ED22E5F1106
:1052900038012937626C965D4503D272102565C1CD
:1052A00020C11020084154234D560D0A07424107E2
:1052B000424407424507A00F4A0D0A7E0200EF7ED6
:1052C000030000EF01000100081F10040002000F9E
:0852D000000103006200000070
:040000050800018965
:00000001FF
