:020000040800F2
:10000000180A002071020008790200087B0200082B
:100010007D0200087F020008810200080000000045
:100020000000000000000000000000008302000843
:100030008502000800000000870200080510000883
:100040008B0200088B0200088B0200088B0200085C
:100050008B0200088B0200088B0200088B0200084C
:100060008B0200088B0200088B020008D9030008ED
:10007000B50600088B0200088B0200088B020008FE
:100080008B0200088B0200088B0200088B0200081C
:100090008B0200088B0200088B0200088B0200080C
:1000A0008B0200088B0200088B0200088B020008FC
:1000B0008B0200088B0200088B0200088B020008EC
:1000C0008B0200088B0200088B0200088B020008DC
:1000D0008B0200088B0200088B020008E920000850
:1000E0008B0200088B0200088B0200088B020008BC
:1000F0008B020008B51000088B0200088B02000874
:100100008B0200088B0200088B0200088B0200089B
:100110008B0200088B0200088B0200088B0200088B
:100120008B0200088B0200088B0200088B0200087B
:100130008B02000800000000000000008B02000895
:100140008B0200088B0200088B0200088B0200085B
:100150008B0200088B0200088B0200088B0200084B
:100160008B0200088B0200088B0200088B0200083B
:100170008B0200088B020008000000000000000055
:100180008B0200088B02000800F002F800F060F813
:100190000AA090E8000C82448344AAF10107DA45E2
:1001A00001D100F055F8AFF2090EBAE80F0013F0D4
:1001B000010F18BFFB1A43F0010318473823000052
:1001C0005823000010F8013B0A4413F0030408BF51
:1001D00010F8014B1D1108BF10F8015B641E05D01B
:1001E00010F8016B641E01F8016BF9D1002D15D0D8
:1001F00010F8014B03F00C030C2BA1EB04040ABF15
:1002000010F8013BA4EB8314A4EB032405F10103D4
:1002100014F8016B5B1E01F8016BF9D5914238BFF0
:1002200010F8013BD1D3704700230024002500269D
:10023000103A28BF78C1FBD8520728BF30C148BF49
:100240000B6070471FB502F04DF91FBD10B510BD12
:1002500000F031F81146FFF7F5FF01F0E5FF00F07F
:100260004FF803B4FFF7F2FF03BC00F057F80000AB
:100270000948804709480047FEE7FEE7FEE7FEE73A
:10028000FEE7FEE7FEE7FEE7FEE7FEE70448054976
:10029000054A064B70470000291000088901000834
:1002A00018040020180A0020180600201806002054
:1002B000704770477047754600F02CF8AE46050051
:1002C0006946534620F00700854618B020B5FFF771
:1002D000DDFFBDE820404FF000064FF000074FF073
:1002E00000084FF0000B21F00701AC46ACE8C00954
:1002F000ACE8C009ACE8C009ACE8C0098D4670475D
:1003000010B50446AFF300802046BDE81040FFF76B
:10031000A8BF000000487047B4030020014918201E
:10032000ABBEFEE726000200704700004FF064619C
:100330000A4A9160002100E0491C094A9142FBD31E
:10034000C0EBC001074A1144044A51660721D16538
:100350001146896D41F001019165704700600240CE
:10036000A08601004303002010B502464FF06463ED
:10037000164CE360002300E05B1C154CA342FBD34A
:10038000144BDA7099715B78124CA4782344114CA9
:10039000E47823440F4C247923440E4C647923449D
:1003A0000C4CA47923445B4298B2030A094CE371D4
:1003B00020720A23054CBC342360044BD3F8B830B8
:1003C00043F00103241F236010BD000000600240C1
:1003D00040420F006D03002000B53D20AE4988600B
:1003E0000846006940F001000861AC4800787E28AA
:1003F0007DD1AA484078FF28FAD1A848C07847287C
:1004000076D1A6488079642190FBF1F03030A44980
:10041000C874A2488079642190FBF1F000EBC00120
:1004200001EB00109D498979A1EB80000A2190FB26
:10043000F1F030309A490875984880790A2190FB8C
:10044000F1F000EB800095498979A1EB4000303054
:100450009349487591488079642190FBF1F03030E0
:10046000C1B28F4880F833108C488079642190FBAA
:10047000F1F000EBC00101EB001088498979A1EB94
:1004800080000A2190FBF1F03030C1B2844880F83E
:100490003410824880790A2190FBF1F000EB800053
:1004A0007E498979A1EB40003030C1B27C4880F8A8
:1004B00035107A488079642190FBF1F03030C1B278
:1004C000774880F8531075488079642190FBF1F0EB
:1004D00000EBC00101EB001070498979A1EB8000AD
:1004E0000A2190FBF1F03030C1B26D4801E0C9E063
:1004F00011E080F85410694880790A2190FBF1F0EE
:1005000000EB800065498979A1EB40003030C1B231
:10051000634880F855106148C0784C287ED15F4808
:100520008079642190FBF1F030305D49C8735B48FD
:100530008079642190FBF1F000EBC00101EB001029
:1005400056498979A1EB80000A2190FBF1F0303007
:1005500053490874514880790A2190FBF1F000EB6F
:1005600080004E498979A1EB400030304C494874F5
:100570004A488079642190FBF1F03030C1B248489C
:1005800080F82F1045488079642190FBF1F000EB52
:10059000C00101EB001041498979A1EB80000A21DB
:1005A00090FBF1F03030C1B23D4880F830103B484C
:1005B00080790A2190FBF1F000EB800037498979BE
:1005C000A1EB40003030C1B2354880F831103348DB
:1005D0008079642190FBF1F03030C1B2304880F86E
:1005E0004F102E488079642190FBF1F000EBC001A0
:1005F00001EB001029498979A1EB80000A2190FBC9
:10060000F1F03030C1B2264880F85010234880798C
:100610000A2190FBF1F000EB800000E008E01F49A8
:100620008979A1EB40003030C1B21D4880F85110EB
:100630001A48C078422803D11848807919490870AF
:100640001648C078402803D01448C0783B2802D10F
:100650000320144908701148C0783A2802D10020BC
:100660001049087010480078022814D10F4800780B
:10067000022810D10B480078032804D115210C481A
:1006800000F004FD07E00649064A127801EB42102B
:10069000202100F0FBFC00BD00600240A803002008
:1006A00092020020810300207703002079030020BC
:1006B000F202002000B54FF47460774988607748F3
:1006C00048631420C8620846806A40F001008862CE
:1006D00073480078022879D1724800780128FAD14D
:1006E0006E4800780D282FD16C4840780A28FAD13E
:1006F0006A48C078552828D16848007931280DD13A
:10070000002069490870097801EB410202EBC10140
:10071000664A02EB4100162100F0B8FC5F48007900
:10072000332803D05D480079352869D101205E491E
:100730000870097801EB410202EBC1015B4A02EB50
:100740004100162100F0A2FC5AE05448C07850281D
:1007500027D15748007818B101205349087002E0AA
:100760000120534908705048007868B14E49097813
:10077000891C01EB410202EBC1014C4A02EB410032
:10078000162100F083FC3BE04749097801EB410268
:1007900002EBC101454A02EB4100162100F076FC54
:1007A0002EE03E48C078522811D13F48007838B337
:1007B0003D490978491C01EB410202EBC1013B4A6A
:1007C00002EB4100162100F061FC19E03AE03348E9
:1007D0008078492803D03148C078492810D10020BA
:1007E00031490870324908702F49097801EB4102FC
:1007F00002EBC1012D4A02EB4100162100F046FC3C
:10080000264800784D2845D12448407850282DD1DD
:100810002748007818B101202349087002E0012020
:10082000234908702048007868B11F490978891C5D
:1008300001EB410202EBC1011C4A02EB410016210F
:1008400000F024FC26E01448806D40F001001249BD
:1008500088651549097801EB410202EBC101134A91
:1008600002EB4100162100F011FC13E00B48407828
:1008700052280FD10C48007860B10B490978491C07
:1008800001EB410202EBC101084A02EB41001621D3
:1008900000F0FCFB00BD000000600240940300205B
:1008A0007703002079030020800300203A02002013
:1008B0009303002030B503460C463A48006840F4E4
:1008C0008070384D286007E036481430006800F426
:1008D000807008B1012030BD32481430006800F04B
:1008E00001000028F0D02F48143000682D4818303F
:1008F00000682C481030036013E02A481430006868
:1009000000F4807028B927481430006800F4806033
:1009100038B12448006840F40070224D286002205D
:10092000D9E720481430006800F002000028E4D025
:100930001C48143000681B4818300068002127E06C
:10094000605C184D1035286013E0164814300068BC
:1009500000F4807028B913481430006800F48060F7
:1009600038B11048006840F400700E4D2860032034
:10097000B1E70C481430006800F004000028E4D00F
:10098000084814300068074818300068481C81B2D5
:100990009142D5DB0348006840F40070014D2860A7
:1009A000002098E7005400402C48006840F4807014
:1009B0002A4908602A482B498860881548604FF406
:1009C000D84008614FF48010C862832048632348F0
:1009D0001438006840F48000204914390860224827
:1009E000006842F6105108431F4908601D484C300A
:1009F0001D49083108601D48091D086002201A4978
:100A0000091D0860081F006840F00100091F086008
:100A100015480838006840F03D001349083908605F
:100A20000E48001F006840F002000C49091F0860D2
:100A300042F2CF000E4908606420091D08600C488E
:100A40002438006840F02000094924390860081F54
:100A5000006840F00100091F0860704744380240F8
:100A600001030018002001401064024084030020AC
:100A7000280400401748006840F4802015490860A9
:100A80004FF4B6701449086042F21C00091D08605A
:100A9000C02011490C3108600E481038006840F43D
:100AA00000100C49103908600C480D4988620A484A
:100AB000001F08630B4848631420C8620846806A18
:100AC00040F0010088620548303088650248001F08
:100AD000086670474038024008480040100400088B
:100AE00000600240940300201848006840F4801021
:100AF0001649086041F217101549886042F20C004F
:100B0000C860C02048611348134908601048001DA0
:100B10001149B839C1F8C00010480F490C310860BC
:100B20000A200D49091D08600A48D0300A49B83921
:100B300008610748001D88610948C8610A204861AA
:100B40000846006940F001000861704740380240E3
:100B50000050004040040008B86002406D030020CF
:100B6000A80300205148006840F00F004F4908607A
:100B70004F48006A40F008004D4908620846C068C6
:100B800040F00100C8600846806840F003008860BB
:100B90000846006840F0020008604648406A40F499
:100BA000EE414448416243480C30006840F4A000E4
:100BB00040490C310860081F00683F4908433D491F
:100BC000083108603B48006840F42000394908605B
:100BD0003A48406A40F40021384841623848006889
:100BE00040F400603649086034480C30006840F03A
:100BF000807032490C31086031481438006840F088
:100C000010002F49143908602C480830006840F063
:100C100040702A490831086029481838006840F0B7
:100C200030002749183908602448006840F00070F7
:100C30002249086022482038006840F020002049FE
:100C4000203908601B48406A40F04401194841625D
:100C5000006840F420201749086016480C300068EE
:100C600040F4A02013490C3108601248001D0068B0
:100C700040F440700F49091D0860081D006840F4E9
:100C80007020091D08600D4800680C49086008487C
:100C9000006840F47070064908600846806840F4B7
:100CA000707088600846C068C8607047303802407D
:100CB00000000240000402400C0030000008024026
:100CC000200C02400A48006840F4001008490860FF
:100CD0002D2008490860D2200649183108602B20D1
:100CE000091D086001200349091F086070470000C2
:100CF00040380240045400400848006840F48070C6
:100D00000649086042F2CF000549886240F2CF7080
:100D1000C8620120C8600860704700004038024087
:100D2000002000403CB5002001900090464800683B
:100D300040F00100444908600846006800F00200E5
:100D400000285CD04148006840F480703F4908604A
:100D50000846006820F00F0008600846006840F070
:100D600005000860384808300068374908310860D5
:100D70000846006840F4A05008600846006840F447
:100D800000400860081F0068091F086008460068E6
:100D900020F03F0008600846006840F00800086046
:100DA0000846006847F6C07188432749091D086056
:100DB0000846006840F428500860081F006840F0AA
:100DC0008070091F086000BF1F48006800F00070B5
:100DD0000028F9D01C480830006820F003001A49A8
:100DE000083108600846006840F00200086000BF53
:100DF00015480830006800F00C000828F8D144F2CB
:100E0000A011481EB0F1807F00D31BE0481E4FF0B8
:100E1000E022506150170F22002804DB13071C0E3C
:100E20000B4B1C5406E013071D0E0A4B00F00F0479
:100E3000241F1D5500BF00204FF0E02290610720C5
:100E4000106100BF3CBD000000380240003C024081
:100E500000E400E018ED00E01B48006800F40040EA
:100E6000B0F5004F2FD018483038006840F080505F
:100E70001549303908601548006840F480701349FE
:100E800008601148006840F480300F490860084647
:100E9000006820F4803008600846006840F4014093
:100EA00008600846006840F00100086000BF06487E
:100EB000006800F001000028F9D00448006820F420
:100EC000807002490860704770380240007000402E
:100ED00000B585B020208DF8000020480078022859
:100EE00004D11F481F490978405C00E007208DF8B5
:100EF000010000208DF80200C7208DF803001A4879
:100F000000788DF8040090208DF8050050208DF8B1
:100F100006008DF8070005208DF8080000208DF8E8
:100F20000900FF208DF80A0000208DF80B008DF8D5
:100F30000C008DF80D008DF80E008DF80F008DF867
:100F4000100039208DF8110000208DF812001322B6
:100F500069468820FFF7AEFC05B000BD770300208E
:100F6000EE24000879030020820300201048006866
:100F700040F400200E4908604FF4B6700D49086037
:100F800042F20800091D086080200A490C310860FF
:100F900007481038006840F400100549103908600F
:100FA0000548064908670348001F88677047000026
:100FB00040380240084C00404004000800600240F5
:100FC0001CB5044640F6354060430D4901EB401026
:100FD0008000C0F3CF3420128DF80000E0B28DF80D
:100FE000010010208DF802008DF8030000208DF81C
:100FF000040005226946C020FFF75CFC1CBD000010
:10100000E86E030007480068401C0649086008466F
:10101000006841F28831884202D10020014908600D
:1010200070470000880300201448006840F47000F6
:10103000124908601248006840F001001049086039
:1010400000200F49083108600D4800680D4908402C
:101050000B4908600C48091D0860081F006820F44F
:101060008020091F0860002005490C3108604FF0FE
:1010700000600249803908607047000088ED00E098
:1010800000380240FFFFF6FE10300024084AD06707
:1010900051673922064BDA601A46126F42F001029C
:1010A0001A6700BF024A526F002AFBD17047000046
:1010B000006002403CB50020FE490861FE4800780F
:1010C000401CFD490870FDA000680190FCA000686C
:1010D0000090FC4800788DF80100FB480088A421AE
:1010E000484340F6FF7190FBF1F0C4B2F6484088E7
:1010F000A421484340F6FF7190FBF1F0C5B2F348DC
:10110000006800F0200088B3F1480078401CF049E6
:10111000087008460078142827DBEE48007802287B
:1011200023D11420087000208DF8040007208DF8CA
:101130000500022201A98820FFF7BCFBE6490870E0
:101140000120E449087001F045F8E249097801EB13
:101150004101E24A02EB81000C21FFF797FF642076
:10116000D54908700420FFF7E1F87CE1FFE7D84893
:10117000007814287BDAD6480078002877D0D54844
:101180000078022874D1D6480078401CD4490870F1
:1011900008460078032801DD0020087001F01AF8E5
:1011A00000208DF80400CF48CD490978405C8DF8C7
:1011B0000500022201A98820FFF77CFBC6490870C0
:1011C000C749097801EB4101C74A02EBC100182168
:1011D000FFF75CFFC248007830B1012849D00228EF
:1011E00057D0032863D15DE0C04800884FF47A717E
:1011F00090FBF1F03030BE498872BC4800884FF453
:101200007A7190FBF1F000EB4001C1EBC010B749DF
:101210000988A1EBC000642190FBF1F03030B449A3
:10122000C872B2480088642190FBF1F000EBC00165
:1012300001EB0010AD490988A1EB80000A2190FB69
:10124000F1F03030AA490873A84800880A2190FBC1
:10125000F1F000EB8000A5490978A1EB40003030A7
:10126000A34988731621A248FFF710FF1FE097E0FB
:101270001EE00020FFF75AF89E49097801EB410271
:1012800002EBC1019C4A02EB41001621FFF7FEFE72
:101290000DE000214720FFF767F800214C20FFF701
:1012A00063F804E011219548FFF7F0FE00BF00BF8E
:1012B00088480078012873D102208649087000F020
:1012C00089FF8449097801EB4101844A02EB8100DE
:1012D0000C21FFF7DBFE00208DF8040081488049D7
:1012E0000978405C8DF80500022201A98820FFF7EB
:1012F000E1FA794908707A49097801EB41017A4AA3
:1013000002EBC1001821FFF7C1FE7548007820B13B
:10131000012846D0022859D153E0744800884FF480
:101320007A7190FBF1F03030714988726F48008813
:101330004FF47A7190FBF1F000EB4001C1EBC0106B
:101340006A490988A1EBC000642190FBF1F03030BC
:101350006749C87265480088642190FBF1F000EB92
:10136000C00101EB001061490988A1EB80000A214E
:1013700090FBF1F030305E4908735C4800880A2128
:1013800090FBF1F000EB800058490978A1EB400098
:1013900030305749887316215548FFF777FE15E01E
:1013A0005EE00020FEF7C2FF5249097801EB4102DE
:1013B00002EBC101504A02EB41001621FFF766FE25
:1013C00004E000214C20FEF7CFFF00BF00BF3D48E6
:1013D00090F90000002801DD2B2000E02D20484975
:1013E0004872384890F90000002806DD354890F929
:1013F00000000A2190FBF1F006E0324890F900006D
:1014000040420A2190FBF1F030303D4988722D486E
:1014100090F9000000280DDD2A4890F900000A210B
:1014200090FBF1F000EB8000264991F90010A1EB50
:1014300040000EE0234890F9000040420A2190FB52
:10144000F1F000EB80001F4991F900104942A1EB37
:10145000400030302A49C87212212948FFF716FE91
:1014600000201B4908701948006800F0100000288F
:101470007DD018480078022879D11948007820B129
:10148000012875D0022874D186E018480088401CD5
:101490001649088008460088B0F5876F02DB40F2E5
:1014A0005230088011480088FFF78AFD00F092FE54
:1014B0000E4827E0002000409203002000070000B3
:1014C0000300000082030020840300201008024073
:1014D0007B030020770300207C0300204C000020C9
:1014E00079030020EE2400087C0000207E03002009
:1014F00024020020800300203A020020070300207D
:101500001803002000884FF47A7190FBF1F030301E
:10151000FE498872FE4800884FF47A7190FBF1F022
:1015200000EB4001C1EBC010F9490988A1EBC000F4
:10153000642190FBF1F03030F449C872F44800881F
:10154000642190FBF1F000EBC00101EB0010F049C9
:101550000988A1EB80000A2190FBF1F03030EB49C3
:101560000873EB4800880A2190FBF1F002E021E0CB
:101570000EE01EE000EB8000E5490978A1EB400099
:101580003030E24988731621E048FFF77FFD10E014
:101590000220FEF7CBFE0CE000210120FEF7E4FE66
:1015A00000214C20FEF7E0FE00214220FEF7DCFE89
:1015B00000BF00BFD748006800F0080098B3D648C5
:1015C000007802282FD1D5480078012802D00228BF
:1015D00028D103E00120FEF7A9FE23E0D0480078DF
:1015E00003281AD0CE480078012803D100210E200C
:1015F000FEF7BAFECA48007818B901211820FEF794
:10160000B3FEC7480078022803D100210D20FEF761
:10161000ABFE00214C20FEF7A7FE00214220FEF782
:10162000A3FE00BF00BFBB48006800F00400002814
:1016300075D0B9480078022871D1B848007820B137
:1016400001285AD0022869D15BE0B1480088401EC9
:10165000AF4908800846008840F25231884203DCD6
:101660004FF48760AA490880A9480088FFF7A8FCC2
:1016700000F0B0FDA64800884FF47A7190FBF1F0BD
:101680003030A2498872A24800884FF47A7190FBEA
:10169000F1F000EB4001C1EBC0109D490988A1EBBE
:1016A000C000642190FBF1F030309849C87298482E
:1016B0000088642190FBF1F000EBC00101EB001009
:1016C00093490988A1EB80000A2190FBF1F03030AA
:1016D0008E4908738E4800880A2190FBF1F000EBD8
:1016E00080008B490978A1EB40003030874988732E
:1016F00016218648FFF7CAFC10E00320FEF716FE0D
:101700000CE000210220FEF72FFE00214C20FEF706
:101710002BFE00214220FEF727FE00BF00BF8148BC
:10172000006800F02000E0B37F480078401C40B221
:101730007D490870084690F900000F2801DD0F2050
:10174000087000F047FD784890F90000002803DD9C
:10175000754890F9000004E0734890F90000C0F16A
:101760001000C0B28DF80100022269468820FFF700
:10177000A1F86E4908706C4890F90000002801DD5E
:101780002B2000E02D206A494872674890F900003C
:10179000002807DD644890F900000A2190FBF1F071
:1017A00007E032E0604890F9000040420A2190FBD7
:1017B000F1F030305E4988725B4890F900000028F3
:1017C0000DDD594890F900000A2190FBF1F000EB83
:1017D0008000554991F90010A1EB40000EE05248FD
:1017E00090F9000040420A2190FBF1F000EB8000EC
:1017F0004D4991F900104942A1EB400030304C496D
:10180000C87212214A48FFF741FC4648006800F0C0
:10181000100070B344480078401E40B2424908703E
:10182000084690F9000010F14F0F01DAB12008705E
:1018300000F0D0FC3C4890F90000002803DD3A4855
:1018400090F9000004E0384890F90000C0F1100061
:10185000C0B28DF80100022269468820FFF72AF8FD
:1018600032490870304890F90000002802DD2B2032
:1018700001E041E02D202E4948722B4890F90000EC
:10188000002806DD284890F900000A2190FBF1F0BD
:1018900006E0254890F9000040420A2190FBF1F053
:1018A000303023498872204890F9000000280DDD6F
:1018B0001D4890F900000A2190FBF1F000EB800038
:1018C000194991F90010A1EB40000EE0164890F97B
:1018D000000040420A2190FBF1F000EB8000124929
:1018E00091F900104942A1EB400030301049C87214
:1018F00012210F48FFF7CAFB0648006800F00200FB
:1019000018B100214220FEF72FFD13E02402002031
:101910007E03002010080240770300207903002096
:101920008103002010040240820300207C03002079
:1019300018030020FE48006800F4807000287CD066
:10194000FC480078032878D1FB480078072875D236
:10195000DFE800F0042AA6517DCFF100F7480078B7
:10196000401CF649087008460078182801DB002062
:101970000870F24800780A2190FBF1F03030F0490D
:101980004872EE4800780A2190FBF1F000EB8000ED
:10199000EA490978A1EB40003030E94988720F210B
:1019A000E748FFF773FB73E1E6480078401CE54920
:1019B0000870084600783C2801DB00200870E148E8
:1019C00000780A2190FBF1F03030DD490876DD48DF
:1019D00000780A2190FBF1F000EB8000D9490978EA
:1019E000A1EB40003030D64948760F21D4480F3063
:1019F000FFF74CFB4CE1D4480078401CD2490870FA
:101A0000084600780D2801DB01200870CE480078D8
:101A10000A2190FBF1F03030C94981F82700CA480B
:101A200000780A2190FBF1F000EB8000C6490978AC
:101A3000A1EB40003030C24901E02AE127E181F802
:101A400028000F21BE481E30FFF720FB20E1BF48D1
:101A50000078401CBD49087008460078202801DB4A
:101A600001200870B94800780A2190FBF1F030306D
:101A7000B34981F83600B54800780A2190FBF1F0AF
:101A800000EB8000B1490978A1EB40003030AC494F
:101A900081F837000F21AA482D30FFF7F7FAF7E059
:101AA000AB480078401CAA490870084600781E28F8
:101AB00001DB12200870A64800780A2190FBF1F0A3
:101AC00030309F4981F84500A14800780A2190FBF9
:101AD000F1F000EB80009E490978A1EB4000303026
:101AE000974981F846000F2195483C30FFF7CEFA20
:101AF000CEE098480078401C964908700846007867
:101B0000082801DB0120087093480068C0F34230C8
:101B1000401E00EBC0009149014489480A684265B3
:101B20004A688265097A80F85C1010214B30FFF713
:101B3000ADFAADE0FFE78A4800787E490870894831
:101B4000006840F08050874908608748006840F48A
:101B5000807085490860CA207F4920310860532081
:101B600008607D480830006840F080007A490831FC
:101B7000086000BF78480830006800F04000002886
:101B8000F8D0704800780A2190FBF1F000036D490D
:101B900009780A2291FBF2F101EB8101694A12787E
:101BA000A2EB410140EA0120644909780A2291FB35
:101BB000F2F140EA01506149097891FBF2F101EB41
:101BC00081015E4A1278A2EB410140EA014062497C
:101BD000091F08605D4800780A2190FBF1F000EBD6
:101BE00080005A490978A1EB4000584909780A2237
:101BF00091FBF2F140EA01105349097891FBF2F1AF
:101C000040EA01305049097891FBF2F101EB810182
:101C10004D4A1278A2EB410140EA01204C49097873
:101C20000A2291FBF2F140EA01504949097891FBFF
:101C3000F2F101EB8101464A1278A2EB410140EA40
:101C400001404449097840EA41304349086042482C
:101C50000830006820F080003F4908310860FF200C
:101C60003D49203108604048006820F480703E49BA
:101C700008603049097801EB41013C4A02EB8100E0
:101C80000C21FFF703FA64203949087000E000BF17
:101C900000BF2748006800F4007000286CD0254879
:101CA0000078012804D0022803D0032865D11DE163
:101CB00000BF204800782A49087003201D49087099
:101CC000097801EB4101294A02EB81000C21FFF761
:101CD000DDF9002018490870097801EB4101254A17
:101CE00002EBC1001821FFF7D1F91B48001F006863
:101CF000C0F303401849091F0968C1F3015101EB02
:101D0000810100EB41000D4908701348001F006875
:101D1000C0F303201049091F0968C1F3023101EB28
:101D2000810100EB4100074908700B48006825E07D
:101D30001008024077030020780300208C03002065
:101D4000840100208D0300208E0300208F030020DB
:101D5000910300209003002004280040E5010020AA
:101D60007A03002040380240007000404C00002000
:101D700092030020DC000020D0E0CDE000F00F0056
:101D8000C7490968C1F3011101EB810100EB410072
:101D9000C4490870C2480068C0F30320C0490968FC
:101DA000C1F3003101EB810100EB4100BE49087035
:101DB000BB480068C0F30340B9490968C1F3035147
:101DC00001EB810100EB4100B8490870B44800689C
:101DD000C0F34230B6490870B64800780A2190FB3B
:101DE000F1F03030B4494872B24800780A2190FBD3
:101DF000F1F000EB8000AF490978A1EB40003030F2
:101E0000AD498872AD4800780A2190FBF1F030307E
:101E1000A9490876A94800780A2190FBF1F000EB67
:101E20008000A6490978A1EB40003030A2494876ED
:101E30009D4800780A2190FBF1F030309E4981F8EE
:101E40002700994800780A2190FBF1F000EB800010
:101E500095490978A1EB40003030974981F8280076
:101E6000904800780A2190FBF1F03030924981F8D7
:101E700036008C4800780A2190FBF1F000EB8000DE
:101E800088490978A1EB400030308B4981F8370050
:101E9000864800780A2190FBF1F03030864981F8BD
:101EA0004500824800780A2190FBF1F000EB8000A9
:101EB0007E490978A1EB400030307F4981F8460027
:101EC00077480068C0F34230401E00EBC0007C49F8
:101ED0000844794902684A6542688A65007A81F84F
:101EE0005C0061217448FFF7D1F816E0754800786E
:101EF000401C7449087008460078062801DD00205F
:101F000008707049097801EB41016F4A02EBC1008A
:101F10001821FFF7BBF800E000BF00BF6B48007856
:101F2000022803D06948007801287CD168480078ED
:101F3000642878DB0020664908705948001F006853
:101F4000C0F303203030634988735548001F006890
:101F5000C0F30230303048735148001F0068C0F3AE
:101F600003403030C8724E48001F0068C0F3015073
:101F7000303088724A48006800F00F00303081F835
:101F8000200047480068C0F301103030C87744484B
:101F90000068C0F30320303081F823004048006817
:101FA000C0F30030303081F822003D480068C0F3B3
:101FB0000340303081F8260039480068C0F30350F0
:101FC000303081F8250036480068C0F34230401EAA
:101FD00000EBC0003A4908443E492B3102680A60D0
:101FE00042684A60007A087238213A48FFF74EF892
:101FF000642094FBF0F0303037494872642094FB41
:10200000F0F000EBC00101EB0010A4EB80000A210E
:1020100090FBF1F03030304988720A2094FBF0F0E8
:1020200000EB800000E03AE0A4EB400030300873A1
:10203000642095FBF0F030300874642095FBF0F0DC
:1020400000EBC00101EB0010A5EB80000A2190FB22
:10205000F1F03030204948740A2095FBF0F000EB95
:102060008000A5EB40003030C87419211A48FFF7F2
:102070000DF81A480078012805D11948007810B9E0
:102080000020FEF753F915480078022807D11548BB
:102090000078032803D100214220FEF765F93CBDFA
:1020A000042800408F0300208E03002091030020AD
:1020B000900300208C030020840100208D03002069
:1020C000E501002078030020DC00002077030020D9
:1020D00092030020140000202A030020790300202E
:1020E000800300208103002008B50A48006800F042
:1020F000100070B10748006800900648001D006895
:10210000009000BF0448806A20F001000249886204
:1021100000BF08BD0048004000600240002809DB05
:1021200000F01F02012191404209920002F1E022D9
:10213000C2F800117047000000B502460D48006863
:1021400040F002000B4908600846006840EAC200FF
:1021500008600846006840F48030086005E00548E3
:10216000006820F002000349086000F009F8002828
:10217000F5D000BD103C02400146086870470000E1
:1021800002480068012121EA104070470C3C0240DF
:1021900000B502460B460E48006840F001000C49AD
:1021A00008600846006840F40070086000BFFFF750
:1021B000E7FF0028FBD0136000BFFFF7E1FF002816
:1021C000FBD00348006820F001000149086000BD11
:1021D000103C024000B50320FFF7AEFF0D48007829
:1021E00000060D4A127840EA02400C4A92F900209B
:1021F0004FF47F4303EA022240EA02010848FFF756
:10220000C7FF0848008801040548001DFFF7C0FF0C
:1022100000BD000077030020790300208203002026
:1022200000C000087E030020FEF77CFDFEF79AFC4C
:102230009B489C4908609C480860FEF7B5FBFEF788
:1022400095FE07219948FEF721FF002000E0401C81
:1022500097498842FBD3322096490872352048724C
:102260000D219448FEF712FFFEF7F6FD3520914947
:102270000872302048720D218E48FEF707FFFEF7E6
:102280003BFD37208B490872352048720D21894863
:10229000FEF7FCFEFEF716FDFEF7ECFBFEF724FC56
:1022A00001210920FEF760F81E210620FEF75CF8E8
:1022B00000214720FEF758F87F48FFF75DFF000E2A
:1022C0007E4908707C48FFF757FF00F47F00000C40
:1022D0007B4908707848FFF74FFF000A40B2794900
:1022E00008707548001DFFF747FF000C764908800D
:1022F0007249097801EB4101744A02EB81000C211B
:10230000FEF7C4FEFEF7E4FD714908706E480088D0
:10231000FEF756FE6E4908706848007802287DD1A5
:102320006749097801EB41016A4A02EBC1001821B3
:10233000FEF7ACFE634890F90000002801DD2B2079
:1023400000E02D20644948725E4890F900000028A2
:1023500006DD5C4890F900000A2190FBF1F006E0F0
:10236000584890F9000040420A2190FBF1F03030CB
:1023700059498872534890F9000000280DDD5148F2
:1023800090F900000A2190FBF1F000EB80004D492C
:1023900091F90010A1EB40000EE04A4890F90000CE
:1023A00040420A2190FBF1F000EB8000454991F991
:1023B00000104942A1EB400030304749C872122159
:1023C0004548FEF763FE3E48007830B1012849D009
:1023D00002284BD0032853D14DE03B4800884FF4EE
:1023E0007A7190FBF1F030303C49887236480088B1
:1023F0004FF47A7190FBF1F000EB4001C1EBC0109B
:1024000031490988A1EBC000642190FBF1F0303024
:102410003249C8722C480088642100E031E090FB0A
:10242000F1F000EBC00101EB001027490988A1EB96
:1024300080000A2190FBF1F03030284908732248CF
:1024400000880A2190FBF1F000EB80001E4909781A
:10245000A1EB400030302149887316211F48FEF758
:1024600015FE0DE00020FDF761FF09E0002142208C
:10247000FDF77AFF04E011211948FEF707FE00BFBF
:1024800000BF2D20FFF74AFE0C20FFF747FE0B2070
:10249000FFF744FE2720FFF741FE00BFFEE70000E4
:1024A00023016745043C0240AB89EFCD00000020CA
:1024B000809698000700002000C0000877030020E5
:1024C00079030020820300207E0300204C000020BE
:1024D0007C0300207C000020180300202402002040
:1024E000070300204FF04070E1EE100A704782842D
:1024F00081830000142500080000002094030000E0
:10250000C4010008C42600089403002084060000CB
:1025100028020008101272657374FFFFFF6C6F646D
:102520002E76616C3D30300D101174696D652E741E
:1025300078743D2200003A00002220500464617447
:10254000133006202000002E03122001200A6461AF
:10255000796F667765656B25600A70616765206CC9
:102560006F61640C6005616F66661860056D616976
:102570006E0C2004736574754004415558751161E3
:102580003004464D490C92310C2118834254186195
:102590000C21A4700455534230610C923054211820
:1025A000116771307004745F6818610C4118926D86
:1025B00018726D307004645F7948610C4118813085
:1025C000B26430926418926448927748727790614E
:1025D0009C6190355C500430302287910FE2640F8B
:1025E000C2641EC2790F62774B5101213414044D2D
:1025F0006F6EA915AF3005547565730A30055765C0
:10260000646E0B3005546875721340044672692479
:1026100020065361747572125353753670057465D4
:1026200078745630062E3020464DA77116C0094EDC
:102630004F20434F4E4E20162113D00445435416CD
:102640000008102020504C41592016D00541555308
:1026500045421006736F6E6720C4122FC700061A1A
:102660002053544F50203157011A202161F1B81ADC
:10267000203CC1B7199521864404766F6C763005ED
:102680002D3739642364044144430530062E305607
:102690002020073119200754234D560D0A074241C7
:1026A00007424407424507324A1C3009435A0D0A83
:1026B0007EFF06000173EF0001D3030001030064F5
:0426C0000000000016
:040000050800018965
:00000001FF
