:020000040800F2
:10000000180D002071020008790200087B02000828
:100010007D0200087F020008810200080000000045
:100020000000000000000000000000008302000843
:10003000850200080000000087020008790C000813
:100040008B0200088B0200088B0200088B0200085C
:100050008B0200088B0200088B0200088B0200084C
:100060008B0200088B0200088B0200086503000861
:100070008B0200088B0200088B0200088B0200082C
:100080008B0200088B0200088B0200088B0200081C
:100090008B0200088B0200088B0200088B0200080C
:1000A0008B0200088B0200088B0200088B020008FC
:1000B0008B0200088B0200088B0200088B020008EC
:1000C0008B0200088B0200088B0200088B020008DC
:1000D0008B0200088B0200088B0200088B020008CC
:1000E0008B0200088B0200088B0200088B020008BC
:1000F0008B0200089D0D00088B0200088B0200088F
:100100008B0200088B0200088B0200088B0200089B
:100110008B020008A13800088B0200088B0200083F
:10012000350400088B0200088B0200088B020008CF
:100130008B02000800000000000000008B02000895
:100140008B0200088B0200088B0200088B0200085B
:100150008B0200088B0200088B0200088B0200084B
:100160008B0200088B0200088B0200088B0200083B
:100170008B0200088B020008000000000000000055
:100180008B0200088B02000800F002F800F060F813
:100190000AA090E8000C82448344AAF10107DA45E2
:1001A00001D100F055F8AFF2090EBAE80F0013F0D4
:1001B000010F18BFFB1A43F001031847503F00001E
:1001C000703F000010F8013B0A4413F0030408BF1D
:1001D00010F8014B1D1108BF10F8015B641E05D01B
:1001E00010F8016B641E01F8016BF9D1002D15D0D8
:1001F00010F8014B03F00C030C2BA1EB04040ABF15
:1002000010F8013BA4EB8314A4EB032405F10103D4
:1002100014F8016B5B1E01F8016BF9D5914238BFF0
:1002200010F8013BD1D3704700230024002500269D
:10023000103A28BF78C1FBD8520728BF30C148BF49
:100240000B6070471FB503F059FF1FBD10B510BDFF
:1002500000F031F81146FFF7F5FF03F04DFD00F017
:100260004FF803B4FFF7F2FF03BC00F057F80000AB
:100270000948804709480047FEE7FEE7FEE7FEE73A
:10028000FEE7FEE7FEE7FEE7FEE7FEE70448054976
:10029000054A064B70470000CD0C00088901000894
:1002A00018070020180D0020180900201809002048
:1002B000704770477047754600F02CF8AE46050051
:1002C0006946534620F00700854618B020B5FFF771
:1002D000DDFFBDE820404FF000064FF000074FF073
:1002E00000084FF0000B21F00701AC46ACE8C00954
:1002F000ACE8C009ACE8C009ACE8C0098D4670475D
:1003000010B50446AFF300802046BDE81040FFF76B
:10031000A8BF000000487047B80600200149182017
:10032000ABBEFEE726000200704700004FF064619C
:100330000A4AD160C0EBC001094A1144074AC432DD
:1003400011600721054AC2F8BC101146D1F8B81057
:1003500041F00101C2F8B81070470000006002408F
:100360002006002000B53D202C4988602C48C8613B
:10037000142048610846006940F0010008612848DF
:1003800000780D2849D1264840780A2845D12448CC
:10039000C078492806D050281FD0522825D055288B
:1003A00027D103E000201F49087022E01C48007993
:1003B000312803D100201B4908700DE0184800794E
:1003C000332803D016480079352805D11548007820
:1003D00010B90120134908700BE012480078022878
:1003E00002D103200F49087003E002200D49087074
:1003F00000BF00BF0C48007802280ED10B480078DF
:1004000001280AD107490978C1EBC10101EB41017B
:10041000074A8818152100F0ADFC00BD00600240BD
:10042000840600205C0600204C0600204E060020BA
:100430007602002030B52C48006840F03D002A4983
:1004400008602A4800889E21484340F6FF7190FBCF
:10045000F1F0C4B2254840889E21484340F6FF7120
:1004600090FBF1F0C5B2642094FBF0F030302049ED
:100470004872642094FBF0F000EBC00101EB001027
:10048000A4EB80000A2190FBF1F03030184988720B
:100490000A2094FBF0F000EB8000A4EB4000303029
:1004A0000873642095FBF0F030300874642095FBED
:1004B000F0F000EBC00101EB0010A5EB80000A2179
:1004C00090FBF1F030300A4948740A2095FBF0F0B7
:1004D00000EB8000A5EB40003030C87419210448BF
:1004E00000F048FC30BD00000864024062060020B5
:1004F0008603002030B503460C463A48006840F4B5
:100500008070384D286007E036481430006800F4E9
:10051000807008B1012030BD32481430006800F00E
:1005200001000028F0D02F48143000682D48183002
:1005300000682C481030036013E02A48143000682B
:1005400000F4807028B927481430006800F48060F7
:1005500038B12448006840F40070224D2860022021
:10056000D9E720481430006800F002000028E4D0E9
:100570001C48143000681B4818300068002127E030
:10058000605C184D1035286013E016481430006880
:1005900000F4807028B913481430006800F48060BB
:1005A00038B11048006840F400700E4D28600320F8
:1005B000B1E70C481430006800F004000028E4D0D3
:1005C000084814300068074818300068481C81B299
:1005D0009142D5DB0348006840F40070014D28606B
:1005E000002098E7005400402D48006840F48070D7
:1005F0002B4908602B482C498860881548604FF4C7
:10060000D84008614FF48010C862832048632448B2
:100610001438006840F480002149143908602348E8
:10062000006842F610510843204908601E484C30CB
:100630001E49083108601E48091D086002201B4938
:10064000091D0860081F006840F00100091F0860CC
:1006500016480838006840F03D0014490839086021
:100660000F48001F006840F002000D49091F086094
:1006700042F2CF000F4908604FF47A70091D0860FC
:100680000C482438006840F020000A4924390860EA
:10069000081F006840F00100091F08607047000053
:1006A0004438024001030018002001401064024059
:1006B000620600202804004010B52148006840F47C
:1006C00080101F4908602D201E49886042F21C00DE
:1006D000C860C02048611A481038006840F4001013
:1006E0001749103908601848184908611548001D55
:1006F00088611748C861142048610846006940F0C5
:10070000010008611148B830006820F00100C1F80C
:10071000B8000D4830300D49B83108600948001D57
:100720000A49C1F8C0000B48006840F4005009496C
:1007300008600B2003F05AFA352003F057FA10BD79
:1007400040380240005000401004000800600240A1
:1007500084060020180802406D48006840F00F0031
:100760006B4908606B4800686B4908436949086039
:100770000846006840F0400008606848006840F0A3
:100780008060664908606348006840F480506149B1
:1007900008606348006A40F08800614908620846C2
:1007A000C06840F00500C8600846806840F00F004F
:1007B00088600846006840F00A0008605548406AB2
:1007C00040F4EE415348416252480C30006840F416
:1007D000A00050490C310860081F006851490843C7
:1007E0004C49083108604B48006840F420004949F2
:1007F00008604A48406A40F40021484841624A483B
:10080000006840F400604849086044480C300068C3
:1008100040F0807041490C3108604348143800684A
:1008200040F010004049143908603C480830006826
:1008300040F040703949083108603B48183800687A
:1008400040F030003849183908603448006840F0FA
:1008500000703249086034482038006840F02000B9
:100860003149203908602B48406A40F0440129484A
:100870004162006840F420202649086025480C3079
:10088000006840F4A02023490C3108602148001D75
:10089000006840F440701F49091D0860081D006889
:1008A00040F47020091D08601D48006820F0404099
:1008B0001B4908600846C06820F04040C8601548E1
:1008C000006820F440701349086012480C3000683A
:1008D00020F440700F490C3108601148006810493D
:1008E00008600E4800680D4908600A480068094918
:1008F00008600B48006840F47070094908600846B9
:10090000806840F4707088600846C068C8607047AE
:100910003038024000040240100000550008024038
:10092000000002400C003000200C02400A48006821
:1009300040F40010084908602D2008490860D220C2
:100940000649183108602B20091D08600120034961
:10095000091F0860704700004038024004540040FE
:1009600010B50A48006840F480700849086042F2F7
:10097000CF000749886240F2CF70C8620120C8608A
:1009800008602D2003F032F910BD0000403802400D
:10099000002000403CB50020019000904E480068C7
:1009A00040F480304C49086000BF4B48006800F4B8
:1009B000003000900198401C0190009818B90198EF
:1009C000B0F57A7FF1D14448006800F002000028B9
:1009D0005ED04248006840F4807040490860084694
:1009E000006820F00F0008600846006840F005002D
:1009F00008603948083000683749083108600846FF
:100A0000006840F4A05008600846006840F40040C8
:100A10000860081F006840F48000091F086008464D
:100A2000006820F03F0008600846006840F00800B9
:100A300008600846006847F6C07188432649091DCA
:100A400008600846006840F428500860081F0068E5
:100A500040F08070091F086000BF1F48006800F068
:100A600000700028F9D01C480830006820F003000E
:100A70001949083108600846006840F00200086023
:100A800000BF15480830006800F00C000828F8D1B5
:100A900044F2A011481EB0F1807F00D31BE0481E35
:100AA0004FF0E022506150170F22002804DB13079B
:100AB0001C0E0B4B1C5406E013071D0E094B00F0D7
:100AC0000F04241F1D5500BF00204FF0E02290614D
:100AD0000720106100BF3CBD00380240003C0240CE
:100AE00000E400E018ED00E01B48006800F400405E
:100AF000B0F5004F2FD018483038006840F08050D3
:100B00001549303908601548006840F48070134971
:100B100008601148006840F480300F4908600846BA
:100B2000006820F4803008600846006840F4014006
:100B300008600846006840F00100086000BF0648F1
:100B4000006800F001000028F9D00448006820F493
:100B500080700249086070477038024000700040A1
:100B600000B585B020208DF80000204800780228CC
:100B700004D11F481F490978405C00E007208DF828
:100B8000010000208DF80200C7208DF803001A48EC
:100B900000788DF8040080208DF8050050208DF835
:100BA00006008DF8070005208DF8080000208DF85C
:100BB0000900FF208DF80A0000208DF80B008DF849
:100BC0000C008DF80D008DF80E008DF80F008DF8DB
:100BD000100039208DF8110000208DF8120013222A
:100BE00069468820FFF786FC05B000BD4C06002052
:100BF000064100084E0600205F06002010480068ED
:100C000040F480200E4908604FF4B6700D4908602A
:100C100042F20800091D086080200A490C31086072
:100C200007481038006840F4001005491039086082
:100C30000548064988650348001F0866704700009C
:100C4000403802400848004040040008006002406C
:100C50000748006840F400200549086041F2171079
:100C60000449086042F20C00091D0860704700004A
:100C700040380240084C004012480068401C1149AE
:100C800008600846006841F28831884218D1002087
:100C90000C4908600C48006800F0040040B10A48A4
:100CA000001D006840F480200749091D086007E026
:100CB0000548001D006840F004000349091D086054
:100CC00070470000780600201404024014480068B1
:100CD00040F47000124908601248006840F00100BA
:100CE0001049086000200F49083108600D4800686D
:100CF0000D4908400B4908600C48091D0860081F91
:100D0000006820F48020091F0860002005490C318C
:100D100008604FF0006002498039086070470000A9
:100D200088ED00E000380240FFFFF6FE103000249E
:100D30001CB5044640F6354060430D4901EB4010B8
:100D40008000C0F3CF3420128DF80000E0B28DF89F
:100D5000010010208DF8020012208DF80300002001
:100D60008DF8040005226946C020FFF7C3FB1CBDB7
:100D7000E86E0300084A5066D1654FF06462064B86
:100D80009A601A46926D42F001029A6500BF024ACB
:100D9000D26D002AFBD170470060024008B50020E8
:100DA000FE490861FE480078401CFD490870FD4876
:100DB000006840F08050FB490860FB48006900F47F
:100DC000806000283DD00846006840F480500860EC
:100DD000F6480078401CF549087008460078142849
:100DE0002EDBF348007802282AD114200870002056
:100DF0008DF8000007208DF8010002226946882046
:100E0000FFF778FBEB4908700120E949087002F010
:100E100049FFE949E64A127801EB02101021FFF779
:100E2000A9FF6220DE4908700420FFF77FFA0E2038
:100E300002F050FDDB48006840F00800D949086026
:100E4000EEE2DA48007814287EDAD84800780028E4
:100E50007AD0D7480078022877D1D8480078401C4B
:100E6000D649087008460078032801DD0020087084
:100E700002F018FF00208DF80000D148CF49097812
:100E8000405C8DF80100022269468820FFF732FBA2
:100E9000C84908700020CB4908702021CA48FFF7D4
:100EA00069FFCA49C54A127801EB42102021FFF7B9
:100EB00061FFC248007830B101284ED002285FD0CF
:100EC000032849D1EEE00E21C148FFF753FFC14886
:100ED00000884FF47A7190FBF1F03030BE4988728F
:100EE000BC4800884FF47A7190FBF1F000EB4001B0
:100EF000C1EBC010B7490988A1EBC000642190FB89
:100F0000F1F03030B449C872B2480088642190FBD7
:100F1000F1F000EBC00101EB0010AE490988A1EB34
:100F200080000A2190FBF1F03030AB490873A948EA
:100F300000880A2190FBF1F000EB8000A5490978B8
:100F4000A1EB4000303001E026E1B5E0A249887312
:100F50001621A148FFF70EFFADE00E219C48FFF7D8
:100F600009FF0020FFF7E2F99C490978C1EBC101B4
:100F700001EB41019A4A88181521FFF7FBFE9AE020
:100F80000021092002F0C8FD964908700846007843
:100F9000012804D115219448FFF7ECFE81E00E21D1
:100FA0009248FFF7E7FE482002F094FC4C2002F044
:100FB00091FC522002F08EFC8D480088642190FB49
:100FC000F1F030308B49887389480088642190FBA8
:100FD000F1F000EBC00101EB001085490988A1EB9D
:100FE00080000A2190FBF1F030308249C8738048BC
:100FF00000880A2190FBF1F000EB80007C49097821
:10100000A1EB400030307B49087479484088642166
:1010100090FBF1F030307749887275484088642140
:1010200090FBF1F000EBC00101EB00107049498822
:10103000A1EB80000A2190FBF1F030306D49C872BD
:101040006B4840880A2190FBF1F000EB8000684972
:101050008978A1EB40003030664908736448007A13
:1010600088746348407AC8746148807A087560481B
:10107000C07A48755E48007B88755D48407BC875BE
:10108000502088774120C877552081F820005320D0
:1010900081F82100452081F822002C215548FFF7D6
:1010A00069FE08E00E214A48FFF764FE112152480C
:1010B000FFF760FE00BF00BF3D48007801286BD1FC
:1010C00002203B49087002F0EDFD3B49384A127896
:1010D00001EB02101021FFF74DFE00208DF80000FB
:1010E000374836490978405C8DF80100022269468C
:1010F0008820FFF7FFF92F49087000203149087058
:1011000020213148FFF736FE30492C4A127801EB96
:1011100042102021FFF72EFE2848007830B1012828
:101120003BD002286AD0032869D120E10E2128484B
:10113000FFF720FE274800884FF47A7190FBF1F00A
:10114000303025498872234800884FF47A7190FB2B
:10115000F1F000EB4001C1EBC0101E490988A1EB82
:10116000C000642190FBF1F030301B49C87219486F
:101170000088642190FBF1F000EBC00101EB00104E
:1011800014490988A1EB80000A2190FBF1F030306E
:10119000114908730F4833E03FE143E0002000406D
:1011A000820600201804024000000240560600207B
:1011B0004C060020570600204C0000204E06002060
:1011C0000641000860060020DB0200209800002095
:1011D000780300205A060020600200205C060020F0
:1011E0007602002058060020470300206A030020F2
:1011F000A40600201B030020CA02002025E0BFE057
:1012000000880A2190FBF1F000EB8000FE4909788C
:10121000A1EB40003030FD4988731621FB48FFF7F1
:10122000A9FDADE00E21FA48FFF7A4FD0020FFF76D
:101230007DF8F8490978C1EBC10101EB4101F64A9B
:1012400088181521FFF796FD9AE00021092002F089
:1012500063FCF249087008460078012804D1152182
:10126000EF48FFF787FD81E00E21EE48FFF782FD92
:10127000482002F02FFB4C2002F02CFB522002F001
:1012800029FBE9480088642190FBF1F03030E74900
:101290008873E5480088642190FBF1F000EBC00101
:1012A00001EB0010E0490988A1EB80000A2190FBC6
:1012B000F1F03030DD49C873DB4800880A2190FB2B
:1012C000F1F000EB8000D8490978A1EB4000303004
:1012D000D6490874D4484088642190FBF1F030303E
:1012E000D2498872D0484088642190FBF1F000EB2D
:1012F000C00101EB0010CC494988A1EB80000A2114
:1013000090FBF1F03030C949C872C74840880A21C3
:1013100090FBF1F000EB8000C3498978A1EB40001D
:101320003030C2490873C048007A8874BE48407A99
:10133000C874BD48807A0875BB48C07A4875BA48F9
:10134000007B8875B848407BC8755020887741205D
:10135000C877552081F82000532081F821004520CE
:1013600081F822002C21B148FFF704FD08E00E218E
:10137000A748FFF7FFFC1121AD48FFF7FBFC00BFBA
:1013800000BFAC4890F90000002801DD2B2000E0F0
:101390002D20A9494872A74890F90000002806DDD1
:1013A000A44890F900000A2190FBF1F006E0A14862
:1013B00090F9000040420A2190FBF1F030309E4944
:1013C00088729C4890F9000000280DDD994890F93A
:1013D00000000A2190FBF1F000EB8000954991F9A3
:1013E0000010A1EB40000EE0924890F9000040424E
:1013F0000A2190FBF1F000EB80008E4991F900107A
:101400004942A1EB400030308B49C87220218A4804
:10141000FFF7B0FC622089490870002088490870F5
:101420008848006900F4805000287DD08648006814
:1014300040F480508449086084480078022874D1C0
:101440008348007820B1012858D0022855D159E0AE
:101450006D480088401C6C49088008460088B0F53B
:10146000876F02DB40F25230088067480088FFF740
:101470005FFC02F017FC644800884FF47A7190FB1F
:10148000F1F03030614988725F4800884FF47A711A
:1014900090FBF1F000EB4001C1EBC0105A49098804
:1014A000A1EBC000642190FBF1F030305749C872C5
:1014B00055480088642190FBF1F000EBC00101EB7E
:1014C000001051490988A1EB80000A2190FBF1F03E
:1014D00030304E4908734C4800880A2190FBF1F0E7
:1014E00000EB800048490978A1EB400030304749C3
:1014F000887316214548FFF73DFC5EE00220FEF7A9
:1015000015FF5AE001205349087002F0E3F94C201E
:1015100002F0E0F9522002F0DDF9434840886421EE
:1015200090FBF1F0303001E0C3E047E03F498872C2
:101530003D484088642190FBF1F000EBC00101EBD5
:10154000001039494988A1EB80000A2190FBF1F095
:1015500030303649C872344840880A2190FBF1F097
:1015600000EB800030498978A1EB400030302F49F2
:1015700008732D48007A88742B48407AC8742A482A
:10158000807A08752848C07A48752748007B887596
:101590002548407BC875502088774C20C87741206B
:1015A00081F82000592081F82100202081F82200B4
:1015B0002C211E48FFF7DEFB00BF00BF2348007848
:1015C000042876D12448007805281CD2DFE800F0F2
:1015D000034A58728B0021480078401C40B21F49D2
:1015E0000870084690F90000022801DD022008700A
:1015F0001A4991F9001001EB4101194A02EB01105F
:101600003021FFF7B7FB87E05A0600206002002078
:10161000780300205C060020760200205806002097
:10162000470300206A030020A40600201B030020BB
:10163000CA0200205F060020DB0200208206002094
:101640005606002000000240180402404C0600200C
:101650004E0600205D0600205006002051060020A6
:10166000030400200120FE49087091F9001001EBED
:101670004101FC4A02EB01103021FFF77BFB4BE0FC
:10168000F9480078401C40B2F7490870084690F9C4
:101690000000022801DD02200870F34991F90010D2
:1016A00001EB4101EF4A02EB01103021FFF762FB31
:1016B00032E032E0ED480078401C40B2EB4908705F
:1016C000084690F90000022801DD02200870E74971
:1016D00091F9001001EB4101E24A02EB01103021C7
:1016E000FFF748FB18E0E2480078401C40B2E049B0
:1016F0000870084690F90000032801DD00200870FA
:10170000DB4991F9001001EB4101DA4A02EB0110CB
:101710003021FFF72FFB00BF00BFD748006900F45E
:10172000004000287DD0D548006840F48050D3495F
:101730000860D3480078022877D1D2480078E8B30F
:10174000012804D0022806D003286DD13CE00120F6
:10175000FEF7ECFD68E0CC480078012818D10E2097
:1017600002F0B8F80020C84908705020C7498877AF
:101770004120C877552081F82000532081F82100AE
:10178000452081F822002C21C048FFF7F3FA19E028
:101790000D2002F09FF80120BB4908705020BB4982
:1017A00088774C20C877412081F82000592081F8A3
:1017B0002100202081F822002C2100E003E0B34822
:1017C000FFF7D8FA30E000BFB1480078B0B1002090
:1017D000AF4908708DF80000AE48AA490978405C0E
:1017E0008DF80100022269468820FEF783FEAA498F
:1017F00008702021A948FFF7BDFA15E00120A4498F
:10180000087000208DF8000007208DF801000222EA
:1018100069468820FEF76EFE9F4908702021A04887
:1018200000E002E0FFF7A6FA00BF9348006900F469
:10183000006000287DD09148006840F480508F49B6
:1018400008608F480078022874D18E48007820B153
:1018500001285AD0022857D15BE092480088401EE8
:10186000904908800846008840F25231884203DCE3
:101870004FF487608B4908808A480088FFF758FA40
:1018800002F010FA874800884FF47A7190FBF1F06B
:10189000303085498872834800884FF47A7190FB14
:1018A000F1F000EB4001C1EBC0107E490988A1EBCB
:1018B000C000642190FBF1F030307B49C872794858
:1018C0000088642190FBF1F000EBC00101EB0010F7
:1018D00074490988A1EB80000A2190FBF1F03030B7
:1018E000714908736F4800880A2190FBF1F000EB02
:1018F00080006C490978A1EB400030306A49887358
:1019000016216948FFF736FA5FE00320FEF70EFD67
:101910005BE001205C490870022001F0DBFF4C20F5
:1019200001F0D8FF522001F0D5FF604840886421C3
:1019300001E0C1E04AE090FBF1F030305349887299
:101940005A484088642190FBF1F000EBC00101EBA4
:10195000001056494988A1EB80000A2190FBF1F064
:1019600030304A49C872514840880A2190FBF1F052
:1019700000EB80004D498978A1EB400030304349AD
:1019800008734A48007A88744848407AC8744748BF
:10199000807A08754548C07A48754448007B887548
:1019A0004248407BC875502088774C20C87741203A
:1019B00081F82000592081F82100202081F82200A0
:1019C0002C213248FFF7D6F900BF00BF2C48007821
:1019D000042871D13648007805281CD2DFE800F0D1
:1019E000031C2A718A0033480078401E40B23149F6
:1019F0000870084690F90000002801DA00200870FD
:101A00002C4991F9001001EB4101164A02EB01103B
:101A10003021FFF7AFF986E000201149087091F9F5
:101A2000001001EB41010F4A02EB01103021FFF7DA
:101A3000A1F978E00C480078401E40B20A490870CD
:101A4000084690F90000002801DA002008700649D5
:101A500091F9001001EB4101024A02EB01102CE068
:101A600052060020030400205306002054060020E4
:101A70005506002093040020000002401804024094
:101A80004C0600204E0600205D0600201B030020AF
:101A9000600600200641000857060020DB020020F7
:101AA000FB0200205A06002060020020A40600204D
:101AB000500600205106002036E03021FFF75AF989
:101AC00031E0FA480078401E40B2F84908700846F4
:101AD00090F90000002801DA00200870F34991F91C
:101AE000001001EB4101F24A02EB01103021FFF737
:101AF00041F918E0EF480078401E40B2ED49087007
:101B0000084690F90000002801DA03200870E9492E
:101B100091F9001001EB4101E74A02EB011030217D
:101B2000FFF728F900BF00BFE448006800F48060B8
:101B3000002879D0E248006840F48050E04908600D
:101B4000E0480078022870D10020DF490870DF48A3
:101B50000078401C40B2DD490870084690F900004A
:101B60000F2801DD0F20087002F09CF800208DF88E
:101B70000000D748D7490978405C8DF8010002225F
:101B800069468820FEF7B6FCD349087003208DF81B
:101B90000000CE4890F90000002803DDCB4890F902
:101BA000000004E0C94890F90000C0F11000C0B284
:101BB0008DF80100022269468820FEF79BFCC64989
:101BC0000870C24890F90000002801DD2B2000E0D9
:101BD0002D20C2494872BD4890F90000002806DD5A
:101BE000BA4890F900000A2190FBF1F006E0B748EE
:101BF00090F9000040420A2190FBF1F03030B749E3
:101C00008872B24890F9000000280FDDAF4890F9C3
:101C100000000A2190FBF1F000EB8000AB4991F944
:101C20000010A1EB400010E098E015E0A74890F903
:101C3000000040420A2190FBF1F000EB8000A34934
:101C400091F900104942A1EB40003030A349C8721D
:101C50002021A248FFF78EF89A48007804287DD109
:101C60009F48007830B1012879D0022878D0032825
:101C700077D180E29B4890F9000020B1012855D02F
:101C8000022852D17AE098484078401C9649487022
:101C900008464078032801DD0320487092484078C8
:101CA00030B1012813D0022820D003283CD12CE0E9
:101CB00020208E494872462088724C20C8724120EC
:101CC00008735420487320208873C8732CE02020A8
:101CD00086494872342088723020C87208732020E8
:101CE0004873482088737A20C8731DE020207F49FC
:101CF0004872382088723020C872087320204873D8
:101D0000482088737A20C8730EE0322077494872E1
:101D1000342088723020C87208732020487348200D
:101D200088737A20C87300BF00BF35E06E48007822
:101D300018B900206C49087004E06B480078401E18
:101D400069490870684800780A2190FBF1F030304A
:101D500066498877644800780A2103E016E33DE08D
:101D6000FDE007E290FBF1F000EB80005E490978AE
:101D7000A1EB400030305D49C8770DE000205A49A2
:101D800088702020594981F830004F2081F83100B7
:101D90004E2081F8320000BF00BF01208DF8000006
:101DA0005148007800F00F004F494978302202EA8C
:101DB000011108434C498978402202EA8111084305
:101DC0008DF80100022269468820FEF793FB424904
:101DD000087037214548FEF7CDFFD6E24448007829
:101DE00068BB44484078401C4249487008464078E7
:101DF000032801DD032048703E48407800EBC00115
:101E000001EB00100A2190FBF1F030303A49887262
:101E10003848407800EBC00101EB00100A2190FB2C
:101E2000F1F000EB80013348407800EBC00202EB98
:101E30000010A0EB410030302F49087362E02D48BC
:101E40000078401C40B22B490870084690F9000009
:101E50000F2801DD0F200870264890F900000028A7
:101E600001DD2B2000E02D2023494877214991F9FD
:101E700000100A2291FBF2F0002801DB014600E08D
:101E8000414230311C4A91771A4991F900100A22D7
:101E900091FBF2F101EB8101164A92F90020A2EBCD
:101EA000410000282ADB014629E0000054060020FA
:101EB000030400205506002093040020100802406F
:101EC000180402404C060020600600205F06002037
:101ED000064100084E06002057060020DB020020C5
:101EE0005006002051060020660600205305002001
:101EF00052060020690600208A0500204142303148
:101F0000FE4AD17704208DF80000FD4991F90010B8
:101F1000002905DDFA4991F9001041F0100107E0B0
:101F2000F74991F90000002801DB014600E0414239
:101F3000F34A5278602303EA421242F080021143CE
:101F4000C9B28DF80110022269468820FEF7D2FA44
:101F5000EC4908702721E948FEF70CFF15E2EA4832
:101F600090F9000020B1012833D0022830D16BE075
:101F7000E6484078401CE549487008464078032808
:101F800001DD03204870E1484078401C00EB8000F0
:101F90000A2190FBF1F03030DD494872DB4840788F
:101FA000401C00EB80000A2190FBF1F000EB800167
:101FB000D6484078401C00EB8000A0EB4100303058
:101FC000D3498872D1484078032801D135208872DE
:101FD0008BE0CE480078401C40B2CC4908700846DF
:101FE00090F900000F2801DD0F200870C74890F914
:101FF0000000002801DD2B2000E02D20C449487797
:10200000C24991F900100A2291FBF2F0002801DB8D
:10201000014600E041423031BD4A9177BB4991F918
:1020200000100A2291FBF2F101EB8101B74A92F90B
:102030000020A2EB4100002801DB014600E0414204
:102040003031B34AD17750E0B0488078401CAF4976
:10205000887008468078032801DD03208870AB482B
:10206000807800EBC00101EB00103230642190FB5E
:10207000F1F03030A64981F83000A448807800EBB8
:10208000C00101EB00103230642190FBF1F000EB55
:10209000C00101EB00119D48807800EBC00202EB0B
:1020A00000103230A0EB81000A2190FBF1F03030BB
:1020B000974981F832009548807800EBC00101EB28
:1020C000001032300A2190FBF1F000EB80018F48C4
:1020D000807800EBC00202EB00103230A0EB410030
:1020E00030308B4981F8330000BF00BF05208DF8E8
:1020F0000000864991F90010002905DD834991F916
:10210000001041F0100107E0804991F9000000281B
:1021100001DB014600E0414201F01F017B4A927859
:10212000602303EA421211438DF80110022269462E
:102130008820FEF7DFF97349087008208DF8000049
:1021400074484078302101EA001040F0C0006F4927
:1021500049780C2202EA810108438DF8010002222D
:1021600069468820FEF7C6F9664908703821684834
:10217000FEF700FE09E1684890F9000020B101284F
:1021800031D002282ED169E062484078401C614974
:10219000487008464078032801DD032048705D48F8
:1021A000407830B101280AD002280ED0032818D177
:1021B00011E02020594948723620887211E0202011
:1021C00056494872382088720BE0312053494872D2
:1021D0003020887205E032205049487230208872E1
:1021E00000BF00BF7AE04B480078401C40B249492C
:1021F0000870084690F900000F2801DD0F200870D4
:10220000444890F90000002801DD2B2000E02D203B
:10221000424908773F4991F900100A2291FBF2F0F8
:10222000002801DB014600E0414230313B4A517752
:10223000384991F900100A2291FBF2F101EB81017A
:10224000344A92F90020A2EB4100002801DB01464C
:1022500000E041423031314A91773FE02D488078AB
:10226000401C2C49887008468078032801DD032033
:1022700088703120294981F82F002648807800EBAA
:10228000C00101EB00100A2190FBF1F0303023492E
:1022900081F831001F48807800EBC00101EB00108D
:1022A0000A2190FBF1F000EB80001A49897801EBDC
:1022B000C10202EB0111A1EB40003030174981F857
:1022C000320014488078032807D1322081F82F008B
:1022D000302081F8310081F8320000BF00BF0620B5
:1022E0008DF800000B4991F90010002918DD09490B
:1022F00091F9001041F010011AE000008A05002059
:102300006906002057060020530600206B060020B7
:10231000B10500206E06002054060020E9050020CB
:10232000FC4991F90000002801DB014600E0414230
:1023300001F01F01F74A9278602303EA4212114329
:102340008DF80110022269468820FEF7D3F8F24981
:10235000087008208DF80000EE484078302101EA2E
:102360000010EE4949780C2202EA810108438DF8F9
:102370000100022269468820FEF7BCF8E649087091
:102380003721E748FEF7F6FC00BF00BFE5480068CC
:1023900000F4006000287AD0E348006840F48050E0
:1023A000E1490860E1480078022871D10020E04945
:1023B0000870E0480078401E40B2DE4908700846C8
:1023C00090F9000010F14F0F01DAB120087001F010
:1023D00069FC00208DF80000D748D8490978405C96
:1023E0008DF80100022269468820FEF783F8CA4969
:1023F000087003208DF80000CE4890F900000028F6
:1024000003DDCC4890F9000004E0CA4890F90000D0
:10241000C0F11000C0B28DF8010002226946882088
:10242000FEF768F8BC490870C24890F9000000281F
:1024300001DD2B2000E02D20C1494872BD4890F9F4
:102440000000002806DDBB4890F900000A2190FB3F
:10245000F1F006E0B74890F9000040420A2190FBF5
:10246000F1F03030B6498872B24890F90000002887
:102470000FDDB04890F900000A2190FBF1F000EB6D
:102480008000AC4991F90010A1EB400010E098E009
:1024900015E0A84890F9000040420A2190FBF1F0B5
:1024A00000EB8000A34991F900104942A1EB4000E4
:1024B0003030A349C8722021A148FEF75BFC9B483D
:1024C000007804287DD19F48007830B1012879D068
:1024D000022878D0032877D181E29B4890F9000048
:1024E00020B1012856D0022853D17AE0974840788D
:1024F00018B900209549487004E094484078401E7F
:10250000924948709148407830B1012813D0022890
:1025100020D003283CD12CE020208D494872462051
:1025200088724C20C87241200873542048732020C0
:102530008873C8732CE02020854948723420887243
:102540003020C872087320204873482088737A208E
:10255000C8731DE020207E494872382088723020E0
:10256000C872087320204873482088737A20C87383
:102570000EE0322076494872342088723020C872CA
:10258000087320204873482088737A20C87300BFDE
:1025900000BF33E06D480078401C6C490870084665
:1025A00000780F2801DD0F200870684800780A21A4
:1025B00090FBF1F0303066498877644800780A2152
:1025C00003E01AE33CE0FCE008E290FBF1F000EBF2
:1025D00080005E490978A1EB400030305C49C87743
:1025E0000CE00120594988704F20594981F830008A
:1025F000462081F8310081F8320000BF00BF012081
:102600008DF800005148007800F00F004F494978DC
:10261000302202EA011108434C498978402202EA3B
:10262000811108438DF80100022269468820FDF7D8
:1026300061FF3949087037214548FEF79BFBDBE213
:102640004448007870BB4448407818B9002042499B
:10265000487004E040484078401E3F4948703E487A
:10266000407800EBC00101EB00100A2190FBF1F073
:1026700030303A4988723848407800EBC00101EBAD
:1026800000100A2190FBF1F000EB800032494978FC
:1026900001EBC10202EB0111A1EB400030302F49E8
:1026A000087361E02C480078401E40B22A49087047
:1026B000084690F9000010F10F0F01DAF1200870C0
:1026C000254890F90000002801DD2B2000E02D2096
:1026D00022494877204991F900100A2291FBF2F033
:1026E000002801DB014600E0414230311B4A91776E
:1026F000194991F900100A2291FBF2F101EB8101D5
:10270000154A92F90020A2EB4100002828DB01467F
:1027100027E000006E060020570600206B06002010
:10272000E905002010080240180402404C06002071
:10273000600600205F060020064100084E060020CB
:10274000DB02002050060020510600206606002013
:102750005305002052060020690600208A0500204B
:1027600041423031FE4AD17704208DF80000FD4906
:1027700091F90010002905DDFA4991F9001041F0A6
:10278000100107E0F74991F90000002801DB01463C
:1027900000E04142F34A5278602303EA421242F0D9
:1027A00080021143C9B28DF80110022269468820C7
:1027B000FDF7A0FEEC4908702721E948FEF7DAFA98
:1027C0001AE2EA4890F9000020B1012834D002282A
:1027D00031D16CE0E648407818B90020E4494870EF
:1027E00004E0E3484078401EE1494870E048407802
:1027F000401C00EB80000A2190FBF1F03030DD49F5
:102800004872DB484078401C00EB80000A2190FBB6
:10281000F1F000EB8001D6484078401C00EB8000CE
:10282000A0EB41003030D3498872D148407803286A
:1028300001D1352088728CE0CD480078401E40B22E
:10284000CB490870084690F900000F2801DAF12002
:102850000870C74890F90000002801DD2B2000E037
:102860002D20C4494877C24991F900100A2291FBF2
:10287000F2F0002801DB014600E041423031BD4A60
:102880009177BB4991F900100A2291FBF2F101EB1B
:102890008101B74A92F90020A2EB4100002801DB38
:1028A000014600E041423031B24AD17751E0B048B0
:1028B000807818B90020AE49887004E0AC48807870
:1028C000401EAB498870AA48807800EBC00101EB3C
:1028D00000103230642190FBF1F03030A54981F8CE
:1028E0003000A348807800EBC00101EB00103230CB
:1028F000642190FBF1F000EBC00101EB00119C485A
:10290000807800EBC00202EB00103230A0EB8100B7
:102910000A2190FBF1F03030964981F8320094485A
:10292000807800EBC00101EB001032300A2190FBEF
:10293000F1F000EB80018E48807800EBC00202EBE2
:1029400000103230A0EB410030308A4981F833006A
:1029500000BF00BF05208DF80000854991F90010E7
:10296000002905DD824991F9001041F0100107E0CE
:102970007F4991F90000002801DB014600E0414257
:1029800001F01F017A4A9278602303EA4212114350
:102990008DF80110022269468820FDF7ABFD7249CF
:1029A000087008208DF8000073484078302101EA53
:1029B000001040F0C0006E4949780C2202EA810103
:1029C00008438DF80100022269468820FDF792FD38
:1029D0006549087038216748FEF7CCF90CE1674873
:1029E00090F9000020B1012832D002282FD16BE0ED
:1029F0006148407818B900205F49487004E05E489B
:102A00004078401E5C4948705B48407830B10128EE
:102A10000AD002280ED0032818D111E020205849EE
:102A200048723620887211E02020554948723820BB
:102A300088720BE03120524948723020887205E0DC
:102A400032204F4948723020887200BF00BF7CE0BE
:102A500049480078401E40B247490870084690F93E
:102A6000000010F10F0F01DAF1200870424890F9D0
:102A70000000002801DD2B2000E02D2040490877D0
:102A80003D4991F900100A2291FBF2F0002801DB88
:102A9000014600E041423031394A5177364991F9D7
:102AA00000100A2291FBF2F101EB8101324A92F906
:102AB0000020A2EB4100002801DB014600E041427A
:102AC00030312F4A917740E02B48807818B90020A8
:102AD0002949887004E028488078401E264988707B
:102AE0003120274981F82F002348807800EBC0016E
:102AF00001EB00100A2190FBF1F03030204981F801
:102B000031001D48807800EBC00101EB00100A2164
:102B100090FBF1F000EB80001749897801EBC102CE
:102B200002EB0111A1EB40003030154981F8320071
:102B300011488078032807D1322081F82F003020F7
:102B400081F8310081F8320000BF00BF06208DF807
:102B50000000094991F90010002918DD064911E02B
:102B60008A05002069060020570600205306002031
:102B70006B060020B10500206E06002054060020E0
:102B8000E905002091F9001041F0100107E0F74934
:102B900091F90000002801DB014600E0414201F00C
:102BA0001F01F24A9278602303EA421211438DF822
:102BB0000110022269468820FDF79CFCEC49087050
:102BC00008208DF80000E9484078302101EA001023
:102BD000E84949780C2202EA810108438DF8010096
:102BE000022269468820FDF785FCE14908703721FB
:102BF000E148FEF7BFF800BF00BFE048006900F4FD
:102C0000007000287ED0DE48007803287AD1DD48A5
:102C10000078072877D2DFE800F0042AA6517DCF9C
:102C2000EF00D9480078401CD74908700846007862
:102C3000182801DB00200870D34800780A2190FB97
:102C4000F1F03030D1494872CF4800780A2190FB2A
:102C5000F1F000EB8000CC490978A1EB4000303066
:102C6000CA4988720F21C948FEF784F86EE1C84846
:102C70000078401CC6490870084600783C2801DBF3
:102C800000200870C24800780A2190FBF1F0303033
:102C9000BE490876BE4800780A2190FBF1F000EBAF
:102CA0008000BB490978A1EB40003030B749487635
:102CB0000F21B6480F30FEF75DF847E1B5480078C0
:102CC000401CB4490870084600780D2801DB01203B
:102CD0000870B04800780A2190FBF1F03030AB4921
:102CE00081F82700AB4800780A2190FBF1F000EB57
:102CF0008000A8490978A1EB40003030A34981F851
:102D0000280001E023E120E10F21A0481E30FEF75A
:102D100031F81BE1A0480078401C9F490870084624
:102D20000078202801DB012008709B4800780A21E8
:102D300090FBF1F03030954981F8360096480078E4
:102D40000A2190FBF1F000EB800093490978A1EB98
:102D5000400030308D4981F837000F218B482D30ED
:102D6000FEF708F8F2E08D480078401C8B490870A7
:102D7000084600781E2801DB12200870874800787A
:102D80000A2190FBF1F03030804981F845008348FA
:102D900000780A2190FBF1F000EB80007F49097870
:102DA000A1EB40003030794981F846000F21774887
:102DB0003C30FDF7DFFFC9E079480078401C7849D6
:102DC000087008460078082801DB01200870744864
:102DD0000078401E00EBC000724901446B480A684D
:102DE00042654A688265097A80F85C1017214B3089
:102DF000FDF7C0FFAAE0FFE76B4800786049087064
:102E00006A48006840F08050684908606848006877
:102E100040F4807066490860CA2066490860532003
:102E2000086064481838006840F08000614918392B
:102E3000086000BF5F481838006800F040000028B4
:102E4000F8D0534800780A2190FBF1F00003504974
:102E500009780A2291FBF2F101EB81014C4A1278C8
:102E6000A2EB410140EA0120474909780A2291FB7F
:102E7000F2F140EA01514448007890FBF2F000EB97
:102E80008000414A1278A2EB400041EA00404949E3
:102E900024390860404800780A2190FBF1F000EBEB
:102EA00080003D490978A1EB40003B4909780A229E
:102EB00091FBF2F140EA01103649097891FBF2F1F9
:102EC00040EA01303349097891FBF2F101EB8101CD
:102ED000304A1278A2EB410140EA01202F490978DB
:102EE0000A2291FBF2F140EA01512C48007890FB54
:102EF000F2F000EB8000294A1278A2EB400041EA90
:102F000000402749097840EA41302A4920390860C1
:102F100028481838006820F08000264918390860D1
:102F2000FF20244908602248006820F4807020496E
:102F300008602149124A127801EB02101021FDF7B6
:102F400019FF62201D49087000E000BF00BF0B4858
:102F5000006900F4807040B10948007801282FD042
:102F600002282ED003287CD125E13CE16E0600200A
:102F7000570600206B060020E905002000000240F3
:102F80004C0600204D0600207C060020C0010020D9
:102F90007D0600207E0600207F060020810600209E
:102FA00080060020210200204F0600204038024009
:102FB00000700040242800404C00002082060020C1
:102FC00000BFF7480078F74908700320F4490870FB
:102FD000F549F34A127801EB02101021FDF7CAFE01
:102FE0000020F2490870097801EB4101F04A02EB38
:102FF000C1001821FDF7BEFEEE480068C0F3034093
:10300000EC490968C1F3015101EB810100EB41007A
:10301000E9490870E7480068C0F30320E5490968FA
:10302000C1F3023101EB810100EB4100E34908707B
:10303000E048001D006800F00F00DE49091D096826
:10304000C1F3011101EB810100EB4100DC49087083
:10305000D848001D0068C0F30320D649091D09683F
:1030600000E0BEE0C1F3003101EB810100EB410063
:10307000D4490870CF48001D0068C0F30340CD4913
:10308000091D0968C1F3035101EB810100EB410007
:10309000CD490870C748001D0068C0F34230CB49D5
:1030A0000870C54800780A2190FBF1F03030C8491B
:1030B0004872C14800780A2190FBF1F000EB8000D3
:1030C000BD490978A1EB40003030C1498872BB4846
:1030D00000780A2190FBF1F03030BD490876B748FE
:1030E00000780A2190FBF1F000EB8000B3490978E9
:1030F000A1EB40003030B6494876B24800780A214A
:1031000090FBF1F03030B24981F82700AD480078EB
:103110000A2190FBF1F000EB8000AA490978A1EBAD
:1031200040003030AA4981F82800A54800780A21DB
:1031300090FBF1F03030A64981F83600A0480078C5
:103140000A2190FBF1F000EB80009D490978A1EB8A
:10315000400030309E4981F837009B4800780A21B2
:1031600090FBF1F030309A4981F84500964800789C
:103170000A2190FBF1F000EB800093490978A1EB64
:1031800040003030924981F846008A48001D0068AE
:10319000C0F34230401E00EBC0008E4901448C4811
:1031A0000A6842654A688265097A80F85C10612184
:1031B000FDF7E0FD16E07D480078401C7B49087073
:1031C00008460078062801DD002008707749097854
:1031D00001EB4101764A02EBC1001821FDF7CAFD5F
:1031E00000E000BF00BF7C48006800F0200000281D
:1031F0007ED06B48007802287BD104206849087093
:10320000002076490870097801EB8101744A02EBCD
:1032100081001421FDF7AEFD0C217248FDF7AAFDD7
:1032200000207149087091F9001001EB41016F4ACB
:1032300002EB01103021FDF79DFD6D48407830B163
:10324000012813D0022820D003283CD12CE02020D4
:1032500068494872462088724C20C8724120087321
:103260005420487320208873C8732CE020206149C3
:103270004872342088723020C87208732020487346
:10328000482088737A20C8731DE02020594948726D
:10329000382088723020C872087320204873482074
:1032A00088737A20C8730EE0322052494872342065
:1032B00088723020C87208732020487348208873B1
:1032C0007A20C87300BF00BF494800780A2190FBEC
:1032D000F1F0303047498877454800780A2190FB63
:1032E000F1F000EB800042490978A1EB400001E0D9
:1032F00041E21DE030303F49C8773D48807840B119
:103300004F2081F83000462081F8310081F83200EA
:1033100009E02020374981F830004F2081F8310042
:103320004E2081F8320037213248FDF723FD22E29A
:103330001B4800780428FAD128480078042812D1C4
:103340000220174908701849154A127801EB02103B
:103350001021FDF70FFD0C212248FDF70BFD622027
:103360002549087007E21D480078401C1B49087079
:10337000097801EB81011A4A02EB81001421FDF763
:10338000F9FC0C211748FDF7F5FC144800780128DA
:1033900034D0022875D0032874D0042873D1D0E12A
:1033A0004C0600204F0600204C0000204D06002057
:1033B00018010020002800407C0600207D06002027
:1033C0007F0600207E060020810600208006002067
:1033D000C0010020210200201004024050060020FD
:1033E0009F0300208C0000205106002003040020D1
:1033F0006606002053050020820600200020FE49BA
:10340000087091F9001001EB4101FC4A02EB011038
:103410003021FDF7AFFCFA48407800EBC00101EB2A
:1034200000100A2190FBF1F03030F6498872F44820
:10343000407800EBC00101EB00100A2190FBF1F095
:1034400000EB8000EE49497801EBC10202EB01116B
:10345000A1EB40003030EB490873E94890F90000D7
:10346000002801DD2B2000E02D20E6494877E449C3
:1034700091F900100A2291FBF2F0002804DB0146CA
:1034800003E01FE0C7E075E141423031DD4A91774A
:10349000DB4991F900100A2291FBF2F101EB810165
:1034A000D74A92F90020A2EB4100002801DB014637
:1034B00000E041423031D34AD17727211046FDF751
:1034C00059FC57E10020D049087091F9001001EB38
:1034D0004101CA4A02EB01103021FDF74BFCCB48F9
:1034E0004078401C00EB80000A2190FBF1F0303066
:1034F000C7494872C5484078401C00EB80000A214B
:1035000090FBF1F000EB8001C0484078401C00EBDC
:103510008000A0EB41003030BD498872BB48407844
:10352000032801D135208872B84890F9000000289E
:1035300001DD2B2000E02D20B5494877B34991F9F2
:1035400000100A2291FBF2F0002801DB014600E0A6
:1035500041423031AE4A9177AC4991F900100A22CC
:1035600091FBF2F101EB8101A84A92F90020A2EB54
:103570004100002801DB014600E041423031A44A0D
:10358000D177A248807800EBC00101EB0010323007
:10359000642190FBF1F03030114681F830009B48F7
:1035A000807800EBC00101EB00103230642190FB09
:1035B000F1F000EBC00101EB00119448807800EBC2
:1035C000C00202EB00103230A0EB81000A2190FB18
:1035D000F1F030308E4981F832008C48807800EB71
:1035E000C00101EB001032300A2190FBF1F000EB3A
:1035F00080018648807800EBC00202EB0010323078
:10360000A0EB41003030824981F8330038218048F6
:10361000FDF7B0FBAEE000207E49087091F9001084
:1036200001EB4101754A02EB01103021FDF7A2FBCD
:103630007948407830B101280AD002280ED00328FA
:1036400018D111E02020754948723620887211E0A7
:10365000202072494872382088720BE031206F496F
:1036600048723020887205E032206C494872302060
:10367000887200BF00BF684890F90000002801DD93
:103680002B2000E02D2065490877634991F900104F
:103690000A2291FBF2F0002801DB014600E04142E2
:1036A00030315E4A51775C4991F900100A2291FB52
:1036B000F2F101EB8101584A92F90020A2EB41009E
:1036C000002801DB014600E041423031534A917746
:1036D0003120114681F82F004F48807800EBC0015F
:1036E00001EB00100A2190FBF1F03030114681F817
:1036F00031004948807800EBC00101EB00100A213D
:1037000090FBF1F000EB80004349897801EBC102A6
:1037100002EB0111A1EB40003030404981F832004A
:103720003D488078032807D1322081F82F003020CF
:1037300081F8310081F8320037213848FDF71AFB53
:1037400018E000203649087091F9001001EB4101A2
:10375000344A02EB01103021FDF70CFB304991F99E
:10376000001001EB41012F4A02EB01103021FDF75F
:1037700001FB00BF00BF2C480078022803D02A4874
:10378000007801287ED12948007864287ADB00205F
:1037900026490870FCF7CAFD25480068C0F30320DD
:1037A00030302449887322480068C0F3023030303A
:1037B00048731F480068C0F303403030C8721C488B
:1037C0000068C0F30150303088721948001D00684D
:1037D00000F00F00303081F820001548001D00680F
:1037E000C0F301103030C8771148001D0068C0F3E5
:1037F0000320303020E000005206002003040020A7
:10380000690600208A050020530600206B06002070
:10381000B1050020540600206E060020E9050020B6
:1038200055060020930400204C060020820600204C
:10383000002800401400002081F82300154800688B
:10384000C0F30030303081F8220012480068C0F325
:103850000340303081F826000E480068C0F3035062
:10386000303081F825000B480068C0F34230401E1C
:1038700000EBC0000849014408480A6802604A6831
:10388000426000E005E0097A017238212B38FDF72B
:1038900071FA08BD04280040210200203F000020EA
:1038A00008B50A48006800F0100068B107480068D1
:1038B000009006484068009000BF0548006920F06D
:1038C00001000349086100BF08BD0000005000402E
:1038D0000060024030B50346002189488370894862
:1038E000006800F0200018B18648001D0068C2B2D0
:1038F00000200DE000BF834C246804F04004002C3D
:10390000F9D07F4C245C7F4D2D1D2C60441CE0B20F
:103910000428EFDB482B12D008DC012B75D0022BDA
:1039200074D00D2B73D00E2B2FD1C5E04C2B2DD086
:10393000502B7DD0512B50D0522BF5D19FE0042439
:1039400021E0002105E0491C6F48814201D101209E
:1039500030BD6C48006800F020000028F3D06948B2
:10396000001D0068C2B2612A01DB572000E0302050
:10397000101A651EAD00A840644D2D882843634D84
:103980002880601EC4B2002CDBDCB0E0042421E0FF
:10399000002105E0491C5C48814201D10120D7E7A4
:1039A0005848006800F020000028F3D05548001D5A
:1039B0000068C2B2612A01DB572000E03020101AF3
:1039C000651EAD00A840514D6D8828434F4D68805D
:1039D000601EC4B2002CDBDC89E0042425E0002159
:1039E00005E0491C4848814201D10120B0E7454823
:1039F000006800F020000028F3D04248001D006855
:103A0000C2B2612A05DB572004E056E056E052E0DE
:103A10000EE03020101A651EAD00A8403B4DED8829
:103A200028433A4DE880601EC4B2002CD7DC5EE02B
:103A3000042421E0002105E0491C3348814201D1E2
:103A4000012085E72F48006800F020000028F3D00F
:103A50002C48001D0068C2B2612A01DB572000E03B
:103A60003020101A651EAD00A840284DAD882843AF
:103A7000264DA880601EC4B2002CDBDC37E0002499
:103A800016E0002105E0491C1F48814201D10120B8
:103A90005EE71C48006800F020000028F3D01948B9
:103AA000001D0068C2B2194808300255601CC4B23B
:103AB0000B2CE6DB1BE000BF00BF00BF002413E0BF
:103AC000002105E0491C1248814201D101203FE755
:103AD0000C48006800F020000028F3D00948001DC1
:103AE0000068C5B2601CC4B2022CE9DB00BF00BF95
:103AF000002000E0401C074CA042FBD3002027E739
:103B000043060020004C004080841E00A4060020D4
:103B100040420F0060EC530070B502460B46002196
:103B20002E488270C3702E48006800F0200018B143
:103B30002B48001D0068C4B200200DE000BF284DD6
:103B40002D6805F08005002DF9D0244D2D5C244E04
:103B5000361D3560451CE8B20528EFDB092A1CD16B
:103B6000002517E0002105E0491C1E48814201D1D3
:103B7000012070BD1A48006800F020000028F3D032
:103B80001748001D0068C4B2532C01D10120F0E792
:103B9000681CC5B2052DE5DB17E0002513E0002108
:103BA00005E0491C0F48814201D10120E1E70C48A2
:103BB000006800F020000028F3D00948001D0068CC
:103BC000C4B2681CC5B2022DE9DB002000E0401C35
:103BD000054DA842FBD30020CBE70000470600209C
:103BE000004C004080841E0020AA4400002809DB0D
:103BF00000F01F02012191404209920002F1E022EF
:103C0000C2F800117047000000B502460D48006878
:103C100040F002000B4908600846006840EAC20014
:103C200008600846006840F48030086005E00548F8
:103C3000006820F002000349086000F009F800283D
:103C4000F5D000BD103C02400146086870470000F6
:103C500002480068012121EA104070470C3C0240F4
:103C600000B502460B460E48006840F001000C49C2
:103C700008600846006840F40070086000BFFFF765
:103C8000E7FF0028FBD0136000BFFFF7E1FF00282B
:103C9000FBD00348006820F001000149086000BD26
:103CA000103C024000B50320FFF7AEFF0D4800783E
:103CB00000060D4A127840EA02400C4A92F90020B0
:103CC0004FF47F4303EA022240EA02010848FFF76B
:103CD000C7FF0848008801040548001DFFF7C0FF22
:103CE00000BD00004C0600204E0600205F060020AC
:103CF00000C000085A060020FCF74CFEFCF72CFD23
:103D0000E448006840F00800E2490860E2480068C2
:103D100040F00050E0490860E048E1490860E148AF
:103D20000860FCF761FCFCF769FF0721DE48FDF73E
:103D300021F8002000E0401CDC498842FBD33220FF
:103D4000DB490872352048720D21D948FDF712F879
:103D5000FCF7CAFE3520D6490872302048720D2182
:103D6000D348FDF707F8FCF7FBFD3720D049087270
:103D7000352048720D21CE48FCF7FCFFFCF7D6FD3C
:103D8000FCF79AFCFCF764FF00210920FFF7C4FE52
:103D9000C84908700846007858B91E210620FFF768
:103DA000BBFEC449087000211120FFF7B5FEC149D0
:103DB0000870C148FFF748FF000EC0490870BE48B0
:103DC000FFF742FF00F47F00000CBD490870BA48BD
:103DD000FFF73AFF000A40B2BA490870B648001D22
:103DE000FFF732FF000CB8490880B849B34A12788F
:103DF00001EB02101021FCF7BDFF0C21B448FCF7C9
:103E0000B9FFFCF7ADFEB3490870AF480088FCF776
:103E10008FFFB0490870A948007802287DD1AE49CB
:103E2000A74A127801EB42102021FCF7A3FFA54816
:103E300090F90000002801DD2B2000E02D20A7498B
:103E40004872A04890F90000002806DD9D4890F9CE
:103E500000000A2190FBF1F006E09A4890F900007A
:103E600040420A2190FBF1F030309C49887295481D
:103E700090F9000000280DDD924890F900000A2119
:103E800090FBF1F000EB80008E4991F90010A1EB5E
:103E900040000EE08B4890F9000040420A2190FB60
:103EA000F1F000EB8000874991F900104942A1EB45
:103EB000400030308949C87220218848FCF75AFFF9
:103EC0007F48007830B101284DD0022853D0032814
:103ED00048D1CFE07C4800884FF47A7190FBF1F034
:103EE00030307F498872784800884FF47A7190FBAF
:103EF000F1F000EB4001C1EBC01073490988A1EB60
:103F0000C000642190FBF1F030307549C8726E48F2
:103F10000088642190FBF1F000E0B5E000EBC00107
:103F200001EB001068490988A1EB80000A2190FB91
:103F3000F1F030306A490873634800880A2190FB29
:103F4000F1F000EB800060490978A1EB40003030CF
:103F5000634988730E216348FCF70CFF1621604803
:103F6000FCF708FF8FE00E215E48FCF703FF0020FE
:103F7000FCF7DCF987E04F480078012804D11521CF
:103F80005948FCF7F7FE74E04820FFF7A3FC4C20EB
:103F9000FFF7A0FC5220FFF79DFC544800886421E5
:103FA00090FBF1F03030524988735048008864210A
:103FB00090FBF1F000EBC00101EB00104B490988C8
:103FC000A1EB80000A2190FBF1F030304849C87322
:103FD000464800880A2190FBF1F000EB800043493D
:103FE0000978A1EB40003030414908743F484088CF
:103FF000642190FBF1F030303D4988723B484088A5
:10400000642190FBF1F000EBC00101EB0010374997
:104010004988A1EB80000A2190FBF1F0303034494F
:10402000C872324840880A2190FBF1F000EB800012
:104030002E498978A1EB400030302D4908732B4878
:10404000007A88742948407AC8742848807A0875AC
:104050002648C07A48752548007B88752348407BF0
:10406000C8750E212348FCF785FE2C212048FCF75B
:1040700081FE08E00E211B48FCF77CFE11211E4842
:10408000FCF778FE00BF00BF3820FFF7AFFD00BF90
:10409000FEE70000180402401808024023016745AB
:1040A000043C0240AB89EFCD0000002080969800D0
:1040B000070000205806002000C000084C06002021
:1040C0004E0600205F0600205A0600204C0000200B
:1040D0008C0000205706002098000020DB02002002
:1040E000600200207803002047030020A40600207F
:1040F0001B0300206A030020CA0200204FF040701A
:10410000E1EE100A7047FAF9FCFB00002C410008B0
:104110000000002084060000C4010008B843000825
:104120008406002094060000280200081012726520
:104130007374FFFFFF6C6F642E76616C3D30300D41
:10414000101174696D652E7478743D2200003A0078
:104150000022205004646174133006202000002ED9
:1041600003122001200A6461796F667765656B250B
:10417000100A70616765206C6F6164311200013153
:1041800010A005616F666610A0056D61696E105024
:104190000573657474103004766130851231914076
:1041A00004696E70705004464D220FA00B62636F5D
:1041B0003D30333438313520B3425420A0063134F9
:1041C00038343740A00455534241123641A238409A
:1041D000B004415558201405343531320411974547
:1041E000112510735F6898610C4118926D18726DFB
:1041F000307004645F79C8610C41188130B264305A
:10420000926418926448927748727790619C6190AA
:1042100031C8500430302287910FE2640FC2641E0F
:10422000C2790F62774B510121341405204D6F6E16
:10423000E615EC2005547565730A30055765646E04
:104240000A300554687572123005204672690840BC
:104250000653617475720A42753670057465787418
:104260005644042E3020CF8116C008204E4F2044E3
:10427000657615D008436F6E6E6563742AE007504B
:104280004C4159202015D005415553451555D34073
:1042900004766F6CFD60042D37391035E3A00535C9
:1042A00035333520B0044D5554205923B1BB162F5A
:1042B0000F33205F0129F8522079210A0110D159CA
:1042C0007431E6B007666F6E743D340EB2350E2958
:1042D000AE64044144432530062E30562020077D2D
:1042E0005303BC087464615F6C6F7557032114E05D
:1042F000057472656214F0046D696428E0056261FA
:1043000073733C7F73617703110AB518B004685F5B
:104310007110BC04635F663B03011720513071507C
:104320005130011720E1705578126C3069DF5272FC
:104330000C29F77C046C5F72030392720C926C245C
:1043400092723C012A30A160022D3130A19052318D
:10435000F03D7B04392D5004487A22F4498C111326
:104360003E64920425476127A22237000617315F79
:104370002E5F6B37915E199201215ED22E5F11384C
:1043800001293720084154234D560D0A07424107A1
:10439000424407424507A00F4A0D0A7E0200EF7E05
:1043A000030000EF01000113100405031F0F0001BB
:0843B0000300620000000000A0
:040000050800018965
:00000001FF
