:020000040800F2
:10000000300A002071020008790200087B02000813
:100010007D0200087F020008810200080000000045
:100020000000000000000000000000008302000843
:10003000850200080000000087020008490C000843
:100040008B0200088B0200088B0200088B0200085C
:100050008B0200088B0200088B0200088B0200084C
:100060008B0200088B0200088B0200086503000861
:100070008B0200088B0200088B0200088B0200082C
:100080008B0200088B0200088B0200088B0200081C
:100090008B0200088B0200088B0200088B0200080C
:1000A0008B0200088B0200088B0200088B020008FC
:1000B0008B0200088B0200088B0200088B020008EC
:1000C0008B0200088B0200088B0200088B020008DC
:1000D0008B0200088B0200088B0200088B020008CC
:1000E0008B0200088B0200088B0200088B020008BC
:1000F0008B0200086D0D00088B0200088B020008BF
:100100008B0200088B0200088B0200088B0200089B
:100110008B0200081D2200088B0200088B020008D9
:10012000350400088B0200088B0200088B020008CF
:100130008B02000800000000000000008B02000895
:100140008B0200088B0200088B0200088B0200085B
:100150008B0200088B0200088B0200088B0200084B
:100160008B0200088B0200088B0200088B0200083B
:100170008B0200088B020008000000000000000055
:100180008B0200088B02000800F002F800F060F813
:100190000AA090E8000C82448344AAF10107DA45E2
:1001A00001D100F055F8AFF2090EBAE80F0013F0D4
:1001B000010F18BFFB1A43F001031847C8280000BD
:1001C000E828000010F8013B0A4413F0030408BFBC
:1001D00010F8014B1D1108BF10F8015B641E05D01B
:1001E00010F8016B641E01F8016BF9D1002D15D0D8
:1001F00010F8014B03F00C030C2BA1EB04040ABF15
:1002000010F8013BA4EB8314A4EB032405F10103D4
:1002100014F8016B5B1E01F8016BF9D5914238BFF0
:1002200010F8013BD1D3704700230024002500269D
:10023000103A28BF78C1FBD8520728BF30C148BF49
:100240000B6070471FB502F015FC1FBD10B510BD47
:1002500000F031F81146FFF7F5FF02F00BFA00F05D
:100260004FF803B4FFF7F2FF03BC00F057F80000AB
:100270000948804709480047FEE7FEE7FEE7FEE73A
:10028000FEE7FEE7FEE7FEE7FEE7FEE70448054976
:10029000054A064B704700009D0C000889010008C4
:1002A00030040020300A00203006002030060020F4
:1002B000704770477047754600F02CF8AE46050051
:1002C0006946534620F00700854618B020B5FFF771
:1002D000DDFFBDE820404FF000064FF000074FF073
:1002E00000084FF0000B21F00701AC46ACE8C00954
:1002F000ACE8C009ACE8C009ACE8C0098D4670475D
:1003000010B50446AFF300802046BDE81040FFF76B
:10031000A8BF000000487047CC0300200149182006
:10032000ABBEFEE726000200704700004FF064619C
:100330000A4AD160C0EBC001094A1144074AC432DD
:1003400011600721054AC2F8BC101146D1F8B81057
:1003500041F00101C2F8B81070470000006002408F
:100360004703002000B53D202C4988602C48C86117
:10037000142048610846006940F0010008612848DF
:1003800000780D2849D1264840780A2845D12448CC
:10039000C078492806D050281FD0522825D055288B
:1003A00027D103E000201F49087022E01C48007993
:1003B000312803D100201B4908700DE0184800794E
:1003C000332803D016480079352805D11548007820
:1003D00010B90120134908700BE012480078022878
:1003E00002D103200F49087003E002200D49087074
:1003F00000BF00BF0C48007802280ED10B480078DF
:1004000001280AD107490978C1EBC10101EB41017B
:10041000074A8818152100F095FC00BD00600240D5
:10042000980300207C030020730300207503002044
:100430003A02002030B52C48006840F03D002A49BF
:1004400008602A4800889E21484340F6FF7190FBCF
:10045000F1F0C4B2254840889E21484340F6FF7120
:1004600090FBF1F0C5B2642094FBF0F030302049ED
:100470004872642094FBF0F000EBC00101EB001027
:10048000A4EB80000A2190FBF1F03030184988720B
:100490000A2094FBF0F000EB8000A4EB4000303029
:1004A0000873642095FBF0F030300874642095FBED
:1004B000F0F000EBC00101EB0010A5EB80000A2179
:1004C00090FBF1F030300A4948740A2095FBF0F0B7
:1004D00000EB8000A5EB40003030C87419210448BF
:1004E00000F030FC30BD00000864024086030020AC
:1004F0002E03002030B503460C463A48006840F40D
:100500008070384D286007E036481430006800F4E9
:10051000807008B1012030BD32481430006800F00E
:1005200001000028F0D02F48143000682D48183002
:1005300000682C481030036013E02A48143000682B
:1005400000F4807028B927481430006800F48060F7
:1005500038B12448006840F40070224D2860022021
:10056000D9E720481430006800F002000028E4D0E9
:100570001C48143000681B4818300068002127E030
:10058000605C184D1035286013E016481430006880
:1005900000F4807028B913481430006800F48060BB
:1005A00038B11048006840F400700E4D28600320F8
:1005B000B1E70C481430006800F004000028E4D0D3
:1005C000084814300068074818300068481C81B299
:1005D0009142D5DB0348006840F40070014D28606B
:1005E000002098E7005400402D48006840F48070D7
:1005F0002B4908602B482C498860881548604FF4C7
:10060000D84008614FF48010C862832048632448B2
:100610001438006840F480002149143908602348E8
:10062000006842F610510843204908601E484C30CB
:100630001E49083108601E48091D086002201B4938
:10064000091D0860081F006840F00100091F0860CC
:1006500016480838006840F03D0014490839086021
:100660000F48001F006840F002000D49091F086094
:1006700042F2CF000F4908604FF47A70091D0860FC
:100680000C482438006840F020000A4924390860EA
:10069000081F006840F00100091F08607047000053
:1006A0004438024001030018002001401064024059
:1006B000860300202804004010B52148006840F45B
:1006C00080101F4908602D201E49886042F21C00DE
:1006D000C860C02048611A481038006840F4001013
:1006E0001749103908601848184908611548001D55
:1006F00088611748C861142048610846006940F0C5
:10070000010008611148B830006820F00100C1F80C
:10071000B8000D4830300D49B83108600948001D57
:100720000A49C1F8C0000B48006840F4005009496C
:1007300008600B2001F018FF352001F015FF10BDF7
:1007400040380240005000401004000800600240A1
:1007500098030020180802406148006840F00F002C
:100760005F4908605F4800685F4908435D49086069
:100770000846006840F0400008605C48006840F0AF
:1007800080605A4908605A48006A40F08800584919
:1007900008620846C06840F00500C86008468068E6
:1007A00040F00F0088600846006840F00A000860CA
:1007B0004C48406A40F4EE414A48416249480C3096
:1007C000006840F4A00047490C310860081F006829
:1007D000484908434349083108604248006840F4EA
:1007E0002000404908604148406A40F400213F48E9
:1007F00041624148006840F400603F4908603B485E
:100800000C30006840F0807038490C3108603A487C
:100810001438006840F01000374914390860334834
:100820000830006840F040703049083108603248B4
:100830001838006840F030002F49183908602B48FC
:10084000006840F00070294908602B482038006893
:1008500040F020002849203908602248406A40F0D2
:10086000440120484162006840F420201D4908608E
:100870001C480C30006840F4A0201A490C31086074
:100880001848001D006840F440701649091D0860B2
:10089000081D006840F47020091D086014480068B5
:1008A00020F04040124908600846C06820F04040EF
:1008B000C8600846006808600C4800680B4908607A
:1008C0000B48006840F47070094908600846806869
:1008D00040F4707088600846C068C86070470000C7
:1008E0003038024000040240100000550008024069
:1008F000000002400C003000200C02400A48006852
:1009000040F40010084908602D2008490860D220F2
:100910000649183108602B20091D08600120034991
:10092000091F08607047000040380240045400402E
:1009300010B50A48006840F480700849086042F227
:10094000CF000749886240F2CF70C8620120C860BA
:1009500008602D2001F008FE10BD00004038024064
:10096000002000403CB50020019000904E480068F7
:1009700040F480304C49086000BF4B48006800F4E8
:10098000003000900198401C0190009818B901981F
:10099000B0F57A7FF1D14448006800F002000028E9
:1009A0005ED04248006840F48070404908600846C4
:1009B000006820F00F0008600846006840F005005D
:1009C000086039480830006837490831086008462F
:1009D000006840F4A05008600846006840F40040F9
:1009E0000860081F006840F48000091F086008467E
:1009F000006820F03F0008600846006840F00800EA
:100A000008600846006847F6C07188432649091DFA
:100A100008600846006840F428500860081F006815
:100A200040F08070091F086000BF1F48006800F098
:100A300000700028F9D01C480830006820F003003E
:100A40001949083108600846006840F00200086053
:100A500000BF15480830006800F00C000828F8D1E5
:100A600044F2A011481EB0F1807F00D31BE0481E65
:100A70004FF0E022506150170F22002804DB1307CB
:100A80001C0E0B4B1C5406E013071D0E094B00F007
:100A90000F04241F1D5500BF00204FF0E02290617D
:100AA0000720106100BF3CBD00380240003C0240FE
:100AB00000E400E018ED00E01B48006800F400408E
:100AC000B0F5004F2FD018483038006840F0805003
:100AD0001549303908601548006840F480701349A2
:100AE00008601148006840F480300F4908600846EB
:100AF000006820F4803008600846006840F4014037
:100B000008600846006840F00100086000BF064821
:100B1000006800F001000028F9D00448006820F4C3
:100B200080700249086070477038024000700040D1
:100B300000B585B020208DF80000204800780228FC
:100B400004D11F481F490978405C00E007208DF858
:100B5000010000208DF80200C7208DF803001A481C
:100B600000788DF8040090208DF8050050208DF855
:100B700006008DF807007F208DF8080000208DF812
:100B80000900FF208DF80A0000208DF80B008DF879
:100B90000C008DF80D008DF80E008DF80F008DF80B
:100BA000100039208DF8110000208DF8120013225A
:100BB00069468820FFF79EFC05B000BD7303002046
:100BC0007E2A000875030020840300201048006876
:100BD00040F480200E4908604FF4B6700D4908605B
:100BE00042F20800091D086080200A490C310860A3
:100BF00007481038006840F40010054910390860B3
:100C00000548064988650348001F086670470000CC
:100C1000403802400848004040040008006002409C
:100C20000748006840F400200549086041F21710A9
:100C30000449086042F20C00091D0860704700007A
:100C400040380240084C004012480068401C1149DE
:100C500008600846006841F28831884218D10020B7
:100C60000C4908600C48006800F0040040B10A48D4
:100C7000001D006840F480200749091D086007E056
:100C80000548001D006840F004000349091D086084
:100C9000704700008C0300201404024014480068D0
:100CA00040F47000124908601248006840F00100EA
:100CB0001049086000200F49083108600D4800689D
:100CC0000D4908400B4908600C48091D0860081FC1
:100CD000006820F48020091F0860002005490C31BD
:100CE00008604FF0006002498039086070470000DA
:100CF00088ED00E000380240FFFFF6FE10300024CF
:100D00001CB5044640F6354060430D4901EB4010E8
:100D10008000C0F3CF3420128DF80000E0B28DF8CF
:100D2000010010208DF8020012208DF80300002031
:100D30008DF8040005226946C020FFF7DBFB1CBDCF
:100D4000E86E0300084A5066D1654FF06462064BB6
:100D50009A601A46926D42F001029A6500BF024AFB
:100D6000D26D002AFBD17047006002400CB5002014
:100D7000FE490861FE480078401CFD490870FDA04E
:100D800000680190FCA000680090FC4800788DF895
:100D90000100FB48006840F08050F9490860F948BC
:100DA000006900F4806000283FD00846006840F4E5
:100DB00080500860F4480078401CF34908700846E9
:100DC0000078142830DBF148007802282CD1142058
:100DD000087000208DF8040007208DF8050002221D
:100DE00001A98820FFF786FBE94908700120E7493F
:100DF000087001F015FCE549097801EB4101E54A6D
:100E000002EB81000C21FFF79DFF6420D849087098
:100E10000420FFF78BFA0E2001F01AFAD848006878
:100E200040F00800D6490860E5E2D7480078142869
:100E30007DDAD5480078002879D0D4480078022897
:100E400076D1D5480078401CD34908700846007810
:100E5000032801DD0020087001F0E2FB00208DF87E
:100E60000400CE48CC490978405C8DF80500022288
:100E700001A98820FFF73EFBC5490870C6490978DB
:100E800001EB4101C64A02EBC1001821FFF75AFFEE
:100E9000C148007830B101284ED002285FD0032825
:100EA00049D1EEE00E21BF48FFF74CFFBE48008855
:100EB0004FF47A7190FBF1F03030BC498872BA4837
:100EC00000884FF47A7190FBF1F000EB4001C1EB28
:100ED000C010B5490988A1EBC000642190FBF1F076
:100EE0003030B249C872B0480088642190FBF1F0FC
:100EF00000EBC00101EB0010AB490988A1EB8000B9
:100F00000A2190FBF1F03030A8490873A648008808
:100F10000A2190FBF1F000EB8000A3490978A1EBD6
:100F200040003030A14988731621A04801E01BE140
:100F3000B1E0FFF707FFADE00E219A48FFF702FF8F
:100F40000020FFF7F3F99A490978C1EBC10101EBE1
:100F50004101984A88181521FFF7F4FE9AE0002114
:100F6000092001F097FA9449087008460078012892
:100F700004D115219148FFF7E5FE81E00E2190484C
:100F8000FFF7E0FE482001F063F94C2001F060F922
:100F9000522001F05DF98B480088642190FBF1F04C
:100FA00030308949887387480088642190FBF1F0CC
:100FB00000EBC00101EB001082490988A1EB800021
:100FC0000A2190FBF1F030307F49C8737D480088DA
:100FD0000A2190FBF1F000EB80007A490978A1EB3F
:100FE000400030307849087476484088642190FB8E
:100FF000F1F030307449887272484088642190FB67
:10100000F1F000EBC00101EB00106E494988A1EB43
:1010100080000A2190FBF1F030306B49C8726948BA
:1010200040880A2190FBF1F000EB80006549897847
:10103000A1EB40003030644908736248007A88743C
:101040006048407AC8745F48807A08755D48C07A05
:1010500048755C48007B88755A48407BC8755020AD
:1010600088774120C877552081F82000532081F8E7
:101070002100452081F822002C215348FFF762FE11
:1010800008E00E214748FFF75DFE11214F48FFF7AA
:1010900059FE00BF00BF3D480078012864D10220FE
:1010A0003A49087001F0BCFA3849097801EB41016E
:1010B000384A02EB81000C21FFF744FE00208DF836
:1010C0000400364834490978405C8DF80500022256
:1010D00001A98820FFF70EFA2D4908702E490978DA
:1010E00001EB41012E4A02EBC1001821FFF72AFE55
:1010F0002948007830B1012837D0022868D0032869
:1011000067D122E10E212748FFF71CFE2648008800
:101110004FF47A7190FBF1F0303024498872224804
:1011200000884FF47A7190FBF1F000EB4001C1EBC5
:10113000C0101D490988A1EBC000642190FBF1F0AB
:1011400030301A49C87218480088642190FBF1F0C9
:1011500000EBC00101EB001013490988A1EB8000EE
:101160000A2190FBF1F035E042E149E00020004027
:101170009603002000070000030000008403002005
:10118000180402400000024077030020730300208F
:10119000780300204C000020750300207E2A000800
:1011A0007C000020200300207A030020240200207D
:1011B0007C0300203A02002079030020EF02002087
:1011C00012030020B8030020C30200208E0200207A
:1011D00029E0C3E03030FB490873FB4800880A214E
:1011E00090FBF1F000EB8000F7490978A1EB40009B
:1011F0003030F44988731621F248FFF7A3FDADE0C3
:101200000E21F248FFF79EFD0020FFF78FF8F0490E
:101210000978C1EBC10101EB4101EE4A88181521A3
:10122000FFF790FD9AE00021092001F033F9EA4927
:10123000087008460078012804D11521E748FFF717
:1012400081FD81E00E21E648FFF77CFD482000F09B
:10125000FFFF4C2000F0FCFF522000F0F9FFE148B6
:101260000088642190FBF1F03030DF498873DD485D
:101270000088642190FBF1F000EBC00101EB00104D
:10128000D8490988A1EB80000A2190FBF1F03030A9
:10129000D549C873D34800880A2190FBF1F000EBD0
:1012A0008000D0490978A1EB40003030CE49087465
:1012B000CC484088642190FBF1F03030CA498872F4
:1012C000C8484088642190FBF1F000EBC00101EBBD
:1012D0000010C4494988A1EB80000A2190FBF1F07D
:1012E0003030C149C872BF4840880A2190FBF1F0F4
:1012F00000EB8000BB498978A1EB40003030BA494F
:101300000873B848007A8874B648407AC874B548FB
:10131000807A0875B348C07A4875B248007B8875F2
:10132000B048407BC875502088774120C877552049
:1013300081F82000532081F82100452081F8220007
:101340002C21A948FFF7FEFC08E00E219F48FFF77B
:10135000F9FC1121A548FFF7F5FC00BF00BFA44828
:1013600090F90000002801DD2B2000E02D20A1498C
:1013700048729F4890F90000002806DD9C4890F9CB
:1013800000000A2190FBF1F006E0994890F9000076
:1013900040420A2190FBF1F030309649887294481F
:1013A00090F9000000280DDD914890F900000A2115
:1013B00090FBF1F000EB80008D4991F90010A1EB5A
:1013C00040000EE08A4890F9000040420A2190FB5C
:1013D000F1F000EB8000864991F900104942A1EB41
:1013E000400030308349C87212218248FFF7AAFCBE
:1013F0000020814908708148006900F4805000286D
:101400007ED07F48006840F480507D4908607D4868
:101410000078022874D17C48007820B1012858D087
:10142000022855D159E068480088401C6649088068
:1014300008460088B0F5876F02DB40F25230088022
:1014400061480088FFF75CFC01F0EAF85E4800881C
:101450004FF47A7190FBF1F030305A4988725A4853
:1014600000884FF47A7190FBF1F000EB4001C1EB82
:10147000C01055490988A1EBC000642190FBF1F030
:1014800030305049C87250480088642190FBF1F018
:1014900000EBC00101EB00104B490988A1EB800073
:1014A0000A2190FBF1F03030464908734648008825
:1014B0000A2190FBF1F000EB800043490978A1EB91
:1014C000400030303F49887316213E48FFF73AFC10
:1014D0005DE00220FEF72AFF59E001204B49087029
:1014E00000F0B6FE4C2000F0B3FE522000F0B0FE3B
:1014F0003C484088642190FBF1F030303A4900E0EC
:1015000046E0887237484088642190FBF1F000EB98
:10151000C00101EB001033494988A1EB80000A218A
:1015200090FBF1F030303049C8722E4840880A21D3
:1015300090FBF1F000EB80002A498978A1EB400094
:101540003030294908732748007A88742548407A42
:10155000C8742448807A08752248C07A48752148A2
:10156000007B88751F48407BC875502088774C20C9
:10157000C877412081F82000592081F821002020DF
:1015800081F822002C211848FFF7DCFB00BF00BFC8
:101590001A48006900F40040002874D01848006818
:1015A00040F48050164908601648007802286AD135
:1015B0001548007860B301282BD002282DD00328CD
:1015C0002AD162E0240200207A03002020030020B8
:1015D0007C0300203A02002079030020EF02002063
:1015E00012030020B8030020C30200208E02002056
:1015F000840300209F0200207703002000000240A7
:101600001804024073030020750300207D030020AE
:101610003AE00120FEF78AFE65E0FE4800780128E6
:1016200018D10E2000F014FE0020FA490870502056
:10163000F94988774120C877552081F82000532048
:1016400081F82100452081F822002C21F248FFF783
:1016500079FB17E00D2000F0FBFD0120ED4908703B
:101660005020ED4988774C20C877412081F8200030
:10167000592081F82100202081F822002C21E64801
:10168000FFF760FB2FE02FE000BFE4480078B0B127
:101690000020E24908708DF80400E148E14909782A
:1016A000405C8DF80500022201A98820FEF722FF88
:1016B000DD4908701221DD48FFF744FB13E00120EB
:1016C000D649087000208DF8040007208DF8050029
:1016D000022201A98820FEF70DFFD34908701221CC
:1016E000D348FFF72FFB00BFD248006900F4006029
:1016F00000287DD0D048006840F48050CE49086072
:10170000CE480078022873D1C648007820B101285D
:101710005AD0022857D15BE0C9480088401EC8490A
:1017200008800846008840F25231884203DC4FF4BA
:101730008760C3490880C2480088FFF7E1FA00F0DB
:101740006FFFBF4800884FF47A7190FBF1F03030A2
:10175000BC498872BA4800884FF47A7190FBF1F066
:1017600000EB4001C1EBC010B5490988A1EBC000F6
:10177000642190FBF1F03030B249C872B048008863
:10178000642190FBF1F000EBC00101EB0010AC49CB
:101790000988A1EB80000A2190FBF1F03030A949C3
:1017A0000873A74800880A2190FBF1F000EB800045
:1017B000A3490978A1EB40003030A2498873162173
:1017C000A048FFF7BFFA5EE00320FEF7AFFD5AE046
:1017D000012090490870022000F03AFD4C2000F0F2
:1017E00037FD522000F034FD97484088642100E026
:1017F0004AE090FBF1F03030874988729248408887
:10180000642190FBF1F000EBC00101EB00108E4968
:101810004988A1EB80000A2190FBF1F030307E492D
:10182000C872894840880A2190FBF1F000EB8000E3
:1018300085498978A1EB40003030774908738248A8
:10184000007A88748048407AC8747F48807A087526
:101850007D48C07A48757C48007B88757A48407B13
:10186000C875502088774C20C877412081F8200027
:10187000592081F82100202081F822002C2166487F
:10188000FFF760FA00BF00BF7048006800F4806096
:10189000002872D06848006840F4805066490860AB
:1018A00000205E4908706A480078401C40B26849D0
:1018B0000870084690F900000F2801DD0F2008701D
:1018C00000F0AEFE00208DF8040055485549097817
:1018D000405C8DF80500022201A98820FEF70AFE6F
:1018E000514908705A4890F90000002803DD584813
:1018F00090F9000004E0564890F90000C0F1100093
:10190000C0B28DF80100022269468820FEF7F2FD80
:10191000454908704E4890F90000002801DD2B2051
:1019200000E02D2041494872494890F90000002804
:1019300006DD474890F900000A2190FBF1F006E02F
:10194000434890F9000040420A2190FBF1F030300A
:10195000364988723E4890F9000000280EDD3C4868
:1019600090F900000A2190FBF1F000EB800038496B
:1019700091F90010A1EB40000FE015E0344890F918
:10198000000040420A2190FBF1F000EB800030495A
:1019900091F900104942A1EB400030302349C87250
:1019A00012212248FFF7CEF92848006800F40060B1
:1019B00070B32148006840F480501F49086000203F
:1019C0001649087022480078401E40B2204908702D
:1019D000084690F9000010F14F0F01DAB1200870AD
:1019E00000F01EFE00208DF804000D480D49097816
:1019F000405C8DF80500022201A98820FEF77AFDDF
:101A000009490870124890F90000002826DD21E0FD
:101A10007CE000007D030020C3020020850300203D
:101A20007E2A000875030020780300209F02002012
:101A3000B10200200000024018040240730300209D
:101A40007A03002024020020B8030020100802407E
:101A500084030020FE4890F9000004E0FC4890F95F
:101A60000000C0F11000C0B28DF8010002226946EA
:101A70008820FEF73FFDF7490870F54890F900000F
:101A8000002801DD2B2000E02D20F3494872F048AA
:101A900090F90000002806DDED4890F900000A21C9
:101AA00090FBF1F006E0EA4890F9000040420A217C
:101AB00090FBF1F03030E8498872E54890F9000079
:101AC00000280DDDE24890F900000A2190FBF1F0BA
:101AD00000EB8000DE4991F90010A1EB40000EE020
:101AE000DB4890F9000040420A2190FBF1F000EB46
:101AF0008000D74991F900104942A1EB40003030F5
:101B0000D549C8721221D448FFF71CF9D34800699F
:101B100000F4007000287CD0D1480078032878D1E8
:101B2000D0480078072875D2DFE800F0042AA651D3
:101B30007DCFF000CC480078401CCB4908700846A7
:101B40000078182801DB00200870C74800780A21B7
:101B500090FBF1F03030C5494872C34800780A2143
:101B600090FBF1F000EB8000BF490978A1EB400049
:101B70003030BE4988720F21BC48FFF7E3F896E188
:101B8000BB480078401CBA490870084600783C28D9
:101B900001DB00200870B64800780A2190FBF1F0C4
:101BA0003030B2490876B24800780A2190FBF1F053
:101BB00000EB8000AE490978A1EB40003030AB4922
:101BC00048760F21A9480F30FFF7BCF86FE1A9480C
:101BD0000078401CA7490870084600780D2801DBF2
:101BE00001200870A34800780A2190FBF1F0303002
:101BF0009E4981F827009F4800780A2190FBF1F068
:101C000000EB80009B490978A1EB400030309749F8
:101C100001E04DE14AE181F828000F2193481E3090
:101C2000FFF790F843E194480078401C924908700F
:101C300008460078202801DB012008708E480078D3
:101C40000A2190FBF1F03030884981F836008A484B
:101C500000780A2190FBF1F000EB800086490978BA
:101C6000A1EB40003030814981F837000F217F48D7
:101C70002D30FFF767F81AE180480078401C7F4953
:101C80000870084600781E2801DB122008707B4887
:101C900000780A2190FBF1F03030744981F845005A
:101CA000764800780A2190FBF1F000EB8000734940
:101CB0000978A1EB400030306C4981F846000F21D3
:101CC0006A483C30FFF73EF8F1E06D480078401C70
:101CD0006B49087008460078082801DB012008706D
:101CE00067480078401E00EBC000664908445F4921
:101CF00002684A6542688A65007A81F85C001721AB
:101D00005A484B30FFF71EF8D1E0FFE75E480078F5
:101D1000534908705D48006840F080505B49086096
:101D20005B48006840F4807059490860CA205949EE
:101D300008605320086057481838006840F0800059
:101D400054491839086000BF52481838006800F03C
:101D500040000028F8D0464800780A2190FBF1F0B6
:101D60000003434909780A2291FBF2F101EB81015A
:101D70003F4A1278A2EB410140EA01203A49097832
:101D80000A2291FBF2F140EA01503749097891FBB0
:101D9000F2F101EB8101344A1278A2EB410140EAF1
:101DA00001403C4924390860334800780A2190FBFF
:101DB000F1F000EB800030490978A1EB40002E499A
:101DC00009780A2291FBF2F140EA011029490978C9
:101DD00091FBF2F140EA01302649097891FBF2F1DA
:101DE00001EB8101234A1278A2EB410140EA012074
:101DF000224909780A2291FBF2F140EA01511F4879
:101E0000007890FBF2F000EB80001C4A1278A2EB05
:101E1000400041EA00401A49097840EA41301D4932
:101E2000203908601B481838006820F080001949E4
:101E300018390860FF20174908601548006820F429
:101E40008070134908600649097801EB410123E0DD
:101E500084030020780300209F020020000002403D
:101E600073030020740300209003002084010020ED
:101E7000910300209203002093030020950300208B
:101E800094030020E5010020760300204038024042
:101E90000070004024280040CF4A02EB81000C2152
:101EA000FEF750FF6420CD49087000E000BF00BF7E
:101EB000CB48006900F4807000287CD0C9480078C5
:101EC000012804D0022803D0032875D1FCE000BF0C
:101ED000C4480078C44908700320C24908700978D2
:101EE00001EB4101BC4A02EB81000C21FEF72AFF05
:101EF0000020BE490870097801EB4101BC4A02EBA1
:101F0000C1001821FEF71EFFBA480068C0F3034065
:101F1000B8490968C1F3015101EB810100EB4100AF
:101F2000B5490870B3480068C0F30320B149096897
:101F3000C1F3023101EB810100EB4100AF490870B0
:101F4000AC48001D006800F00F00AA49091D09688F
:101F5000C1F3011101EB810100EB4100A8490870B8
:101F6000A448001D0068C0F30320A249091D0968A8
:101F7000C1F3003101EB810100EB4100A149087080
:101F80009C48001D0068C0F303409A49091D096878
:101F9000C1F3035101EB810100EB41009A49087044
:101FA0009448001D0068C0F3423098490870924878
:101FB00000780A2101E09FE09CE090FBF1F03030D6
:101FC000934948728C4800780A2190FBF1F000EBAD
:101FD000800089490978A1EB400030308C49887233
:101FE000864800780A2190FBF1F030308849087665
:101FF000824800780A2190FBF1F000EB80007F49D5
:102000000978A1EB40003030814948767D4800785E
:102010000A2190FBF1F030307D4981F827007948A2
:1020200000780A2190FBF1F000EB800075490978F7
:10203000A1EB40003030764981F8280070480078E4
:102040000A2190FBF1F03030714981F836006C487C
:1020500000780A2190FBF1F000EB800068490978D4
:10206000A1EB400030306A4981F8370066480078BB
:102070000A2190FBF1F03030654981F84500624853
:1020800000780A2190FBF1F000EB80005E490978AE
:10209000A1EB400030305E4981F846005548001DF4
:1020A0000068C0F34230401E00EBC00059490144B3
:1020B00057480A6842654A688265097A80F85C1068
:1020C0006121FEF73FFE16E048480078401C474972
:1020D000087008460078062801DD00200870434992
:1020E000097801EB4101424A02EBC1001821FEF7D9
:1020F00029FE00E000BF00BF3A480078022803D064
:1021000038480078012866D134480078642862DBBA
:10211000002032490870FEF709F936480068C0F31C
:10212000032030303C49887332480068C0F30230E5
:10213000303048732F480068C0F303403030C87215
:102140002C480068C0F30150303088722948001DC7
:10215000006800F00F00303081F820002548001D95
:102160000068C0F301103030C8772248001D0068B5
:10217000C0F30320303081F823001E48001D0068A2
:10218000C0F30030303081F822001A48001D00688A
:10219000C0F30340303081F826001648001D006867
:1021A000C0F30350303081F825001248001D00684C
:1021B000C0F34230401E00EBC000164908441649E7
:1021C0002B3102680A6042684A60007A087238213E
:1021D0001148FEF7B7FD0CBD4C000020960300200F
:1021E00000000240730300207603002074030020E7
:1021F000DC00002000280040900300209103002014
:1022000093030020920300209503002094030020F4
:1022100084010020E50100201400002008B50A48D0
:10222000006800F0100068B1074800680090064898
:102230004068009000BF0548006920F00100034994
:10224000086100BF08BD000000500040006002406F
:1022500030B503460021894883708948006800F042
:10226000200018B18648001D0068C2B200200DE0B1
:1022700000BF834C246804F04004002CF9D07F4C4C
:10228000245C7F4D2D1D2C60441CE0B20428EFDB44
:10229000482B12D008DC012B75D0022B74D00D2BEB
:1022A00073D00E2B2FD1C5E04C2B2DD0502B7DD0D1
:1022B000512B50D0522BF5D19FE0042421E0002176
:1022C00005E0491C6F48814201D1012030BD6C48B6
:1022D000006800F020000028F3D06948001D006865
:1022E000C2B2612A01DB572000E03020101A651EBF
:1022F000AD00A840644D2D882843634D2880601EA2
:10230000C4B2002CDBDCB0E0042421E0002105E0B5
:10231000491C5C48814201D10120D7E75848006838
:1023200000F020000028F3D05548001D0068C2B21C
:10233000612A01DB572000E03020101A651EAD0035
:10234000A840514D6D8828434F4D6880601EC4B22F
:10235000002CDBDC89E0042425E0002105E0491C99
:102360004848814201D10120B0E74548006800F0AB
:1023700020000028F3D04248001D0068C2B2612A44
:1023800005DB572004E056E056E052E00EE0302036
:10239000101A651EAD00A8403B4DED8828433A4D0C
:1023A000E880601EC4B2002CD7DC5EE0042421E08B
:1023B000002105E0491C3348814201D1012085E715
:1023C0002F48006800F020000028F3D02C48001DA2
:1023D0000068C2B2612A01DB572000E03020101AE9
:1023E000651EAD00A840284DAD882843264DA88025
:1023F000601EC4B2002CDBDC37E0002416E00021B4
:1024000005E0491C1F48814201D101205EE71C48BC
:10241000006800F020000028F3D01948001D006873
:10242000C2B2194808300255601CC4B20B2CE6DB5E
:102430001BE000BF00BF00BF002413E0002105E047
:10244000491C1248814201D101203FE70C48006835
:1024500000F020000028F3D00948001D0068C5B234
:10246000601CC4B2022CE9DB00BF00BF002000E00A
:10247000401C074CA042FBD3002027E76A03002042
:10248000004C004080841E00B803002040420F0032
:1024900060EC530070B502460B4600212E48827056
:1024A000C3702E48006800F0200018B12B48001DB2
:1024B0000068C4B200200DE000BF284D2D6805F073
:1024C0008005002DF9D0244D2D5C244E361D35603D
:1024D000451CE8B20528EFDB092A1CD1002517E0CE
:1024E000002105E0491C1E48814201D1012070BD38
:1024F0001A48006800F020000028F3D01748001D9B
:102500000068C4B2532C01D10120F0E7681CC5B2A9
:10251000052DE5DB17E0002513E0002105E0491C4F
:102520000F48814201D10120E1E70C48006800F02A
:1025300020000028F3D00948001D0068C4B2681CC0
:10254000C5B2022DE9DB002000E0401C054DA84289
:10255000FBD30020CBE700006E030020004C0040BE
:1025600080841E0020AA4400002809DB00F01F021E
:10257000012191404209920002F1E022C2F80011CB
:102580007047000000B502460D48006840F00200A8
:102590000B4908600846006840EAC2000860084627
:1025A000006840F48030086005E00548006820F0CD
:1025B00002000349086000F009F80028F5D000BDCA
:1025C000103C02400146086870470000024800685D
:1025D000012121EA104070470C3C024000B5024640
:1025E0000B460E48006840F001000C4908600846A0
:1025F000006840F40070086000BFFFF7E7FF0028A4
:10260000FBD0136000BFFFF7E1FF0028FBD00348B9
:10261000006820F001000149086000BD103C024044
:1026200000B50320FFF7AEFF0D48007800060D4A05
:10263000127840EA02400C4A92F900204FF47F439E
:1026400003EA022240EA02010848FFF7C7FF0848F0
:10265000008801040548001DFFF7C0FF00BD000011
:1026600073030020750300208403002000C00008CD
:102670007A030020FEF776F9FEF76EF8E44800686A
:1026800040F00800E2490860E248006840F000506D
:10269000E0490860E048E1490860E1480860FDF76A
:1026A000A3FFFEF793FA0721DE48FEF74BFB00205D
:1026B00000E0401CDC498842FBD33220DB49087231
:1026C000352048720D21D948FEF73CFBFEF7F4F99E
:1026D0003520D6490872302048720D21D348FEF7C4
:1026E00031FBFEF725F93720D049087235204872B2
:1026F0000D21CE48FEF726FBFEF700F9FDF7DCFFC3
:10270000FEF78EFA00210920FFF7C4FEC8490870C1
:102710000846007858B91E210620FFF7BBFEC449C1
:10272000087000211120FFF7B5FEC1490870C148AB
:10273000FFF748FF000EC0490870BE48FFF742FF90
:1027400000F47F00000CBD490870BA48FFF73AFF5B
:10275000000A40B2BA490870B648001DFFF732FFC0
:10276000000CB8490880B449097801EB4101B64A28
:1027700002EB81000C21FEF7E5FAFEF7D9F9B34927
:102780000870B0480088FEF7BBFAB0490870AA4844
:10279000007802287DD1A949097801EB4101AC4AB2
:1027A00002EBC1001821FEF7CDFAA54890F9000010
:1027B000002801DD2B2000E02D20A6494872A0480A
:1027C00090F90000002806DD9D4890F900000A21DC
:1027D00090FBF1F006E09A4890F9000040420A218F
:1027E00090FBF1F030309B498872954890F90000D9
:1027F00000280DDD924890F900000A2190FBF1F0CD
:1028000000EB80008E4991F90010A1EB40000EE032
:102810008B4890F9000040420A2190FBF1F000EB58
:102820008000874991F900104942A1EB4000303007
:102830008849C87212218748FEF784FA7F480078D9
:1028400030B101284DD0022853D0032848D1CFE021
:102850007C4800884FF47A7190FBF1F030307E496B
:102860008872784800884FF47A7190FBF1F000EBA1
:102870004001C1EBC01073490988A1EBC00064217D
:1028800090FBF1F030307449C8726E4800886421C2
:1028900000E0B7E090FBF1F000EBC00101EB0010AD
:1028A00068490988A1EB80000A2190FBF1F03030E3
:1028B00069490873634800880A2190FBF1F000EB36
:1028C000800060490978A1EB40003030624988738C
:1028D0000E216248FEF736FA16215F48FEF732FAFB
:1028E0008FE00E215D48FEF72DFA0020FDF71EFD5A
:1028F00087E04F480078012804D115215848FEF799
:1029000021FA74E04820FFF7A3FC4C20FFF7A0FC5D
:102910005220FFF79DFC53480088642190FBF1F0A2
:102920003030514988734F480088642190FBF1F0A2
:1029300000EBC00101EB00104A490988A1EB8000BF
:102940000A2190FBF1F030304749C87345480088B0
:102950000A2190FBF1F000EB800042490978A1EBDD
:1029600040003030404908743E484088642190FB64
:10297000F1F030303C4988723A484088642190FB3D
:10298000F1F000EBC00101EB001036494988A1EBE2
:1029900080000A2190FBF1F030303349C872314891
:1029A00040880A2190FBF1F000EB80002D498978E6
:1029B000A1EB400030302C4908732A48007A887413
:1029C0002848407AC8742748807A08752548C07A14
:1029D00048752448007B88752248407BC8750E21C5
:1029E0002248FEF7AFF92C211F48FEF7ABF908E0AB
:1029F0000E211A48FEF7A6F911211D48FEF7A2F98B
:102A000000BF00BF3820FFF7AFFD00BFFEE70000AA
:102A1000180402401808024023016745043C0240A4
:102A2000AB89EFCD000000208096980007000020C1
:102A30007903002000C00008730300207503002004
:102A4000840300207A0300204C000020780300203B
:102A50007C0000209F020020240200202003002090
:102A6000EF020020B8030020C30200201203002060
:102A70008E0200204FF04070E1EE100A7047FAF924
:102A8000FCFB0000A42A00080000002098030000BE
:102A9000C4010008602C000898030020980600007C
:102AA00028020008101272657374FFFFFF6C6F64D8
:102AB0002E76616C3D30300D101174696D652E7489
:102AC00078743D2200003A000022205004646174B2
:102AD000133006202000002E03122001200A64611A
:102AE000796F667765656B25600A70616765206C34
:102AF0006F61640C6005616F66661860056D6169E1
:102B00006E0C20047365747540044155587511614D
:102B10003004464D490C92310C21188342541861FF
:102B20000C21A4700455534230610C92305421188A
:102B3000116771307004745F6818610C4118926DF0
:102B400018726D307004645F7948610C41188130EF
:102B5000B2643092641892644892774872779061B8
:102B60009C6190355C500430302287910FE2640FF5
:102B7000C2641EC2790F62774B5101213414044D97
:102B80006F6EA915AF3005547565730A300557652A
:102B9000646E0B30055468757213400446726924E4
:102BA000200653617475721253537536700574653F
:102BB00078745630062E3020464DA77116C0082076
:102BC0004E4F2044657615D008436F6E6E65637472
:102BD0002AE007504C4159202015D0054155534556
:102BE00015191C21504004766F6CFDB0062D373945
:102BF000644212E0044D55543511F0122FF3332086
:102C00005F0129A052205D210A0110B5193971CA4E
:102C1000B007666F6E743D340EB2350E2A37B26758
:102C200044430930062E30562020072562200841F3
:102C300054234D560D0A07424107424407424507B7
:102C4000300F4A0D0A7E0200EF7E030000EF010004
:102C50000113100405310CE30F000103005A0000BA
:040000050800018965
:00000001FF
