:020000040800F2
:10000000580D002071020008790200087B020008E8
:100010007D0200087F020008810200080000000045
:100020000000000000000000000000008302000843
:10003000850200080000000087020008F50D000896
:100040008B0200088B0200088B0200088B0200085C
:100050008B0200088B0200088B0200088B0200084C
:100060008B0200088B0200088B0200086503000861
:100070008B0200088B0200088B0200088B0200082C
:100080008B0200088B0200088B0200088B0200081C
:100090008B0200088B0200088B0200088B0200080C
:1000A0008B0200088B0200088B0200088B020008FC
:1000B0008B0200088B0200088B0200088B020008EC
:1000C0008B0200088B0200088B0200088B020008DC
:1000D0008B0200088B0200088B0200088B020008CC
:1000E0008B0200088B0200088B0200088B020008BC
:1000F0008B020008E90E00088B0200088B02000842
:100100008B0200088B0200088B0200088B0200089B
:100110008B020008554300088B0200088B02000880
:10012000350400088B0200088B0200088B020008CF
:100130008B02000800000000000000008B02000895
:100140008B0200088B0200088B0200088B0200085B
:100150008B0200088B0200088B0200088B0200084B
:100160008B0200088B0200088B0200088B0200083B
:100170008B0200088B020008000000000000000055
:100180008B0200088B02000800F002F800F060F813
:100190000AA090E8000C82448344AAF10107DA45E2
:1001A00001D100F055F8AFF2090EBAE80F0013F0D4
:1001B000010F18BFFB1A43F0010318475C4C000005
:1001C0007C4C000010F8013B0A4413F0030408BF04
:1001D00010F8014B1D1108BF10F8015B641E05D01B
:1001E00010F8016B641E01F8016BF9D1002D15D0D8
:1001F00010F8014B03F00C030C2BA1EB04040ABF15
:1002000010F8013BA4EB8314A4EB032405F10103D4
:1002100014F8016B5B1E01F8016BF9D5914238BFF0
:1002200010F8013BD1D3704700230024002500269D
:10023000103A28BF78C1FBD8520728BF30C148BF49
:100240000B6070471FB504F0DFFD1FBD10B510BD7A
:1002500000F031F81146FFF7F5FF04F033FB00F032
:100260004FF803B4FFF7F2FF03BC00F057F80000AB
:100270000948804709480047FEE7FEE7FEE7FEE73A
:10028000FEE7FEE7FEE7FEE7FEE7FEE70448054976
:10029000054A064B70470000190E00088901000846
:1002A00058070020580D0020580900205809002048
:1002B000704770477047754600F02CF8AE46050051
:1002C0006946534620F00700854618B020B5FFF771
:1002D000DDFFBDE820404FF000064FF000074FF073
:1002E00000084FF0000B21F00701AC46ACE8C00954
:1002F000ACE8C009ACE8C009ACE8C0098D4670475D
:1003000010B50446AFF300802046BDE81040FFF76B
:10031000A8BF000000487047F806002001491820D7
:10032000ABBEFEE726000200704700004FF064619C
:100330000A4AD160C0EBC001094A1144074AC432DD
:1003400011600721054AC2F8BC101146D1F8B81057
:1003500041F00101C2F8B81070470000006002408F
:100360006006002000B53D202C4988602C48C861FB
:10037000142048610846006940F0010008612848DF
:1003800000780D2849D1264840780A2845D12448CC
:10039000C078492806D050281FD0522825D055288B
:1003A00027D103E000201F49087022E01C48007993
:1003B000312803D100201B4908700DE0184800794E
:1003C000332803D016480079352805D11548007820
:1003D00010B90120134908700BE012480078022878
:1003E00002D103200F49087003E002200D49087074
:1003F00000BF00BF0C48007802280ED10B480078DF
:1004000001280AD107490978C1EBC10101EB41017B
:10041000074A8818152100F053FD00BD0060024016
:10042000C40600209C0600208C0600208E060020BA
:100430007602002030B52C48006840F03D002A4983
:1004400008602A480088AC21484340F6FF7190FBC1
:10045000F1F0C4B225484088AC21484340F6FF7112
:1004600090FBF1F0C5B2642094FBF0F030302049ED
:100470004872642094FBF0F000EBC00101EB001027
:10048000A4EB80000A2190FBF1F03030184988720B
:100490000A2094FBF0F000EB8000A4EB4000303029
:1004A0000873642095FBF0F030300874642095FBED
:1004B000F0F000EBC00101EB0010A5EB80000A2179
:1004C00090FBF1F030300A4948740A2095FBF0F0B7
:1004D00000EB8000A5EB40003030C87419210448BF
:1004E00000F0EEFC30BD000008640240A2060020CF
:1004F0008603002030B503460C463A48006840F4B5
:100500008070384D286007E036481430006800F4E9
:10051000807008B1012030BD32481430006800F00E
:1005200001000028F0D02F48143000682D48183002
:1005300000682C481030036013E02A48143000682B
:1005400000F4807028B927481430006800F48060F7
:1005500038B12448006840F40070224D2860022021
:10056000D9E720481430006800F002000028E4D0E9
:100570001C48143000681B4818300068002127E030
:10058000605C184D1035286013E016481430006880
:1005900000F4807028B913481430006800F48060BB
:1005A00038B11048006840F400700E4D28600320F8
:1005B000B1E70C481430006800F004000028E4D0D3
:1005C000084814300068074818300068481C81B299
:1005D0009142D5DB0348006840F40070014D28606B
:1005E000002098E7005400402D48006840F48070D7
:1005F0002B4908602B482C498860881548604FF4C7
:10060000D84008614FF48010C862832048632448B2
:100610001438006840F480002149143908602348E8
:10062000006842F610510843204908601E484C30CB
:100630001E49083108601E48091D086002201B4938
:10064000091D0860081F006840F00100091F0860CC
:1006500016480838006840F03D0014490839086021
:100660000F48001F006840F002000D49091F086094
:1006700042F2CF000F4908604FF47A70091D0860FC
:100680000C482438006840F020000A4924390860EA
:10069000081F006840F00100091F08607047000053
:1006A0004438024001030018002001401064024059
:1006B000A20600202804004010B52148006840F43C
:1006C00080101F4908602D201E49886042F21C00DE
:1006D000C860C02048611A481038006840F4001013
:1006E0001749103908601848184908611548001D55
:1006F00088611748C861142048610846006940F0C5
:10070000010008611148B830006820F00100C1F80C
:10071000B8000D4830300D49B83108600948001D57
:100720000A49C1F8C0000B48006840F4005009496C
:1007300008600B2003F0B4FF352003F0B1FF10BDBB
:1007400040380240005000401004000800600240A1
:10075000C4060020180802407048006840F00F00EE
:100760006E4908606E4800686E4908436C4908602D
:100770000846006820F0C00008600846006840F0A5
:10078000400008606848006840F080606649086082
:100790006348006840F48050614908606348006A1B
:1007A00040F08800614908620846C06840F00500D2
:1007B000C8600846806840F00F00886008460068FE
:1007C00040F00A0008605648406A40F4EE41544840
:1007D000416253480C30006840F4A00050490C318D
:1007E0000860081F0068524908434D4908310860F5
:1007F0004B48006840F42000494908604A48406A74
:1008000040F40021484841624A48006840F40060D2
:100810004849086044480C30006840F08070424904
:100820000C31086043481438006840F0100041491A
:10083000143908603C480830006840F040703A497C
:10084000083108603B481838006840F030003949EA
:10085000183908603448006840F000703249086078
:1008600034482038006840F02000324920390860C0
:100870002B48406A40F0440129484162006840F436
:1008800020202749086026480C30006840F4A0204A
:1008900023490C3108602248001D006840F4407074
:1008A0001F49091D0860081D006840F47020091DDB
:1008B00008601E48006820F040401C490860084657
:1008C000C06820F04040C8601548006820F44070BF
:1008D0001349086012480C30006820F44070104939
:1008E0000C31086011480068104908600E48006823
:1008F0000D4908600A480068094908600B4800680B
:1009000040F47070094908600846806840F47070CF
:1009100088600846C068C8607047000030380240F0
:100920000004024010000055000802400000024090
:100930000C003000200C02400A48006840F400100F
:10094000084908602D2008490860D220064918315E
:1009500008602B20091D086001200349091F086059
:1009600070470000403802400454004008480068C6
:1009700040F480700649086042F2CF000549886261
:1009800040F2CF70C8620120C86008607047000064
:1009900040380240002000403CB50020019000900B
:1009A0004E48006840F480304C49086000BF4B4816
:1009B000006800F4003000900198401C01900098FD
:1009C00018B90198B0F57A7FF1D14448006800F079
:1009D000020000285ED04248006840F48070404920
:1009E00008600846006820F00F00086008460068AC
:1009F00040F0050008603948083000683749083180
:100A000008600846006840F4A05008600846006886
:100A100040F400400860081F006840F48000091F8F
:100A200008600846006820F03F000860084600683B
:100A300040F0080008600846006847F6C071884327
:100A40002649091D08600846006840F428500860DF
:100A5000081F006840F08070091F086000BF1F4831
:100A6000006800F000700028F9D01C4808300068C9
:100A700020F003001949083108600846006840F07A
:100A80000200086000BF15480830006800F00C0044
:100A90000828F8D144F2A011481EB0F1807F00D39D
:100AA0001BE0481E4FF0E022506150170F22002833
:100AB00004DB13071C0E0B4B1C5406E013071D0E22
:100AC000094B00F00F04241F1D5500BF00204FF0FC
:100AD000E02290610720106100BF3CBD0038024059
:100AE000003C024000E400E018ED00E01B48006814
:100AF00000F40040B0F5004F2FD01848303800689F
:100B000040F080501549303908601548006840F4BD
:100B10008070134908601148006840F480300F4924
:100B200008600846006820F48030086008460068C5
:100B300040F4014008600846006840F00100086089
:100B400000BF0648006800F001000028F9D0044802
:100B5000006820F4807002490860704770380240D5
:100B60000070004000B585B020208DF80000794865
:100B70000078022804D1784878490978405C00E080
:100B800007208DF801007648007800F00F007449C6
:100B90004978302202EA01110843714989784022DC
:100BA00002EA811108438DF80200C7208DF8030086
:100BB0006C4890F90000002803DD6A4890F90000B5
:100BC00004E0684890F90000C0F11000C0B28DF850
:100BD0000400654991F90010002905DD624991F989
:100BE000001041F0100107E05F4991F90000002872
:100BF00001DB014600E041425B4A5278602303EA90
:100C0000421242F080021143C9B28DF805105749D3
:100C100091F90010002905DD544991F9001041F0C7
:100C2000100107E0514991F90000002801DB01465D
:100C300000E0414201F01F014C4A9278602303EA30
:100C4000421211438DF80610494991F9001000290C
:100C500005DD474991F9001041F0100107E04449D2
:100C600091F90000002801DB014600E0414201F05B
:100C70001F013F4A9278602303EA421211438DF824
:100C8000071005208DF8080039484078302101EA26
:100C90000010364949780C2202EA810108438DF898
:100CA0000900FF208DF80A00324890F90000002862
:100CB00003DD304890F9000004E02E4890F9000070
:100CC000C0F11000C0B28DF80B002A4890F9010065
:100CD000002803DD274890F9010004E0254890F939
:100CE0000100C0F11000C0B28DF80C00214890F94D
:100CF0000200002803DD1F4890F9020004E01D48AF
:100D000090F90200C0F11000C0B28DF80D00194832
:100D100090F90300002803DD164890F9030004E071
:100D2000144890F90300C0F11000C0B28DF80E0015
:100D300000208DF80F008DF8100039208DF811007B
:100D400000208DF81200132269468820FFF7D2FB9D
:100D500005B000BD8C060020124E00088E06002053
:100D6000A60600209F060020A9060020AB06002052
:100D7000AE060020B10600201048006840F4802034
:100D80000E4908604FF4B6700D49086042F2080041
:100D9000091D086080200A490C3108600748103896
:100DA000006840F4001005491039086005480649FC
:100DB00088650348001F08667047000040380240FD
:100DC00008480040400400080060024007480068EE
:100DD00040F400200549086041F2171004490860FA
:100DE00042F20C00091D08607047000040380240C4
:100DF000084C004007480068401C06490860084647
:100E0000006841F28831884202D10020014908601F
:100E100070470000B80600201448006840F47000D5
:100E2000124908601248006840F00100104908604B
:100E300000200F49083108600D4800680D4908403E
:100E40000B4908600C48091D0860081F006820F461
:100E50008020091F0860002005490C3108604FF010
:100E600000600249803908607047000088ED00E0AA
:100E700000380240FFFFF6FE103000241CB5044687
:100E800040F6354060430D4901EB40108000C0F34F
:100E9000CF3420128DF80000E0B28DF80100102050
:100EA0008DF8020012208DF8030000208DF8040058
:100EB00005226946C020FFF71DFB1CBDE86E03003C
:100EC000084A5066D1654FF06462064B9A601A4634
:100ED000926D42F001029A6500BF024AD26D002A6B
:100EE000FBD170470060024008B50020FE49086150
:100EF000FE480078401CFD490870FD48006840F03D
:100F00008050FB4908600846006840F400400860D3
:100F1000F848006900F48060002838D0F64800786E
:100F2000401CF54908700846007814282EDBF34869
:100F3000007802282AD11420087000208DF80000C3
:100F400007208DF80100022269468820FFF7D2FAB7
:100F5000EB4908700120E949087003F0FDFBE949FD
:100F6000E64A127801EB02101021FFF7A9FF622078
:100F7000DE4908700420FFF7D9F90E2003F004FAC7
:100F8000DB48006840F00800D9490860F4E2DA481C
:100F9000007814287EDAD848007800287AD0D7481C
:100FA0000078022877D1D8480078401CD6490870CC
:100FB00008460078032801DD0020087003F0CCFB10
:100FC00000208DF80000D148CF490978405C8DF8A9
:100FD0000100022269468820FFF78CFAC849087090
:100FE0000020CB4908702021CA48FFF769FFCA4991
:100FF000C54A127801EB42102021FFF761FFC24879
:10100000007830B101284ED002285FD0032849D1A2
:10101000EEE00E21C148FFF753FFC14800884FF4AE
:101020007A7190FBF1F03030BE498872BC4800887C
:101030004FF47A7190FBF1F000EB4001C1EBC0106E
:10104000B7490988A1EBC000642190FBF1F0303072
:10105000B449C872B2480088642190FBF1F000EBFB
:10106000C00101EB0010AE490988A1EB80000A2104
:1010700090FBF1F03030AB490873A94800880A2191
:1010800090FBF1F000EB8000A5490978A1EB40004E
:10109000303001E026E1B5E0A24988731621A1486D
:1010A000FFF70EFFADE00E219C48FFF709FF00207F
:1010B000FFF73CF99C490978C1EBC10101EB410103
:1010C0009A4A88181521FFF7FBFE9AE000210920B3
:1010D00003F07CFA9649087008460078012804D18C
:1010E00015219448FFF7ECFE81E00E219248FFF7AE
:1010F000E7FE482003F048F94C2003F045F9522060
:1011000003F042F98D480088642190FBF1F0303003
:101110008B49887389480088642190FBF1F000EBCB
:10112000C00101EB001085490988A1EB80000A216C
:1011300090FBF1F030308249C873804800880A2162
:1011400090FBF1F000EB80007C490978A1EB4000B6
:1011500030307B49087479484088642190FBF1F075
:1011600030307749887275484088642190FBF1F0EF
:1011700000EBC00101EB001070494988A1EB800031
:101180000A2190FBF1F030306D49C8726B484088FD
:101190000A2190FBF1F000EB800068498978A1EB0F
:1011A00040003030664908736448007A88746348A8
:1011B000407AC8746148807A08756048C07A48757A
:1011C0005E48007B88755D48407BC87550208877F5
:1011D0004120C877552081F82000532081F8210054
:1011E000452081F822002C215548FFF769FE08E0D0
:1011F0000E214A48FFF764FE11215248FFF760FEB6
:1012000000BF00BF3D48007801286BD102203B4958
:10121000087003F0A1FA3B49384A127801EB02103A
:101220001021FFF74DFE00208DF8000037483649A9
:101230000978405C8DF80100022269468820FFF79A
:1012400059F92F4908700020314908702021314890
:10125000FFF736FE30492C4A127801EB421020216C
:10126000FFF72EFE2848007830B101283BD0022835
:101270006AD0032869D120E10E212848FFF720FE1B
:10128000274800884FF47A7190FBF1F030302549FF
:101290008872234800884FF47A7190FBF1F000EBDC
:1012A0004001C1EBC0101E490988A1EBC0006421B8
:1012B00090FBF1F030301B49C87219480088642156
:1012C00090FBF1F000EBC00101EB0010144909881C
:1012D000A1EB80000A2190FBF1F030301149087336
:1012E0000F4833E045E143E000200040C206002003
:1012F0001804024000000240960600208C060020E0
:10130000970600204C0000208E060020124E000898
:10131000A0060020DB0200209800002078030020B7
:101320009A060020600200209C0600207602002021
:1013300098060020470300206A030020E4060020EE
:101340001B030020CA02002025E0BFE000880A211C
:1013500090FBF1F000EB8000FE490978A1EB400022
:101360003030FD4988731621FB48FFF7A9FDADE039
:101370000E21FA48FFF7A4FD0020FEF7D7FFF84939
:101380000978C1EBC10101EB4101F64A881815212A
:10139000FFF796FD9AE00021092003F017F9F249C2
:1013A000087008460078012804D11521EF48FFF79E
:1013B00087FD81E00E21EE48FFF782FD482002F014
:1013C000E3FF4C2002F0E0FF522002F0DDFFE9488D
:1013D0000088642190FBF1F03030E7498873E548DC
:1013E0000088642190FBF1F000EBC00101EB0010DC
:1013F000E0490988A1EB80000A2190FBF1F0303030
:10140000DD49C873DB4800880A2190FBF1F000EB4E
:101410008000D8490978A1EB40003030D6490874E3
:10142000D4484088642190FBF1F03030D249887272
:10143000D0484088642190FBF1F000EBC00101EB43
:101440000010CC494988A1EB80000A2190FBF1F003
:101450003030C949C872C74840880A2190FBF1F072
:1014600000EB8000C3498978A1EB40003030C249CD
:101470000873C048007A8874BE48407AC874BD4872
:10148000807A0875BB48C07A4875BA48007B887571
:10149000B848407BC875502088774120C8775520D0
:1014A00081F82000532081F82100452081F8220096
:1014B0002C21B148FFF704FD08E00E21A748FFF7F3
:1014C000FFFC1121AD48FFF7FBFC00BF00BFAC489B
:1014D00090F90000002801DD2B2000E02D20A94913
:1014E0004872A74890F90000002806DDA44890F94A
:1014F00000000A2190FBF1F006E0A14890F90000FD
:1015000040420A2190FBF1F030309E4988729C489D
:1015100090F9000000280DDD994890F900000A219B
:1015200090FBF1F000EB8000954991F90010A1EBE0
:1015300040000EE0924890F9000040420A2190FBE2
:10154000F1F000EB80008E4991F900104942A1EBC7
:10155000400030308B49C87220218A48FFF7B0FC28
:101560008948006840F40020874908606220874964
:1015700008700020864908708648006900F4805091
:1015800000287CD084480078022879D183480078EC
:1015900020B1012858D0022855D159E06D48008863
:1015A000401C6C49088008460088B0F5876F02DB54
:1015B00040F25230088067480088FFF75FFC03F074
:1015C000CBF8644800884FF47A7190FBF1F030302A
:1015D000614988725F4800884FF47A7190FBF1F09E
:1015E00000EB4001C1EBC0105A490988A1EBC000D3
:1015F000642190FBF1F030305749C872554800889B
:10160000642190FBF1F000EBC00101EB00105149A7
:101610000988A1EB80000A2190FBF1F030304E499F
:1016200008734C4800880A2190FBF1F000EB800021
:1016300048490978A1EB40003030474988731621AA
:101640004548FFF73DFC5EE00220FEF76FFE5AE0E2
:1016500001205349087002F097FE4C2002F094FEDE
:10166000522002F091FE43484088642190FBF1F043
:101670003030414988723F484088642101E0BEE033
:1016800042E090FBF1F000EBC00101EB00103949A2
:101690004988A1EB80000A2190FBF1F030303649F7
:1016A000C872344840880A2190FBF1F000EB8000BA
:1016B00030498978A1EB400030302F4908732D481C
:1016C000007A88742B48407AC8742A48807A087552
:1016D0002848C07A48752748007B88752548407B94
:1016E000C875502088774C20C877412081F82000A9
:1016F000592081F82100202081F822002C211E4849
:10170000FFF7DEFB00BF00BF23480078042876D136
:101710002448007805281CD2DFE800F0034A5872FC
:101720008B0021480078401C40B21F4908700846D1
:1017300090F90000022801DD022008701A4991F991
:10174000001001EB4101194A02EB01103021FFF7B3
:10175000B7FB87E09A060020600200207803002093
:101760009C060020760200209806002047030020F7
:101770006A030020E40600201B030020CA020020A8
:101780009F060020DB02002018040240C206002051
:1017900096060020000002408C0600208E060020E5
:1017A0009D060020900600209106002003040020E2
:1017B0000120F949087091F9001001EB4101F74A45
:1017C00002EB01103021FFF77BFB4BE0F44800787F
:1017D000401C40B2F2490870084690F90000022807
:1017E00001DD02200870EE4991F9001001EB410182
:1017F000EA4A02EB01103021FFF762FB32E032E0EF
:10180000E8480078401C40B2E6490870084690F964
:101810000000022801DD02200870E24991F9001061
:1018200001EB4101DD4A02EB01103021FFF748FBDB
:1018300018E0DD480078401C40B2DB4908700846DB
:1018400090F90000032801DD00200870D64991F9C5
:10185000001001EB4101D54A02EB01103021FFF7E6
:101860002FFB00BF00BFD248006900F400400028F1
:1018700079D0D0480078022875D1CF480078E8B3F5
:10188000012804D0022806D003286BD13CE00120B7
:10189000FEF74CFD66E0C9480078012818D10E20FB
:1018A00002F072FD0020C54908705020C4498877B5
:1018B0004120C877552081F82000532081F821006D
:1018C000452081F822002C21BD48FFF7F9FA19E0E4
:1018D0000D2002F059FD0120B84908705020B84988
:1018E00088774C20C877412081F82000592081F862
:1018F0002100202081F822002C2100E003E0B048E4
:10190000FFF7DEFA2EE000BFAE480078B0B100204D
:10191000AC4908708DF80000AB48A7490978405CD5
:101920008DF80100022269468820FEF7E3FDA749F1
:1019300008702021A648FFF7C3FA13E00120A1494F
:10194000087000208DF8000007208DF801000222A9
:1019500069468820FEF7CEFD9C49087020219D48ED
:10196000FFF7AEFA00BF9248006900F4006000285B
:101970007ED09048007802287BD18F48007820B133
:1019800001285AD0022857D15BE093480088401EB6
:10199000914908800846008840F25231884203DCB1
:1019A0004FF487608C4908808B480088FFF766FAFF
:1019B00002F0D2FE884800884FF47A7190FBF1F073
:1019C000303086498872844800884FF47A7190FBE1
:1019D000F1F000EB4001C1EBC0107F490988A1EB99
:1019E000C000642190FBF1F030307C49C8727A4825
:1019F0000088642190FBF1F000EBC00101EB0010C6
:101A000075490988A1EB80000A2190FBF1F0303084
:101A100072490873704800880A2190FBF1F000EBCE
:101A200080006D490978A1EB400030306B49887324
:101A300016216A48FFF744FA5FE00320FEF776FCC0
:101A40005BE001205D490870022002F09DFC4C2003
:101A500002F09AFC522002F097FC61484088642111
:101A600090FBF1F03030564988725D48408801E0C3
:101A700091E043E0642190FBF1F000EBC00101EB49
:101A8000001057494988A1EB80000A2190FBF1F032
:101A900030304B49C872524840880A2190FBF1F01F
:101AA00000EB80004E498978A1EB4000303044497A
:101AB00008734B48007A88744948407AC87448488B
:101AC000807A08754648C07A48754548007B887515
:101AD0004348407BC875502088774C20C877412008
:101AE00081F82000592081F82100202081F822006F
:101AF0002C213348FFF7E4F900BF00BF2D480078E0
:101B0000042848D13748007805281CD2DFE800F0C7
:101B1000031C2A6E870034480078401E40B23249C8
:101B20000870084690F90000002801DA00200870CB
:101B30002D4991F9001001EB4101184A02EB011007
:101B40003021FFF7BDF983E000201349087091F9B7
:101B5000001001EB4101114A02EB01103021FFF7A7
:101B6000AFF975E00E480078401E40B20C4908708D
:101B7000084690F90000002801DA002008700849A2
:101B800091F9001001EB4101044A02EB01103021F0
:101B9000FFF796F95CE05CE0920600200304002069
:101BA0009306002094060020950600209304002050
:101BB000000002408C0600208E0600209D060020BA
:101BC0001B030020A0060020124E000897060020EC
:101BD000DB020020FB0200209A06002060020020A9
:101BE000E40600209006002091060020FE480078C0
:101BF000401E40B2FC490870084690F900000028D9
:101C000001DA00200870F84991F9001001EB410158
:101C1000F64A02EB01103021FFF752F918E0F448C0
:101C20000078401E40B2F2490870084690F9000062
:101C3000002801DA03200870ED4991F9001001EB4A
:101C40004101EC4A02EB01103021FFF739F900BFE6
:101C500000BFE948006800F48060002873D0E748BE
:101C60000078022870D10020E5490870E548007826
:101C7000401C40B2E3490870084690F900000F2864
:101C800001DD0F20087002F067FD00208DF80000D4
:101C9000DD48DE490978405C8DF801000222694682
:101CA0008820FEF727FCDA49087003208DF8000031
:101CB000D44890F90000002803DDD24890F90000D4
:101CC00004E0D04890F90000C0F11000C0B28DF8D7
:101CD0000100022269468820FEF70CFCCC490870FE
:101CE000C84890F90000002801DD2B2000E02D20DD
:101CF000C8494872C34890F90000002806DDC14871
:101D000090F900000A2190FBF1F006E0BD4890F93F
:101D1000000040420A2190FBF1F03030BD4988724A
:101D2000B84890F9000000280FDDB64890F900008F
:101D30000A2190FBF1F000EB8000B24991F900100C
:101D4000A1EB400010E099E015E0AE4890F90000EA
:101D500040420A2190FBF1F000EB8000A94991F983
:101D600000104942A1EB40003030AA49C87220213E
:101D7000A848FFF7A5F8A148007804287ED1A64816
:101D8000007805287BD2DFE800F003B5FCFBFA0001
:101D9000A24890F9000020B1012855D0022852D164
:101DA00078E09F484078401C9D494870084640783C
:101DB000032801DD032048709948407830B101289C
:101DC00013D0022820D003283CD12CE020209549B4
:101DD0004872462088724C20C872412008735420F3
:101DE000487320208873C8732CE020208D494872E6
:101DF000342088723020C87208732020487348202D
:101E000088737A20C8731DE02020864948723820E4
:101E100088723020C8720873202048734820887365
:101E20007A20C8730EE032207E49487234208872CE
:101E30003020C872087320204873482088737A20A5
:101E4000C87300BF00BF33E07548007818B90020A0
:101E50007349087004E072480078401E70490870A9
:101E60006F4800780A2190FBF1F030306D49887797
:101E70006B4800780A2190FBF1F001E0F4E306E200
:101E800000EB800066490978A1EB400030306549DD
:101E9000C8770DE00020624988702020614981F8F0
:101EA00030004F2081F831004E2081F8320000BF11
:101EB00000BF01208DF800005948007800F00F00A5
:101EC00057494978302202EA011108435449897878
:101ED000402202EA811108438DF80100022269467E
:101EE0008820FEF707FB4A49087037214D48FEF766
:101EF000E7FFCCE14C48007868BB4C484078401C78
:101F00004A49487008464078032801DD032048709C
:101F10004648407800EBC00101EB00100A2190FB1D
:101F2000F1F03030424988724048407800EBC001FF
:101F300001EB00100A2190FBF1F000EB80003B491F
:101F4000497801EBC10202EB0111A1EB40003030F6
:101F5000374908733CE035480078401C40B23349AB
:101F60000870084690F900000F2801DD0F20087066
:101F70002E4890F90000002804DD2B2003E091E2B8
:101F800086E179E02D202A494877284991F9001007
:101F90000A2291FBF2F0002801DB014600E04142F9
:101FA0003031234A9177214991F900100A2291FB9F
:101FB000F2F101EB81011D4A92F90020A2EB4100F0
:101FC000002801DB014600E041423031184AD17758
:101FD00004208DF80000154991F9001000292CDD2E
:101FE000124991F9001025E0940600200304002016
:101FF0009506002093040020100802408C06002063
:10200000A00600209F060020124E00088E06002029
:1020100097060020DB020020900600209106002099
:10202000A60600205305002092060020A9060020E5
:102030008A05002041F0100107E0FA4991F90000FB
:10204000002801DB014600E04142F64A5278602355
:1020500003EA421242F080021143C9B28DF8011026
:10206000022269468820FEF745FAEF4908702721C9
:10207000EE48FEF725FFD9E3ED4890F9000020B1C6
:10208000012833D0022830D16BE0EA484078401C68
:10209000E849487008464078032801DD032048706D
:1020A000E4484078401C00EB80000A2190FBF1F0EE
:1020B0003030E1494872DF484078401C00EB800036
:1020C0000A2190FBF1F000EB8001DA484078401CD7
:1020D00000EB8000A0EB41003030D7498872D54832
:1020E0004078032801D1352088728BE0D1480078F0
:1020F000401C40B2CF490870084690F900000F28F4
:1021000001DD0F200870CB4890F90000002801DDA8
:102110002B2000E02D20C8494877C64991F90010CE
:102120000A2291FBF2F0002801DB014600E0414267
:102130003031C14A9177BF4991F900100A2291FBD1
:10214000F2F101EB8101BB4A92F90020A2EB4100C0
:10215000002801DB014600E041423031B64AD17728
:1021600050E0B4488078401CB249887008468078B6
:10217000032801DD03208870AE48807800EBC001A1
:1021800001EB00103230642190FBF1F03030AA49AD
:1021900081F83000A748807800EBC00101EB001007
:1021A0003230642190FBF1F000EBC00101EB001133
:1021B000A048807800EBC00202EB00103230A0EBA8
:1021C00081000A2190FBF1F030309B4981F8320008
:1021D0009848807800EBC00101EB001032300A21F2
:1021E00090FBF1F000EB80019248807800EBC00298
:1021F00002EB00103230A0EB410030308E4981F804
:10220000330000BF00BF05208DF80000894991F917
:102210000010002905DD874991F9001041F01001F7
:1022200007E0844991F90000002801DB014600E045
:10223000414201F01F017F4A9278602303EA421273
:1022400011438DF80110022269468820FEF752F9E9
:102250007549087008208DF80000784840783021D2
:1022600001EA001040F0C000724949780C2202EAED
:10227000810108438DF80100022269468820FEF79B
:1022800039F96949087038216B48FEF719FECDE22B
:102290006B4890F9000020B1012831D002282ED1DE
:1022A00069E066484078401C6449487008464078B8
:1022B000032801DD032048706048407830B10128D0
:1022C0000AD002280ED0032818D111E020205D4941
:1022D00048723620887211E020205A49487238200E
:1022E00088720BE03120574948723020887205E02F
:1022F0003220544948723020887200BF00BF7AE013
:102300004E480078401C40B24C490870084690F98D
:1023100000000F2801DD0F200870484890F90000E8
:10232000002801DD2B2000E02D2046490877434995
:1023300091F900100A2291FBF2F0002801DB01461E
:1023400000E0414230313F4A51773C4991F9001059
:102350000A2291FBF2F101EB8101384A92F9002047
:10236000A2EB4100002801DB014600E04142303190
:10237000344A91773FE031488078401C2F4988707B
:1023800008468078032801DD0320887031202D491C
:1023900081F82F002948807800EBC00101EB001084
:1023A0000A2190FBF1F03030264981F831002348B2
:1023B000807800EBC00101EB00100A2190FBF1F0E6
:1023C00000EB80011D48807800EBC00202EB00109A
:1023D000A0EB410030301B4981F83200174880786B
:1023E000032807D1322081F82F00302081F83100F6
:1023F00081F8320000BF00BF06208DF800000F49B1
:1024000091F90010002905DD0C4991F9001041F007
:1024100010011AE0094991F90000002814DB014677
:1024200013E00000A9060020970600208A0500207E
:1024300093060020AB060020B1050020AE06002068
:1024400094060020E9050020414201F01F01FE4AE8
:102450009278602303EA421211438DF801100222A0
:1024600069468820FEF746F8F849087008208DF87C
:102470000000F5484078302101EA0010F44949781D
:102480000C2202EA810108438DF80100022269460C
:102490008820FEF72FF8ED4908703721ED48FEF748
:1024A0000FFDC3E1EC4890F9000030B1012874D071
:1024B000022871D003286DD141E1E8480078401C22
:1024C00040B2E6490870084690F900000F2801DD87
:1024D0000F2008700A208DF80000E04890F90000F5
:1024E000002803DDDD4890F9000004E0DB4890F9A6
:1024F0000000C0F11000C0B28DF801000222694650
:102500008820FDF7F7FFD1490870D44890F9000002
:10251000002801DD2B2000E02D20D1494872CF4852
:1025200090F90000002806DDCC4890F900000A214F
:1025300090FBF1F006E0C94890F9000040420A2102
:1025400090FBF1F03030C6498872C44890F9000021
:1025500000280DDDC14890F900000A2190FBF1F040
:1025600000EB8000BD4991F90010A1EB40000EE0A6
:10257000BA4890F9000040420A2190FBF1F000EBCC
:102580008000B64991F900104942A1EB400030307B
:10259000B349C8723DE100E067E0B0484078401CB4
:1025A00040B2AE494870084690F901000F2801DD9D
:1025B0000F2048700B208DF80000A84890F901000A
:1025C000002803DDA54890F9010004E0A34890F934
:1025D0000100C0F11000C0B28DF801009F4890F9D1
:1025E0000100002801DD2B2000E02D209C494876C9
:1025F0009A4890F90100002806DD984890F90100FA
:102600000A2190FBF1F006E0944890F90100404265
:102610000A2190FBF1F03030914988768F4890F98B
:10262000010000280DDD8D4890F901000A2190FB82
:10263000F1F000EB8000894991F90110A1EB400015
:102640000EE0864890F9010040420A2190FBF1F02B
:1026500000EB8000814991F901104942A1EB400053
:1026600030307F49C876D4E0E3E07C488078401C75
:1026700040B27A498870084690F902000F2801DDBF
:102680000F2088700C208DF80000744890F902002B
:10269000002803DD714890F9020004E06F4890F9CA
:1026A0000200C0F11000C0B28DF801006B4890F933
:1026B0000200002801DD2B2000E02D20684981F870
:1026C0002900664890F90200002806DD634890F969
:1026D00002000A2190FBF1F006E0604890F9020048
:1026E00040420A2190FBF1F030305D4981F82A0028
:1026F0005A4890F9020000280DDD584890F9020070
:102700000A2190FBF1F000EB8000544991F902108E
:10271000A1EB40000EE0514890F9020040420A212E
:1027200090FBF1F000EB80004C4991F90210494216
:10273000A1EB400030304A4981F82B0069E047485E
:10274000C078401C40B24549C870084690F9030063
:102750000F2801DD0F20C8700D208DF800003F48C4
:1027600090F90300002803DD3C4890F9030004E0E1
:102770003A4890F90300C0F11000C0B28DF8010092
:10278000364890F90300002801DD2B2000E02D20C1
:10279000334981F83900314890F90300002806DDFB
:1027A0002E4890F903000A2190FBF1F006E02B4837
:1027B00090F9030040420A2190FBF1F030302849A3
:1027C00081F83A00254890F9030000280DDD2348E0
:1027D00090F903000A2190FBF1F000EB80001F4903
:1027E00091F90310A1EB40000EE01C4890F90300A2
:1027F00040420A2190FBF1F000EB8000174991F96B
:1028000003104942A1EB40003030154981F83B00EC
:1028100000BF00BF022269468820FDF76BFE0B490E
:10282000087040210E48FEF74BFB00BF00BF01F0CF
:1028300093FF0C48006800F4006000287ED00A482E
:10284000007802287BD111E0AE0600209706002018
:10285000AB060020E905002095060020B106002007
:1028600020060020100802408C0600200020FA49B3
:102870000870FA480078401E40B2F84908700846CF
:1028800090F9000010F14F0F01DAB120087001F04B
:1028900063FF00208DF80000F148F2490978405CA0
:1028A0008DF80100022269468820FDF723FEEE49DB
:1028B000087003208DF80000E84890F90000002817
:1028C00003DDE64890F9000004E0E44890F90000D8
:1028D000C0F11000C0B28DF80100022269468820C4
:1028E000FDF708FEE0490870DC4890F90000002878
:1028F00001DD2B2000E02D20DC494872D74890F9FB
:102900000000002806DDD54890F900000A2190FB60
:10291000F1F006E0D14890F9000040420A2190FB16
:10292000F1F03030D1498872CC4890F9000000288D
:1029300010DDCA4890F900000A2101E0A1E01FE083
:1029400090FBF1F000EB8000C44991F90010A1EB7D
:1029500040000EE0C14890F9000040420A2190FB7F
:10296000F1F000EB8000BD4991F900104942A1EB64
:1029700040003030BD49C8722021BC48FEF7A0FAA3
:10298000BB48007804287CD1BA480078052879D261
:10299000DFE800F003B4FDFCFB00B74890F900004D
:1029A00020B1012856D0022853D178E0B3484078AE
:1029B00018B90020B149487004E0B0484078401E82
:1029C000AE494870AD48407830B1012813D0022894
:1029D00020D003283CD12CE02020A9494872462071
:1029E00088724C20C87241200873542048732020FC
:1029F0008873C8732CE02020A14948723420887263
:102A00003020C872087320204873482088737A20C9
:102A1000C8731DE020209A494872382088723020FF
:102A2000C872087320204873482088737A20C873BE
:102A30000EE0322092494872342088723020C872E9
:102A4000087320204873482088737A20C87300BF19
:102A500000BF31E089480078401C8849087008466A
:102A600000780F2801DD0F200870844800780A21C3
:102A700090FBF1F0303082498877804800780A2155
:102A800001E0FCE306E290FBF1F000EB80007B4903
:102A90000978A1EB400030307949C8770CE001207B
:102AA000764988704F20764981F83000462081F8B9
:102AB000310081F8320000BF00BF01208DF8000016
:102AC0006E48007800F00F006C494978302202EA25
:102AD0000111084369498978402202EA81110843BB
:102AE0008DF80100022269468820FDF703FD5E494A
:102AF000087037216248FEF7E3F9CBE161480078BE
:102B000070BB6148407818B900205F49487004E004
:102B10005D484078401E5C4948705B48407800EB57
:102B2000C00101EB00100A2190FBF1F03030574951
:102B300088725548407800EBC00101EB00100A2173
:102B400090FBF1F000EB80014F48407800EBC002B1
:102B500002EB0010A0EB410030304C4908733DE01F
:102B600049480078401E40B247490870084690F92D
:102B7000000010F10F0F01DAF1200870424890F9BF
:102B80000000002804DD2B2003E08BE283E152E00B
:102B90002D203E4948773C4991F900100A2291FBCB
:102BA000F2F0002801DB014600E041423031374AB3
:102BB0009177354991F900100A2291FBF2F101EB6E
:102BC0008101314A92F90020A2EB4100002801DB8B
:102BD000014600E0414230312C4AD17704208DF883
:102BE0000000294991F90010002905DD264991F9D5
:102BF000001041F0100107E0234991F9000000287E
:102C000001DB014600E041421F4A5278602303EA9B
:102C1000421242F080021143C9B28DF80110022223
:102C200069468820FDF766FC0F4908702721174880
:102C3000FEF746F9F8E3164890F9000020B10128A4
:102C400055D0022852D18EE01248407818B90020A1
:102C50001049487025E01FE0A00600209F060020D4
:102C6000124E00088E06002097060020DB0200208E
:102C70008C0600209006002091060020A606002069
:102C80005305002092060020A90600208A05002096
:102C900093060020AB060020FC484078401EFB490C
:102CA0004870FA484078401C00EB80000A2190FBF5
:102CB000F1F03030F6494872F4484078401C00EB9F
:102CC00080000A2190FBF1F000EB8001EF48407892
:102CD000401C00EB8000A0EB41003030EC498872D2
:102CE000EA484078032801D1352088728DE0E74812
:102CF0000078401E40B2E5490870084690F900008F
:102D000010F10F0F01DAF1200870E04890F900008F
:102D1000002801DD2B2000E02D20DD494877DB492C
:102D200091F900100A2291FBF2F0002801DB014624
:102D300000E041423031D64A9177D44991F90010F0
:102D40000A2291FBF2F101EB8101D04A92F90020B5
:102D5000A2EB4100002801DB014600E04142303196
:102D6000CB4AD17751E0C948807818B90020C749CB
:102D7000887004E0C5488078401EC4498870C34804
:102D8000807800EBC00101EB00103230642190FB31
:102D9000F1F03030BE4981F83000BC48807800EB5B
:102DA000C00101EB00103230642190FBF1F000EB28
:102DB000C00101EB0011B548807800EBC00202EBC6
:102DC00000103230A0EB81000A2190FBF1F030308E
:102DD000AF4981F83200AD48807800EBC00101EBCB
:102DE000001032300A2190FBF1F000EB8001A7487F
:102DF000807800EBC00202EB00103230A0EB410003
:102E00003030A34981F8330000BF00BF05208DF8A2
:102E100000009E4991F90010002905DD9B4991F9B8
:102E2000001041F0100107E0984991F900000028D6
:102E300001DB014600E0414201F01F01934A927814
:102E4000602303EA421211438DF801100222694601
:102E50008820FDF74FFB8F49087008208DF800008F
:102E60008D484078302101EA001040F0C0008749C9
:102E700049780C2202EA810108438DF80100022200
:102E800069468820FDF736FB824908703821804862
:102E9000FEF716F8C8E2814890F9000020B1012839
:102EA00032D002282FD16BE07B48407818B900203F
:102EB0007949487004E078484078401E7649487067
:102EC0007548407830B101280AD002280ED0032876
:102ED00018D111E02020724948723620887211E022
:102EE00020206F494872382088720BE031206C49ED
:102EF00048723020887205E03220694948723020DB
:102F0000887200BF00BF7CE063480078401E40B27A
:102F100061490870084690F9000010F10F0F01DABE
:102F2000F12008705C4890F90000002801DD2B209A
:102F300000E02D205A490877574991F900100A22DC
:102F400091FBF2F0002801DB014600E04142303104
:102F5000534A5177504991F900100A2291FBF2F13E
:102F600001EB81014C4A92F90020A2EB41000028BC
:102F700001DB014600E041423031494A917740E0AF
:102F80004548807818B900204349887004E04248D9
:102F90008078401E404988703120414981F82F00D7
:102FA0003D48807800EBC00101EB00100A2190FB46
:102FB000F1F030303A4981F831003748807800EB41
:102FC000C00101EB00100A2190FBF1F000EB800141
:102FD0003148807800EBC00202EB0010A0EB41000A
:102FE00030302F4981F832002B488078032807D1F0
:102FF000322081F82F00302081F8310081F8320032
:1030000000BF00BF06208DF80000234991F9001091
:10301000002905DD204991F9001041F0100107E079
:103020001D4991F90000002801DB014600E0414202
:1030300001F01F01184A9278602303EA42121143FB
:103040008DF80110022269468820FDF753FA1149D4
:10305000087008208DF800000F484078302101EA00
:1030600000100A4949780C2202EA810108438DF8D0
:103070000100022269468820FDF73CFA05490870E4
:1030800037210748FDF71CFFCEE10000AB0600200A
:10309000B105002097060020AE060020940600200F
:1030A000E9050020FE4890F9000030B101286CD0FD
:1030B00002287DD0032867D13EE1FA480078401EFF
:1030C00040B2F8490870084690F9000010F14F0F1F
:1030D00001DAB12008700A208DF80000F14890F95B
:1030E0000000002803DDEF4890F9000004E0ED48FF
:1030F00090F90000C0F11000C0B28DF80100E9485D
:1031000090F90000002801DD2B2000E02D20E64989
:103110004872E44890F90000002806DDE14890F983
:1031200000000A2190FBF1F006E0DE4890F9000073
:1031300040420A2190FBF1F03030DB498872D948D7
:1031400090F9000000280DDDD64890F900000A2112
:1031500090FBF1F000EB8000D24991F90010A1EB57
:1031600040000EE0CF4890F9000040420A2190FB59
:10317000F1F000EB8000CB4991F900104942A1EB3E
:1031800040003030C849C87241E1C6484078401E0E
:1031900040B2C4494870084690F9010010F14F0F41
:1031A00001DAB12048700B208DF80000BD4800E026
:1031B00055E090F90100002803DDBA4890F90100BC
:1031C00004E0B84890F90100C0F11000C0B28DF8D9
:1031D0000100B44890F90100002801DD2B2000E037
:1031E0002D20B1494876AF4890F90100002806DD4E
:1031F000AC4890F901000A2190FBF1F006E0A948E3
:1032000090F9010040420A2190FBF1F03030A649CC
:103210008876A44890F9010000280DDDA14890F9B6
:1032200001000A2190FBF1F000EB80009D4991F92B
:103230000110A1EB40000EE09A4890F901004042D5
:103240000A2190FBF1F000EB8000964991F9011002
:103250004942A1EB400030309349C876D7E091480D
:103260008078401E40B28F498870084690F902006D
:1032700010F14F0F01DAB12088700C2000E0D6E089
:103280008DF80000874890F90200002803DD85488A
:1032900090F9020004E0834890F90200C0F11000A8
:1032A000C0B28DF801007F4890F90200002801DDCE
:1032B0002B2000E02D207C4981F82900794890F9E5
:1032C0000200002806DD774890F902000A2190FBF1
:1032D000F1F006E0734890F9020040420A2190FBA9
:1032E000F1F03030704981F82A006E4890F9020000
:1032F00000280DDD6B4890F902000A2190FBF1F0E7
:1033000000EB8000674991F90210A1EB40000EE04C
:10331000644890F9020040420A2190FBF1F000EB72
:103320008000604991F902104942A1EB4000303021
:103330005D4981F82B006AE05A48C078401E40B2CF
:103340005849C870084690F9030010F14F0F01DA90
:10335000B120C8700D208DF80000524890F903008C
:10336000002803DD4F4890F9030004E04D4890F930
:103370000300C0F11000C0B28DF80100494890F977
:103380000300002801DD2B2000E02D20464981F8B4
:103390003900444890F90300002806DD414890F9BF
:1033A00003000A2190FBF1F006E03E4890F903008B
:1033B00040420A2190FBF1F030303B4981F83A005D
:1033C000384890F9030000280DDD364890F90300D5
:1033D0000A2190FBF1F000EB8000324991F90310D3
:1033E000A1EB40000EE02F4890F9030040420A2173
:1033F00090FBF1F000EB80002A4991F9031049425B
:10340000A1EB40003030284981F83B0000BF00BFED
:10341000022269468820FDF76DF824490870402192
:103420002148FDF74DFD00BF00BF01F095F9204890
:10343000006900F4007088B31E48007803282DD17D
:103440001D48007807287DD2DFE800F0043FBA6607
:1034500091E3FE0019480078401C1849087008469E
:103460000078182801DB00200870144800780A2131
:1034700090FBF1F0303012494872104800780A2170
:1034800090FBF1F000EB80000C490978A1EB4000C3
:1034900030300B4988720F21094813E085E10000A4
:1034A00095060020B1060020200600209706002087
:1034B000000002408C0600208D060020BC06002083
:1034C000C0010020FDF7FCFC6EE1FE480078401CC6
:1034D000FC490870084600783C2801DB0020087091
:1034E000F84800780A2190FBF1F03030F649087670
:1034F000F44800780A2190FBF1F000EB8000F149DC
:103500000978A1EB40003030EF4948760F21EE48B2
:103510000F30FDF7D5FC47E1EC480078401CEB4943
:103520000870084600780D2801DB01200870E74884
:1035300000780A2190FBF1F03030E34981F8270050
:10354000E24800E02FE100780A2190FBF1F000EB67
:103550008000DE490978A1EB40003030DA4981F87B
:1035600028000F21D8481E30FDF7AAFC1CE1D848DE
:103570000078401CD649087008460078202801DBF6
:1035800001200870D24800780A2190FBF1F0303019
:10359000CD4981F83600CE4800780A2190FBF1F041
:1035A00000EB8000CA490978A1EB40003030C649E1
:1035B00081F837000F21C4482D30FDF781FCF3E07E
:1035C000C4480078401CC3490870084600781E288B
:1035D00001DB12200870BF4800780A2190FBF1F04F
:1035E0003030B94981F84500BA4800780A2190FB8B
:1035F000F1F000EB8000B7490978A1EB40003030D2
:10360000B14981F846000F21AF483C30FDF758FC26
:10361000CAE0B1480078401CAF49087008460078FD
:10362000082801DB01200870AB480078401E00EB41
:10363000C000AA490144A4480A6842654A688265F4
:10364000097A80F85C1000E004E017214B30FDF7A8
:1036500037FCA9E0A2480078A2490870A248006897
:1036600040F08050A0490860A048006840F4807095
:103670009E490860CA209E490860532008609C4803
:103680001838006840F0800099491839086000BF78
:1036900097481838006800F040000028F8D08948A2
:1036A00000780A2190FBF1F00103864800780A2295
:1036B00090FBF2F000EB8000824A1278A2EB40000F
:1036C00041EA00208B4909780A2291FBF2F140EA95
:1036D00001518848007890FBF2F000EB8000854AA9
:1036E0001278A2EB400041EA004081492439086089
:1036F000774800780A2190FBF1F000EB80007449D4
:103700000978A1EB4000724909780A2291FBF2F195
:1037100040EA01106D49097891FBF2F140EA01316C
:103720006A48007890FBF2F000EB8000674A12785C
:10373000A2EB400041EA0020664909780A2291FB89
:10374000F2F140EA01506349097891FBF2F101EB93
:103750008101604A1278A2EB410140EA01405E49D2
:10376000097840EA413062492039086060481838D9
:10377000006820F080005E4918390860FF205C492D
:1037800008605A48006820F48070584908605A4917
:10379000544A127801EB02101021FDF791FB6220D0
:1037A0005649087000E000BF00BF5548006900F4AA
:1037B0008070E8B34B480078012804D0022803D079
:1037C00003287DD124E100BF4648007844490870B1
:1037D0000320444908704849424A127801EB02101C
:1037E0001021FDF76DFB002046490870097801EBB8
:1037F0004101454A02EBC1001821FDF761FB3C483D
:1038000024380068C0F30340394924390968C1F3FA
:10381000015101EB810100EB410036490870344849
:1038200024380068C0F3032031492439096800E0D6
:1038300006E1C1F3023101EB810100EB41002149B6
:1038400008702B482038006800F00F002849203904
:103850000968C1F3011101EB810100EB41001C4932
:103860000870234820380068C0F30320204920391D
:103870000968C1F3003101EB810100EB41001349FC
:1038800008701B4820380068C0F3034018492039ED
:103890000968C1F3035101EB810100EB41000D49BF
:1038A0000870134820380068C0F342300A49087095
:1038B000104800780A2190FBF1F03030024925E0F1
:1038C000BCE00000BD060020C0010020BE060020B4
:1038D000BF060020C1060020C006002021020020F3
:1038E0008F0600208C060020403802400070004007
:1038F00024280040BC0600204C000020C206002006
:10390000000002408D060020180100204872FE4889
:1039100000780A2190FBF1F000EB8000FA49097869
:10392000A1EB40003030F9498872F94800780A214B
:1039300090FBF1F03030F5490876F54800780A211F
:1039400090FBF1F000EB8000F1490978A1EB400019
:103950003030EE494876EF4800780A2190FBF1F0CC
:103960003030EA4981F82700EA4800780A2190FBC4
:10397000F1F000EB8000E7490978A1EB400030301E
:10398000E24981F82800E44800780A2190FBF1F030
:103990003030DE4981F83600DF4800780A2190FB9C
:1039A000F1F000EB8000DC490978A1EB40003030F9
:1039B000D64981F83700D94800780A2190FBF1F008
:1039C0003030D24981F84500D44800780A2190FB74
:1039D000F1F000EB8000D1490978A1EB40003030D4
:1039E000CA4981F84600CE480068C0F34230401E04
:1039F00000EBC000CB490144C4480A6842654A68EC
:103A00008265097A80F85C106121FDF759FA16E0A9
:103A1000C5480078401CC44908700846007806284C
:103A200001DD00200870C049097801EB4101BF4A5F
:103A300002EBC1001821FDF743FA00E000BF00BF10
:103A4000BB48006800F0200000287CD0B94800780E
:103A5000022879D10420B74908700020B6490870BF
:103A6000097801EB8101B54A02EB81001421FDF7D1
:103A700027FA0C21B248FDF723FA0020B14908705B
:103A800091F9001001EB4101AF4A02EB0110302126
:103A9000FDF716FAAD48407830B1012813D002285E
:103AA00020D003283CD12CE02020A9494872462090
:103AB00088724C20C872412008735420487320201B
:103AC0008873C8732CE02020A14948723420887282
:103AD0003020C872087320204873482088737A20E9
:103AE000C8731DE020209A4948723820887230201F
:103AF000C872087320204873482088737A20C873DE
:103B00000EE0322092494872342088723020C87208
:103B1000087320204873482088737A20C87300BF38
:103B200000BF8A4800780A2190FBF1F030308849C4
:103B30008877864800780A2190FBF1F000EB80003E
:103B40008249097801E07EE31FE0A1EB40003030BC
:103B50007F49C8777D48807840B14F2081F8300098
:103B6000462081F8310081F8320009E020207849B0
:103B700081F830004F2081F831004E2081F832006A
:103B800037217348FDF79CF95DE36A480078042803
:103B9000FAD169480078042812D1022065490870DA
:103BA0006C49644A127801EB02101021FDF788F984
:103BB0000C216348FDF784F962206749087042E3ED
:103BC0005D480078401C5C490870097801EB810170
:103BD0005A4A02EB81001421FDF772F90C21584872
:103BE000FDF76EF954480078012806D0022865D008
:103BF00003287DD0042860D1D8E1002057490870FF
:103C000091F9001001EB41014F4A02EB0110302104
:103C1000FDF756F95248407800EBC00101EB001067
:103C20000A2190FBF1F030304E4988724C484078C0
:103C300000EBC00101EB00100A2190FBF1F000EB5A
:103C400080004749497801EBC10202EB0111A1EB69
:103C50004000303043490873414890F90000002883
:103C600001DD2B2000E02D203E4948773C4991F9A9
:103C700000100A2291FBF2F0002801DB014600E06F
:103C800041423031374A9177354991F900100A2283
:103C900091FBF2F101EB8101314A92F90020A2EB94
:103CA0004100002801DB014600E0414230312D4A4D
:103CB000D17727211046FDF703F9C3E200202A49F6
:103CC000087091F9001001EB41011F4A02EB01104D
:103CD0003021FDF7F5F825484078401C00EB8000C6
:103CE0000A2190FBF1F03030214948721F4800E072
:103CF000C6E04078401C00EB80000A2190FBF1F008
:103D000000EB8001194835E0BC060020C00100200E
:103D1000BD060020BE060020BF060020C106002010
:103D200004280040210200208D06002018010020F8
:103D3000100402408C060020900600209F03002003
:103D40008C0000209106002003040020A60600201D
:103D5000530500204C000020C206002092060020DF
:103D6000A90600208A05002093060020AB0600204B
:103D7000B10500204078401C00EB8000A0EB410022
:103D80003030FE498872FE484078032801D1352042
:103D90008872FB4890F90000002801DD2B2000E02C
:103DA0002D20F6494877F64991F900100A2291FB37
:103DB000F2F0002801DB014600E041423031EF4AD9
:103DC0009177EF4991F900100A2291FBF2F101EB92
:103DD0008101EB4A92F90020A2EB4100002801DBAF
:103DE000014600E041423031E44AD177E44880782E
:103DF00000EBC00101EB00103230642190FBF1F0C8
:103E00003030114681F83000DD48807800EBC00189
:103E100001EB00103230642190FBF1F000EBC001A7
:103E200001EB0011D648807800EBC00202EB0010D5
:103E30003230A0EB81000A2190FBF1F03030CF4905
:103E400081F83200CE48807800EBC00101EB001011
:103E500032300A2190FBF1F000EB8001C8488078F5
:103E600000EBC00202EB00103230A0EB410030301A
:103E7000C24981F833003821C048FDF721F8E1E15B
:103E80000020C049087091F9001001EB4101BE4AC1
:103E900002EB01103021FDF713F8BC48407830B137
:103EA00001280AD002280ED0032818D111E02020C2
:103EB000B74948723620887211E02020B449487210
:103EC000382088720BE03120B14948723020887266
:103ED00005E03220AE4948723020887200BF00BF32
:103EE000AA4890F90000002801DD2B2000E02D20D9
:103EF000A7490877A54991F900100A2291FBF2F031
:103F0000002801DB014600E041423031A04A5177F0
:103F10009E4991F900100A2291FBF2F101EB810117
:103F20009A4A92F90020A2EB4100002801DB0146E9
:103F300000E041423031964A91773120114681F8B4
:103F40002F009248807800EBC00101EB00100A219D
:103F500090FBF1F03030114681F831008B488078C9
:103F600000EBC00101EB00100A2190FBF1F000EB27
:103F700080008649897801EBC10202EB0111A1EBB7
:103F800040003030824981F8320080488078032830
:103F900007D1322081F82F00302081F8310081F8DC
:103FA000320037217A48FCF78BFF4BE1002079493A
:103FB000087091F9001001EB4101774A02EB011002
:103FC0003021FCF77DFF734991F9001001EB4101AD
:103FD000714A02EB01103021FCF772FF6F4890F933
:103FE0000000002801DD2B2000E02D206C494872E4
:103FF0006A4890F90000002806DD684890F9000042
:104000000A2190FBF1F006E0644890F9000040427C
:104010000A2190FBF1F03030614988725F4890F9D5
:10402000000000280DDD5D4890F900000A2190FB9A
:10403000F1F000EB8000594991F90010A1EB40002C
:104040000EE0564890F9000040420A2190FBF1F042
:1040500000EB8000514991F900104942A1EB40006A
:1040600030304F49C8724D4890F90100002801DDF9
:104070002B2000E02D204A494876484890F901005D
:10408000002806DD454890F901000A2190FBF1F077
:1040900006E0424890F9010040420A2190FBF1F00D
:1040A00030303F4988763D4890F9010000280DDD09
:1040B0003A4890F901000A2190FBF1F000EB8000F2
:1040C000364991F90110A1EB40000EE0334890F918
:1040D000010040420A2190FBF1F000EB80002F49E3
:1040E00091F901104942A1EB400030302C49C876CB
:1040F0002A4890F90200002801DD2B2000E02D2045
:10410000274981F82900254890F90200002806DD9A
:10411000224890F902000A2190FBF1F006E01F48C6
:1041200090F9020040420A2190FBF1F030301C4926
:1041300081F82A00194890F9020000280DDD17487F
:1041400090F902000A2190FBF1F000EB8000134986
:1041500091F90210A1EB40000EE0104890F9020026
:1041600040420A2190FBF1F000EB80000B4991F9ED
:1041700002104942A1EB4000303013E0B1050020AD
:10418000AB0600209406002003040020AE060020A9
:10419000E90500209506002093040020B1060020C8
:1041A00020060020634981F82B00634890F9030042
:1041B000002801DD2B2000E02D205E4981F8390028
:1041C0005D4890F90300002806DD5B4890F9030084
:1041D0000A2190FBF1F006E0574890F903004042B5
:1041E0000A2190FBF1F03030524981F83A005248F0
:1041F00090F9030000280DDD4F4890F903000A21D3
:1042000090FBF1F000EB80004B4991F90310A1EB1A
:1042100040000EE0484890F9030040420A2190FB1C
:10422000F1F000EB8000444991F903104942A1EB01
:10423000400030303F4981F83B0040213D48FCF7C9
:104240003FFE00BF00BF3D480078022803D03B4836
:104250000078012866D13A480078642862DB0020A3
:1042600037490870FCF762F836480068C0F303204D
:1042700030303549887333480068C0F3023030303D
:10428000487330480068C0F303403030C8722D488E
:104290000068C0F30150303088722A48001D006861
:1042A00000F00F00303081F820002648001D006823
:1042B000C0F301103030C8772248001D0068C0F3F9
:1042C0000320303081F823001E48001D0068C0F331
:1042D0000030303081F822001A48001D0068C0F319
:1042E0000340303081F826001648001D0068C0F3F6
:1042F0000350303081F825001248001D0068C0F3DB
:104300004230401E00EBC000104901440E482B30E3
:104310000A6802604A684260097A017238212B38C3
:10432000FCF7CEFD0A48006840F0004008490860EC
:1043300008BD000020060020B10600208C060020E9
:10434000C2060020002800401400002021020020A6
:104350001804024008B50A48006800F0100068B16F
:1043600007480068009006484068009000BF054874
:10437000006920F001000349086100BF08BD00008A
:10438000005000400060024030B5034600218948DB
:1043900083708948006800F0200018B18648001D2D
:1043A0000068C2B200200DE000BF834C246804F016
:1043B0004004002CF9D07F4C245C7F4D2D1D2C60D7
:1043C000441CE0B20428EFDB482B12D008DC012BA0
:1043D00075D0022B74D00D2B73D00E2B2FD1C5E0CE
:1043E0004C2B2DD0502B7DD0512B50D0522BF5D1B2
:1043F0009FE0042421E0002105E0491C6F48814230
:1044000001D1012030BD6C48006800F02000002878
:10441000F3D06948001D0068C2B2612A01DB572051
:1044200000E03020101A651EAD00A840644D2D88B4
:104430002843634D2880601EC4B2002CDBDCB0E052
:10444000042421E0002105E0491C5C48814201D19F
:104450000120D7E75848006800F020000028F3D07A
:104460005548001D0068C2B2612A01DB572000E0F8
:104470003020101A651EAD00A840514D6D882843AC
:104480004F4D6880601EC4B2002CDBDC89E0042440
:1044900025E0002105E0491C4848814201D1012066
:1044A000B0E74548006800F020000028F3D04248FB
:1044B000001D0068C2B2612A05DB572004E056E007
:1044C00056E052E00EE03020101A651EAD00A84004
:1044D0003B4DED8828433A4DE880601EC4B2002C65
:1044E000D7DC5EE0042421E0002105E0491C3348CC
:1044F000814201D1012085E72F48006800F02000AB
:104500000028F3D02C48001D0068C2B2612A01DBEC
:10451000572000E03020101A651EAD00A840284D3D
:10452000AD882843264DA880601EC4B2002CDBDC79
:1045300037E0002416E0002105E0491C1F488142B5
:1045400001D101205EE71C48006800F0200000282F
:10455000F3D01948001D0068C2B21948083002554E
:10456000601CC4B20B2CE6DB1BE000BF00BF00BF29
:10457000002413E0002105E0491C1248814201D1CA
:1045800001203FE70C48006800F020000028F3D02D
:104590000948001D0068C5B2601CC4B2022CE9DBEA
:1045A00000BF00BF002000E0401C074CA042FBD32E
:1045B000002027E783060020004C004080841E0076
:1045C000E406002040420F0060EC530070B5024644
:1045D0000B4600212E488270C3702E48006800F000
:1045E000200018B12B48001D0068C4B200200DE067
:1045F00000BF284D2D6805F08005002DF9D0244D11
:104600002D5C244E361D3560451CE8B20528EFDBD5
:10461000092A1CD1002517E0002105E0491C1E488D
:10462000814201D1012070BD1A48006800F02000CD
:104630000028F3D01748001D0068C4B2532C01D1E4
:104640000120F0E7681CC5B2052DE5DB17E0002569
:1046500013E0002105E0491C0F48814201D10120EF
:10466000E1E70C48006800F020000028F3D009487A
:10467000001D0068C4B2681CC5B2022DE9DB002031
:1046800000E0401C054DA842FBD30020CBE7000012
:1046900087060020004C004080841E0020AA4400B1
:1046A000002809DB00F01F0201219140420992001D
:1046B00002F1E022C2F800117047000000B5024686
:1046C0000D48006840F002000B4908600846006889
:1046D00040EAC20008600846006840F48030086084
:1046E00005E00548006820F002000349086000F07A
:1046F00009F80028F5D000BD103C024001460868CA
:104700007047000002480068012121EA104070470C
:104710000C3C024000B502460B460E48006840F0D3
:1047200001000C4908600846006840F40070086009
:1047300000BFFFF7E7FF0028FBD0136000BFFFF7C3
:10474000E1FF0028FBD00348006820F00100014988
:10475000086000BD103C024010B50320FFF7AEFF1B
:104760004E48007804280FD14D4800784FF0007172
:1047700041EA00404B4991F900104FF47F4202EAB0
:10478000012140EA01040FE0444800780006444952
:10479000097840EA0140434991F900104FF47F4203
:1047A00002EA012140EA010421463F48FFF7B2FF37
:1047B0003E480088040421463B48001DFFF7AAFF3D
:1047C0003B48807800063A49497840EA0140384938
:1047D00009784FF47F4202EA012140EA01042146B0
:1047E00031481030FFF796FF324890F900004FF43F
:1047F0007F0101EA00402F49497840EA01642146DF
:1048000029481430FFF786FF2B48807800062A4994
:10481000497840EA0140284991F900104FF47F425D
:1048200002EA012140EA010421461F481830FFF73F
:1048300071FF2248807800062049497840EA01400B
:104840001E4991F900104FF47F4202EA012140EA2B
:104850000104214614481C30FFF75CFF184800781B
:104860004FF07F4101EA0060154991F901104FF4C2
:104870007F0202EA01410843114991F90210121224
:1048800002EA012108430E49C97840EA01042146A1
:1048900005482030FFF73EFF10BD00008C060020C9
:1048A0008E0600209F06002000C000089A06002007
:1048B000A6060020A9060020AB060020AE060020B8
:1048C000B1060020FCF768F8FBF746FFFE480068D9
:1048D00040F00800FC490860FC48006840F00050C7
:1048E000FA490860F848006840F04000F64908605E
:1048F000F748F8490860F8480860FCF73DFA0721D6
:10490000F648FCF7DDFA002000E0401CF44988423C
:10491000FBD33120F3490872342048720D21F1484D
:10492000FCF7CEFAFBF760FE3220EE490872382021
:1049300048720D21EB48FCF7C3FAFCF7D7F8342096
:10494000E8490872322048720D21E648FCF7B8FAAF
:10495000FCF70CF83520E3490872362048720D2127
:10496000E048FCF7ADFAFBF7E7FF3720DD490872B6
:10497000302048720D21DB48FCF7A2FAFBF79CFEC1
:104980003820D8490872342048720D21D548FCF7E8
:1049900097FAFCF71BFA00210920FFF717FED2490E
:1049A00008700846007858B91E210620FFF70EFE51
:1049B000CD49087000211120FFF708FECA49087090
:1049C0003920C8490872382048720D21C548FCF7C3
:1049D00077FAC648FFF792FE0446601C002863D0B1
:1049E000200EC3490870C148FFF788FE00F47F001D
:1049F000000CC0490870BD48FFF780FE000A40B2B5
:104A0000BD490870B948001DFFF778FE0446200C28
:104A1000BA490880B5481030FFF770FE0446200EF2
:104A2000B749887004F47F00000C487004F47F409C
:104A3000000A0870AD481430FFF760FE0446200EEF
:104A4000B0494870200C40B20870A8481830FFF7F1
:104A500055FE0446200EAC49887004F47F00000C1B
:104A60004870200A40B20870A0481C30FFF746FE8C
:104A70000446200EA549887004F47F00000C48709D
:104A8000200A40B2087099482030FFF737FE0446EC
:104A9000200E40B29E490870200C40B24870200A97
:104AA00040B2887060B2C8709A49914A127801EB9E
:104AB00002101021FCF704FA0C219748FCF700FAC9
:104AC000FCF750F8954908708C480088FCF7D6F937
:104AD000924908708648007802287DD19049854A1D
:104AE000127801EB42102021FCF7EAF9824890F994
:104AF0000000002801DD2B2000E02D2089494872AC
:104B00007D4890F90000002806DD7B4890F9000000
:104B10000A2190FBF1F006E0774890F9000040424E
:104B20000A2190FBF1F030307E498872724890F98A
:104B3000000000280DDD704890F900000A2190FB6C
:104B4000F1F000EB80006C4991F90010A1EB4000FE
:104B50000EE0694890F9000040420A2190FBF1F014
:104B600000EB8000644991F900104942A1EB40003C
:104B700030306C49C87220216A48FCF7A1F95D48C1
:104B8000007830B101284DD0022853D0032848D1F5
:104B90000BE15A4800884FF47A7190FBF1F0303005
:104BA00061498872554800884FF47A7190FBF1F0A2
:104BB00000EB4001C1EBC01050490988A1EBC000D7
:104BC000642190FBF1F030305749C8724B4800889F
:104BD000642190FBF1F000E0F7E000EBC00101EB95
:104BE000001046490988A1EB80000A2190FBF1F0F2
:104BF00030304D490873414800880A2190FBF1F09C
:104C000000EB80003D490978A1EB40003030464977
:104C100088730E214548FCF753F916214248FCF7EA
:104C20004FF9CBE00E214148FCF74AF90020FBF791
:104C30007DFBC3E02C480078012804D115213C48B5
:104C4000FCF73EF9B0E04820FFF79EFB4C20FFF751
:104C50009BFB5220FFF798FB36480088642190FBAD
:104C6000F1F030303449887332480088642190FB79
:104C7000F1F000EBC00101EB00102E490988A1EB17
:104C800080000A2190FBF1F030302B49C87329488D
:104C900000880A2190FBF1F000EB8000254909789B
:104CA000A1EB400030302449087422484088642138
:104CB00090FBF1F03030204988721E484088642112
:104CC00090FBF1F03AE0000018040240180802409E
:104CD00023016745043C0240AB89EFCD0000002072
:104CE00080969800070000209806002000C0000869
:104CF0008C0600208E0600209F0600209A060020C9
:104D0000A6060020A9060020AB060020AE06002063
:104D1000B10600204C0000208C00002097060020E7
:104D200098000020DB0200206002002078030020B1
:104D300047030020E40600201B03002000EBC00115
:104D400001EB00102A494988A1EB80000A2190FB61
:104D5000F1F030302749C872254840880A2190FB7D
:104D6000F1F000EB800022498978A1EB400030305F
:104D7000204908731E48007A88741D48407AC87418
:104D80001B48807A08751A48C07A48751848007B15
:104D900088751748407BC8750E211748FCF790F8B6
:104DA0002C211448FCF78CF808E00E211348FCF77E
:104DB00087F811211248FCF783F800BF00BF1148A3
:104DC000006840F400200F4908603820FFF768FCB5
:104DD0002D20FFF765FC0B48006840F004000949EE
:104DE00008600846006840F48000086000BFFEE7E5
:104DF000E40600201B0300206A0300207803002043
:104E0000CA020020180402404FF04070E1EE100A80
:104E10007047FAF9FCFB0000384E00080000002043
:104E2000C4060000C4010008D0500008C4060020D9
:104E30009406000028020008101272657374FFFFC8
:104E4000FF6C6F642E76616C3D30300D101174690B
:104E50006D652E7478743D2200003A0000222050C7
:104E600004646174133006202000002E0312200118
:104E7000200A6461796F667765656B25100A706139
:104E80006765206C6F6164311200013110A005610B
:104E90006F666610A0056D61696E105005736574CC
:104EA00074103004766130851231914004696E705F
:104EB000705004464D220FA00B62636F3D303334B7
:104EC00038313520B3425420A006313438343740CD
:104ED000A00455534241123641A23840B004415516
:104EE00058201405343531320411974511251073BB
:104EF0005F6898610C4118926D18726D307004648F
:104F00005F79C8610C41188130B2643092641892A4
:104F10006448927748727790619C619031C85004E0
:104F200030302287910FE2640FC2641EC2790F6293
:104F3000774B510121341405204D6F6EE615EC209E
:104F400005547565730A30055765646E0A3005545B
:104F50006875721230052046726908400653617404
:104F600075720A4275367005746578745644042E5D
:104F70003020CF8116C008204E4F2044657615D0D2
:104F800008436F6E6E6563742AE007504C415920E8
:104F90002015D005415553451555D34004766F6C07
:104FA000FD60042D37391035E3A005353533352044
:104FB000B0044D5554205923B1BB162F0F33205F39
:104FC0000129F8522079210A0110D1597431E6B033
:104FD00007666F6E743D340EB2350E29AE6404411F
:104FE00044432530062E30562020077D5303BC084D
:104FF0007464615F6C6F7557032114E0057472650A
:105000006214F0046D696428E005626173733C7F8B
:1050100073617703110AB518B004685F7110BC049E
:10502000635F663B03011720513071505130011707
:1050300020E1705578126C3069DF52720C29F77CD0
:10504000046C5F72030392720C926C2492723C01A6
:105050002A30A160022D3130A1905231F03D7B0405
:10506000392D5004487A22F4498C11133E6492047D
:1050700025476127A22237000617315F2E5F6B3765
:10508000915E199201215ED22E5F1138012937629B
:105090006C965D4503D272102565C120C1102008B1
:1050A0004154234D560D0A074241074244074245E9
:1050B00007A00F4A0D0A7E0200EF7E030000EF01F9
:1050C000000113100405031F0F000103006200001C
:040000050800018965
:00000001FF
