:020000040800F2
:10000000A80C002071020008790200087B02000899
:100010007D0200087F020008810200080000000045
:100020000000000000000000000000008302000843
:10003000850200080000000087020008790C000813
:100040008B0200088B0200088B0200088B0200085C
:100050008B0200088B0200088B0200088B0200084C
:100060008B0200088B0200088B0200086503000861
:100070008B0200088B0200088B0200088B0200082C
:100080008B0200088B0200088B0200088B0200081C
:100090008B0200088B0200088B0200088B0200080C
:1000A0008B0200088B0200088B0200088B020008FC
:1000B0008B0200088B0200088B0200088B020008EC
:1000C0008B0200088B0200088B0200088B020008DC
:1000D0008B0200088B0200088B0200088B020008CC
:1000E0008B0200088B0200088B0200088B020008BC
:1000F0008B0200089D0D00088B0200088B0200088F
:100100008B0200088B0200088B0200088B0200089B
:100110008B020008492B00088B0200088B020008A4
:10012000350400088B0200088B0200088B020008CF
:100130008B02000800000000000000008B02000895
:100140008B0200088B0200088B0200088B0200085B
:100150008B0200088B0200088B0200088B0200084B
:100160008B0200088B0200088B0200088B0200083B
:100170008B0200088B020008000000000000000055
:100180008B0200088B02000800F002F800F060F813
:100190000AA090E8000C82448344AAF10107DA45E2
:1001A00001D100F055F8AFF2090EBAE80F0013F0D4
:1001B000010F18BFFB1A43F001031847F831000084
:1001C0001832000010F8013B0A4413F0030408BF82
:1001D00010F8014B1D1108BF10F8015B641E05D01B
:1001E00010F8016B641E01F8016BF9D1002D15D0D8
:1001F00010F8014B03F00C030C2BA1EB04040ABF15
:1002000010F8013BA4EB8314A4EB032405F10103D4
:1002100014F8016B5B1E01F8016BF9D5914238BFF0
:1002200010F8013BD1D3704700230024002500269D
:10023000103A28BF78C1FBD8520728BF30C148BF49
:100240000B6070471FB503F0ADF81FBD10B510BDB2
:1002500000F031F81146FFF7F5FF02F0A1FE00F0C3
:100260004FF803B4FFF7F2FF03BC00F057F80000AB
:100270000948804709480047FEE7FEE7FEE7FEE73A
:10028000FEE7FEE7FEE7FEE7FEE7FEE70448054976
:10029000054A064B70470000CD0C00088901000894
:1002A000A8060020A80C0020A8080020A80800200C
:1002B000704770477047754600F02CF8AE46050051
:1002C0006946534620F00700854618B020B5FFF771
:1002D000DDFFBDE820404FF000064FF000074FF073
:1002E00000084FF0000B21F00701AC46ACE8C00954
:1002F000ACE8C009ACE8C009ACE8C0098D4670475D
:1003000010B50446AFF300802046BDE81040FFF76B
:10031000A8BF000000487047480600200149182087
:10032000ABBEFEE726000200704700004FF064619C
:100330000A4AD160C0EBC001094A1144074AC432DD
:1003400011600721054AC2F8BC101146D1F8B81057
:1003500041F00101C2F8B81070470000006002408F
:10036000B105002000B53D202C4988602C48C861AB
:10037000142048610846006940F0010008612848DF
:1003800000780D2849D1264840780A2845D12448CC
:10039000C078492806D050281FD0522825D055288B
:1003A00027D103E000201F49087022E01C48007993
:1003B000312803D100201B4908700DE0184800794E
:1003C000332803D016480079352805D11548007820
:1003D00010B90120134908700BE012480078022878
:1003E00002D103200F49087003E002200D49087074
:1003F00000BF00BF0C48007802280ED10B480078DF
:1004000001280AD107490978C1EBC10101EB41017B
:10041000074A8818152100F0ADFC00BD00600240BD
:1004200014060020EC050020DD050020DF0500207B
:100430007602002030B52C48006840F03D002A4983
:1004400008602A4800889E21484340F6FF7190FBCF
:10045000F1F0C4B2254840889E21484340F6FF7120
:1004600090FBF1F0C5B2642094FBF0F030302049ED
:100470004872642094FBF0F000EBC00101EB001027
:10048000A4EB80000A2190FBF1F03030184988720B
:100490000A2094FBF0F000EB8000A4EB4000303029
:1004A0000873642095FBF0F030300874642095FBED
:1004B000F0F000EBC00101EB0010A5EB80000A2179
:1004C00090FBF1F030300A4948740A2095FBF0F0B7
:1004D00000EB8000A5EB40003030C87419210448BF
:1004E00000F048FC30BD000008640240F205002026
:1004F0008603002030B503460C463A48006840F4B5
:100500008070384D286007E036481430006800F4E9
:10051000807008B1012030BD32481430006800F00E
:1005200001000028F0D02F48143000682D48183002
:1005300000682C481030036013E02A48143000682B
:1005400000F4807028B927481430006800F48060F7
:1005500038B12448006840F40070224D2860022021
:10056000D9E720481430006800F002000028E4D0E9
:100570001C48143000681B4818300068002127E030
:10058000605C184D1035286013E016481430006880
:1005900000F4807028B913481430006800F48060BB
:1005A00038B11048006840F400700E4D28600320F8
:1005B000B1E70C481430006800F004000028E4D0D3
:1005C000084814300068074818300068481C81B299
:1005D0009142D5DB0348006840F40070014D28606B
:1005E000002098E7005400402D48006840F48070D7
:1005F0002B4908602B482C498860881548604FF4C7
:10060000D84008614FF48010C862832048632448B2
:100610001438006840F480002149143908602348E8
:10062000006842F610510843204908601E484C30CB
:100630001E49083108601E48091D086002201B4938
:10064000091D0860081F006840F00100091F0860CC
:1006500016480838006840F03D0014490839086021
:100660000F48001F006840F002000D49091F086094
:1006700042F2CF000F4908604FF47A70091D0860FC
:100680000C482438006840F020000A4924390860EA
:10069000081F006840F00100091F08607047000053
:1006A0004438024001030018002001401064024059
:1006B000F20500202804004010B52148006840F4ED
:1006C00080101F4908602D201E49886042F21C00DE
:1006D000C860C02048611A481038006840F4001013
:1006E0001749103908601848184908611548001D55
:1006F00088611748C861142048610846006940F0C5
:10070000010008611148B830006820F00100C1F80C
:10071000B8000D4830300D49B83108600948001D57
:100720000A49C1F8C0000B48006840F4005009496C
:1007300008600B2002F0AEFB352002F0ABFB10BDD1
:1007400040380240005000401004000800600240A1
:1007500014060020180802406D48006840F00F00A1
:100760006B4908606B4800686B4908436949086039
:100770000846006840F0400008606848006840F0A3
:100780008060664908606348006840F480506149B1
:1007900008606348006A40F08800614908620846C2
:1007A000C06840F00500C8600846806840F00F004F
:1007B00088600846006840F00A0008605548406AB2
:1007C00040F4EE415348416252480C30006840F416
:1007D000A00050490C310860081F006851490843C7
:1007E0004C49083108604B48006840F420004949F2
:1007F00008604A48406A40F40021484841624A483B
:10080000006840F400604849086044480C300068C3
:1008100040F0807041490C3108604348143800684A
:1008200040F010004049143908603C480830006826
:1008300040F040703949083108603B48183800687A
:1008400040F030003849183908603448006840F0FA
:1008500000703249086034482038006840F02000B9
:100860003149203908602B48406A40F0440129484A
:100870004162006840F420202649086025480C3079
:10088000006840F4A02023490C3108602148001D75
:10089000006840F440701F49091D0860081D006889
:1008A00040F47020091D08601D48006820F0404099
:1008B0001B4908600846C06820F04040C8601548E1
:1008C000006820F440701349086012480C3000683A
:1008D00020F440700F490C3108601148006810493D
:1008E00008600E4800680D4908600A480068094918
:1008F00008600B48006840F47070094908600846B9
:10090000806840F4707088600846C068C8607047AE
:100910003038024000040240100000550008024038
:10092000000002400C003000200C02400A48006821
:1009300040F40010084908602D2008490860D220C2
:100940000649183108602B20091D08600120034961
:10095000091F0860704700004038024004540040FE
:1009600010B50A48006840F480700849086042F2F7
:10097000CF000749886240F2CF70C8620120C8608A
:1009800008602D2002F086FA10BD000040380240B9
:10099000002000403CB50020019000904E480068C7
:1009A00040F480304C49086000BF4B48006800F4B8
:1009B000003000900198401C0190009818B90198EF
:1009C000B0F57A7FF1D14448006800F002000028B9
:1009D0005ED04248006840F4807040490860084694
:1009E000006820F00F0008600846006840F005002D
:1009F00008603948083000683749083108600846FF
:100A0000006840F4A05008600846006840F40040C8
:100A10000860081F006840F48000091F086008464D
:100A2000006820F03F0008600846006840F00800B9
:100A300008600846006847F6C07188432649091DCA
:100A400008600846006840F428500860081F0068E5
:100A500040F08070091F086000BF1F48006800F068
:100A600000700028F9D01C480830006820F003000E
:100A70001949083108600846006840F00200086023
:100A800000BF15480830006800F00C000828F8D1B5
:100A900044F2A011481EB0F1807F00D31BE0481E35
:100AA0004FF0E022506150170F22002804DB13079B
:100AB0001C0E0B4B1C5406E013071D0E094B00F0D7
:100AC0000F04241F1D5500BF00204FF0E02290614D
:100AD0000720106100BF3CBD00380240003C0240CE
:100AE00000E400E018ED00E01B48006800F400405E
:100AF000B0F5004F2FD018483038006840F08050D3
:100B00001549303908601548006840F48070134971
:100B100008601148006840F480300F4908600846BA
:100B2000006820F4803008600846006840F4014006
:100B300008600846006840F00100086000BF0648F1
:100B4000006800F001000028F9D00448006820F493
:100B500080700249086070477038024000700040A1
:100B600000B585B020208DF80000204800780228CC
:100B700004D11F481F490978405C00E007208DF828
:100B8000010000208DF80200C7208DF803001A48EC
:100B900000788DF8040090208DF8050050208DF825
:100BA00006008DF807007F208DF8080000208DF8E2
:100BB0000900FF208DF80A0000208DF80B008DF849
:100BC0000C008DF80D008DF80E008DF80F008DF8DB
:100BD000100039208DF8110000208DF8120013222A
:100BE00069468820FFF786FC05B000BDDD050020C2
:100BF000AE330008DF050020EF0500201048006834
:100C000040F480200E4908604FF4B6700D4908602A
:100C100042F20800091D086080200A490C31086072
:100C200007481038006840F4001005491039086082
:100C30000548064988650348001F0866704700009C
:100C4000403802400848004040040008006002406C
:100C50000748006840F400200549086041F2171079
:100C60000449086042F20C00091D0860704700004A
:100C700040380240084C004012480068401C1149AE
:100C800008600846006841F28831884218D1002087
:100C90000C4908600C48006800F0040040B10A48A4
:100CA000001D006840F480200749091D086007E026
:100CB0000548001D006840F004000349091D086054
:100CC0007047000008060020140402401448006821
:100CD00040F47000124908601248006840F00100BA
:100CE0001049086000200F49083108600D4800686D
:100CF0000D4908400B4908600C48091D0860081F91
:100D0000006820F48020091F0860002005490C318C
:100D100008604FF0006002498039086070470000A9
:100D200088ED00E000380240FFFFF6FE103000249E
:100D30001CB5044640F6354060430D4901EB4010B8
:100D40008000C0F3CF3420128DF80000E0B28DF89F
:100D5000010010208DF8020012208DF80300002001
:100D60008DF8040005226946C020FFF7C3FB1CBDB7
:100D7000E86E0300084A5066D1654FF06462064B86
:100D80009A601A46926D42F001029A6500BF024ACB
:100D9000D26D002AFBD17047006002400FB50020E1
:100DA000FD490861FD480078401CFC490870FCA022
:100DB00000680390FBA000680290FB4800788DF863
:100DC0000900FAA000680190F9A000680090F948B5
:100DD000006840F08050F7490860F748006900F467
:100DE000806000283DD00846006840F480500860CC
:100DF000F2480078401CF149087008460078142831
:100E00002EDBEF48007802282AD114200870002039
:100E10008DF80C0007208DF80D00022203A9882010
:100E2000FFF768FBE74908700120E549087002F008
:100E30008DF8E549E24A127801EB02101021FFF724
:100E400099FF6220D54908700420FFF76FFA0E2041
:100E500001F094FED748006840F00800D5490860CA
:100E6000F9E2D648007814287EDAD44800780028C1
:100E70007AD0D3480078022877D1D4480078401C33
:100E8000D249087008460078032801DD0020087068
:100E900002F05CF800208DF80C00CD48CB490978B1
:100EA000405C8DF80D00022203A98820FFF722FB89
:100EB000C44908700020C74908702021C648FFF7C0
:100EC00059FFC649C14A127801EB42102021FFF7B1
:100ED00051FFBE48007830B101284ED002285FD0C3
:100EE000032849D1EEE00E21BD48FFF743FFBD487E
:100EF00000884FF47A7190FBF1F03030BA49887273
:100F0000B84800884FF47A7190FBF1F000EB400193
:100F1000C1EBC010B3490988A1EBC000642190FB6C
:100F2000F1F03030B049C872AE480088642190FBBF
:100F3000F1F000EBC00101EB0010AA490988A1EB18
:100F400080000A2190FBF1F03030A7490873A548D2
:100F500000880A2190FBF1F000EB8000A14909789C
:100F6000A1EB4000303001E015E1B5E09E49887307
:100F700016219D48FFF7FEFEADE00E219848FFF7D1
:100F8000F9FE0020FFF7D2F998490978C1EBC101B9
:100F900001EB4101964A88181521FFF7EBFE9AE014
:100FA0000021092001F00CFF9249087008460078E2
:100FB000012804D115219048FFF7DCFE81E00E21C5
:100FC0008E48FFF7D7FE482001F0D8FD4C2001F0F5
:100FD000D5FD522001F0D2FD89480088642190FBA4
:100FE000F1F030308749887385480088642190FB90
:100FF000F1F000EBC00101EB001081490988A1EB81
:1010000080000A2190FBF1F030307E49C8737C48A3
:1010100000880A2190FBF1F000EB80007849097804
:10102000A1EB40003030774908747548408864214E
:1010300090FBF1F030307349887271484088642128
:1010400090FBF1F000EBC00101EB00106C49498806
:10105000A1EB80000A2190FBF1F030306949C872A1
:10106000674840880A2190FBF1F000EB800064495A
:101070008978A1EB40003030624908736048007AFB
:1010800088745F48407AC8745D48807A08755C4807
:10109000C07A48755A48007B88755948407BC875A6
:1010A000502088774120C877552081F820005320B0
:1010B00081F82100452081F822002C215148FFF7BA
:1010C00059FE08E00E214648FFF754FE11214E4814
:1010D000FFF750FE00BF00BF3948007801285AD101
:1010E00002203749087001F031FF3749344A12783D
:1010F00001EB02101021FFF73DFE00208DF80C00DF
:10110000334832490978405C8DF80D00022203A96A
:101110008820FFF7EFF92B49087000202D4908704F
:1011200020212D48FFF726FE2C49284A127801EB92
:1011300042102021FFF71EFE2448007830B101281C
:101140007ED002287DD003287CD12BE10E212448BB
:10115000FFF710FE234800884FF47A7190FBF1F0FE
:101160003030214988721F4800884FF47A7190FB13
:10117000F1F000EB4001C1EBC0101A490988A1EB66
:10118000C000642190FBF1F030301749C872154857
:10119000008864213AE05BE1002000401206002054
:1011A0000007000003000000EF0500200100000020
:1011B000040000001804024000000240E70500207F
:1011C000DD050020E80500204C000020DF050020A0
:1011D000AE330008F0050020DB020020980000205C
:1011E00078030020EA05002060020020EC050020C2
:1011F00076020020E9050020470300206A03002052
:10120000340600201B030020CA02002090FBF1F0EE
:1012100000EBC00101EB0010FA490988A1EB800046
:101220000A2190FBF1F03030F7490873F548008847
:101230000A2190FBF1F000EB8000F249097802E00E
:101240000BE01DE0B7E0A1EB40003030EE498873C1
:101250001621ED48FFF78EFDADE00E21EB48FFF7BC
:1012600089FD0020FFF762F8E9490978C1EBC10167
:1012700001EB4101E74A88181521FFF77BFD9AE051
:101280000021092001F09CFDE34908700846007820
:10129000012804D11521E148FFF76CFD81E00E2102
:1012A000DF48FFF767FD482001F068FC4C2001F0A3
:1012B00065FC522001F062FCDA480088642190FB52
:1012C000F1F03030D8498873D6480088642190FB0B
:1012D000F1F000EBC00101EB0010D2490988A1EB4D
:1012E00080000A2190FBF1F03030CF49C873CD481F
:1012F00000880A2190FBF1F000EB8000C9490978D1
:10130000A1EB40003030C8490874C64840886421C9
:1013100090FBF1F03030C4498872C24840886421A3
:1013200090FBF1F000EBC00101EB0010BD494988D2
:10133000A1EB80000A2190FBF1F03030BA49C8726D
:10134000B84840880A2190FBF1F000EB8000B549D5
:101350008978A1EB40003030B3490873B148007A76
:101360008874B048407AC874AE48807A0875AD4831
:10137000C07A4875AB48007B8875AA48407BC87521
:10138000502088774120C877552081F820005320CD
:1013900081F82100452081F822002C21A248FFF786
:1013A000E9FC08E00E219948FFF7E4FC11219F4871
:1013B000FFF7E0FC00BF00BF9D4890F90000002847
:1013C00001DD2B2000E02D209A494872984890F9C1
:1013D0000000002806DD964890F900000A2190FBE5
:1013E000F1F006E0924890F9000040420A2190FB9B
:1013F000F1F030308F4988728D4890F90000002854
:101400000DDD8B4890F900000A2190FBF1F000EB14
:101410008000874991F90010A1EB40000EE084485C
:1014200090F9000040420A2190FBF1F000EB8000AF
:101430007F4991F900104942A1EB400030307D49CD
:10144000C87220217B48FFF795FC62207A4908701A
:1014500000207A4908707A48006900F4805000281A
:101460007ED07848006840F480507649086076481D
:101470000078022875D17548007820B1012858D02D
:10148000022855D159E05F480088401C5D4908801A
:1014900008460088B0F5876F02DB40F252300880C2
:1014A00058480088FFF744FC01F050FD554800887B
:1014B0004FF47A7190FBF1F0303053498872514803
:1014C00000884FF47A7190FBF1F000EB4001C1EB22
:1014D000C0104C490988A1EBC000642190FBF1F0D9
:1014E00030304949C87247480088642190FBF1F0C8
:1014F00000EBC00101EB001042490988A1EB80001C
:101500000A2190FBF1F030303F4908733D480088D4
:101510000A2190FBF1F000EB80003A490978A1EB39
:10152000400030303849887316213748FFF722FCD5
:101530005EE00220FEF7FAFE5AE0012044490870FE
:1015400001F01CFB4C2001F019FB522001F016FBAE
:1015500034484088642190FBF1F03030324901E09A
:10156000BFE046E088722F484088642190FBF1F08C
:1015700000EBC00101EB00102A494988A1EB800073
:101580000A2190FBF1F030302749C8722548408885
:101590000A2190FBF1F000EB800022498978A1EB51
:1015A00040003030204908731E48007A88741D4876
:1015B000407AC8741B48807A08751A48C07A487502
:1015C0001848007B88751748407BC875502088777D
:1015D0004C20C877412081F82000592081F8210053
:1015E000202081F822002C210F48FFF7C3FB00BF09
:1015F00000BF15480078042873D1164800780528E4
:1016000047D229E0EA05002060020020780300208C
:10161000EC05002076020020E905002047030020A9
:101620006A030020340600201B030020CA020020A9
:10163000EF050020DB02002012060020E705002055
:101640000000024018040240DD050020DF050020F4
:10165000ED050020E1050020DFE800F0031C2A442E
:101660005D00F9480078401C40B2F7490870084610
:1016700090F90000022801DD02200870F24991F97A
:10168000001001EB4101F14A02EB01103021FFF79C
:1016900071FB59E00120EE49087091F9001001EB4F
:1016A0004101EA4A02EB01103021FFF763FB4BE0F6
:1016B000E8480078401C40B2E6490870084690F9B6
:1016C0000000022801DD02200870E24991F90010B3
:1016D00001EB4101DD4A02EB01103021FFF74AFB2B
:1016E00032E032E0DC480078401C40B2DA49087051
:1016F000084690F90000022801DD02200870D64952
:1017000091F9001001EB4101D04A02EB01103021A8
:10171000FFF730FB18E0D1480078401C40B2CF49B9
:101720000870084690F90000032801DD00200870C9
:10173000CA4991F9001001EB4101C94A02EB0110BD
:101740003021FFF717FB00BF00BFC648006900F457
:10175000004000287DD0C448006840F48050C24951
:101760000860C2480078022877D1C1480078E8B301
:10177000012804D0022806D003286DD13CE00120C6
:10178000FEF7D4FD68E0BB480078012818D10E2090
:1017900001F0F4F90020B74908705020B649887765
:1017A0004120C877552081F82000532081F821007E
:1017B000452081F822002C21AF48FFF7DBFA19E021
:1017C0000D2001F0DBF90120AA4908705020AA4938
:1017D00088774C20C877412081F82000592081F873
:1017E0002100202081F822002C2100E003E0A24803
:1017F000FFF7C0FA30E000BFA0480078B0B1002089
:101800009E4908708DF80C009D4899490978405C04
:101810008DF80D00022203A98820FEF76BFE99497E
:10182000087020219848FFF7A5FA15E00120934998
:10183000087000208DF80C0007208DF80D000222A2
:1018400003A98820FEF756FE8E49087020218F4894
:1018500000E002E0FFF78EFA00BF8248006900F462
:10186000006000287DD08048006840F480507E49A8
:1018700008607E480078022874D17D48007820B145
:1018800001285AD0022857D15BE081480088401EC9
:101890007F4908800846008840F25231884203DCC4
:1018A0004FF487607A49088079480088FFF740FA4A
:1018B00001F04CFB764800884FF47A7190FBF1F010
:1018C000303074498872724800884FF47A7190FB06
:1018D000F1F000EB4001C1EBC0106D490988A1EBAC
:1018E000C000642190FBF1F030306A49C87268484A
:1018F0000088642190FBF1F000EBC00101EB0010C7
:1019000063490988A1EB80000A2190FBF1F0303097
:10191000604908735E4800880A2190FBF1F000EBF3
:1019200080005B490978A1EB400030305949887349
:1019300016215848FFF71EFA5FE00320FEF7F6FC79
:101940005BE001204B490870022001F017F94C20A0
:1019500001F014F9522001F011F94F484088642138
:1019600001E0C4E04AE090FBF1F030304249887277
:1019700049484088642190FBF1F000EBC00101EB85
:10198000001045494988A1EB80000A2190FBF1F045
:1019900030303949C872404840880A2190FBF1F044
:1019A00000EB80003C498978A1EB4000303032499F
:1019B00008733948007A88743748407AC8743648C2
:1019C000807A08753448C07A48753348007B88753A
:1019D0003148407BC875502088774C20C87741201B
:1019E00081F82000592081F82100202081F8220070
:1019F0002C212148FFF7BEF900BF00BF1B4800782B
:101A0000042874D12548007805281CD2DFE800F0AE
:101A10000348567089000C480078401E40B20A49BD
:101A20000870084690F90000002801DA00200870CC
:101A3000054991F9001001EB4101044A02EB011044
:101A40003021FFF797F985E0E2050020030400202C
:101A5000E3050020E4050020E5050020E605002060
:101A6000930400200000024018040240DD0500201D
:101A7000DF050020ED0500201B030020F0050020FD
:101A8000AE330008E8050020DB020020FB02002046
:101A9000EA0500206002002034060020E105002055
:101AA0000020FE49087091F9001001EB4101FC4A49
:101AB00002EB01103021FFF75DF94BE0F9480078A7
:101AC000401E40B2F7490870084690F9000000280F
:101AD00001DA00200870F34991F9001001EB41018F
:101AE000EF4A02EB01103021FFF744F932E032E017
:101AF000ED480078401E40B2EB490870084690F966
:101B00000000002801DA00200870E74991F9001070
:101B100001EB4101E24A02EB01103021FFF72AF903
:101B200018E0E2480078401E40B2E04908700846DC
:101B300090F90000002801DA03200870DB4991F9D0
:101B4000001001EB4101DA4A02EB01103021FFF7EE
:101B500011F900BF00BFD748006800F4806000287A
:101B600076D0D548006840F48050D3490860D34807
:101B7000007802286DD10020D1490870D148007842
:101B8000401C40B2CF490870084690F900000F2869
:101B900001DD0F20087001F0D9F900208DF80C004C
:101BA000C948CA490978405C8DF80D00022203A992
:101BB0008820FEF79FFCC6490870C24890F90000D3
:101BC000002803DDBF4890F9000004E0BD4890F90B
:101BD0000000C0F11000C0B28DF80900022202A975
:101BE0008820FEF787FCBA490870B64890F90000D3
:101BF000002801DD2B2000E02D20B6494872B148B5
:101C000090F90000002806DDAE4890F900000A2196
:101C100090FBF1F006E0AB4890F9000040420A2149
:101C200090FBF1F03030AB498872A64890F9000083
:101C300000280FDDA34890F900000A2190FBF1F085
:101C400000EB80009F4991F90010A1EB400010E0EB
:101C500098E015E09B4890F9000040420A2190FB73
:101C6000F1F000EB8000974991F900104942A1EB97
:101C7000400030309749C87220219648FFF77AF823
:101C80008E48007804287DD19348007810B101284F
:101C900079D1ACE0914890F9000020B1012855D0ED
:101CA000022852D178E08E484078401C8C49487018
:101CB00008464078032801DD0320487088484078B2
:101CC00030B1012813D0022820D003283CD12CE0C9
:101CD000202084494872462088724C20C8724120D6
:101CE00008735420487320208873C8732CE0202088
:101CF0007C494872342088723020C87208732020D2
:101D00004873482088737A20C8731DE020207549E5
:101D10004872382088723020C872087320204873B7
:101D2000482088737A20C8730EE032206D494872CB
:101D3000342088723020C8720873202048734820ED
:101D400088737A20C87300BF00BF33E0644800780E
:101D500018B900206249087004E061480078401E0C
:101D60005F4908705E4800780A2190FBF1F030303E
:101D70005C4988775A4800780A2190FBF1F000EB23
:101D8000800001E06BE069E055490978A1EB400073
:101D900030305449C8770DE0002051498870202028
:101DA000504981F830004F2081F831004E2081F8F1
:101DB000320000BF00BF4A48007800F00F004849D9
:101DC000497801F0300108434549897801F0400124
:101DD00008438DF80500022201A98820FEF78AFB3E
:101DE0003B49087037213F48FEF7C4FF36E02B48D7
:101DF000007870B33C480078401C40B23A49087003
:101E0000084690F900000F2801DD0F2008703648C1
:101E100090F90000002801DD2B2000E02D2033493F
:101E20004877314890F900000A2190FBF1F03030FA
:101E30002E4988772C4890F900000A2190FBF1F098
:101E400000EB800028490978A1EB40003030274999
:101E5000C87727212548FEF78DFF00BF00BF154832
:101E6000006800F40060002876D01348006840F451
:101E70008050114908601148007802286DD1002077
:101E80000F4908700F480078401E40B20D49087095
:101E9000084690F9000010F14F0F29E0E3050020FB
:101EA00003040020E4050020E5050020E6050020ED
:101EB000930400201008024018040240DD050020B1
:101EC000F0050020EF050020AE330008DF050020FC
:101ED000E8050020DB020020E1050020E2050020EB
:101EE000F605002053050020F90500208A05002092
:101EF00001DAB120087001F029F800208DF80C00FB
:101F0000FD48FE490978405C8DF80D00022203A9C6
:101F10008820FEF7EFFAFA490870FA4890F90000B5
:101F2000002803DDF74890F9000004E0F54890F937
:101F30000000C0F11000C0B28DF80900022202A911
:101F40008820FEF7D7FAEE490870EE4890F90000B5
:101F5000002803DD2B2002E0C4E041E02D20EA4907
:101F60004872E84890F90000002806DDE54890F93D
:101F700000000A2190FBF1F006E0E24890F9000031
:101F800040420A2190FBF1F03030DF498872DD4891
:101F900090F9000000280DDDDA4890F900000A21D0
:101FA00090FBF1F000EB8000D64991F90010A1EB15
:101FB00040000EE0D34890F9000040420A2190FB17
:101FC000F1F000EB8000CF4991F900104942A1EBFC
:101FD00040003030CC49C8722021CB48FEF7CAFE01
:101FE000CA48007804287DD1C948007800287AD1F1
:101FF000C84890F9000020B1012856D0022853D1DA
:1020000078E0C548407818B90020C349487004E01A
:10201000C1484078401EC0494870BF48407830B140
:10202000012813D0022820D003283CD12CE0202006
:10203000BA494872462088724C20C8724120087301
:102040005420487320208873C8732CE02020B349A3
:102050004872342088723020C87208732020487378
:10206000482088737A20C8731DE02020AB4948724D
:10207000382088723020C8720873202048734820A6
:1020800088737A20C8730EE03220A4494872342045
:1020900088723020C87208732020487348208873E3
:1020A0007A20C87300BF00BF31E09B480078401C15
:1020B00099490870084600780F2801DD0F20087044
:1020C000954800780A2190FBF1F0303093498877E9
:1020D000914800780A2190FBF1F000EB80008E49D6
:1020E000097801E031E02FE0A1EB400030308B496E
:1020F000C8770CE00120884988704F20874981F813
:102100003000462081F8310081F8320000BF00BF66
:102110008148007800F00F007F49497801F03001D4
:1021200008437D49897801F0400108438DF8050096
:10213000022201A98820FEF7DDF9714908703721D4
:102140007648FEF717FE00BF00BF7548006900F42F
:10215000007000287ED06D48007803287AD171483D
:102160000078072877D2DFE800F0042AA6517DF630
:10217000EB006D480078401C6B49087008460078F9
:10218000182801DB00200870674800780A2190FBBE
:10219000F1F0303065494872634800780A2190FBBD
:1021A000F1F000EB800060490978A1EB400030308D
:1021B0005E4988720F215D48FEF7DCFD95E15C48C1
:1021C0000078401C5A490870084600783C2801DB1A
:1021D00000200870564800780A2190FBF1F030305A
:1021E00052490876524800780A2190FBF1F000EB42
:1021F00080004F490978A1EB400030304B494876C8
:102200000F214A480F30FEF7B5FD6EE149480078CE
:10221000401C48490870084600780D2801DB012061
:102220000870444800780A2190FBF1F030303F49B3
:1022300081F827003F4800780A2190FBF1F000EB7D
:1022400080003C490978A1EB40003030374981F8E3
:10225000280001E04AE147E10F2134481E30FEF733
:1022600089FD42E134480078401C33490870084633
:102270000078202801DB012008702F4800780A210F
:1022800090FBF1F03030294981F836002A48007877
:102290000A2190FBF1F000EB800027490978A1EBBF
:1022A00040003030214981F837000F211F482D3080
:1022B000FEF760FD19E121480078401C1F490870B5
:1022C000084600781E2801DB122008701B480078A1
:1022D0000A2190FBF1F03030144981F8450017488D
:1022E00000780A2190FBF1F000EB80001349097897
:1022F000A1EB4000303025E0AE330008DF050020C0
:10230000E8050020EF050020DB020020DD050020AD
:10231000E1050020E2050020F6050020530500201D
:1023200000000240DE0500200C060020C001002055
:102330000D0600200E0600200F06002011060020CA
:1023400029E008E0FC4981F846000F21FA483C30BA
:10235000FEF710FDC9E0F9480078401CF749087005
:1023600008460078082801DB01200870F34800784F
:10237000401E00EBC000F2490844EF4902684A657C
:1023800042688A65007A81F85C001721EA484B3080
:10239000FEF7F0FCA9E0EB480078EB490870EB4849
:1023A000006840F08050E9490860E948006840F45E
:1023B0008070E7490860CA20E64908605320086039
:1023C000E4481838006840F08000E2491839086095
:1023D00000BFE0481838006800F040000028F8D03E
:1023E000DD4800780A2190FBF1F00003DA49097812
:1023F0000A2291FBF2F101EB8101D74A1278A2EB9C
:10240000410140EA0120D54909780A2291FBF2F105
:1024100040EA0151D148007890FBF2F000EB8000D7
:10242000CE4A1278A2EB400041EA0040C949243963
:102430000860CB4800780A2190FBF1F000EB8000A7
:10244000C7490978A1EB4000C54909780A2291FBE8
:10245000F2F140EA0110C349097891FBF2F140EA38
:102460000130C049097891FBF2F101EB8101BD4ACD
:102470001278A2EB410140EA0120BB4909780A2207
:1024800091FBF2F140EA0150B749097891FBF2F172
:1024900001EB8101B44A1278A2EB410140EA01400C
:1024A000A649097840EA4130AA4920390860A9487C
:1024B0001838006820F08000A64918390860FF200D
:1024C000A4490860A248006820F48070A049086010
:1024D000A6499D4A127801EB02101021FEF74AFC32
:1024E0006220A349087000E000BF00BFA148006956
:1024F00000F4807000287DD093480078012804D033
:10250000022803D0032876D100E100BF8E4800786E
:102510008C49087003208C49087094498A4A1278C3
:1025200001EB02101021FEF725FC002092490870F3
:10253000097801EB4101914A02EBC1001821FEF735
:1025400019FC844824380068C0F3034081492439C9
:102550000968C1F3015101EB810100EB41007F49A2
:1025600008707C4824380068C0F303207949243976
:102570000968C1F3023101EB810100EB41007649AA
:10258000087074482038006800F00F007149203945
:102590000968C1F3011101EB810100EB41007049B1
:1025A00008706C4820380068C0F30320694920395E
:1025B0000968C1F3003101EB810100EB4100694979
:1025C0000870644820380068C0F30340614920392E
:1025D0000968C1F3035101EB810100EB410062493D
:1025E00008705C4820380068C0F3423053490870D6
:1025F0005A4801E0C6E0C3E000780A2190FBF1F000
:1026000030304D494872554800780A2190FBF1F06E
:1026100000EB800051490978A1EB40003030464979
:1026200088724D4800780A2190FBF1F03030424921
:102630000876494800780A2190FBF1F000EB800011
:1026400045490978A1EB400030303B494876454880
:1026500000780A2190FBF1F03030374981F82700EB
:10266000404800780A2190FBF1F000EB80003D49E2
:102670000978A1EB400030302F4981F82800384814
:1026800000780A2190FBF1F030302B4981F83600B8
:10269000334800780A2190FBF1F000EB80003049CC
:1026A0000978A1EB40003030234981F837002E48EB
:1026B00000780A2190FBF1F030301F4981F8450085
:1026C000294800780A2190FBF1F000EB80002649B0
:1026D0000978A1EB40003030174981F846001D48C9
:1026E00020380068C0F34230401E00EBC00014499F
:1026F0000844114902684A6542688A65007A81F88F
:102700005C0061210C48FEF735FB3AE01A4800787E
:10271000401C1949087008460078062801DD002091
:1027200008701549097801EB4101144A02EBC10018
:102730001821FEF71FFB24E0C00100201006002036
:1027400021020020E0050020DD0500204038024085
:1027500000700040242800400D0600200C060020D8
:102760000F0600200E060020110600204C0000205D
:102770001206002000000240DE05002018010020A3
:1027800000BF00BFDB48006800F0200000287CD0BC
:10279000D9480078022879D10420D7490870002050
:1027A000D6490870097801EB8101D54A02EB810016
:1027B0001421FEF7DFFA0C21D248FEF7DBFA0020E5
:1027C000D149087091F9001001EB4101CF4A02EBA9
:1027D00001103021FEF7CEFACD48407830B1012803
:1027E00013D0022820D003283CD12CE02020C94956
:1027F0004872462088724C20C872412008735420C9
:10280000487320208873C8732CE02020C149487287
:10281000342088723020C872087320204873482002
:1028200088737A20C8731DE02020BA494872382086
:1028300088723020C872087320204873482088733B
:102840007A20C8730EE03220B24948723420887270
:102850003020C872087320204873482088737A207B
:10286000C87300BF00BFAA4800780A2190FBF1F0AE
:102870003030A8498877A64800780A2190FBF1F00B
:1028800000EB8000A249097801E03AE01FE0A1EBEB
:10289000400030309F49C8779D48807840B14F2034
:1028A00081F83000462081F8310081F8320009E0DB
:1028B0002020984981F830004F2081F831004E20C7
:1028C00081F8320037219348FEF754FAA1E08A4894
:1028D0000078042815D189480078042812D10220F4
:1028E000854908708C49844A127801EB0210102146
:1028F000FEF740FA0C218348FEF73CFA6220874934
:10290000087086E07D480078401C7C490870097892
:1029100001EB81017A4A02EB81001421FEF72AFAC9
:102920000C217848FEF726FA74480078012806D072
:10293000022838D0032844D0042869D14FE0002071
:102940007749087091F9001001EB41016F4A02EBE1
:1029500001103021FEF70EFA724890F900000028AD
:1029600001DD2B2000E02D206F4948776D4890F95C
:1029700000000A2190FBF1F030306B4988776948FC
:1029800090F900000A2190FBF1F000EB800065490E
:102990000978A1EB400030306349C87727216248AD
:1029A000FEF7E8F934E000206049087091F9001062
:1029B00001EB4101554A02EB01103021FEF7DAF933
:1029C00026E000205A49087091F9001001EB4101FE
:1029D0004E4A02EB01103021FEF7CCF918E000203E
:1029E0005449087091F9001001EB4101524A02EB81
:1029F00001103021FEF7BEF94E4991F9001001EBAC
:102A000041014D4A02EB01103021FEF7B3F900BF3E
:102A100000BF39480078022803D0374800780128E1
:102A200066D13E480078642862DB00203B4908708C
:102A3000FDF77CFC41480068C0F30320303040497A
:102A400088733E480068C0F30230303048733B481A
:102A50000068C0F303403030C87238480068C0F3E3
:102A60000150303088723548001D006800F00F00BA
:102A7000303081F820003148001D0068C0F301109B
:102A80003030C8772D48001D0068C0F30320303077
:102A900081F823002948001D0068C0F30030303061
:102AA00081F822002548001D0068C0F30340303043
:102AB00081F826002148001D0068C0F30350303023
:102AC00081F825001D48001D0068C0F34230401EFB
:102AD00000EBC0001B49084419492B3102680A6009
:102AE00042684A60007A087238211548FEF742F9B8
:102AF0000FBD000010040240DD050020E1050020AC
:102B00009F0300208C000020E20500200304002029
:102B1000F6050020530500204C000020120600207E
:102B2000E3050020F90500208A050020E4050020C7
:102B3000E5050020E6050020930400200028004061
:102B4000140000202102002008B50A48006800F0A7
:102B5000100068B10748006800900648406800907F
:102B600000BF0548006920F001000349086100BF6B
:102B700008BD0000005000400060024030B5034630
:102B80000021894883708948006800F0200018B14E
:102B90008648001D0068C2B200200DE000BF834CD3
:102BA000246804F04004002CF9D07F4C245C7F4D55
:102BB0002D1D2C60441CE0B20428EFDB482B12D002
:102BC00008DC012B75D0022B74D00D2B73D00E2B8B
:102BD0002FD1C5E04C2B2DD0502B7DD0512B50D078
:102BE000522BF5D19FE0042421E0002105E0491C8F
:102BF0006F48814201D1012030BD6C48006800F06F
:102C000020000028F3D06948001D0068C2B2612A84
:102C100001DB572000E03020101A651EAD00A840EF
:102C2000644D2D882843634D2880601EC4B2002C5B
:102C3000DBDCB0E0042421E0002105E0491C5C4815
:102C4000814201D10120D7E75848006800F02000F8
:102C50000028F3D05548001D0068C2B2612A01DB8C
:102C6000572000E03020101A651EAD00A840514DDD
:102C70006D8828434F4D6880601EC4B2002CDBDC99
:102C800089E0042425E0002105E0491C48488142F0
:102C900001D10120B0E74548006800F0200000287D
:102CA000F3D04248001D0068C2B2612A05DB5720FC
:102CB00004E056E056E052E00EE03020101A651EA7
:102CC000AD00A8403B4DED8828433A4DE880601E9A
:102CD000C4B2002CD7DC5EE0042421E0002105E032
:102CE000491C3348814201D1012085E72F48006803
:102CF00000F020000028F3D02C48001D0068C2B26C
:102D0000612A01DB572000E03020101A651EAD005B
:102D1000A840284DAD882843264DA880601EC4B227
:102D2000002CDBDC37E0002416E0002105E0491C24
:102D30001F48814201D101205EE71C48006800F075
:102D400020000028F3D01948001D0068C2B21948BD
:102D500008300255601CC4B20B2CE6DB1BE000BF40
:102D600000BF00BF002413E0002105E0491C124809
:102D7000814201D101203FE70C48006800F02000AB
:102D80000028F3D00948001D0068C5B2601CC4B219
:102D9000022CE9DB00BF00BF002000E0401C074C14
:102DA000A042FBD3002027E7D4050020004C0040C0
:102DB00080841E003406002040420F0060EC530067
:102DC00070B502460B4600212E488270C3702E4813
:102DD000006800F0200018B12B48001D0068C4B244
:102DE00000200DE000BF284D2D6805F08005002D66
:102DF000F9D0244D2D5C244E361D3560451CE8B2BB
:102E00000528EFDB092A1CD1002517E0002105E089
:102E1000491C1E48814201D1012070BD1A4800683A
:102E200000F020000028F3D01748001D0068C4B24D
:102E3000532C01D10120F0E7681CC5B2052DE5DB5C
:102E400017E0002513E0002105E0491C0F488142EE
:102E500001D10120E1E70C48006800F020000028C3
:102E6000F3D00948001D0068C4B2681CC5B2022D29
:102E7000E9DB002000E0401C054DA842FBD3002008
:102E8000CBE70000D8050020004C004080841E00E5
:102E900020AA4400002809DB00F01F020121914014
:102EA0004209920002F1E022C2F8001170470000CE
:102EB00000B502460D48006840F002000B4908606A
:102EC0000846006840EAC20008600846006840F40E
:102ED0008030086005E00548006820F002000349E2
:102EE000086000F009F80028F5D000BD103C024051
:102EF000014608687047000002480068012121EA85
:102F0000104070470C3C024000B502460B460E488C
:102F1000006840F001000C4908600846006840F471
:102F20000070086000BFFFF7E7FF0028FBD01360C8
:102F300000BFFFF7E1FF0028FBD00348006820F046
:102F400001000149086000BD103C024000B50320AB
:102F5000FFF7AEFF0D48007800060D4A127840EAF0
:102F600002400C4A92F900204FF47F4303EA022208
:102F700040EA02010848FFF7C7FF0848008801043B
:102F80000548001DFFF7C0FF00BD0000DD05002063
:102F9000DF050020EF05002000C00008EA05002042
:102FA000FDF7F8FCFDF7D8FBE448006840F00800A6
:102FB000E2490860E248006840F00050E0490860DB
:102FC000E048E1490860E1480860FDF70DFBFDF7C6
:102FD00015FE0721DE48FDF7CDFE002000E0401C75
:102FE000DC498842FBD33220DB4908723520487225
:102FF0000D21D948FDF7BEFEFDF776FD3520D649F7
:103000000872302048720D21D348FDF7B3FEFDF75A
:10301000A7FC3720D0490872352048720D21CE48D0
:10302000FDF7A8FEFDF782FCFDF746FBFDF710FE5D
:1030300000210920FFF7C4FEC8490870084600783F
:1030400058B91E210620FFF7BBFEC44908700021B5
:103050001120FFF7B5FEC1490870C148FFF748FFCE
:10306000000EC0490870BE48FFF742FF00F47F0021
:10307000000CBD490870BA48FFF73AFF000A40B299
:10308000BA490870B648001DFFF732FF000CB84976
:103090000880B849B34A127801EB02101021FDF7FD
:1030A00069FE0C21B448FDF765FEFDF759FDB349F3
:1030B0000870AF480088FDF73BFEB0490870A9488A
:1030C000007802287DD1AE49A74A127801EB421060
:1030D0002021FDF74FFEA54890F90000002801DDF2
:1030E0002B2000E02D20A7494872A04890F900004D
:1030F000002806DD9D4890F900000A2190FBF1F0C0
:1031000006E09A4890F9000040420A2190FBF1F055
:1031100030309C498872954890F9000000280DDDF8
:10312000924890F900000A2190FBF1F000EB80003A
:103130008E4991F90010A1EB40000EE08B4890F908
:10314000000040420A2190FBF1F000EB800087492B
:1031500091F900104942A1EB400030308949C87212
:1031600020218848FDF706FE7F48007830B101280D
:103170004DD0022853D0032848D1CFE07C480088A6
:103180004FF47A7190FBF1F030307F4988727848C3
:1031900000884FF47A7190FBF1F000EB4001C1EB35
:1031A000C01073490988A1EBC000642190FBF1F0C5
:1031B00030307549C8726E480088642190FBF1F088
:1031C00000E0B5E000EBC00101EB001068490988A0
:1031D000A1EB80000A2190FBF1F030306A490873BE
:1031E000634800880A2190FBF1F000EB8000604901
:1031F0000978A1EB40003030634988730E216348A1
:10320000FDF7B8FD16216048FDF7B4FD8FE00E21F3
:103210005E48FDF7AFFD0020FDF788F887E04F48D6
:103220000078012804D115215948FDF7A3FD74E069
:103230004820FFF7A3FC4C20FFF7A0FC5220FFF72B
:103240009DFC54480088642190FBF1F030305249D5
:10325000887350480088642190FBF1F000EBC001B6
:1032600001EB00104B490988A1EB80000A2190FB7B
:10327000F1F030304849C873464800880A2190FB75
:10328000F1F000EB800043490978A1EB40003030B9
:10329000414908743F484088642190FBF1F0303088
:1032A0003D4988723B484088642190FBF1F000EB77
:1032B000C00101EB001037494988A1EB80000A21C9
:1032C00090FBF1F030303449C872324840880A210E
:1032D00090FBF1F000EB80002E498978A1EB4000D3
:1032E00030302D4908732B48007A88742948407A79
:1032F000C8742848807A08752648C07A48752548D9
:10330000007B88752348407BC8750E212348FDF754
:1033100031FD2C212048FDF72DFD08E00E211B4832
:10332000FDF728FD11211E48FDF724FD00BF00BF59
:103330003820FFF7AFFD00BFFEE700001804024091
:103340001808024023016745043C0240AB89EFCDD9
:10335000000000208096980007000020E90500206A
:1033600000C00008DD050020DF050020EF0500207B
:10337000EA0500204C0000208C000020E805002019
:1033800098000020DB02002060020020780300206B
:1033900047030020340600201B0300206A0300209E
:1033A000CA0200204FF04070E1EE100A7047FAF9AF
:1033B000FCFB0000D43300080000002014060000CD
:1033C000C4010008483600081406002094060000D6
:1033D00028020008101272657374FFFFFF6C6F649F
:1033E0002E76616C3D30300D101174696D652E7450
:1033F00078743D2200003A00002220500464617479
:10340000133006202000002E03122001200A6461E0
:10341000796F667765656B25100A70616765206C4A
:103420006F6164311200013110A005616F66661092
:10343000A0056D61696E10500573657474103004D9
:10344000766130851231914004696E707050044687
:103450004D220FA00B62636F3D303334383135207D
:10346000B3425420A006313438343740A0045553B9
:103470004241123641A23840B0044155582014054B
:103480003435313204119745112510735F68986106
:103490000C4118926D18726D307004645F79C861C8
:1034A0000C41188130B2643092641892644892776B
:1034B00048727790619C619031C850043030228707
:1034C000910FE2640FC2641EC2790F62774B510103
:1034D00021341405204D6F6EE615EC2005547565FA
:1034E000730A30055765646E0A30055468757212A8
:1034F00030052046726908400653617475720A42AD
:1035000075367005746578745644042E3020CF816A
:1035100016C008204E4F2044657615D008436F6EC4
:103520006E6563742AE007504C4159202015D00580
:10353000415553451555D34004766F6CFD60042DFD
:1035400037391035E3A0053535333520B0044D55F6
:1035500054205923B1BB162F0F33205F0129F85295
:103560002079210A0110D1597431E6B007666F6ED7
:10357000743D340EB2350E29AE6404414443253007
:10358000062E30562020077D5303BC087464615F0B
:103590006C6F7557032114E0057472656214F004B2
:1035A0006D696428E005626173733C7F7361770322
:1035B000110AB518B004685F7110BC04635F663B04
:1035C00003011720513071505130011720E170551F
:1035D00078126C3069DF52720C29F77C046C5F72D0
:1035E000030392720C926C2492723C012A30A16007
:1035F000022D3130A1905231F03D7B04392D500421
:10360000487A22F4498C11133E64920425476127BD
:103610000228223720084154234D560D0A07424103
:1036200007424407424507900F4A0D0A7E0200EF09
:103630007E030000EF01000113100405031F0F00BB
:0836400001030062000000001C
:040000050800018965
:00000001FF
