:020000040800F2
:10000000300A002071020008790200087B02000813
:100010007D0200087F020008810200080000000045
:100020000000000000000000000000008302000843
:10003000850200080000000087020008490C000843
:100040008B0200088B0200088B0200088B0200085C
:100050008B0200088B0200088B0200088B0200084C
:100060008B0200088B0200088B0200086503000861
:100070008B0200088B0200088B0200088B0200082C
:100080008B0200088B0200088B0200088B0200081C
:100090008B0200088B0200088B0200088B0200080C
:1000A0008B0200088B0200088B0200088B020008FC
:1000B0008B0200088B0200088B0200088B020008EC
:1000C0008B0200088B0200088B0200088B020008DC
:1000D0008B0200088B0200088B0200088B020008CC
:1000E0008B0200088B0200088B0200088B020008BC
:1000F0008B0200086D0D00088B0200088B020008BF
:100100008B0200088B0200088B0200088B0200089B
:100110008B020008952100088B0200088B02000862
:10012000350400088B0200088B0200088B020008CF
:100130008B02000800000000000000008B02000895
:100140008B0200088B0200088B0200088B0200085B
:100150008B0200088B0200088B0200088B0200084B
:100160008B0200088B0200088B0200088B0200083B
:100170008B0200088B020008000000000000000055
:100180008B0200088B02000800F002F800F060F813
:100190000AA090E8000C82448344AAF10107DA45E2
:1001A00001D100F055F8AFF2090EBAE80F0013F0D4
:1001B000010F18BFFB1A43F0010318474028000045
:1001C0006028000010F8013B0A4413F0030408BF44
:1001D00010F8014B1D1108BF10F8015B641E05D01B
:1001E00010F8016B641E01F8016BF9D1002D15D0D8
:1001F00010F8014B03F00C030C2BA1EB04040ABF15
:1002000010F8013BA4EB8314A4EB032405F10103D4
:1002100014F8016B5B1E01F8016BF9D5914238BFF0
:1002200010F8013BD1D3704700230024002500269D
:10023000103A28BF78C1FBD8520728BF30C148BF49
:100240000B6070471FB502F0D1FB1FBD10B510BD8C
:1002500000F031F81146FFF7F5FF02F0C7F900F0A2
:100260004FF803B4FFF7F2FF03BC00F057F80000AB
:100270000948804709480047FEE7FEE7FEE7FEE73A
:10028000FEE7FEE7FEE7FEE7FEE7FEE70448054976
:10029000054A064B704700009D0C000889010008C4
:1002A00030040020300A00203006002030060020F4
:1002B000704770477047754600F02CF8AE46050051
:1002C0006946534620F00700854618B020B5FFF771
:1002D000DDFFBDE820404FF000064FF000074FF073
:1002E00000084FF0000B21F00701AC46ACE8C00954
:1002F000ACE8C009ACE8C009ACE8C0098D4670475D
:1003000010B50446AFF300802046BDE81040FFF76B
:10031000A8BF000000487047CC0300200149182006
:10032000ABBEFEE726000200704700004FF064619C
:100330000A4AD160C0EBC001094A1144074AC432DD
:1003400011600721054AC2F8BC101146D1F8B81057
:1003500041F00101C2F8B81070470000006002408F
:100360004703002000B53D202C4988602C48C86117
:10037000142048610846006940F0010008612848DF
:1003800000780D2849D1264840780A2845D12448CC
:10039000C078492806D050281FD0522825D055288B
:1003A00027D103E000201F49087022E01C48007993
:1003B000312803D100201B4908700DE0184800794E
:1003C000332803D016480079352805D11548007820
:1003D00010B90120134908700BE012480078022878
:1003E00002D103200F49087003E002200D49087074
:1003F00000BF00BF0C48007802280ED10B480078DF
:1004000001280AD107490978C1EBC10101EB41017B
:10041000074A8818152100F095FC00BD00600240D5
:10042000980300207C030020730300207503002044
:100430003A02002030B52C48006840F03D002A49BF
:1004400008602A4800889E21484340F6FF7190FBCF
:10045000F1F0C4B2254840889E21484340F6FF7120
:1004600090FBF1F0C5B2642094FBF0F030302049ED
:100470004872642094FBF0F000EBC00101EB001027
:10048000A4EB80000A2190FBF1F03030184988720B
:100490000A2094FBF0F000EB8000A4EB4000303029
:1004A0000873642095FBF0F030300874642095FBED
:1004B000F0F000EBC00101EB0010A5EB80000A2179
:1004C00090FBF1F030300A4948740A2095FBF0F0B7
:1004D00000EB8000A5EB40003030C87419210448BF
:1004E00000F030FC30BD00000864024086030020AC
:1004F0002E03002030B503460C463A48006840F40D
:100500008070384D286007E036481430006800F4E9
:10051000807008B1012030BD32481430006800F00E
:1005200001000028F0D02F48143000682D48183002
:1005300000682C481030036013E02A48143000682B
:1005400000F4807028B927481430006800F48060F7
:1005500038B12448006840F40070224D2860022021
:10056000D9E720481430006800F002000028E4D0E9
:100570001C48143000681B4818300068002127E030
:10058000605C184D1035286013E016481430006880
:1005900000F4807028B913481430006800F48060BB
:1005A00038B11048006840F400700E4D28600320F8
:1005B000B1E70C481430006800F004000028E4D0D3
:1005C000084814300068074818300068481C81B299
:1005D0009142D5DB0348006840F40070014D28606B
:1005E000002098E7005400402D48006840F48070D7
:1005F0002B4908602B482C498860881548604FF4C7
:10060000D84008614FF48010C862832048632448B2
:100610001438006840F480002149143908602348E8
:10062000006842F610510843204908601E484C30CB
:100630001E49083108601E48091D086002201B4938
:10064000091D0860081F006840F00100091F0860CC
:1006500016480838006840F03D0014490839086021
:100660000F48001F006840F002000D49091F086094
:1006700042F2CF000F4908604FF47A70091D0860FC
:100680000C482438006840F020000A4924390860EA
:10069000081F006840F00100091F08607047000053
:1006A0004438024001030018002001401064024059
:1006B000860300202804004010B52148006840F45B
:1006C00080101F4908602D201E49886042F21C00DE
:1006D000C860C02048611A481038006840F4001013
:1006E0001749103908601848184908611548001D55
:1006F00088611748C861142048610846006940F0C5
:10070000010008611148B830006820F00100C1F80C
:10071000B8000D4830300D49B83108600948001D57
:100720000A49C1F8C0000B48006840F4005009496C
:1007300008600B2001F0D4FE352001F0D1FE10BD81
:1007400040380240005000401004000800600240A1
:1007500098030020180802406148006840F00F002C
:100760005F4908605F4800685F4908435D49086069
:100770000846006840F0400008605C48006840F0AF
:1007800080605A4908605A48006A40F08800584919
:1007900008620846C06840F00500C86008468068E6
:1007A00040F00F0088600846006840F00A000860CA
:1007B0004C48406A40F4EE414A48416249480C3096
:1007C000006840F4A00047490C310860081F006829
:1007D000484908434349083108604248006840F4EA
:1007E0002000404908604148406A40F400213F48E9
:1007F00041624148006840F400603F4908603B485E
:100800000C30006840F0807038490C3108603A487C
:100810001438006840F01000374914390860334834
:100820000830006840F040703049083108603248B4
:100830001838006840F030002F49183908602B48FC
:10084000006840F00070294908602B482038006893
:1008500040F020002849203908602248406A40F0D2
:10086000440120484162006840F420201D4908608E
:100870001C480C30006840F4A0201A490C31086074
:100880001848001D006840F440701649091D0860B2
:10089000081D006840F47020091D086014480068B5
:1008A00020F04040124908600846C06820F04040EF
:1008B000C8600846006808600C4800680B4908607A
:1008C0000B48006840F47070094908600846806869
:1008D00040F4707088600846C068C86070470000C7
:1008E0003038024000040240100000550008024069
:1008F000000002400C003000200C02400A48006852
:1009000040F40010084908602D2008490860D220F2
:100910000649183108602B20091D08600120034991
:10092000091F08607047000040380240045400402E
:1009300010B50A48006840F480700849086042F227
:10094000CF000749886240F2CF70C8620120C860BA
:1009500008602D2001F0C4FD10BD000040380240A9
:10096000002000403CB50020019000904E480068F7
:1009700040F480304C49086000BF4B48006800F4E8
:10098000003000900198401C0190009818B901981F
:10099000B0F57A7FF1D14448006800F002000028E9
:1009A0005ED04248006840F48070404908600846C4
:1009B000006820F00F0008600846006840F005005D
:1009C000086039480830006837490831086008462F
:1009D000006840F4A05008600846006840F40040F9
:1009E0000860081F006840F48000091F086008467E
:1009F000006820F03F0008600846006840F00800EA
:100A000008600846006847F6C07188432649091DFA
:100A100008600846006840F428500860081F006815
:100A200040F08070091F086000BF1F48006800F098
:100A300000700028F9D01C480830006820F003003E
:100A40001949083108600846006840F00200086053
:100A500000BF15480830006800F00C000828F8D1E5
:100A600044F2A011481EB0F1807F00D31BE0481E65
:100A70004FF0E022506150170F22002804DB1307CB
:100A80001C0E0B4B1C5406E013071D0E094B00F007
:100A90000F04241F1D5500BF00204FF0E02290617D
:100AA0000720106100BF3CBD00380240003C0240FE
:100AB00000E400E018ED00E01B48006800F400408E
:100AC000B0F5004F2FD018483038006840F0805003
:100AD0001549303908601548006840F480701349A2
:100AE00008601148006840F480300F4908600846EB
:100AF000006820F4803008600846006840F4014037
:100B000008600846006840F00100086000BF064821
:100B1000006800F001000028F9D00448006820F4C3
:100B200080700249086070477038024000700040D1
:100B300000B585B020208DF80000204800780228FC
:100B400004D11F481F490978405C00E007208DF858
:100B5000010000208DF80200C7208DF803001A481C
:100B600000788DF8040090208DF8050050208DF855
:100B700006008DF807007F208DF8080000208DF812
:100B80000900FF208DF80A0000208DF80B008DF879
:100B90000C008DF80D008DF80E008DF80F008DF80B
:100BA000100039208DF8110000208DF8120013225A
:100BB00069468820FFF79EFC05B000BD7303002046
:100BC000F6290008750300208403002010480068FF
:100BD00040F480200E4908604FF4B6700D4908605B
:100BE00042F20800091D086080200A490C310860A3
:100BF00007481038006840F40010054910390860B3
:100C00000548064988650348001F086670470000CC
:100C1000403802400848004040040008006002409C
:100C20000748006840F400200549086041F21710A9
:100C30000449086042F20C00091D0860704700007A
:100C400040380240084C004012480068401C1149DE
:100C500008600846006841F28831884218D10020B7
:100C60000C4908600C48006800F0040040B10A48D4
:100C7000001D006840F480200749091D086007E056
:100C80000548001D006840F004000349091D086084
:100C9000704700008C0300201404024014480068D0
:100CA00040F47000124908601248006840F00100EA
:100CB0001049086000200F49083108600D4800689D
:100CC0000D4908400B4908600C48091D0860081FC1
:100CD000006820F48020091F0860002005490C31BD
:100CE00008604FF0006002498039086070470000DA
:100CF00088ED00E000380240FFFFF6FE10300024CF
:100D00001CB5044640F6354060430D4901EB4010E8
:100D10008000C0F3CF3420128DF80000E0B28DF8CF
:100D2000010010208DF8020012208DF80300002031
:100D30008DF8040005226946C020FFF7DBFB1CBDCF
:100D4000E86E0300084A5066D1654FF06462064BB6
:100D50009A601A46926D42F001029A6500BF024AFB
:100D6000D26D002AFBD17047006002400CB5002014
:100D7000FE490861FE480078401CFD490870FDA04E
:100D800000680190FCA000680090FC4800788DF895
:100D90000100FB48006840F08050F9490860F948BC
:100DA000006900F4806000283CD00846006840F4E8
:100DB00080500860F4480078401CF34908700846E9
:100DC000007814282DDBF1480078022829D114205E
:100DD000087000208DF8040007208DF8050002221D
:100DE00001A98820FFF786FBE94908700120E7493F
:100DF000087001F0D1FBE549097801EB4101E54AB2
:100E000002EB81000C21FFF79DFF6420D849087098
:100E10000420FFF78BFADA48006840F00800D84950
:100E20000860CBE2D848007814287DDAD6480078EC
:100E3000002879D0D5480078022876D1D6480078A5
:100E4000401CD549087008460078032801DD0020C1
:100E5000087001F0A1FB00208DF80400CF48CE49B6
:100E60000978405C8DF80500022201A98820FFF76F
:100E700041FBC7490870C849097801EB4101C84ADC
:100E800002EBC1001821FFF75DFFC348007830B1C5
:100E900001284ED002285FD0032849D1E1E00E217D
:100EA000C048FFF74FFFC04800884FF47A7190FBAD
:100EB000F1F03030BD498872BB4800884FF47A7138
:100EC00090FBF1F000EB4001C1EBC010B64909887E
:100ED000A1EBC000642190FBF1F03030B349C8723F
:100EE000B1480088642190FBF1F000EBC00101EBF8
:100EF0000010AD490988A1EB80000A2190FBF1F0B8
:100F00003030AA490873A84800880A2190FBF1F004
:100F100000EB8000A4490978A1EB40003030A349E0
:100F200088731621A14801E01EE1A4E0FFF70AFF43
:100F3000A0E00E219B48FFF705FF0020FFF7F6F920
:100F40009B490978C1EBC10101EB4101994A88181D
:100F50001521FFF7F7FE8DE00021092001F056FA78
:100F60009549087008460078012804D11521934856
:100F7000FFF7E8FE74E00E219148FFF7E3FE4820FA
:100F800001F022F94C2001F01FF9522001F01CF968
:100F90008C480088642190FBF1F030308A498873D6
:100FA00088480088642190FBF1F000EBC00101EB60
:100FB000001084490988A1EB80000A2190FBF1F020
:100FC00030308149C8737F4800880A2190FBF1F0D6
:100FD00000EB80007B490978A1EB400030307A4972
:100FE000087478484088642190FBF1F030307649ED
:100FF000887274484088642190FBF1F000EBC001D6
:1010000001EB00106F494988A1EB80000A2190FB99
:10101000F1F030306C49C8726A4840880A2190FB70
:10102000F1F000EB800067498978A1EB4000303097
:10103000654908736348007A88746248407AC874C6
:101040006048807A08755F48C07A48755D48007BC3
:1010500088755C48407BC8752C215B48FFF772FEA1
:1010600008E00E214F48FFF76DFE11215748FFF7AA
:1010700069FE00BF00BF45480078012874D10220F6
:101080004249087001F088FA4049097801EB4101B2
:10109000404A02EB81000C21FFF754FE00208DF83E
:1010A00004003E483C490978405C8DF80500022266
:1010B00001A98820FFF71EFA3549087036490978DA
:1010C00001EB4101364A02EBC1001821FFF73AFE5D
:1010D0003148007830B1012847D0022878D0032861
:1010E00077D115E10E212F48FFF72CFE2E480088FE
:1010F0004FF47A7190FBF1F030302C4988722A4815
:1011000000884FF47A7190FBF1F000EB4001C1EBE5
:10111000C01025490988A1EBC000642190FBF1F0C3
:1011200030302249C87220480088642190FBF1F0D9
:1011300000EBC00101EB00101B490988A1EB800006
:101140000A2190FBF1F030301849087316480088E6
:101150000A2190FBF1F000EB800013490978A1EB24
:1011600040003030114935E025E139E000200040F1
:101170009603002000070000030000008403002005
:10118000180402400000024077030020730300208F
:10119000780300204C00002075030020F629000889
:1011A0007C000020200300207A030020240200207D
:1011B0007C0300203A02002079030020EF02002087
:1011C00012030020B8030020C30200208E0200207A
:1011D00019E0A6E088731621FA48FFF7B3FDA0E0F6
:1011E0000E21F948FFF7AEFD0020FFF79FF8F74901
:1011F0000978C1EBC10101EB4101F54A88181521BD
:10120000FFF7A0FD8DE00021092001F0FFF8F14972
:10121000087008460078012804D11521EE48FFF730
:1012200091FD74E00E21ED48FFF78CFD482000F0A1
:10123000CBFF4C2000F0C8FF522000F0C5FFE8486B
:101240000088642190FBF1F03030E6498873E4486F
:101250000088642190FBF1F000EBC00101EB00106D
:10126000DF490988A1EB80000A2190FBF1F03030C2
:10127000DC49C873DA4800880A2190FBF1F000EBE2
:101280008000D7490978A1EB40003030D549087477
:10129000D3484088642190FBF1F03030D149887206
:1012A000CF484088642190FBF1F000EBC00101EBD6
:1012B0000010CB494988A1EB80000A2190FBF1F096
:1012C0003030C849C872C64840880A2190FBF1F006
:1012D00000EB8000C2498978A1EB40003030C14961
:1012E0000873BF48007A8874BD48407AC874BC4807
:1012F000807A0875BA48C07A4875B948007B887505
:10130000B748407BC8752C21B648FFF71BFD08E0A5
:101310000E21AD48FFF716FD1121B348FFF712FD6E
:1013200000BF00BFB14890F90000002801DD2B206C
:1013300000E02D20AE494872AC4890F9000000282A
:1013400006DDAA4890F900000A2190FBF1F006E0C2
:10135000A64890F9000040420A2190FBF1F030309D
:10136000A3498872A14890F9000000280DDD9F482C
:1013700090F900000A2190FBF1F000EB80009B49FE
:1013800091F90010A1EB40000EE0984890F90000A0
:1013900040420A2190FBF1F000EB8000934991F963
:1013A00000104942A1EB400030309149C87212212F
:1013B0008F48FFF7C7FC00208E4908708E480069EF
:1013C00000F4805000287DD08C48006840F48050A4
:1013D0008A4908608A480078022873D189480078D1
:1013E00020B1012858D0022855D159E086480088FC
:1013F000401C8549088008460088B0F5876F02DBED
:1014000040F25230088080480088FFF779FC01F0F4
:10141000C3F87D4800884FF47A7190FBF1F03030CA
:1014200068498872784800884FF47A7190FBF1F02F
:1014300000EB4001C1EBC01073490988A1EBC0006B
:10144000642190FBF1F030305E49C8726E4800882C
:10145000642190FBF1F000EBC00101EB00106A4940
:101460000988A1EB80000A2190FBF1F0303055494A
:101470000873654800880A2190FBF1F000EB8000BA
:1014800061490978A1EB400030304E49887316213C
:101490004C48FFF757FC53E00220FEF747FF4FE0B0
:1014A00001205A49087000F08FFE4C2000F08CFE9D
:1014B000522000F089FE4A484088642190FBF1F0F8
:1014C000303000E03DE0474988724548408864215B
:1014D00090FBF1F000EBC00101EB0010404949889E
:1014E000A1EB80000A2190FBF1F030303D49C87239
:1014F0003B4840880A2190FBF1F000EB800038491E
:101500008978A1EB40003030364908733448007ABE
:1015100088743348407AC8743148807A08753048F6
:10152000C07A48752E48007B88752D48407BC87569
:101530003E2081F820002C212A48FFF703FC00BF41
:1015400000BF2D48006900F4004000287BD02B48E4
:10155000006840F480502949086029480078022832
:1015600071D12848007860B3012804D0022806D041
:1015700003287DD14DE00120FEF7D8FE78E0234816
:10158000007801280ED10E2000F01EFE00201F4919
:1015900008707C20134981F820002C211148FFF7A6
:1015A000D1FB0DE00D2000F00FFE0120174908705F
:1015B0003E200C4981F820002C210A48FFF7C2FB8D
:1015C00056E025E024020020200300207C030020B8
:1015D0003A02002079030020EF02002012030020CD
:1015E000B8030020C30200208E02002084030020E4
:1015F0009F020020770300200000024018040240F0
:1016000073030020750300207A0300207D0300206F
:1016100000BFFE480078B8B10020FC4908708DF882
:101620000400FB48FB490978405C8DF80500022264
:1016300001A98820FEF75EFFF74908701221F748DC
:10164000FFF780FB14E014E00120F049087000204F
:101650008DF8040007208DF80500022201A98820DA
:10166000FEF748FFEC4908701221ED48FFF76AFBCE
:1016700000BFEC48006900F4006000287DD0EA4813
:10168000006840F48050E8490860E8480078022883
:1016900073D1E048007820B101285AD0022857D1F0
:1016A0005BE0E3480088401EE14908800846008866
:1016B00040F25231884203DC4FF48760DC490880F5
:1016C000DB480088FFF71CFB00F066FFD848008865
:1016D0004FF47A7190FBF1F03030D6498872D448DB
:1016E00000884FF47A7190FBF1F000EB4001C1EB00
:1016F000C010CF490988A1EBC000642190FBF1F034
:101700003030CC49C872CA480088642190FBF1F09F
:1017100000EBC00101EB0010C5490988A1EB800076
:101720000A2190FBF1F03030C2490873C0480088AC
:101730000A2190FBF1F000EB8000BD490978A1EB94
:1017400040003030BB4988731621BA48FFF7FAFAD7
:1017500054E00320FEF7EAFD50E00120B64908708E
:10176000022000F031FD4C2000F02EFD522000F050
:101770002BFDB2484088642100E040E090FBF1F08E
:101780003030AF498872AD484088642190FBF1F059
:1017900000EBC00101EB0010A8494988A1EB8000D3
:1017A0000A2190FBF1F03030A549C872A348408867
:1017B0000A2190FBF1F000EB8000A0498978A1EBB1
:1017C000400030309E4908739C48007A88749B48DA
:1017D000407AC8749948807A08759848C07A4875E4
:1017E0009648007B88759548407BC8753E2081F8F7
:1017F00020002C219248FFF7A5FA00BF00BF9148B6
:10180000006800F48060002872D08748006840F4C7
:1018100080508549086000207C4908708A4800781B
:10182000401C40B288490870084690F900000F2813
:1018300001DD0F20087000F0AFFE00208DF80400DD
:10184000734874490978405C8DF80500022201A9AB
:101850008820FEF74FFE704908707B4890F9000021
:10186000002803DD784890F9000004E0764890F9FC
:101870000000C0F11000C0B28DF8010002226946DC
:101880008820FEF737FE644908706F4890F9000021
:10189000002801DD2B2000E02D20604948726A48B5
:1018A00090F90000002806DD674890F900000A2141
:1018B00090FBF1F006E0644890F9000040420A21F4
:1018C00090FBF1F03030554988725F4890F9000084
:1018D00000280EDD5C4890F900000A2190FBF1F031
:1018E00000EB8000584991F90010A1EB40000FE097
:1018F00015E0554890F9000040420A2190FBF1F0B4
:1019000000EB8000504991F900104942A1EB4000E2
:1019100030304249C87212214048FFF713FA494853
:10192000006800F4006088B33F48006840F48050CD
:101930003D49086000203549087043480078401E42
:1019400040B241490870084690F9000010F14F0F6D
:1019500001DAB120087000F01FFE00208DF80400AD
:101960002B482C490978405C8DF80500022201A91A
:101970008820FEF7BFFD28490870334890F9000021
:10198000002804DD304890F9000005E079E02E4899
:1019900090F90000C0F11000C0B28DF801000222E1
:1019A00069468820FEF7A6FD1B490870264890F975
:1019B0000000002801DD2B2000E02D20174948728F
:1019C000214890F90000002806DD1F4890F900002A
:1019D0000A2190FBF1F006E01B4890F9000040421C
:1019E0000A2190FBF1F030300C498872164890F9CA
:1019F000000000282FDD144890F900000A2190FB18
:101A0000F1F000EB8000104920E000008503002089
:101A1000F629000875030020780300209F020020AB
:101A2000B1020020000002401804024073030020AD
:101A30007A030020240200207D030020B803002048
:101A4000C3020020100802408403002091F9001016
:101A5000A1EB40000EE0FE4890F9000040420A2150
:101A600090FBF1F000EB8000F94991F90010494238
:101A7000A1EB40003030F749C8721221F548FFF75A
:101A800061F9F548006900F4007000287ED0F34841
:101A9000007803287AD1F2480078072877D2DFE867
:101AA00000F0042AA6517DCFF000EE480078401CDB
:101AB000EC49087008460078182801DB00200870FF
:101AC000E84800780A2190FBF1F03030E64948728E
:101AD000E44800780A2190FBF1F000EB8000E14936
:101AE0000978A1EB40003030DF4988720F21DE48D1
:101AF000FFF728F971E1DD480078401CDB490870E8
:101B0000084600783C2801DB00200870D7480078A0
:101B10000A2190FBF1F03030D3490876D3480078A1
:101B20000A2190FBF1F000EB8000D0490978A1EB8D
:101B300040003030CC4948760F21CB480F30FFF7BA
:101B400001F94AE1CA480078401CC94908700846B2
:101B500000780D2801DB01200870C54800780A21B3
:101B600090FBF1F03030C04981F82700C048007880
:101B70000A2190FBF1F000EB8000BD490978A1EB50
:101B800040003030B84981F8280001E026E123E127
:101B90000F21B5481E30FFF7D5F81EE1B548007893
:101BA000401CB449087008460078202801DB012059
:101BB0000870B04800780A2190FBF1F03030AA4953
:101BC00081F83600AB4800780A2190FBF1F000EB79
:101BD0008000A8490978A1EB40003030A24981F883
:101BE00037000F21A0482D30FFF7ACF8F5E0A248F0
:101BF0000078401CA0490870084600781E2801DBC8
:101C0000122008709C4800780A2190FBF1F03030D7
:101C1000954981F84500984800780A2190FBF1F039
:101C200000EB800094490978A1EB400030308E49E8
:101C300081F846000F218C483C30FFF783F8CCE058
:101C40008E480078401C8D490870084600780828A6
:101C500001DB0120087089480078401E00EBC000BD
:101C600087490844804902684A6542688A65007A63
:101C700081F85C0017217C484B30FFF763F8ACE03B
:101C8000FFE780480078754908707F48006840F099
:101C900080507D4908607D48006840F480707B4931
:101CA0000860CA207A4908605320086078481838CC
:101CB000006840F0800076491839086000BF744819
:101CC0001838006800F040000028F8D06748007815
:101CD0000A2190FBF1F00003644909780A2291FB84
:101CE000F2F101EB8101614A1278A2EB410140EA75
:101CF00001205C4909780A2291FBF2F140EA015087
:101D00005849097891FBF2F101EB8101554A1278AB
:101D1000A2EB410140EA01405D4924390860554881
:101D200000780A2190FBF1F000EB8000514909781E
:101D3000A1EB40004F4909780A2291FBF2F140EAF9
:101D400001104B49097891FBF2F140EA0131484812
:101D5000007890FBF2F000EB8000454A1278A2EB8D
:101D6000400041EA0020444909780A2291FBF2F13F
:101D700040EA01504049097891FBF2F101EB810101
:101D80003D4A1278A2EB410140EA01403B49097803
:101D900040EA41303E49203908603D481838006823
:101DA00020F080003A4918390860FF20384908605F
:101DB0003648006820F48070344908602749097863
:101DC00001EB4101334A02EB81000C21FEF7BAFF1F
:101DD00064203149087000E000BF00BF1E48006960
:101DE00000F4807000287DD01C480078012804D0C1
:101DF000022803D0032876D128E100BF17480078D5
:101E000020490870032015490870097801EB410149
:101E1000204A02EB81000C21FEF794FF00201049BC
:101E20000870097801EB41011C4A02EBC10018213E
:101E3000FEF788FF164824380068C0F303401449B1
:101E400024390968C1F3015101EB810128E0000048
:101E5000840300209F020020000002407303002042
:101E600074030020900300208401002091030020CF
:101E70009203002093030020950300209403002088
:101E8000E501002076030020403802400070004049
:101E9000242800404C00002096030020DC00002095
:101EA00000EB4100AD490870AD480068C0F3032065
:101EB000AB490968C1F3023101EB810100EB41003C
:101EC000A8490870A648001D006800F00F00A4494A
:101ED000091D0968C1F3011101EB810100EB41000B
:101EE000A14901E0CAE0C7E008709D48001D0068F4
:101EF000C0F303209A49091D0968C1F3003101EBC1
:101F0000810100EB4100994908709548001D006867
:101F1000C0F303409249091D0968C1F3035101EB65
:101F2000810100EB4100924908708D48001D006856
:101F3000C0F342308F490870884800780A2190FB2E
:101F4000F1F030308C494872844800780A2190FBC7
:101F5000F1F000EB800081490978A1EB40003030BE
:101F6000854988727F4800780A2190FBF1F0303073
:101F7000814908767B4800780A2190FBF1F000EB5C
:101F8000800078490978A1EB400030307A494876E2
:101F9000764800780A2190FBF1F03030764981F8DC
:101FA0002700724800780A2190FBF1F000EB8000D6
:101FB0006E490978A1EB400030306F4981F8280064
:101FC000694800780A2190FBF1F030306A4981F8C5
:101FD0003600654800780A2190FBF1F000EB8000A4
:101FE00061490978A1EB40003030634981F837003E
:101FF0005F4800780A2190FBF1F030305E4981F8AB
:1020000045005B4800780A2190FBF1F000EB80006E
:1020100057490978A1EB40003030574981F8460014
:102020004F48001D0068C0F34230401E00EBC00066
:102030005249014450480A6842654A688265097AF3
:1020400080F85C106121FEF77DFE16E04C480078B8
:10205000401C4B49087008460078062801DD002026
:1020600008704749097801EB4101464A02EBC1007B
:102070001821FEF767FE00E000BF00BF424800786D
:10208000022803D040480078012866D13F480078F4
:10209000642862DB00203D490870FEF747F93048AC
:1020A0000068C0F303203030394988732C48006839
:1020B000C0F302303030487329480068C0F3034051
:1020C0003030C87226480068C0F301503030887242
:1020D0002348001D006800F00F00303081F8200018
:1020E0001F48001D0068C0F301103030C8771C483D
:1020F000001D0068C0F30320303081F82300184829
:10210000001D0068C0F30030303081F82200144810
:10211000001D0068C0F30340303081F826001048ED
:10212000001D0068C0F30350303081F825000C48D2
:10213000001D0068C0F34230401E00EBC0000F4994
:10214000084413492B3102680A6042684A60007AE9
:10215000087238210E48FEF7F5FD0CBD90030020F3
:1021600000280040910300209303002092030020E8
:10217000950300209403002084010020E501002045
:1021800074030020DC00002073030020960300206D
:102190001400002008B50A48006800F0100068B17B
:1021A00007480068009006484068009000BF054856
:1021B000006920F001000349086100BF08BD00006C
:1021C000005000400060024030B5034600218948BD
:1021D00083708948006800F0200018B18648001D0F
:1021E0000068C2B200200DE000BF834C246804F0F8
:1021F0004004002CF9D07F4C245C7F4D2D1D2C60B9
:10220000441CE0B20428EFDB482B12D008DC012B81
:1022100075D0022B74D00D2B73D00E2B2FD1C5E0AF
:102220004C2B2DD0502B7DD0512B50D0522BF5D193
:102230009FE0042421E0002105E0491C6F48814211
:1022400001D1012030BD6C48006800F0200000285A
:10225000F3D06948001D0068C2B2612A01DB572033
:1022600000E03020101A651EAD00A840644D2D8896
:102270002843634D2880601EC4B2002CDBDCB0E034
:10228000042421E0002105E0491C5C48814201D181
:102290000120D7E75848006800F020000028F3D05C
:1022A0005548001D0068C2B2612A01DB572000E0DA
:1022B0003020101A651EAD00A840514D6D8828438E
:1022C0004F4D6880601EC4B2002CDBDC89E0042422
:1022D00025E0002105E0491C4848814201D1012048
:1022E000B0E74548006800F020000028F3D04248DD
:1022F000001D0068C2B2612A05DB572004E056E0E9
:1023000056E052E00EE03020101A651EAD00A840E5
:102310003B4DED8828433A4DE880601EC4B2002C46
:10232000D7DC5EE0042421E0002105E0491C3348AD
:10233000814201D1012085E72F48006800F020008C
:102340000028F3D02C48001D0068C2B2612A01DBCE
:10235000572000E03020101A651EAD00A840284D1F
:10236000AD882843264DA880601EC4B2002CDBDC5B
:1023700037E0002416E0002105E0491C1F48814297
:1023800001D101205EE71C48006800F02000002811
:10239000F3D01948001D0068C2B219480830025530
:1023A000601CC4B20B2CE6DB1BE000BF00BF00BF0B
:1023B000002413E0002105E0491C1248814201D1AC
:1023C00001203FE70C48006800F020000028F3D00F
:1023D0000948001D0068C5B2601CC4B2022CE9DBCC
:1023E00000BF00BF002000E0401C074CA042FBD310
:1023F000002027E76A030020004C004080841E0074
:10240000B803002040420F0060EC530070B5024654
:102410000B4600212E488270C3702E48006800F0E1
:10242000200018B12B48001D0068C4B200200DE048
:1024300000BF284D2D6805F08005002DF9D0244DF2
:102440002D5C244E361D3560451CE8B20528EFDBB7
:10245000092A1CD1002517E0002105E0491C1E486F
:10246000814201D1012070BD1A48006800F02000AF
:102470000028F3D01748001D0068C4B2532C01D1C6
:102480000120F0E7681CC5B2052DE5DB17E000254B
:1024900013E0002105E0491C0F48814201D10120D1
:1024A000E1E70C48006800F020000028F3D009485C
:1024B000001D0068C4B2681CC5B2022DE9DB002013
:1024C00000E0401C054DA842FBD30020CBE70000F4
:1024D0006E030020004C004080841E0020AA4400AF
:1024E000002809DB00F01F020121914042099200FF
:1024F00002F1E022C2F800117047000000B5024668
:102500000D48006840F002000B490860084600686A
:1025100040EAC20008600846006840F48030086065
:1025200005E00548006820F002000349086000F05B
:1025300009F80028F5D000BD103C024001460868AB
:102540007047000002480068012121EA10407047EE
:102550000C3C024000B502460B460E48006840F0B5
:1025600001000C4908600846006840F400700860EB
:1025700000BFFFF7E7FF0028FBD0136000BFFFF7A5
:10258000E1FF0028FBD00348006820F0010001496A
:10259000086000BD103C024000B50320FFF7AEFF0D
:1025A0000D48007800060D4A127840EA02400C4AB5
:1025B00092F900204FF47F4303EA022240EA02012D
:1025C0000848FFF7C7FF0848008801040548001DB8
:1025D000FFF7C0FF00BD000073030020750300205B
:1025E0008403002000C000087A030020FEF7BAF937
:1025F000FEF7B2F8E448006840F00800E2490860DD
:10260000E248006840F00050E0490860E048E149D5
:102610000860E1480860FDF7E7FFFEF7D7FA0721F9
:10262000DE48FEF78FFB002000E0401CDC498842BA
:10263000FBD33220DB490872352048720D21D9487E
:10264000FEF780FBFEF738FA3520D64908723020B5
:1026500048720D21D348FEF775FBFEF769F9372064
:10266000D0490872352048720D21CE48FEF76AFB2A
:10267000FEF744F9FEF720F8FEF7D2FA0021092010
:10268000FFF7C4FEC84908700846007858B91E21F3
:102690000620FFF7BBFEC449087000211120FFF798
:1026A000B5FEC1490870C148FFF748FF000EC04998
:1026B0000870BE48FFF742FF00F47F00000CBD49E0
:1026C0000870BA48FFF73AFF000A40B2BA490870EA
:1026D000B648001DFFF732FF000CB8490880B44926
:1026E000097801EB4101B64A02EB81000C21FEF7AB
:1026F00029FBFEF71DFAB3490870B0480088FEF7C1
:10270000FFFAB0490870AA48007802287DD1A9498B
:10271000097801EB4101AC4A02EBC1001821FEF738
:1027200011FBA54890F90000002801DD2B2000E0F6
:102730002D20A6494872A04890F90000002806DD27
:102740009D4890F900000A2190FBF1F006E09A48BC
:1027500090F9000040420A2190FBF1F030309B4993
:102760008872954890F9000000280DDD924890F994
:1027700000000A2190FBF1F000EB80008E4991F9F6
:102780000010A1EB40000EE08B4890F900004042A1
:102790000A2190FBF1F000EB8000874991F90010CD
:1027A0004942A1EB400030308849C8721221874865
:1027B000FEF7C8FA7F48007830B101284DD00228D2
:1027C00053D0032848D1CFE07C4800884FF47A7179
:1027D00090FBF1F030307E498872784800884FF4E1
:1027E0007A7190FBF1F000EB4001C1EBC01073492E
:1027F0000988A1EBC000642190FBF1F030307449EE
:10280000C8726E480088642100E0B7E090FBF1F0E8
:1028100000EBC00101EB001068490988A1EB8000C2
:102820000A2190FBF1F03030694908736348008851
:102830000A2190FBF1F000EB800060490978A1EBE0
:1028400040003030624988730E216248FEF77AFA00
:1028500016215F48FEF776FA8FE00E215D48FEF7FD
:1028600071FA0020FDF762FD87E04F4800780128EB
:1028700004D115215848FEF765FA74E04820FFF7A7
:10288000A3FC4C20FFF7A0FC5220FFF79DFC53480F
:102890000088642190FBF1F03030514988734F4833
:1028A0000088642190FBF1F000EBC00101EB001007
:1028B0004A490988A1EB80000A2190FBF1F03030F1
:1028C0004749C873454800880A2190FBF1F000EBA6
:1028D000800042490978A1EB40003030404908743B
:1028E0003E484088642190FBF1F030303C498872CA
:1028F0003A484088642190FBF1F000EBC00101EB05
:10290000001036494988A1EB80000A2190FBF1F0C4
:1029100030303349C872314840880A2190FBF1F0C9
:1029200000EB80002D498978A1EB400030302C4924
:1029300008732A48007A88742848407AC87427485F
:10294000807A08752548C07A48752448007B8875C8
:102950002248407BC8750E212248FEF7F3F92C214E
:102960001F48FEF7EFF908E00E211A48FEF7EAF9D2
:1029700011211D48FEF7E6F900BF00BF3820FFF720
:10298000AFFD00BFFEE70000180402401808024037
:1029900023016745043C0240AB89EFCD00000020D5
:1029A00080969800070000207903002000C00008EE
:1029B0007303002075030020840300207A030020A5
:1029C0004C000020780300207C0000209F020020A3
:1029D0002402002020030020EF020020B803002082
:1029E000C3020020120300208E0200204FF040702E
:1029F000E1EE100A7047FAF9FCFB00001C2A0008FF
:102A00000000002098030000C4010008D82B000833
:102A10009803002098060000280200081012726532
:102A20007374FFFFFF6C6F642E76616C3D30300D68
:102A3000101174696D652E7478743D2200003A009F
:102A40000022205004646174133006202000002E00
:102A500003122001200A6461796F667765656B2532
:102A6000600A70616765206C6F61640C6005616F5E
:102A700066661860056D61696E0C20047365747577
:102A800040044155587511613004464D490C92314E
:102A90000C211883425418610C21A4700455534230
:102AA00030610C9230542118116771307004745FDA
:102AB0006818610C4118926D18726D307004645F73
:102AC0007948610C41188130B26430926418926484
:102AD00048927748727790619C6190355C500430E1
:102AE000302287910FE2640FC2641EC2790F6277B1
:102AF0004B5101213414044D6F6EA915AF300554AC
:102B00007565730A30055765646E0B30055468753A
:102B10007213400446726924200653617475721260
:102B2000535375367005746578745630062E302010
:102B3000464DA77116C008204E4F2044657615D02B
:102B400008436F6E6E6563742AE007504C4159204C
:102B50002015D0054155534515191C2150400476C8
:102B60006F6CFDB0062D3739644212E0044D5554A8
:102B70003511F0122FF333205F01422001537C7C8A
:102B8000090110B5193971CAB007666F6E743D340A
:102B90000EB2350E2A37B26744430930062E30563E
:102BA000202007256220084154234D560D0A074274
:102BB0004107424407424507300F4A0D0A7E020092
:102BC000EF7E030000EF01000113100405310CE358
:082BD0000F000103005A000090
:040000050800018965
:00000001FF
