:020000040800F2
:10000000180A002071020008790200087B0200082B
:100010007D0200087F020008810200080000000045
:100020000000000000000000000000008302000843
:1000300085020008000000008702000891100008F7
:100040008B0200088B0200088B0200088B0200085C
:100050008B0200088B0200088B0200088B0200084C
:100060008B0200088B0200088B020008E5030008E1
:10007000E10500088B0200088B0200088B020008D3
:100080008B0200088B0200088B0200088B0200081C
:100090008B0200088B0200088B0200088B0200080C
:1000A0008B0200088B0200088B0200088B020008FC
:1000B0008B0200088B0200088B0200088B020008EC
:1000C0008B0200088B0200088B0200088B020008DC
:1000D0008B0200088B0200088B0200088B020008CC
:1000E0008B0200088B0200088B0200088B020008BC
:1000F0008B020008B51100088B0200088B02000873
:100100008B0200088B0200088B0200088B0200089B
:100110008B0200084D2100088B0200088B020008AA
:10012000BD0800088B0200088B0200088B02000843
:100130008B02000800000000000000008B02000895
:100140008B0200088B0200088B0200088B0200085B
:100150008B0200088B0200088B0200088B0200084B
:100160008B0200088B0200088B0200088B0200083B
:100170008B0200088B020008000000000000000055
:100180008B0200088B02000800F002F800F060F813
:100190000AA090E8000C82448344AAF10107DA45E2
:1001A00001D100F055F8AFF2090EBAE80F0013F0D4
:1001B000010F18BFFB1A43F00103184790230000FA
:1001C000B023000010F8013B0A4413F0030408BFF9
:1001D00010F8014B1D1108BF10F8015B641E05D01B
:1001E00010F8016B641E01F8016BF9D1002D15D0D8
:1001F00010F8014B03F00C030C2BA1EB04040ABF15
:1002000010F8013BA4EB8314A4EB032405F10103D4
:1002100014F8016B5B1E01F8016BF9D5914238BFF0
:1002200010F8013BD1D3704700230024002500269D
:10023000103A28BF78C1FBD8520728BF30C148BF49
:100240000B6070471FB502F079F91FBD10B510BDE6
:1002500000F031F81146FFF7F5FF02F017F800F053
:100260004FF803B4FFF7F2FF03BC00F057F80000AB
:100270000948804709480047FEE7FEE7FEE7FEE73A
:10028000FEE7FEE7FEE7FEE7FEE7FEE70448054976
:10029000054A064B70470000E51000088901000878
:1002A00018040020180A0020180600201806002054
:1002B000704770477047754600F02CF8AE46050051
:1002C0006946534620F00700854618B020B5FFF771
:1002D000DDFFBDE820404FF000064FF000074FF073
:1002E00000084FF0000B21F00701AC46ACE8C00954
:1002F000ACE8C009ACE8C009ACE8C0098D4670475D
:1003000010B50446AFF300802046BDE81040FFF76B
:10031000A8BF000000487047B4030020014918201E
:10032000ABBEFEE726000200704700004FF064619C
:100330000D4AD160002100E0491C0C4A9142FBD3D8
:10034000C0EBC0010A4A1144074AC43211600721B8
:10035000054AC2F8BC101146D1F8B81041F00101AD
:10036000C2F8B8107047000000600240A08601008B
:100370004303002010B502464FF06463164CE3605F
:10038000002300E05B1C154CA342FBD3144BDA7036
:1003900099715B78124CA4782344114CE47823447F
:1003A0000F4C247923440E4C647923440C4CA479DB
:1003B00023445B4298B2030A094CE37120720A237A
:1003C000054CBC342360044BD3F8B83043F0010330
:1003D000241F236010BD00000060024040420F0057
:1003E0006D03002000B53D20764988607648C861DD
:1003F000142048610846006940F001000861734814
:100400000078022879D1724800780128FAD16E4824
:1004100000780D282FD16C4840780A28FAD16A4814
:10042000C078552828D16848007931280DD100209E
:1004300068490870097801EB410202EBC101664A84
:1004400002EB4100162100F0A1FE5F48007933283D
:1004500003D05D480079352869D101205D490870D5
:10046000097801EB410202EBC1015B4A02EB41005A
:10047000162100F08BFE5AE05348C078502827D14F
:100480005648007818B101205249087002E0012056
:10049000524908704F48007868B14E490978891C64
:1004A00001EB410202EBC1014B4A02EB4100162174
:1004B00000F06CFE3BE04749097801EB410202EB9A
:1004C000C101454A02EB4100162100F05FFE2EE01B
:1004D0003D48C078522811D13E48007838B33D4994
:1004E0000978491C01EB410202EBC1013A4A02EBD7
:1004F0004100162100F04AFE19E03AE032488078C7
:10050000492803D03048C078492810D1002031490B
:100510000870324908702F49097801EB410202EB5B
:10052000C1012D4A02EB4100162100F02FFE2648A2
:1005300000784D2845D12448407850282DD12748AF
:10054000007818B101202349087002E001202349F6
:1005500008702048007868B11E490978891C01EBB1
:10056000410202EBC1011C4A02EB4100162100F0DE
:100570000DFE26E01348806D40F0010011498865AA
:100580001449097801EB410202EBC101124A02EB66
:100590004100162100F0FAFD13E00B484078522884
:1005A0000FD10C48007860B10A490978491C01EB69
:1005B000410202EBC101084A02EB4100162100F0A2
:1005C000E5FD00BD00600240940300207703002099
:1005D00079030020800300203A02002093030020CA
:1005E00000B53D20AE4988600846006940F0010032
:1005F0000861AC4800787E287DD1AA484078FF2861
:10060000FAD1A848C078472876D1A64880796421D5
:1006100090FBF1F03030A449C874A248807964217D
:1006200090FBF1F000EBC00101EB00109D498979CE
:10063000A1EB80000A2190FBF1F030309A49087557
:10064000984880790A2190FBF1F000EB80009549F1
:100650008979A1EB40003030934948759148807901
:10066000642190FBF1F03030C1B28F4880F8331034
:100670008C488079642190FBF1F000EBC00101EB24
:10068000001088498979A1EB80000A2190FBF1F0E4
:100690003030C1B2844880F83410824880790A2111
:1006A00090FBF1F000EB80007E498979A1EB4000DE
:1006B0003030C1B27C4880F835107A4880796421A6
:1006C00090FBF1F03030C1B2774880F85310754894
:1006D0008079642190FBF1F000EBC00101EB001088
:1006E00070498979A1EB80000A2190FBF1F030304C
:1006F000C1B26D4801E0C9E011E080F854106948CA
:1007000080790A2190FBF1F000EB8000654989793E
:10071000A1EB40003030C1B2634880F85510614809
:10072000C0784C287ED15F488079642190FBF1F03D
:1007300030305D49C8735B488079642190FBF1F0EB
:1007400000EBC00101EB001056498979A1EB800054
:100750000A2190FBF1F030305349087451488079F8
:100760000A2190FBF1F000EB80004E498979A1EB62
:10077000400030304C4948744A488079642190FBED
:10078000F1F03030C1B2484880F82F1045488079E8
:10079000642190FBF1F000EBC00101EB0010414936
:1007A0008979A1EB80000A2190FBF1F03030C1B2D1
:1007B0003D4880F830103B4880790A2190FBF1F0E9
:1007C00000EB800037498979A1EB40003030C1B29D
:1007D000354880F8311033488079642190FBF1F07E
:1007E0003030C1B2304880F84F102E4880796421F3
:1007F00090FBF1F000EBC00101EB00102949897971
:10080000A1EB80000A2190FBF1F03030C1B2264804
:1008100080F85010234880790A2190FBF1F000EB1A
:10082000800000E008E01F498979A1EB40003030EA
:10083000C1B21D4880F851101A48C078422803D12F
:1008400018488079194908701648C078402803D0A4
:100850001448C0783B2802D103201449087011487D
:10086000C0783A2802D1002010490870104800785A
:10087000022814D10F480078022810D10B480078C4
:10088000032804D115210C4800F080FC07E006493C
:10089000064A127801EB4210202100F077FC00BDDF
:1008A00000600240A8030020920200208103002083
:1008B0007703002079030020F202002030B52E4893
:1008C000006840F03D002C4908602C480088C0EBCF
:1008D000401101EBC01040F6FF7190FBF1F0C4B283
:1008E00026484088C0EB401101EBC01040F6FF7174
:1008F00090FBF1F0C5B2642094FBF0F03030204959
:100900004872642094FBF0F000EBC00101EB001092
:10091000A4EB80000A2190FBF1F030301849887276
:100920000A2094FBF0F000EB8000A4EB4000303094
:100930000873642095FBF0F030300874642095FB58
:10094000F0F000EBC00101EB0010A5EB80000A21E4
:1009500090FBF1F030300A4948740A2095FBF0F022
:1009600000EB8000A5EB40003030C874192104482A
:1009700000F00CFC30BD000008640240840300203D
:100980002A03002030B503460C463A48006840F47C
:100990008070384D286007E036481430006800F455
:1009A000807008B1012030BD32481430006800F07A
:1009B00001000028F0D02F48143000682D4818306E
:1009C00000682C481030036013E02A481430006897
:1009D00000F4807028B927481430006800F4806063
:1009E00038B12448006840F40070224D286002208D
:1009F000D9E720481430006800F002000028E4D055
:100A00001C48143000681B4818300068002127E09B
:100A1000605C184D1035286013E0164814300068EB
:100A200000F4807028B913481430006800F4806026
:100A300038B11048006840F400700E4D2860032063
:100A4000B1E70C481430006800F004000028E4D03E
:100A5000084814300068074818300068481C81B204
:100A60009142D5DB0348006840F40070014D2860D6
:100A7000002098E7005400402D48006840F4807042
:100A80002B4908602B482C498860881548604FF432
:100A9000D84008614FF48010C8628320486324481E
:100AA0001438006840F48000214914390860234854
:100AB000006842F610510843204908601E484C3037
:100AC0001E49083108601E48091D086002201B49A4
:100AD000091D0860081F006840F00100091F086038
:100AE00016480838006840F03D001449083908608D
:100AF0000F48001F006840F002000D49091F086000
:100B000042F2CF000F4908604FF47A70091D086067
:100B10000C482438006840F020000A492439086055
:100B2000081F006840F00100091F086070470000BE
:100B300044380240010300180020014010640240C4
:100B400084030020280400401B48006840F4801003
:100B5000194908604FF4B6701849886042F21C00C9
:100B6000C860C020486114481038006840F4001084
:100B70001149103908601248124908610F48001DD8
:100B800088611148C861142048610846006940F036
:100B9000010008610A4830300A49B8310860074846
:100BA000001D0849C1F8C0000848006840F4005022
:100BB000064908607047000040380240005000407D
:100BC000100400080060024094030020180802404E
:100BD0006148006840F00F005F4908605F480068A6
:100BE0005F4908435D4908600846006840F04000DE
:100BF00008605C48006840F080605A4908605A48C4
:100C0000006A40F00800584908620846C06840F091
:100C10000100C8600846806840F00300886008460C
:100C2000006840F0020008604C48406A40F4EE4121
:100C30004A48416249480C30006840F4A0004749E6
:100C40000C310860081F00684849084343490831CF
:100C500008604248006840F420004049086041486C
:100C6000406A40F400213F4841624148006840F436
:100C700000603F4908603B480C30006840F08070DD
:100C800038490C3108603A481438006840F01000C8
:100C900037491439086033480830006840F0407024
:100CA00030490831086032481838006840F0300098
:100CB0002F49183908602B48006840F00070294916
:100CC00008602B482038006840F02000284920396F
:100CD00008602248406A40F04401204841620068B0
:100CE00040F420201D4908601C480C30006840F486
:100CF000A0201A490C3108601848001D006840F413
:100D000040701649091D0860081D006840F47020F5
:100D1000091D08601448006820F04040124908602E
:100D20000846C06820F04040C86008460068086077
:100D30000C4800680B4908600B48006840F470706C
:100D4000094908600846806840F470708860084669
:100D5000C068C8607047000030380240000402409C
:100D60001000005500080240000002400C00300056
:100D7000200C02400A48006840F40010084908604E
:100D80002D2008490860D2200649183108602B2020
:100D9000091D086001200349091F08607047000011
:100DA00040380240045400400848006840F4807015
:100DB0000649086042F2CF000549886240F2CF70D0
:100DC000C8620120C86008607047000040380240D7
:100DD000002000403CB50020019000904E48006883
:100DE00040F480304C49086000BF4B48006800F474
:100DF000003000900198401C0190009818B90198AB
:100E0000B0F57A7FF1D14448006800F00200002874
:100E10005ED04248006840F480704049086008464F
:100E2000006820F00F0008600846006840F00500E8
:100E300008603948083000683749083108600846BA
:100E4000006840F4A05008600846006840F4004084
:100E50000860081F006840F48000091F0860084609
:100E6000006820F03F0008600846006840F0080075
:100E700008600846006847F6C07188432649091D86
:100E800008600846006840F428500860081F0068A1
:100E900040F08070091F086000BF1F48006800F024
:100EA00000700028F9D01C480830006820F00300CA
:100EB0001949083108600846006840F002000860DF
:100EC00000BF15480830006800F00C000828F8D171
:100ED00044F2A011481EB0F1807F00D31BE0481EF1
:100EE0004FF0E022506150170F22002804DB130757
:100EF0001C0E0B4B1C5406E013071D0E094B00F093
:100F00000F04241F1D5500BF00204FF0E022906108
:100F10000720106100BF3CBD00380240003C024089
:100F200000E400E018ED00E01B48006800F4004019
:100F3000B0F5004F2FD018483038006840F080508E
:100F40001549303908601548006840F4807013492D
:100F500008601148006840F480300F490860084676
:100F6000006820F4803008600846006840F40140C2
:100F700008600846006840F00100086000BF0648AD
:100F8000006800F001000028F9D00448006820F44F
:100F9000807002490860704770380240007000405D
:100FA00000B585B020208DF8000020480078022888
:100FB00004D11F481F490978405C00E007208DF8E4
:100FC000010000208DF80200C7208DF803001A48A8
:100FD00000788DF8040090208DF8050050208DF8E1
:100FE00006008DF807007F208DF8080000208DF89E
:100FF0000900FF208DF80A0000208DF80B008DF805
:101000000C008DF80D008DF80E008DF80F008DF896
:10101000100039208DF8110000208DF812001322E5
:1010200069468820FFF7AEFC05B000BD77030020BD
:10103000462500087903002082030020104800683C
:1010400040F480200E4908604FF4B6700D490860E6
:1010500042F20800091D086080200A490C3108602E
:1010600007481038006840F400100549103908603E
:101070000548064988650348001F08667047000058
:101080004038024008480040400400080060024028
:1010900012480068401C114908600846006841F287
:1010A0008831884218D100200C4908600C4800683B
:1010B00000F0040040B10A48001D006840F48020A0
:1010C0000749091D086007E00548001D006840F059
:1010D00004000349091D08607047000088030020D0
:1010E000140402401448006840F47000124908607B
:1010F0001248006840F001001049086000200F49C4
:10110000083108600D4800680D4908400B49086027
:101110000C48091D0860081F006820F48020091F82
:101120000860002005490C3108604FF0006002495A
:10113000803908607047000088ED00E00038024008
:10114000FFFFF6FE103000241CB5044640F6354083
:1011500060430D4901EB40108000C0F3CF342012F2
:101160008DF80000E0B28DF8010010208DF802002B
:1011700012208DF8030000208DF804000522694636
:10118000C020FFF7FFFB1CBDE86E0300084A506655
:10119000D1654FF06462064B9A601A46926D42F038
:1011A00001029A6500BF024AD26D002AFBD1704746
:1011B000006002400CB50020FE490861FE4800783E
:1011C000401CFD490870FDA000680190FCA000686B
:1011D0000090FC4800788DF80100FB48006900F49D
:1011E0008060B8B3F9480078401CF8490870084698
:1011F000007814282DDBF6480078022829D1142025
:10120000087000208DF8040007208DF805000222E8
:1012100001A98820FFF7B6FBEE4908700120EC49D0
:10122000087001F009F8EA49097801EB4101EA4A3E
:1012300002EB81000C21FFF7A9FF6420DE49087052
:101240000420FFF773F8E548006840F00800E34920
:1012500008607CE1FFE7DD48007814287BDADB4892
:101260000078002877D0DA480078022874D1DC486A
:101270000078401CDA49087008460078032801DD30
:101280000020087000F0D8FF00208DF80400D54839
:10129000D3490978405C8DF80500022201A9882015
:1012A000FFF770FBCB490870CD49097801EB41018C
:1012B000CD4A02EBC1001821FFF768FFC84800784B
:1012C00030B1012849D0022857D0032863D15DE00E
:1012D000C64800884FF47A7190FBF1F03030C44971
:1012E0008872C24800884FF47A7190FBF1F000EBED
:1012F0004001C1EBC010BD490988A1EBC0006421C9
:1013000090FBF1F03030BA49C872B84800886421C7
:1013100090FBF1F000EBC00101EB0010B34909882C
:10132000A1EB80000A2190FBF1F03030B049087346
:10133000AE4800880A2190FBF1F000EB8000AB4939
:101340000978A1EB40003030A94988731621A848DC
:10135000FFF71CFF1FE097E01EE00020FEF7E6FF0E
:10136000A449097801EB410202EBC101A24A02EB58
:1013700041001621FFF70AFF0DE000214720FEF78C
:10138000F9FF00214C20FEF7F5FF04E011219B48F6
:10139000FFF7FCFE00BF00BF8D480078012873D125
:1013A00002208B49087000F047FF8949097801EB5A
:1013B0004101894A02EB81000C21FFF7E7FE002082
:1013C0008DF80400874886490978405C8DF805004F
:1013D000022201A98820FFF7D5FA7E4908708049CA
:1013E000097801EB4101804A02EBC1001821FFF7A7
:1013F000CDFE7B48007820B1012846D0022859D183
:1014000053E07A4800884FF47A7190FBF1F0303065
:1014100077498872754800884FF47A7190FBF1F033
:1014200000EB4001C1EBC01070490988A1EBC0007E
:10143000642190FBF1F030306D49C8726B48008830
:10144000642190FBF1F000EBC00101EB0010674953
:101450000988A1EB80000A2190FBF1F0303064494B
:101460000873624800880A2190FBF1F000EB8000CD
:101470005E490978A1EB400030305D498873162140
:101480005B48FFF783FE15E05EE00020FEF74EFFAD
:101490005849097801EB410202EBC101564A02EBBF
:1014A00041001621FFF772FE04E000214C20FEF7F8
:1014B00061FF00BF00BF434890F90000002801DD34
:1014C0002B2000E02D204E4948723E4890F9000044
:1014D000002806DD3B4890F900000A2190FBF1F05E
:1014E00006E0384890F9000040420A2190FBF1F0F4
:1014F000303043498872334890F9000000280DDDF0
:10150000304890F900000A2190FBF1F000EB8000D8
:101510002C4991F90010A1EB40000EE0294890F908
:10152000000040420A2190FBF1F000EB80002549C9
:1015300091F900104942A1EB400030303049C872A7
:1015400012212F48FFF722FE0020204908701E4874
:10155000006900F4805000287DD01D4800780228E2
:1015600079D11F48007820B1012875D0022874D1A4
:1015700086E01E480088401C1C49088008460088F8
:10158000B0F5876F02DB40F25230088017480088C0
:10159000FFF7DAFD00F050FE144800884FF47A712E
:1015A00090FBF1F0303012498872104800884FF4F7
:1015B0007A7127E00020004092030020000700001D
:1015C0000300000082030020000002407B03002093
:1015D000770300207C0300204C0000201804024008
:1015E00079030020462500087C0000207E030020AF
:1015F00024020020800300203A020020070300207C
:101600001803002090FBF1F000EB4001C1EBC0108B
:10161000FE490988A1EBC000642190FBF1F0303055
:10162000FB49C872F9480088642190FBF1F000EB97
:10163000C00101EB0010F5490988A1EB80000A21E7
:1016400090FBF1F03030F2490873F04800880A212D
:1016500090FBF1F002E021E00EE01EE000EB8000E4
:10166000EA490978A1EB40003030E9498873162136
:10167000E748FFF78BFD10E00220FEF757FE0CE075
:1016800000210120FEF776FE00214C20FEF772FEBD
:1016900000214220FEF76EFE00BF00BFDD4800695A
:1016A00000F4004098B3DC48007802282FD1DB48D2
:1016B0000078012802D0022828D103E00120FEF79B
:1016C00035FE23E0D648007803281AD0D4480078A5
:1016D000012803D100210E20FEF74CFED0480078EF
:1016E00018B901211820FEF745FECD4800780228E0
:1016F00003D100210D20FEF73DFE00214C20FEF716
:1017000039FE00214220FEF735FE00BF00BFC14870
:10171000006900F40060002875D0BF4800780228F6
:1017200071D1BE48007820B101285AD0022869D171
:101730005BE0B6480088401EB4490880084600882F
:1017400040F25231884203DC4FF48760AF49088091
:10175000AE480088FFF7F8FC00F06EFDAB4800884B
:101760004FF47A7190FBF1F03030A9498872A748A4
:1017700000884FF47A7190FBF1F000EB4001C1EB6F
:10178000C010A2490988A1EBC000642190FBF1F0D0
:1017900030309F49C8729D480088642190FBF1F069
:1017A00000EBC00101EB001098490988A1EB800013
:1017B0000A2190FBF1F03030954908739348008876
:1017C0000A2190FBF1F000EB800090490978A1EB31
:1017D000400030308E49887316218D48FFF7D6FCC3
:1017E00010E00320FEF7A2FD0CE000210220FEF72E
:1017F000C1FD00214C20FEF7BDFD00214220FEF777
:10180000B9FD00BF00BF8748006800F48060E0B306
:1018100085480078401C40B283490870084690F91A
:1018200000000F2801DD0F20087000F005FD7E4844
:1018300090F90000002803DD7B4890F9000004E0E7
:10184000794890F90000C0F11000C0B28DF8010095
:10185000022269468820FFF795F87449087072489B
:1018600090F90000002801DD2B2000E02D207049B8
:1018700048726D4890F90000002807DD6A4890F929
:1018800000000A2190FBF1F007E032E0664890F991
:10189000000040420A2190FBF1F030306449887228
:1018A000614890F9000000280DDD5F4890F90000C4
:1018B0000A2190FBF1F000EB80005B4991F90010E8
:1018C000A1EB40000EE0584890F9000040420A2188
:1018D00090FBF1F000EB8000534991F90010494270
:1018E000A1EB400030305249C87212215048FFF736
:1018F0004DFC4C48006800F4006070B34A48007822
:10190000401E40B248490870084690F9000010F1A6
:101910004F0F01DAB120087000F08EFC424890F9B8
:101920000000002803DD404890F9000004E03E4834
:1019300090F90000C0F11000C0B28DF80100022241
:1019400069468820FFF71EF838490870364890F934
:101950000000002802DD2B2001E041E02D20344969
:101960004872314890F90000002806DD2E4890F9B1
:1019700000000A2190FBF1F006E02B4890F90000EE
:1019800040420A2190FBF1F0303029498872264804
:1019900090F9000000280DDD234890F900000A218D
:1019A00090FBF1F000EB80001F4991F90010A1EBD2
:1019B00040000EE01C4890F9000040420A2190FBD4
:1019C000F1F000EB8000184991F900104942A1EBB9
:1019D000400030301649C87212211548FFF7D6FB77
:1019E0001048006800F0020018B100214220FEF704
:1019F000C1FC0848006900F40070002871D0064856
:101A0000007803286DD10B48007815E07E03002094
:101A10002402002000000240770300207903002008
:101A20008103002010080240820300207C03002074
:101A3000180300207803002007287CD2DFE800F09C
:101A4000042AA5527CCEED00FD480078401CFC49DC
:101A5000087008460078182801DB00200870F84854
:101A600000780A2190FBF1F03030F6494872F448D2
:101A700000780A2190FBF1F000EB8000F049097832
:101A8000A1EB40003030EF4988720F21ED48FFF79D
:101A90007DFB6EE1EC480078401CEB49087008467D
:101AA00000783C2801DB00200870E74800780A2114
:101AB00090FBF1F03030E3490876E34800780A21E2
:101AC00090FBF1F000EB8000DF490978A1EB4000CA
:101AD0003030DC4948760F21DA480F30FFF756FBEB
:101AE00047E147E1D9480078401CD84908700846CA
:101AF00000780D2801DB01200870D44800780A2105
:101B000090FBF1F03030CF4981F82700CF480078C2
:101B10000A2190FBF1F000EB8000CC490978A1EBA1
:101B200040003030C74981F828000F21C5481E30D9
:101B3000FFF72CFB1DE11BE1C5480078401CC449A0
:101B4000087008460078202801DB01200870C04892
:101B500000780A2190FBF1F03030BA4981F8360064
:101B6000BB4800780A2190FBF1F000EB8000B849F7
:101B70000978A1EB40003030B24981F837000F21DD
:101B8000B0482D30FFF702FBF3E0B2480078401C6C
:101B9000B0490870084600781E2801DB1220087042
:101BA000AC4800780A2190FBF1F03030A54981F86B
:101BB0004500A84800780A2190FBF1F000EB800076
:101BC000A4490978A1EB400030309E4981F84600D5
:101BD0000F219C483C30FFF7D9FACAE09E480078B4
:101BE000401C9D49087008460078082801DB012048
:101BF000087099480078401E00EBC00097490144E6
:101C000090480A6842654A688265097A80F85C10E3
:101C100017214B30FFF7BAFAABE0914800789149B1
:101C200008709148006840F080508F4908608F48E4
:101C3000006840F480708D490860CA208C490860B3
:101C4000532008608A481838006840F080008849AE
:101C50001839086000BF86481838006800F0400056
:101C60000028F8D0784800780A2190FBF1F00103B1
:101C7000754800780A2290FBF2F000EB8000724A6F
:101C80001278A2EB400041EA00206D4909780A224F
:101C900091FBF2F140EA01506949097891FBF2F1B8
:101CA00001EB8101664A1278A2EB410140EA014052
:101CB0006F4924390860664800780A2190FBF1F0EA
:101CC00000EB800062490978A1EB40006049097887
:101CD0000A2291FBF2F140EA01105C49097891FB7C
:101CE000F2F140EA01315948007890FBF2F000EB44
:101CF0008000564A1278A2EB400041EA0020554984
:101D000009780A2291FBF2F140EA0151514800782A
:101D100090FBF2F000EB80004E4A1278A2EB4000FC
:101D200041EA00404C49097840EA413050492039A5
:101D300008604F481838006820F080004C49183976
:101D40000860FF204A4908604848006820F4807015
:101D5000464908604349097801EB4101454A02EBD5
:101D600081000C21FFF712FA64204349087000E05B
:101D700000BF00BF4148006900F4807000285ED0B9
:101D800038480078012804D0022803D003287BD1EA
:101D900020E100BF33480078314908700320314901
:101DA0000870097801EB4101324A02EB81000C21F5
:101DB000FFF7ECF9002032490870097801EB410186
:101DC000304A02EBC1001821FFF7E0F92848243817
:101DD0000068C0F30340264924390968C1F3015162
:101DE00001EB810100EB41001549087020482438BF
:101DF0000068C0F303201E4924390968C1F3023189
:101E000001EB810100EB41000F49087018482038B0
:101E1000006800F00F00164920390968C1F301116C
:101E200001EB810100EB410009490870104820389E
:101E30000068C0F303200E492039096825E0E1E07D
:101E40008C030020840100208D0300208E030020DD
:101E50008F0300209103002090030020E501002063
:101E60007A030020770300204038024000700040D1
:101E7000242800404C000020920300200000024073
:101E800078030020DC000020BAE0C1F3003101EB50
:101E9000810100EB41009C4908709C480068C0F338
:101EA00003409A490968C1F3035101EB810100EB3A
:101EB00041009749087095480068C0F34230954941
:101EC0000870954800780A2190FBF1F03030934972
:101ED0004872914800780A2190FBF1F000EB8000F5
:101EE0008D490978A1EB400030308C4988728C48CC
:101EF00000780A2190FBF1F0303088490876884854
:101F000000780A2190FBF1F000EB80008449097809
:101F1000A1EB40003030814948767B4800780A21A7
:101F200090FBF1F030307D4981F827007648007849
:101F30000A2190FBF1F000EB800073490978A1EBD6
:101F400040003030754981F82800764800780A2131
:101F500090FBF1F03030714981F83600714800781B
:101F60000A2190FBF1F000EB80006E490978A1EBAB
:101F700040003030694981F83700654800780A210F
:101F800090FBF1F03030654981F8450060480078F9
:101F90000A2190FBF1F000EB80005D490978A1EB8C
:101FA000400030305D4981F8460058480068C0F371
:101FB0004230401E00EBC0005B49014457480A68AC
:101FC00042654A688265097A80F85C106121FFF7F2
:101FD000DDF816E055480078401C54490870084662
:101FE0000078062801DD002008705049097801EBCF
:101FF00041014F4A02EBC1001821FFF7C7F800E08A
:1020000000BF00BF4B480078022803D04948007841
:10201000012877D148480078642873DB00204649BE
:1020200008703A48001F0068C0F30320303043496D
:1020300088733648001F0068C0F3023030304873A0
:102040003248001F0068C0F303403030C8722F4888
:10205000001F0068C0F30150303088722B480068C0
:1020600000F00F00303081F8200028480068C0F3ED
:1020700001103030C87725480068C0F303203030A5
:1020800081F8230021480068C0F30030303081F827
:1020900022001E480068C0F30340303081F826005B
:1020A0001A480068C0F30350303081F82500174803
:1020B0000068C0F34230401E00EBC0001A490844DB
:1020C0001E492B3102680A6042684A60007A087231
:1020D00038211A48FFF75AF819480078012805D125
:1020E0001848007810B90020FEF720F9144800784D
:1020F000022807D114480078032803D10021422088
:10210000FEF738F90CBD00008E03002004280040C3
:1021100091030020900300208C0300208401002004
:102120008D0300208F030020E501002078030020AC
:10213000DC00002077030020920300201400002020
:1021400079030020800300208103002008B50A489D
:10215000006800F0100068B1074800680090064869
:102160004068009000BF0548006920F00100034965
:10217000086100BF08BD0000005000400060024040
:10218000002809DB00F01F02012191404209920062
:1021900002F1E022C2F800117047000000B50246CB
:1021A0000D48006840F002000B49086008460068CE
:1021B00040EAC20008600846006840F480300860C9
:1021C00005E00548006820F002000349086000F0BF
:1021D00009F80028F5D000BD103C0240014608680F
:1021E0007047000002480068012121EA1040704752
:1021F0000C3C024000B502460B460E48006840F019
:1022000001000C4908600846006840F4007008604E
:1022100000BFFFF7E7FF0028FBD0136000BFFFF708
:10222000E1FF0028FBD00348006820F001000149CD
:10223000086000BD103C024000B50320FFF7AEFF70
:102240000D48007800060D4A127840EA02400C4A18
:1022500092F900204FF47F4303EA022240EA020190
:102260000848FFF7C7FF0848008801040548001D1B
:10227000FFF7C0FF00BD00007703002079030020B6
:102280008203002000C000087E030020FEF7A2FDAC
:10229000FEF79EFC9748006840F0080095490860EA
:1022A00095489649086096480860FEF7E5FBFEF7FA
:1022B000C5FE07219348FEF769FF002000E0401C9F
:1022C00091498842FBD332209049087235204872E8
:1022D0000D218E48FEF75AFFFEF726FE35208B496A
:1022E0000872302048720D218848FEF74FFFFEF734
:1022F0005BFD372085490872352048720D218348DF
:10230000FEF744FFFEF736FDFEF71EFC8048FFF7A0
:1023100065FF000E7F4908707D48FFF75FFF00F4FE
:102320007F00000C7C4908707948FFF757FF000ACE
:1023300040B27A4908707648001DFFF74FFF000C45
:10234000774908807349097801EB4101754A02EB2E
:1023500081000C21FEF71AFFFEF722FE7249087079
:102360006F480088FEF7F0FE6F49087069480078F2
:1023700002287DD16849097801EB41016B4A02EBE3
:10238000C1001821FEF702FF644890F90000002800
:1023900001DD2B2000E02D20654948725F4890F94F
:1023A0000000002806DD5D4890F900000A2190FB3E
:1023B000F1F006E0594890F9000040420A2190FBF4
:1023C000F1F030305A498872544890F900000028E2
:1023D0000DDD524890F900000A2190FBF1F000EB6E
:1023E00080004E4991F90010A1EB40000EE04B48EF
:1023F00090F9000040420A2190FBF1F000EB8000D0
:10240000464991F900104942A1EB4000303048495B
:10241000C87212214648FEF7B9FE3F48007830B135
:10242000012849D002284BD0032853D14DE03C4825
:1024300000884FF47A7190FBF1F030303D4988729A
:10244000374800884FF47A7190FBF1F000EB4001BF
:10245000C1EBC01032490988A1EBC000642190FB98
:10246000F1F030303349C8722D480088642100E013
:1024700031E090FBF1F000EBC00101EB00102849C6
:102480000988A1EB80000A2190FBF1F03030294946
:102490000873234800880A2190FBF1F000EB8000CC
:1024A0001F490978A1EB400030302249887316217A
:1024B0002048FEF76BFE0DE00020FDF737FF09E036
:1024C00000214220FDF756FF04E011211A48FEF7D3
:1024D0005DFE00BF00BF2D20FFF752FE0B20FFF76F
:1024E0004FFE3820FFF74CFE3520FFF749FE00BFB6
:1024F000FEE700001804024023016745043C024047
:10250000AB89EFCD000000208096980007000020E6
:1025100000C0000877030020790300208203002018
:102520007E0300204C0000207C0300207C00002063
:102530001803002024020020070300204FF0407001
:10254000E1EE100A7047FAF9FCFB00006C25000868
:102550000000002094030000C401000820270008A8
:1025600094030020840600002802000810127265FF
:102570007374FFFFFF6C6F642E76616C3D30300D1D
:10258000101174696D652E7478743D2200003A0054
:102590000022205004646174133006202000002EB5
:1025A00003122001200A6461796F667765656B25E7
:1025B000600A70616765206C6F61640C6005616F13
:1025C00066661860056D61696E0C2004736574752C
:1025D00040044155587511613004464D490C923103
:1025E0000C211883425418610C21A47004555342E5
:1025F00030610C9230542118116771307004745F8F
:102600006818610C4118926D18726D307004645F27
:102610007948610C41188130B26430926418926438
:1026200048927748727790619C6190355C50043095
:10263000302287910FE2640FC2641EC2790F627765
:102640004B5101213414044D6F6EA915AF30055460
:102650007565730A30055765646E0B3005546875EF
:102660007213400446726924200653617475721215
:10267000535375367005746578745630062E3020C5
:10268000464DA77116C0094E4F20434F4E4E20169F
:102690002113D004454354160008102020504C410B
:1026A000592016D00541555345421006736F6E6789
:1026B00020C4122FC700061A2053544F5020315700
:1026C000011A202161F1B81A203CC1B71995218661
:1026D0004404766F6C7630052D37396423640441E9
:1026E00044430530062E3056202007311920075468
:1026F000234D560D0A07424107424407424507321F
:102700004A1C3009435A0D0A7EFF06000143EF01BF
:1027100008C007100400030F00010300640000005C
:040000050800018965
:00000001FF
