:020000040800F2
:100000001009002071020008790200087B02000834
:100010007D0200087F020008810200080000000045
:100020000000000000000000000000008302000843
:10003000850200080000000087020008C90A0008C5
:100040008B0200088B0200088B0200088B0200085C
:100050008B0200088B0200088B0200088B0200084C
:100060008B0200088B0200088B0200088B0200083C
:10007000510300088B020008510500088B0200089C
:100080008B0200088B0200088B0200088B0200081C
:100090008B0200088B0200088B0200088B0200080C
:1000A0008B0200088B0200088B0200088B020008FC
:1000B0008B0200088B0200088B0200088B020008EC
:1000C0008B0200088B0200088B0200088B020008DC
:1000D0008B0200088B0200088B020008E117000861
:1000E0008B0200088B0200088B0200088B020008BC
:1000F0008B020008790B00088B0200088B020008B5
:100100008B0200088B0200088B0200088B0200089B
:100110008B0200088B0200088B0200088B0200088B
:100120008B0200088B0200088B0200088B0200087B
:100130008B02000800000000000000008B02000895
:100140008B0200088B0200088B0200088B0200085B
:100150008B0200088B0200088B0200088B0200084B
:100160008B0200088B0200088B0200088B0200083B
:100170008B0200088B020008000000000000000055
:100180008B0200088B02000800F002F800F060F813
:100190000AA090E8000C82448344AAF10107DA45E2
:1001A00001D100F055F8AFF2090EBAE80F0013F0D4
:1001B000010F18BFFB1A43F0010318472C19000068
:1001C0004C19000010F8013B0A4413F0030408BF67
:1001D00010F8014B1D1108BF10F8015B641E05D01B
:1001E00010F8016B641E01F8016BF9D1002D15D0D8
:1001F00010F8014B03F00C030C2BA1EB04040ABF15
:1002000010F8013BA4EB8314A4EB032405F10103D4
:1002100014F8016B5B1E01F8016BF9D5914238BFF0
:1002200010F8013BD1D3704700230024002500269D
:10023000103A28BF78C1FBD8520728BF30C148BF49
:100240000B6070471FB501F047FC1FBD10B510BD16
:1002500000F031F81146FFF7F5FF01F055FB00F013
:100260004FF803B4FFF7F2FF03BC00F057F80000AB
:100270000948804709480047FEE7FEE7FEE7FEE73A
:10028000FEE7FEE7FEE7FEE7FEE7FEE70448054976
:10029000054A064B70470000ED0A00088901000876
:1002A0001003002010090020100500201005002078
:1002B000704770477047754600F02CF8AE46050051
:1002C0006946534620F00700854618B020B5FFF771
:1002D000DDFFBDE820404FF000064FF000074FF073
:1002E00000084FF0000B21F00701AC46ACE8C00954
:1002F000ACE8C009ACE8C009ACE8C0098D4670475D
:1003000010B50446AFF300802046BDE81040FFF76B
:10031000A8BF000000487047AC0200200149182027
:10032000ABBEFEE72600020070470000C0EBC00134
:10033000054A1144054A51660721D1651146896D68
:1003400041F00101916570476102002000600240A8
:1003500000B54FF47460774988607748486314208B
:10036000C8620846806A40F00100886273480078DD
:10037000022879D1724800780128FAD16E480078B5
:100380000D282FD16C4840780A28FAD16A48C078E5
:10039000552828D16848007931280DD100206949B5
:1003A0000870097801EB410202EBC101664A02EBD9
:1003B0004100162100F0CCFB5F480079332803D0C0
:1003C0005D480079352869D101205E4908700978B7
:1003D00001EB410202EBC1015B4A02EB4100162135
:1003E00000F0B6FB5AE05448C078502827D157484F
:1003F000007818B101205349087002E001205349E8
:1004000008705048007868B14E490978891C01EBA2
:10041000410202EBC1014C4A02EB4100162100F0FF
:1004200097FB3BE04749097801EB410202EBC10130
:10043000454A02EB4100162100F08AFB2EE03E48BF
:10044000C078522811D13F48007838B33D49097827
:10045000491C01EB410202EBC1013B4A02EB4100A6
:10046000162100F075FB19E03AE0334880784928FE
:1004700003D03148C078492810D100203149087094
:10048000324908702F49097801EB410202EBC101A2
:100490002D4A02EB4100162100F05AFB2648007855
:1004A0004D2845D12448407850282DD12748007840
:1004B00018B101202349087002E001202349087087
:1004C0002048007868B11F490978891C01EB410276
:1004D00002EBC1011C4A02EB4100162100F038FB7F
:1004E00026E01448806D40F00100124988651549E6
:1004F000097801EB410202EBC101134A02EB410012
:10050000162100F025FB13E00B48407852280FD14C
:100510000C48007860B10B490978491C01EB410295
:1005200002EBC101084A02EB4100162100F010FB6A
:1005300000BD000000600240980200205702002029
:100540005902002060020020FF01002097020020D5
:100550004FF06460034988600846806D20F0010018
:10056000886570470060024030B503460C463A4843
:10057000006840F48070384D286007E03648143039
:10058000006800F4807008B1012030BD324814309A
:10059000006800F001000028F0D02F4814300068F7
:1005A0002D48183000682C481030036013E02A48AA
:1005B0001430006800F4807028B9274814300068AF
:1005C00000F4806038B12448006840F40070224D87
:1005D00028600220D9E720481430006800F00200AB
:1005E0000028E4D01C48143000681B48183000680C
:1005F000002127E0605C184D1035286013E0164894
:100600001430006800F4807028B913481430006872
:1006100000F4806038B11048006840F400700E4D5E
:1006200028600320B1E70C481430006800F0040093
:100630000028E4D0084814300068074818300068E3
:10064000481C81B29142D5DB0348006840F4007039
:10065000014D2860002098E70054004017480068CA
:1006600040F48020154908604FF4B67014490860C2
:1006700042F21C00091D0860C02011490C310860BD
:100680000E481038006840F400100C49103908601A
:100690000C480D4988620A48001F08630B484863EC
:1006A0001420C8620846806A40F00100886205484C
:1006B000403088650248001F086670474038024095
:1006C00008480040104400080060024098020020E2
:1006D0002D48006840F007002B4908602B48006A4D
:1006E00040F00800294908620846C06840F001004F
:1006F000C8600846806840F00300886008460068CB
:1007000040F0020008602248406A40F4EE41204870
:1007100041621F480C30006840F4A0001C490C31B5
:100720000860081F00681B49084319490831086020
:100730001748006840F42000154908600846406AE0
:1007400040F0440112484162006840F42020104902
:1007500008600F480C30006840F4A0200C490C31B0
:1007600008600B48001D006840F440700849091DEE
:100770000860081D006840F47020091D08600648E4
:1007800000680549086070473038024000000240A8
:10079000000402400C003000000802400A480068D3
:1007A00040F40010084908602D2008490860D22054
:1007B0000649183108602B20091D086001200349F3
:1007C000091F086070470000403802400454004090
:1007D0000848006840F480700649086042F2CF0083
:1007E0000549886240F2CF70C8620120C860086085
:1007F0007047000040380240002000403CB5002017
:10080000019000904648006840F0010044490860AB
:100810000846006800F0020000285CD041480068EB
:1008200040F480703F4908600846006820F00F00DF
:1008300008600846006840F0050008603848083045
:1008400000683749083108600846006840F4A05045
:1008500008600846006840F400400860081F00680F
:10086000091F08600846006820F03F00086008463D
:10087000006840F0080008600846006847F6C0714C
:1008800088432749091D08600846006840F428503D
:100890000860081F006840F08070091F086000BFF2
:1008A0001F48006800F000700028F9D01C4808308C
:1008B000006820F003001A49083108600846006803
:1008C00040F00200086000BF15480830006800F0E2
:1008D0000C000828F8D144F2A011481EB0F1807F26
:1008E00000D31BE0481E4FF0E022506150170F224A
:1008F000002804DB13071C0E0B4B1C5406E01307E7
:100900001D0E0A4B00F00F04241F1D5500BF0020D0
:100910004FF0E02290610720106100BF3CBD000055
:1009200000380240003C024000E400E018ED00E026
:100930001B48006800F40040B0F5004F2FD0184865
:100940003038006840F0805015493039086015484B
:10095000006840F48070134908601148006840F452
:1009600080300F4908600846006820F48030086035
:100970000846006840F4014008600846006840F0FE
:100980000100086000BF0648006800F00100002870
:10099000F9D00448006820F480700249086070476C
:1009A000703802400070004000B585B020208DF8FE
:1009B00000001D481D490978405C8DF801000020A9
:1009C0008DF80200C7208DF8030010208DF8040078
:1009D00090208DF8050050208DF806008DF8070056
:1009E00005208DF8080000208DF80900FF208DF803
:1009F0000A0000208DF80B008DF80C008DF80D001A
:100A00008DF80E008DF80F008DF8100039208DF84C
:100A1000110000208DF81200132269468820FFF78C
:100A2000A3FD05B000BD0000E21A00085902002035
:100A30001048006840F400200E4908604FF4B6707A
:100A40000D49086042F20800091D086080200A492B
:100A50000C31086007481038006840F40010054960
:100A6000103908600548064908670348001F886771
:100A70007047000040380240084C00404004000825
:100A8000006002401CB5044640F6354060430D4905
:100A900001EB40108000C0F3CF3420128DF800002D
:100AA000E0B28DF8010010208DF802008DF80300EF
:100AB00000208DF8040005226946C020FFF754FD90
:100AC0001CBD0000E86E030007480068401C064992
:100AD00008600846006841F28831884202D100204F
:100AE00001490860704700008C020020144800682B
:100AF00040F47000124908601248006840F001009C
:100B00001049086000200F49083108600D4800684E
:100B10000D4908400B4908600C48091D0860081F72
:100B2000006820F48020091F0860002005490C316E
:100B300008604FF00060024980390860704700008B
:100B400088ED00E000380240FFFFF6FE1030002480
:100B5000084AD06751673922064BDA601A46126F8D
:100B600042F001021A6700BF024A526F002AFBD10D
:100B7000704700000060024008B50020FE4908618F
:100B8000FE480078401CFD490870FD48006800F0F0
:100B9000200088B3FB480078401CFA4908700846DA
:100BA0000078142827DBF8480078022823D1142085
:100BB000087000208DF8000007208DF80100022247
:100BC00069468820FFF7D0FCF04908700120EE4903
:100BD000087000F07BFEEC49097801EB4101EC4A1A
:100BE00002EB81000C21FFF7B3FF6420E34908709A
:100BF0000420FFF79BFB1AE1FFE7E2480078142886
:100C000077DAE0480078002873D0DF4800780228BF
:100C100070D1E0480078401CDE4908700846007832
:100C2000032801DD0020087000F050FE00208DF840
:100C30000000D948D7490978405C8DF801000222AC
:100C400069468820FFF790FCD0490870D14909789F
:100C500001EB4101D14A02EBC1001821FFF778FFF7
:100C6000CC48007810B1012855D144E0CC48008828
:100C70004FF47A7190FBF1F03030CA498872C8485D
:100C800000884FF47A7190FBF1F000EB4001C1EB6A
:100C9000C010C3490988A1EBC000642190FBF1F0AA
:100CA0003030C049C872BE480088642190FBF1F022
:100CB00000EBC00101EB0010B9490988A1EB8000ED
:100CC0000A2190FBF1F03030B6490873B44800882F
:100CD0000A2190FBF1F000EB8000B1490978A1EB0B
:100CE00040003030AF4988731621AE48FFF730FF1F
:100CF00011E087E010E00020FFF718FBAA4909780F
:100D000001EB410202EBC101A84A02EB41001621AE
:100D1000FFF71EFF00BF00BF9B480078012871D17C
:100D200002209949087000F0D1FD9749097801EB3C
:100D30004101974A02EB81000C21FFF709FF0020D7
:100D40008DF80000944893490978405C8DF80100C3
:100D5000022269468820FFF707FC8C4908708D49FC
:100D6000097801EB41018D4A02EBC1001821FFF720
:100D7000EFFE8848007810B1012854D143E088483C
:100D800000884FF47A7190FBF1F030308549887219
:100D9000834800884FF47A7190FBF1F000EB40013A
:100DA000C1EBC0107E490988A1EBC000642190FB13
:100DB000F1F030307B49C87279480088642190FB9B
:100DC000F1F000EBC00101EB001075490988A1EBBF
:100DD00080000A2190FBF1F03030724908737048AE
:100DE00000880A2190FBF1F000EB80006C49097843
:100DF000A1EB400030306B49887316216948FFF73A
:100E0000A7FE10E010E00020FFF790FA664909788D
:100E100001EB410202EBC101644A02EB41001621E1
:100E2000FFF796FE00BF00BF0020564908705448E7
:100E3000006800F01000002864D0534800780228B1
:100E400060D15448007810B101285AD155E0544877
:100E50000088401C5249088008460088B0F5876F1A
:100E600002DB40F2523008804D480088FFF70AFE4E
:100E700000F02CFD4A4800884FF47A7190FBF1F0A5
:100E8000303048498872464800884FF47A7190FBA8
:100E9000F1F000EB4001C1EBC01041490988A1EB22
:100EA000C000642190FBF1F030303E49C8723C48EC
:100EB0000088642190FBF1F000EBC00101EB001011
:100EC00037490988A1EB80000A2190FBF1F030300E
:100ED00034490873324800880A2190FBF1F000EB96
:100EE00080002F490978A1EB400030302D498873EC
:100EF00016212C48FFF72CFE03E00220FFF716FA1C
:100F000000BF00BF1E48006800F0080058B11E482E
:100F10000078022807D11F480078012802D1FFF786
:100F200005FA00BF00BF1648006800F00400002862
:100F30007DD015480078022879D11648007810B184
:100F400001287DD178E016480088401E14490880A9
:100F50000846008840F25231884203DC4FF4876033
:100F60000F4908800E480088FFF78CFD00F0AEFCAA
:100F70000B4800881CE00000002000409602002082
:100F8000100802405B020020570200205C02002093
:100F90004100002059020020E21A000871000020E0
:100FA0005E020020E901002060020020FF01002015
:100FB0004FF47A7190FBF1F03030FE498872FE48B0
:100FC00000884FF47A7190FBF1F000EB4001C1EB27
:100FD000C010F9490988A1EBC000642190FBF1F031
:100FE0003030F449C872F4480088642190FBF1F075
:100FF00000EBC00101EB0010EF490988A1EB800074
:101000000A2190FBF1F03030EA490873EA48008881
:101010000A2190FBF1F000EB8000E7490978A1EB91
:1010200040003030E34988731621E24801E008E0CF
:1010300006E0FFF78DFD03E00320FFF777F900BF1F
:1010400000BFDE48006800F4807000287ED0DC48D5
:10105000007803287AD1DB480078072877D2DFE8C8
:1010600000F0042AA6517DCFFD00D7480078401C2F
:10107000D549087008460078182801DB0020087060
:10108000D14800780A2190FBF1F03030CF49487206
:10109000CD4800780A2190FBF1F000EB8000CA49AE
:1010A0000978A1EB40003030C84988720F21C74849
:1010B000FFF74EFDA9E1C6480078401CC4490870FE
:1010C000084600783C2801DB00200870C048007802
:1010D0000A2190FBF1F03030BC490876BC4800781A
:1010E0000A2190FBF1F000EB8000B9490978A1EBEF
:1010F00040003030B54948760F21B4480F30FFF733
:1011000027FD82E1B3480078401CB24908700846C8
:1011100000780D2801DB01200870AE4800780A2114
:1011200090FBF1F03030A94981F82700A9480078F8
:101130000A2190FBF1F000EB8000A6490978A1EBB1
:1011400040003030A14981F8280001E05EE15BE118
:101150000F219E481E30FFF7FBFC56E19E480078A9
:10116000401C9D49087008460078202801DB0120BA
:101170000870994800780A2190FBF1F030309349CB
:1011800081F83600944800780A2190FBF1F000EBDA
:10119000800091490978A1EB400030308B4981F8FB
:1011A00037000F2189482D30FFF7D2FC2DE18B4805
:1011B0000078401C89490870084600781E2801DB29
:1011C00012200870854800780A2190FBF1F0303039
:1011D0007E4981F84500814800780A2190FBF1F0B2
:1011E00000EB80007D490978A1EB40003030774961
:1011F00081F846000F2175483C30FFF7A9FC04E157
:1012000077480078401C764908700846007808281E
:1012100001DB0120087072480078401E00EB40009E
:101220007049085C694981F854006D480078401E97
:1012300000EB40006B4908444078644981F8550050
:1012400067480078401E00EB4000664908448078FB
:101250005E4981F8560010215C4800E003E04B3005
:10126000FFF776FCD1E060480078554908705F4888
:10127000006840F080505D4908605D48006840F4B7
:1012800080705B490860CA205A4908605320086092
:1012900058481838006840F08000564918390860EE
:1012A00000BF54481838006800F040000028F8D00B
:1012B000474800780A2190FBF1F00003444909787F
:1012C0000A2291FBF2F101EB8101414A1278A2EB73
:1012D000410140EA01203C4909780A2291FBF2F1E0
:1012E00040EA01503849097891FBF2F101EB8101A4
:1012F000354A1278A2EB410140EA01403D492439C8
:101300000860354800780A2190FBF1F000EB80007E
:1013100031490978A1EB40002F4909780A2291FB55
:10132000F2F140EA01102B49097891FBF2F140EA11
:1013300001312848007890FBF2F000EB8000254A4C
:101340001278A2EB400041EA0020244909780A22E1
:1013500091FBF2F140EA01502049097891FBF2F14A
:1013600001EB81011D4A1278A2EB410140EA0140E4
:101370001B49097840EA41301E49203908601D4860
:101380001838006820F080001A4918390860FF20DA
:10139000184908601648006820F4807014490860F5
:1013A0000749097801EB4101134A02EB81000C2146
:1013B00024E00000E90100205E0200201008024045
:1013C00057020020580200209002002079010020DE
:1013D000910200209202002093020020950200203A
:1013E00094020020D40100205A020020403802401C
:1013F000007000402428004041000020FFF7A8FBB7
:101400006420E449087000E000BF00BFE2480068C3
:1014100000F4007000287CD0E0480078012804D057
:10142000022803D0032875D10BE100BFDB48007808
:10143000DB4908700320D9490870097801EB4101A4
:10144000D84A02EB81000C21FFF782FB0020D6492D
:101450000870097801EB4101D44A02EBC100182160
:10146000FFF776FBD2480068C0F30340D049096813
:10147000C1F3015101EB810100EB4100CD4908703E
:10148000CB480068C0F30320C9490968C1F30231A1
:1014900001EB810100EB4100C7490870C448001D01
:1014A000006800F00F00C249091D0968C1F301116D
:1014B00001EB810100EB4100C0490870BC48001DF0
:1014C0000068C0F30320BA49091D0968C1F300315F
:1014D00001EB810100EB4100B9490870B448001DDF
:1014E0000068C0F30340B249091D0968C1F3035104
:1014F00001EB810100EB4100B2490870AC48001DCE
:101500000068C0F34230B0490870AA4800780A2148
:1015100001E0AEE0ABE090FBF1F03030AB49487257
:10152000A44800780A2190FBF1F000EB8000A1496B
:101530000978A1EB40003030A44988729E480078B9
:101540000A2190FBF1F03030A04908769A480078E3
:101550000A2190FBF1F000EB800097490978A1EB9C
:101560004000303099494876954800780A2190FB30
:10157000F1F03030954981F82700914800780A2130
:1015800090FBF1F000EB80008D490978A1EB400061
:1015900030308E4981F82800884800780A2190FB75
:1015A000F1F03030894981F83600844800780A210A
:1015B00090FBF1F000EB800080490978A1EB40003E
:1015C0003030824981F837007E4800780A2190FB4C
:1015D000F1F030307D4981F845007A4800780A21E1
:1015E00090FBF1F000EB800076490978A1EB400018
:1015F0003030764981F8460073480078401E00EB91
:1016000040007349085C714981F854006E480078C5
:10161000401E00EB40006E49084440786B4981F859
:10162000550069480078401E00EB400068490844B6
:101630008078664981F856005B216448FFF788FA94
:1016400016E059480078401C574908700846007851
:10165000062801DD002008705349097801EB41019B
:10166000524A02EBC1001821FFF772FA00E000BFF6
:1016700000BF4A480078022803D048480078012873
:101680007ED14448007864287ADB00204149087004
:1016900047480068C0F3032030304E4988734448FF
:1016A0000068C0F302303030487341480068C0F32E
:1016B00003403030C8723E480068C0F301503030FB
:1016C00088723B48001D006800F00F0030308877BA
:1016D0003748001D0068C0F30110303048773448A7
:1016E000001D0068C0F30320303081F8210030482D
:1016F000001D0068C0F30030303081F820002C4815
:10170000001D0068C0F30340303081F824002848F1
:10171000001D0068C0F30350303081F823002448D6
:10172000001D0068C0F34230401E00EB4000284915
:10173000085C284981F826001D48001D0068C0F398
:101740004230401E00EB40002149084440782149C6
:1017500081F827001648001D0068C0F34230401E83
:1017600000EB40001A49084480781A4981F82800A3
:101770002D211848FFF7ECF917480078012800E000
:1017800006E005D11548007810B90020FEF7CEFD1F
:1017900008BD0000960200201008024057020020F9
:1017A0005A0200204100002058020020D1000020F1
:1017B00000280040900200209102002093020020A7
:1017C000920200209502002094020020790100205E
:1017D000D4010020140000205902002060020020E3
:1017E00008B50A48006800F0100070B107480068AA
:1017F00000900648001D0068009000BF0448806A01
:1018000020F001000249886200BF08BD0048004086
:1018100000600240002809DB00F01F020121914016
:101820004209920002F1E022C2F800117047000064
:1018300000B502460D48006840F002000B49086000
:101840000846006840EAC20008600846006840F4A4
:101850008030086005E00548006820F00200034978
:10186000086000F009F80028F5D000BD103C0240E7
:10187000014608687047000002480068012121EA1B
:10188000104070470C3C024000B502460B460E4823
:10189000006840F001000C4908600846006840F408
:1018A0000070086000BFFFF7E7FF0028FBD013605F
:1018B00000BFFFF7E1FF0028FBD00348006820F0DD
:1018C00001000149086000BD103C024000B5032042
:1018D000FFF7AEFF084800780006084A127840EA91
:1018E00002410748FFF7D0FF06480088010404487A
:1018F000001DFFF7C9FF00BD57020020590200205C
:1019000000C000085E020020FEF778FFFEF7E0FE50
:1019100063486449086064480860FFF789F8072154
:101920006248FFF715F9002000E0401C604988423A
:10193000FBD332205F490872352048720D215D4883
:10194000FFF706F9FEF7F4FF35205A4908723020F8
:1019500048720D215748FFF7FBF8FEF739FF372093
:1019600054490872352048720D215248FFF7F0F8AB
:10197000FEF714FFFEF772FE4F48FFF779FF000EE7
:101980004E4908704C48FFF773FF00F47F00000CCD
:101990004B4908704848001DFFF76AFF000C494991
:1019A00008804649097801EB4101474A02EB810072
:1019B0000C21FFF7CDF8FEF7F7FF444908704148C6
:1019C0000088FFF75FF8414908703C48007802281A
:1019D00057D13B49097801EB41013D4A02EBC10077
:1019E0001821FFF7B5F83648007810B1012847D123
:1019F00042E0344800884FF47A7190FBF1F03030C7
:101A0000344988722F4800884FF47A7190FBF1F0C6
:101A100000EB4001C1EBC0102A490988A1EBC000CE
:101A2000642190FBF1F030302A49C87225480088C3
:101A3000642190FBF1F000EBC00101EB00102149A3
:101A40000988A1EB80000A2190FBF1F03030214998
:101A500008731C4800880A2190FBF1F000EB80001D
:101A600018490978A1EB400030301A4988731621D3
:101A70001848FFF76DF803E00020FEF757FC00BFA1
:101A800000BF2D20FFF7C6FE0C20FFF7C3FE0E207F
:101A9000FFF7C0FE2720FFF7BDFE00BFFEE70000F6
:101AA00023016745043C0240AB89EFCD00000020D4
:101AB000809698000700002000C000085702002010
:101AC000590200205E020020410000205C0200203C
:101AD00071000020E90100204FF04070E1EE100A93
:101AE0007047828481830000081B000800000020EA
:101AF00098020000C4010008441C0008980200205D
:101B00007806000028020008101272657374FFFF47
:101B1000FF6C6F642E76616C3D30300D101174696E
:101B20006D652E7478743D2200003A00002220700A
:101B30000464617413322E032005206D6F6E1A60E9
:101B40000A70616765206C6F61640C6005616F6687
:101B5000661860056D61696E0C20047365746A40D7
:101B6000044155586A11563004464D490C92310CC7
:101B7000211883425418610C219970045553423046
:101B8000610C9230542118116771307004745F68D1
:101B900018610C4118926D18726D307004645F7991
:101BA00048610C41188130B26430926418926448E4
:101BB000927748727790619C619035645004303020
:101BC0002287910FE2640FC2641EC2790F62774BC5
:101BD000312E701A4D4F4E54554557454454485573
:101BE00046524953415453554E7465787426300615
:101BF0002E3020464D777116C0094E4F20434F4E70
:101C00004E20162113D004454354160008102020FE
:101C1000504C41592016300541555345167200016C
:101C200020084154234D560D0A07424107424407FC
:101C3000424507324A1C8005435A0D0A340004000D
:041C4000006400003C
:040000050800018965
:00000001FF
