:020000040800F2
:10000000180A002071020008790200087B0200082B
:100010007D0200087F020008810200080000000045
:100020000000000000000000000000008302000843
:10003000850200080000000087020008710D00081A
:100040008B0200088B0200088B0200088B0200085C
:100050008B0200088B0200088B0200088B0200084C
:100060008B0200088B0200088B020008D9030008ED
:10007000B50600088B0200088B0200088B020008FE
:100080008B0200088B0200088B0200088B0200081C
:100090008B0200088B0200088B0200088B0200080C
:1000A0008B0200088B0200088B0200088B020008FC
:1000B0008B0200088B0200088B0200088B020008EC
:1000C0008B0200088B0200088B0200088B020008DC
:1000D0008B0200088B0200088B020008DD1D00085F
:1000E0008B0200088B0200088B0200088B020008BC
:1000F0008B020008510E00088B0200088B020008DA
:100100008B0200088B0200088B0200088B0200089B
:100110008B0200088B0200088B0200088B0200088B
:10012000B50800088B0200088B0200088B0200084B
:100130008B02000800000000000000008B02000895
:100140008B0200088B0200088B0200088B0200085B
:100150008B0200088B0200088B0200088B0200084B
:100160008B0200088B0200088B0200088B0200083B
:100170008B0200088B020008000000000000000055
:100180008B0200088B02000800F002F800F060F813
:100190000AA090E8000C82448344AAF10107DA45E2
:1001A00001D100F055F8AFF2090EBAE80F0013F0D4
:1001B000010F18BFFB1A43F001031847581D000038
:1001C000781D000010F8013B0A4413F0030408BF37
:1001D00010F8014B1D1108BF10F8015B641E05D01B
:1001E00010F8016B641E01F8016BF9D1002D15D0D8
:1001F00010F8014B03F00C030C2BA1EB04040ABF15
:1002000010F8013BA4EB8314A4EB032405F10103D4
:1002100014F8016B5B1E01F8016BF9D5914238BFF0
:1002200010F8013BD1D3704700230024002500269D
:10023000103A28BF78C1FBD8520728BF30C148BF49
:100240000B6070471FB501F05DFE1FBD10B510BDFE
:1002500000F031F81146FFF7F5FF01F04DFE00F018
:100260004FF803B4FFF7F2FF03BC00F057F80000AB
:100270000948804709480047FEE7FEE7FEE7FEE73A
:10028000FEE7FEE7FEE7FEE7FEE7FEE70448054976
:10029000054A064B70470000C50D0008890100089B
:1002A00018040020180A0020180600201806002054
:1002B000704770477047754600F02CF8AE46050051
:1002C0006946534620F00700854618B020B5FFF771
:1002D000DDFFBDE820404FF000064FF000074FF073
:1002E00000084FF0000B21F00701AC46ACE8C00954
:1002F000ACE8C009ACE8C009ACE8C0098D4670475D
:1003000010B50446AFF300802046BDE81040FFF76B
:10031000A8BF000000487047B4030020014918201E
:10032000ABBEFEE726000200704700004FF064619C
:100330000A4A9160002100E0491C094A9142FBD31E
:10034000C0EBC001074A1144044A51660721D16538
:100350001146896D41F001019165704700600240CE
:10036000A08601004303002010B502464FF06463ED
:10037000164CE360002300E05B1C154CA342FBD34A
:10038000144BDA7099715B78124CA4782344114CA9
:10039000E47823440F4C247923440E4C647923449D
:1003A0000C4CA47923445B4298B2030A094CE371D4
:1003B00020720A23054CBC342360044BD3F8B830B8
:1003C00043F00103241F236010BD000000600240C1
:1003D00040420F006D03002000B53D20AE4988600B
:1003E0000846006940F001000861AC4800787E28AA
:1003F0007DD1AA484078FF28FAD1A848C07847287C
:1004000076D1A6488079642190FBF1F03030A44980
:10041000C874A2488079642190FBF1F000EBC00120
:1004200001EB00109D498979A1EB80000A2190FB26
:10043000F1F030309A490875984880790A2190FB8C
:10044000F1F000EB800095498979A1EB4000303054
:100450009349487591488079642190FBF1F03030E0
:10046000C1B28F4880F833108C488079642190FBAA
:10047000F1F000EBC00101EB001088498979A1EB94
:1004800080000A2190FBF1F03030C1B2844880F83E
:100490003410824880790A2190FBF1F000EB800053
:1004A0007E498979A1EB40003030C1B27C4880F8A8
:1004B00035107A488079642190FBF1F03030C1B278
:1004C000774880F8531075488079642190FBF1F0EB
:1004D00000EBC00101EB001070498979A1EB8000AD
:1004E0000A2190FBF1F03030C1B26D4801E0C9E063
:1004F00011E080F85410694880790A2190FBF1F0EE
:1005000000EB800065498979A1EB40003030C1B231
:10051000634880F855106148C0784C287ED15F4808
:100520008079642190FBF1F030305D49C8735B48FD
:100530008079642190FBF1F000EBC00101EB001029
:1005400056498979A1EB80000A2190FBF1F0303007
:1005500053490874514880790A2190FBF1F000EB6F
:1005600080004E498979A1EB400030304C494874F5
:100570004A488079642190FBF1F03030C1B248489C
:1005800080F82F1045488079642190FBF1F000EB52
:10059000C00101EB001041498979A1EB80000A21DB
:1005A00090FBF1F03030C1B23D4880F830103B484C
:1005B00080790A2190FBF1F000EB800037498979BE
:1005C000A1EB40003030C1B2354880F831103348DB
:1005D0008079642190FBF1F03030C1B2304880F86E
:1005E0004F102E488079642190FBF1F000EBC001A0
:1005F00001EB001029498979A1EB80000A2190FBC9
:10060000F1F03030C1B2264880F85010234880798C
:100610000A2190FBF1F000EB800000E008E01F49A8
:100620008979A1EB40003030C1B21D4880F85110EB
:100630001A48C078422803D11848807919490870AF
:100640001648C078402803D01448C0783B2802D10F
:100650000320144908701148C0783A2802D10020BC
:100660001049087010480078022814D10F4800780B
:10067000022810D10B480078032804D115210C481A
:1006800000F0D2FB07E00649064A127801EB42105F
:10069000202100F0C9FB00BD00600240A80300203B
:1006A00092020020810300207703002079030020BC
:1006B000F202002000B54FF47460774988607748F3
:1006C00048631420C8620846806A40F001008862CE
:1006D00073480078022879D1724800780128FAD14D
:1006E0006E4800780D282FD16C4840780A28FAD13E
:1006F0006A48C078552828D16848007931280DD13A
:10070000002069490870097801EB410202EBC10140
:10071000664A02EB4100162100F086FB5F48007933
:10072000332803D05D480079352869D101205E491E
:100730000870097801EB410202EBC1015B4A02EB50
:100740004100162100F070FB5AE05448C078502850
:1007500027D15748007818B101205349087002E0AA
:100760000120534908705048007868B14E49097813
:10077000891C01EB410202EBC1014C4A02EB410032
:10078000162100F051FB3BE04749097801EB41029B
:1007900002EBC101454A02EB4100162100F044FB87
:1007A0002EE03E48C078522811D13F48007838B337
:1007B0003D490978491C01EB410202EBC1013B4A6A
:1007C00002EB4100162100F02FFB19E03AE033481C
:1007D0008078492803D03148C078492810D10020BA
:1007E00031490870324908702F49097801EB4102FC
:1007F00002EBC1012D4A02EB4100162100F014FB6F
:10080000264800784D2845D12448407850282DD1DD
:100810002748007818B101202349087002E0012020
:10082000234908702048007868B11F490978891C5D
:1008300001EB410202EBC1011C4A02EB410016210F
:1008400000F0F2FA26E01448806D40F001001249F1
:1008500088651549097801EB410202EBC101134A91
:1008600002EB4100162100F0DFFA13E00B4840785C
:1008700052280FD10C48007860B10B490978491C07
:1008800001EB410202EBC101084A02EB41001621D3
:1008900000F0CAFA00BD000000600240940300208E
:1008A0007703002079030020800300203A02002013
:1008B0009303002030B52C48006840F03D002A49E1
:1008C00008602A480088A421484340F6FF7190FB45
:1008D000F1F0C4B225484088A421484340F6FF7196
:1008E00090FBF1F0C5B2642094FBF0F03030204969
:1008F0004872642094FBF0F000EBC00101EB0010A3
:10090000A4EB80000A2190FBF1F030301849887286
:100910000A2094FBF0F000EB8000A4EB40003030A4
:100920000873642095FBF0F030300874642095FB68
:10093000F0F000EBC00101EB0010A5EB80000A21F4
:1009400090FBF1F030300A4948740A2095FBF0F032
:1009500000EB8000A5EB40003030C874192104483A
:1009600000F062FA30BD00000864024084030020F9
:100970002A03002030B503460C463A48006840F48C
:100980008070384D286007E036481430006800F465
:10099000807008B1012030BD32481430006800F08A
:1009A00001000028F0D02F48143000682D4818307E
:1009B00000682C481030036013E02A4814300068A7
:1009C00000F4807028B927481430006800F4806073
:1009D00038B12448006840F40070224D286002209D
:1009E000D9E720481430006800F002000028E4D065
:1009F0001C48143000681B4818300068002127E0AC
:100A0000605C184D1035286013E0164814300068FB
:100A100000F4807028B913481430006800F4806036
:100A200038B11048006840F400700E4D2860032073
:100A3000B1E70C481430006800F004000028E4D04E
:100A4000084814300068074818300068481C81B214
:100A50009142D5DB0348006840F40070014D2860E6
:100A6000002098E7005400405448006840F00F0010
:100A7000524908605248006852490843504908608A
:100A80005148006A40F008004F4908620846C068B3
:100A900040F00100C8600846806840F003008860AC
:100AA0000846006840F0020008604548406A40F48B
:100AB000EE414348416242480C30006840F4A000D7
:100AC0003F490C310860081F0068404908433C4911
:100AD000083108603A48006840F42000384908604E
:100AE0003B48406A40F40021394841623948006877
:100AF00040F400603749086035480C30006840F029
:100B0000807033490C31086032481438006840F076
:100B100010003049143908602D480830006840F052
:100B200040702B49083108602A481838006840F0A6
:100B300030002849183908602548006840F00070E6
:100B40002349086023482038006840F020002149EC
:100B5000203908601A48406A40F044011848416250
:100B6000006840F420201649086015480C300068E1
:100B700040F4A02012490C3108601148001D0068A3
:100B800040F440700E49091D0860081D006840F4DB
:100B90007020091D08600E4800680D4908600A4869
:100BA000006840F47070084908600846806840F4A6
:100BB000707088600846C068C8607047303802406E
:100BC0000004024010000055000002400C003000FC
:100BD00000080240200C02403CB50020019000902B
:100BE0004E48006840F480304C49086000BF4B48D4
:100BF000006800F4003000900198401C01900098BB
:100C000018B90198B0F57A7FF1D14448006800F036
:100C1000020000285ED04248006840F480704049DD
:100C200008600846006820F00F0008600846006869
:100C300040F005000860394808300068374908313D
:100C400008600846006840F4A05008600846006844
:100C500040F400400860081F006840F48000091F4D
:100C600008600846006820F03F00086008460068F9
:100C700040F0080008600846006847F6C0718843E5
:100C80002649091D08600846006840F4285008609D
:100C9000081F006840F08070091F086000BF1F48EF
:100CA000006800F000700028F9D01C480830006887
:100CB00020F003001949083108600846006840F038
:100CC0000200086000BF15480830006800F00C0002
:100CD0000828F8D144F2A011481EB0F1807F00D35B
:100CE0001BE0481E4FF0E022506150170F220028F1
:100CF00004DB13071C0E0B4B1C5406E013071D0EE0
:100D0000094B00F00F04241F1D5500BF00204FF0B9
:100D1000E02290610720106100BF3CBD0038024016
:100D2000003C024000E400E018ED00E01CB5044681
:100D300040F6354060430D4901EB40108000C0F3A0
:100D4000CF3420128DF80000E0B28DF801001020A1
:100D50008DF802008DF8030000208DF804000522B4
:100D60006946C020FFF706FE1CBD0000E86E0300C8
:100D700012480068401C114908600846006841F2AA
:100D80008831884218D100200C4908600C4800685E
:100D900000F0040040B10A48001D006840F48020C3
:100DA0000749091D086007E00548001D006840F07C
:100DB00004000349091D08607047000088030020F3
:100DC000140402401448006840F47000124908609E
:100DD0001248006840F001001049086000200F49E7
:100DE000083108600D4800680D4908400B4908604B
:100DF0000C48091D0860081F006820F48020091FA6
:100E00000860002005490C3108604FF0006002497D
:100E1000803908607047000088ED00E0003802402B
:100E2000FFFFF6FE10300024084AD06751673922D0
:100E3000064BDA601A46126F42F001021A6700BFD1
:100E4000024A526F002AFBD1704700000060024046
:100E50000CB50020FE490861FE480078401CFD49A1
:100E60000870FDA000680190FCA000680090FC489C
:100E700000788DF80100FB48006800F0200088B37E
:100E8000F9480078401CF849087008460078142892
:100E900027DBF6480078022823D1142008700020B0
:100EA0008DF8040007208DF80500022201A9882092
:100EB000FFF760FDEE4908700120EC49087000F072
:100EC000F1FFEA49097801EB4101EA4A02EB8100AE
:100ED0000C21FFF7A9FF6420DE4908700420FFF70A
:100EE00025FA7CE1FFE7E048007814287BDADE4849
:100EF0000078002877D0DD480078022874D1DE48D9
:100F00000078401CDC49087008460078032801DDA1
:100F10000020087000F0C6FF00208DF80400D748BC
:100F2000D5490978405C8DF80500022201A9882086
:100F3000FFF720FDCE490870CF49097801EB410148
:100F4000CF4A02EBC1001821FFF76EFFCA480078B4
:100F500030B1012849D0022857D0032863D15DE081
:100F6000C84800884FF47A7190FBF1F03030C649E0
:100F70008872C44800884FF47A7190FBF1F000EB5E
:100F80004001C1EBC010BF490988A1EBC00064213A
:100F900090FBF1F03030BC49C872BA480088642137
:100FA00090FBF1F000EBC00101EB0010B54909889E
:100FB000A1EB80000A2190FBF1F03030B2490873B8
:100FC000B04800880A2190FBF1F000EB8000AD49A9
:100FD0000978A1EB40003030AB4988731621AA484C
:100FE000FFF722FF1FE097E01EE00020FFF79EF9C9
:100FF000A649097801EB410202EBC101A44A02EBC8
:1010000041001621FFF710FF0DE000214720FFF7F8
:10101000ABF900214C20FFF7A7F904E011219D480E
:10102000FFF702FF00BF00BF90480078012873D18E
:1010300002208E49087000F035FF8C49097801EBD9
:1010400041018C4A02EB81000C21FFF7EDFE0020EC
:101050008DF80400894888490978405C8DF80500BE
:10106000022201A98820FFF785FC81490870824986
:10107000097801EB4101824A02EBC1001821FFF718
:10108000D3FE7D48007820B1012846D0022859D1EE
:1010900053E07C4800884FF47A7190FBF1F03030D7
:1010A00079498872774800884FF47A7190FBF1F0A3
:1010B00000EB4001C1EBC01072490988A1EBC000F0
:1010C000642190FBF1F030306F49C8726D480088A0
:1010D000642190FBF1F000EBC00101EB00106949C5
:1010E0000988A1EB80000A2190FBF1F030306649BD
:1010F0000873644800880A2190FBF1F000EB80003F
:1011000060490978A1EB400030305F4988731621AF
:101110005D48FFF789FE15E05EE00020FFF706F965
:101120005A49097801EB410202EBC101584A02EB2E
:1011300041001621FFF778FE04E000214C20FFF764
:1011400013F900BF00BF464890F90000002801DDF8
:101150002B2000E02D2050494872414890F90000B2
:10116000002806DD3E4890F900000A2190FBF1F0CE
:1011700006E03B4890F9000040420A2190FBF1F064
:10118000303045498872364890F9000000280DDD5E
:10119000334890F900000A2190FBF1F000EB800049
:1011A0002F4991F90010A1EB40000EE02C4890F976
:1011B000000040420A2190FBF1F000EB800028493A
:1011C00091F900104942A1EB400030303249C87219
:1011D00012213148FFF728FE0020234908702148DA
:1011E000006800F0100000287ED020480078022817
:1011F0007AD12148007820B1012876D0022875D113
:1012000084E020480088401C1E4908800846008869
:10121000B0F5876F02DB40F2523008801948008831
:10122000FFF784FD00F03EFE164800884FF47A7107
:1012300090FBF1F0303014498872124800884FF466
:101240007A7190FBF1F000EB4001C1EBC01025E09A
:10125000002000409203002000070000030000006F
:1012600082030020100802407B0300207703002047
:101270007C0300204C000020790300200E1F000892
:101280007C0000207E030020240200208003002038
:101290003A0200200703002018030020FE490988B5
:1012A000A1EBC000642190FBF1F03030FB49C87223
:1012B000F9480088642190FBF1F000EBC00101EBDC
:1012C0000010F5490988A1EB80000A2190FBF1F09C
:1012D0003030F2490873F04800880A2190FBF1F0A1
:1012E00000EB8000EC4902E01EE00BE01BE0097817
:1012F000A1EB40003030E94988731621E748FFF739
:1013000093FD10E00220FFF711F80CE0002101200E
:10131000FFF72AF800214C20FFF726F80021422091
:10132000FFF722F800BF00BFDD48006800F00800AA
:1013300098B3DC48007802282FD1DB4800780128D8
:1013400002D0022828D103E00120FEF7EFFF23E0BE
:10135000D648007803281AD0D4480078012803D151
:1013600000210E20FFF700F8D048007818B90121BD
:101370001820FEF7F9FFCD480078022803D100219C
:101380000D20FEF7F1FF00214C20FEF7EDFF0021BC
:101390004220FEF7E9FF00BF00BFC148006800F02F
:1013A0000400002875D0BF480078022871D1BE48DB
:1013B000007820B101285AD0022869D15BE0B648F4
:1013C0000088401EB44908800846008840F2523127
:1013D000884203DC4FF48760AF490880AE4800883C
:1013E000FFF7A4FC00F05EFDAB4800884FF47A7173
:1013F00090FBF1F03030A9498872A74800884FF47B
:101400007A7190FBF1F000EB4001C1EBC010A249F2
:101410000988A1EBC000642190FBF1F030309F49B6
:10142000C8729D480088642190FBF1F000EBC00178
:1014300001EB001098490988A1EB80000A2190FB7C
:10144000F1F0303095490873934800880A2190FBE9
:10145000F1F000EB800090490978A1EB40003030BA
:101460008E49887316218D48FFF7DEFC10E00320BB
:10147000FEF75CFF0CE000210220FEF775FF002163
:101480004C20FEF771FF00214220FEF76DFF00BFE8
:1014900000BF8748006800F02000E0B3854800786E
:1014A000401C40B283490870084690F900000F289C
:1014B00001DD0F20087000F0F5FC7E4890F9000077
:1014C000002803DD7B4890F9000004E0794890F99A
:1014D0000000C0F11000C0B28DF801000222694680
:1014E0008820FFF747FA74490870724890F90000A5
:1014F000002801DD2B2000E02D20704948726D4846
:1015000090F90000002807DD6A4890F900000A21E0
:1015100090FBF1F007E032E0664890F900004042AD
:101520000A2190FBF1F0303064498872614890F9EB
:10153000000000280DDD5F4890F900000A2190FBB3
:10154000F1F000EB80005B4991F90010A1EB400045
:101550000EE0584890F9000040420A2190FBF1F05B
:1015600000EB8000534991F900104942A1EB400083
:1015700030305249C87212215048FFF755FC4C4890
:10158000006800F0100070B34A480078401E40B276
:1015900048490870084690F9000010F14F0F01DA31
:1015A000B120087000F07EFC424890F9000000284D
:1015B00003DD404890F9000004E03E4890F9000047
:1015C000C0F11000C0B28DF80100022269468820E7
:1015D000FFF7D0F938490870364890F90000002824
:1015E00002DD2B2001E041E02D20344948723148D2
:1015F00090F90000002806DD2E4890F900000A212D
:1016000090FBF1F006E02B4890F9000040420A21DF
:1016100090FBF1F0303029498872264890F900009B
:1016200000280DDD234890F900000A2190FBF1F01D
:1016300000EB80001F4991F90010A1EB40000EE083
:101640001C4890F9000040420A2190FBF1F000EBA9
:101650008000184991F900104942A1EB4000303058
:101660001649C87212211548FFF7DEFB0C480068C6
:1016700000F0020018B100214220FEF775FE084874
:10168000006800F48070002871D0064800780328B4
:101690006DD10B48007815E07E0300202402002065
:1016A0001008024077030020790300208103002006
:1016B00010040240820300207C0300201803002055
:1016C0007803002007287CD2DFE800F0042AA55226
:1016D0007CCEF100FD480078401CFC4908700846AB
:1016E0000078182801DB00200870F84800780A21EB
:1016F00090FBF1F03030F6494872F44800780A2146
:1017000090FBF1F000EB8000F0490978A1EB40007C
:101710003030EF4988720F21ED48FFF785FB73E108
:10172000EC480078401CEB490870084600783C28DB
:1017300001DB00200870E74800780A2190FBF1F0F7
:101740003030E3490876E34800780A2190FBF1F055
:1017500000EB8000DF490978A1EB40003030DC4924
:1017600048760F21DA480F30FFF75EFB4CE14CE181
:10177000D9480078401CD8490870084600780D28E0
:1017800001DB01200870D44800780A2190FBF1F0B9
:101790003030CF4981F82700CF4800780A2190FBEC
:1017A000F1F000EB8000CC490978A1EB400030302B
:1017B000C74981F828000F21C5481E30FFF734FBC8
:1017C00022E120E1C5480078401CC4490870084661
:1017D0000078202801DB01200870C04800780A2129
:1017E00090FBF1F03030BA4981F83600BB48007800
:1017F0000A2190FBF1F000EB8000B8490978A1EBD9
:1018000040003030B24981F837000F21B0482D3008
:10181000FFF70AFBF8E0B2480078401CB0490870B6
:10182000084600781E2801DB12200870AC480078BA
:101830000A2190FBF1F03030A54981F84500A84815
:1018400000780A2190FBF1F000EB8000A4490978B0
:10185000A1EB400030309E4981F846000F219C48A2
:101860003C30FFF7E1FACFE09E480078401C9D49EC
:10187000087008460078082801DB012008709A48A3
:101880000068C0F34230401E00EBC0009749084496
:101890008F4902684A6542688A65007A81F85C006F
:1018A00010218B484B30FFF7BFFAADE0FFE79048BF
:1018B0000078904908709048006840F080508E4948
:1018C00008608E48006840F480708C490860CA2027
:1018D000854920310860532008608348083000683B
:1018E00040F0800080490831086000BF7E48083021
:1018F000006800F040000028F8D0764800780A21FF
:1019000090FBF1F00003734909780A2291FBF2F190
:1019100001EB81016F4A1278A2EB410140EA0120FC
:101920006A4909780A2291FBF2F140EA01506749BD
:10193000097891FBF2F101EB8101644A1278A2EB84
:10194000410140EA01406849091F08606348007886
:101950000A2190FBF1F000EB800060490978A1EBCF
:1019600040005E4909780A2291FBF2F140EA011039
:101970005949097891FBF2F140EA0130564909785A
:1019800091FBF2F101EB8101534A1278A2EB410184
:1019900040EA0120524909780A2291FBF2F140EA1B
:1019A00001504F49097891FBF2F101EB81014C4A5A
:1019B0001278A2EB410140EA01404A49097840EA25
:1019C00041304949086048480830006820F08000EC
:1019D000454908310860FF204349203108604748E5
:1019E000006820F48070454908604249097801EB9D
:1019F0004101434A02EB81000C21FFF715FA6420F4
:101A00004049087000E000BF00BF3F48006800F494
:101A1000007000287ED037480078012804D00228C2
:101A200003D0032877D11DE100BF32480078304948
:101A3000087003202F490870097801EB4101304AF2
:101A400002EB81000C21FFF7EFF900202F4908700D
:101A5000097801EB41012E4A02EBC1001821FFF782
:101A6000E3F92148001F0068C0F303401E49091F25
:101A70000968C1F3015101EB810100EB41001349F9
:101A800008701948001F0068C0F303201649091F99
:101A90000968C1F3023101EB810100EB41000D49FE
:101AA00008701148006800F00F000F490968C1F381
:101AB000011101EB810100EB4100084908700A485F
:101AC0000068C0F303200849096825E08C03002062
:101AD000840100208D0300208E0300208F0300204E
:101AE000910300209003002004280040E50100201D
:101AF0007A03002077030020403802400070004045
:101B00004C000020920300201008024078030020BF
:101B1000DC000020BEE0BBE0C1F3003101EB81013D
:101B200000EB41009C4908709C480068C0F30340EA
:101B30009A490968C1F3035101EB810100EB4100AF
:101B40009749087095480068C0F34230954908707D
:101B5000954800780A2190FBF1F0303093494872A3
:101B6000914800780A2190FBF1F000EB80008E494B
:101B70000978A1EB400030308C4988728C4800789D
:101B80000A2190FBF1F030308849087688480078C7
:101B90000A2190FBF1F000EB800085490978A1EB68
:101BA00040003030814948767B4800780A2190FB1C
:101BB000F1F030307D4981F82700774800780A211C
:101BC00090FBF1F000EB800073490978A1EB400035
:101BD0003030764981F82800764800780A2190FB59
:101BE000F1F03030714981F83600724800780A21EE
:101BF00090FBF1F000EB80006E490978A1EB40000A
:101C000030306A4981F83700654800780A2190FB36
:101C1000F1F03030654981F84500614800780A21CB
:101C200090FBF1F000EB80005D490978A1EB4000EA
:101C300030305E4981F8460058480068C0F34230B1
:101C4000401E00EBC0005C490844584902684A65E0
:101C500042688A65007A81F85C0061215348FFF789
:101C6000E3F816E055480078401C544908700846CF
:101C70000078062801DD002008705049097801EB42
:101C800041014F4A02EBC1001821FFF7CDF800E0F7
:101C900000BF00BF4B480078022803D049480078B5
:101CA000012877D148480078642873DB0020464932
:101CB00008703A48001F0068C0F3032030304349E1
:101CC00088733648001F0068C0F302303030487314
:101CD0003248001F0068C0F303403030C8722F48FC
:101CE000001F0068C0F30150303088722B48006834
:101CF00000F00F00303081F8200028480068C0F361
:101D000001103030C87725480068C0F30320303018
:101D100081F8230021480068C0F30030303081F89A
:101D200022001E480068C0F30340303081F82600CE
:101D30001A480068C0F30350303081F82500174876
:101D40000068C0F34230401E00EBC0001A49014455
:101D50001E482B300A6802604A684260097A0172A4
:101D600038212B38FFF760F819480078012805D191
:101D70001848007810B90020FEF7D8FA1448007807
:101D8000022807D114480078032803D100214220FB
:101D9000FEF7EAFA0CBD00008E0300200428004084
:101DA00091030020900300208C0300208401002078
:101DB0008D0300208F030020E50100207803002020
:101DC000DC00002077030020920300201400002094
:101DD00079030020800300208103002008B50A4811
:101DE000006800F0100070B10748006800900648D5
:101DF000001D0068009000BF0448806A20F00100C8
:101E00000249886200BF08BD0048004000600240EF
:101E100000B502460D48006840F002000B4908601A
:101E20000846006840EAC20008600846006840F4BE
:101E30008030086005E00548006820F00200034992
:101E4000086000F005F80028F5D000BD103C024005
:101E500002480068012121EA104070470C3C024012
:101E600000B502460B460E48006840F001000C49E0
:101E700008600846006840F40070086000BFFFF783
:101E8000E7FF0028FBD0136000BFFFF7E1FF002849
:101E9000FBD00348006820F001000149086000BD44
:101EA000103C024000B50320FFF7B2FF0D48007858
:101EB00000060D4A127840EA02400C4A92F90020CE
:101EC0004FF47F4303EA022240EA02010848FFF789
:101ED000C7FF0848008801040548001DFFF7C0FF40
:101EE00000BD00007703002079030020820300205A
:101EF00000C000087E030020FEF76EFEFEF7B4FD72
:101F000000BFFEE74FF04070E1EE100A7047828498
:101F100081830000341F00080000002094030000AB
:101F2000C4010008E4200008940300208406000097
:101F300028020008101272657374FFFFFF6C6F6453
:101F40002E76616C3D30300D101174696D652E7404
:101F500078743D2200003A0000222050046461742D
:101F6000133006202000002E03122001200A646195
:101F7000796F667765656B25600A70616765206CAF
:101F80006F61640C6005616F66661860056D61695C
:101F90006E0C2004736574754004415558751161C9
:101FA0003004464D490C92310C211883425418617B
:101FB0000C21A4700455534230610C923054211806
:101FC000116771307004745F6818610C4118926D6C
:101FD00018726D307004645F7948610C411881306B
:101FE000B264309264189264489277487277906134
:101FF0009C6190355C500430302287910FE2640F71
:10200000C2641EC2790F62774B5101213414044D12
:102010006F6EA915AF3005547565730A30055765A5
:10202000646E0B300554687572134004467269245F
:1020300020065361747572125353753670057465BA
:1020400078745630062E3020464DA77116C0094EC2
:102050004F20434F4E4E20162113D00445435416B3
:102060000008102020504C41592016D005415553EE
:1020700045421006736F6E6720C4122FC700061A00
:102080002053544F50203157011A202161F1B81AC2
:10209000203CC1B7199521864404766F6C763005D3
:1020A0002D3739642364044144430530062E3056ED
:1020B0002020073119200754234D560D0A074241AD
:1020C00007424407424507324A1C3009435A0D0A69
:1020D0007EFF06000173EF0001D3030001030064DB
:0420E00000000000FC
:040000050800018965
:00000001FF
