:020000040800F2
:10000000780A002071020008790200087B020008CB
:100010007D0200087F020008810200080000000045
:100020000000000000000000000000008302000843
:10003000850200080000000087020008490C000843
:100040008B0200088B0200088B0200088B0200085C
:100050008B0200088B0200088B0200088B0200084C
:100060008B0200088B0200088B0200086503000861
:100070008B0200088B0200088B0200088B0200082C
:100080008B0200088B0200088B0200088B0200081C
:100090008B0200088B0200088B0200088B0200080C
:1000A0008B0200088B0200088B0200088B020008FC
:1000B0008B0200088B0200088B0200088B020008EC
:1000C0008B0200088B0200088B0200088B020008DC
:1000D0008B0200088B0200088B0200088B020008CC
:1000E0008B0200088B0200088B0200088B020008BC
:1000F0008B0200086D0D00088B0200088B020008BF
:100100008B0200088B0200088B0200088B0200089B
:100110008B020008352200088B0200088B020008C1
:10012000350400088B0200088B0200088B020008CF
:100130008B02000800000000000000008B02000895
:100140008B0200088B0200088B0200088B0200085B
:100150008B0200088B0200088B0200088B0200084B
:100160008B0200088B0200088B0200088B0200083B
:100170008B0200088B020008000000000000000055
:100180008B0200088B02000800F002F800F060F813
:100190000AA090E8000C82448344AAF10107DA45E2
:1001A00001D100F055F8AFF2090EBAE80F0013F0D4
:1001B000010F18BFFB1A43F001031847E82800009D
:1001C0000829000010F8013B0A4413F0030408BF9B
:1001D00010F8014B1D1108BF10F8015B641E05D01B
:1001E00010F8016B641E01F8016BF9D1002D15D0D8
:1001F00010F8014B03F00C030C2BA1EB04040ABF15
:1002000010F8013BA4EB8314A4EB032405F10103D4
:1002100014F8016B5B1E01F8016BF9D5914238BFF0
:1002200010F8013BD1D3704700230024002500269D
:10023000103A28BF78C1FBD8520728BF30C148BF49
:100240000B6070471FB502F025FC1FBD10B510BD37
:1002500000F031F81146FFF7F5FF02F017FA00F051
:100260004FF803B4FFF7F2FF03BC00F057F80000AB
:100270000948804709480047FEE7FEE7FEE7FEE73A
:10028000FEE7FEE7FEE7FEE7FEE7FEE70448054976
:10029000054A064B704700009D0C000889010008C4
:1002A00078040020780A00207806002078060020D4
:1002B000704770477047754600F02CF8AE46050051
:1002C0006946534620F00700854618B020B5FFF771
:1002D000DDFFBDE820404FF000064FF000074FF073
:1002E00000084FF0000B21F00701AC46ACE8C00954
:1002F000ACE8C009ACE8C009ACE8C0098D4670475D
:1003000010B50446AFF300802046BDE81040FFF76B
:10031000A8BF0000004870471804002001491820B9
:10032000ABBEFEE726000200704700004FF064619C
:100330000A4AD160C0EBC001094A1144074AC432DD
:1003400011600721054AC2F8BC101146D1F8B81057
:1003500041F00101C2F8B81070470000006002408F
:100360009303002000B53D202C4988602C48C861CB
:10037000142048610846006940F0010008612848DF
:1003800000780D2849D1264840780A2845D12448CC
:10039000C078492806D050281FD0522825D055288B
:1003A00027D103E000201F49087022E01C48007993
:1003B000312803D100201B4908700DE0184800794E
:1003C000332803D016480079352805D11548007820
:1003D00010B90120134908700BE012480078022878
:1003E00002D103200F49087003E002200D49087074
:1003F00000BF00BF0C48007802280ED10B480078DF
:1004000001280AD107490978C1EBC10101EB41017B
:10041000074A8818152100F095FC00BD00600240D5
:10042000E4030020C8030020BF030020C103002014
:100430006A02002030B52C48006840F03D002A498F
:1004400008602A4800889E21484340F6FF7190FBCF
:10045000F1F0C4B2254840889E21484340F6FF7120
:1004600090FBF1F0C5B2642094FBF0F030302049ED
:100470004872642094FBF0F000EBC00101EB001027
:10048000A4EB80000A2190FBF1F03030184988720B
:100490000A2094FBF0F000EB8000A4EB4000303029
:1004A0000873642095FBF0F030300874642095FBED
:1004B000F0F000EBC00101EB0010A5EB80000A2179
:1004C00090FBF1F030300A4948740A2095FBF0F0B7
:1004D00000EB8000A5EB40003030C87419210448BF
:1004E00000F030FC30BD000008640240D203002060
:1004F0007A03002030B503460C463A48006840F4C1
:100500008070384D286007E036481430006800F4E9
:10051000807008B1012030BD32481430006800F00E
:1005200001000028F0D02F48143000682D48183002
:1005300000682C481030036013E02A48143000682B
:1005400000F4807028B927481430006800F48060F7
:1005500038B12448006840F40070224D2860022021
:10056000D9E720481430006800F002000028E4D0E9
:100570001C48143000681B4818300068002127E030
:10058000605C184D1035286013E016481430006880
:1005900000F4807028B913481430006800F48060BB
:1005A00038B11048006840F400700E4D28600320F8
:1005B000B1E70C481430006800F004000028E4D0D3
:1005C000084814300068074818300068481C81B299
:1005D0009142D5DB0348006840F40070014D28606B
:1005E000002098E7005400402D48006840F48070D7
:1005F0002B4908602B482C498860881548604FF4C7
:10060000D84008614FF48010C862832048632448B2
:100610001438006840F480002149143908602348E8
:10062000006842F610510843204908601E484C30CB
:100630001E49083108601E48091D086002201B4938
:10064000091D0860081F006840F00100091F0860CC
:1006500016480838006840F03D0014490839086021
:100660000F48001F006840F002000D49091F086094
:1006700042F2CF000F4908604FF47A70091D0860FC
:100680000C482438006840F020000A4924390860EA
:10069000081F006840F00100091F08607047000053
:1006A0004438024001030018002001401064024059
:1006B000D20300202804004010B52148006840F40F
:1006C00080101F4908602D201E49886042F21C00DE
:1006D000C860C02048611A481038006840F4001013
:1006E0001749103908601848184908611548001D55
:1006F00088611748C861142048610846006940F0C5
:10070000010008611148B830006820F00100C1F80C
:10071000B8000D4830300D49B83108600948001D57
:100720000A49C1F8C0000B48006840F4005009496C
:1007300008600B2001F024FF352001F021FF10BDDF
:1007400040380240005000401004000800600240A1
:10075000E4030020180802406148006840F00F00E0
:100760005F4908605F4800685F4908435D49086069
:100770000846006840F0400008605C48006840F0AF
:1007800080605A4908605A48006A40F08800584919
:1007900008620846C06840F00500C86008468068E6
:1007A00040F00F0088600846006840F00A000860CA
:1007B0004C48406A40F4EE414A48416249480C3096
:1007C000006840F4A00047490C310860081F006829
:1007D000484908434349083108604248006840F4EA
:1007E0002000404908604148406A40F400213F48E9
:1007F00041624148006840F400603F4908603B485E
:100800000C30006840F0807038490C3108603A487C
:100810001438006840F01000374914390860334834
:100820000830006840F040703049083108603248B4
:100830001838006840F030002F49183908602B48FC
:10084000006840F00070294908602B482038006893
:1008500040F020002849203908602248406A40F0D2
:10086000440120484162006840F420201D4908608E
:100870001C480C30006840F4A0201A490C31086074
:100880001848001D006840F440701649091D0860B2
:10089000081D006840F47020091D086014480068B5
:1008A00020F04040124908600846C06820F04040EF
:1008B000C8600846006808600C4800680B4908607A
:1008C0000B48006840F47070094908600846806869
:1008D00040F4707088600846C068C86070470000C7
:1008E0003038024000040240100000550008024069
:1008F000000002400C003000200C02400A48006852
:1009000040F40010084908602D2008490860D220F2
:100910000649183108602B20091D08600120034991
:10092000091F08607047000040380240045400402E
:1009300010B50A48006840F480700849086042F227
:10094000CF000749886240F2CF70C8620120C860BA
:1009500008602D2001F014FE10BD00004038024058
:10096000002000403CB50020019000904E480068F7
:1009700040F480304C49086000BF4B48006800F4E8
:10098000003000900198401C0190009818B901981F
:10099000B0F57A7FF1D14448006800F002000028E9
:1009A0005ED04248006840F48070404908600846C4
:1009B000006820F00F0008600846006840F005005D
:1009C000086039480830006837490831086008462F
:1009D000006840F4A05008600846006840F40040F9
:1009E0000860081F006840F48000091F086008467E
:1009F000006820F03F0008600846006840F00800EA
:100A000008600846006847F6C07188432649091DFA
:100A100008600846006840F428500860081F006815
:100A200040F08070091F086000BF1F48006800F098
:100A300000700028F9D01C480830006820F003003E
:100A40001949083108600846006840F00200086053
:100A500000BF15480830006800F00C000828F8D1E5
:100A600044F2A011481EB0F1807F00D31BE0481E65
:100A70004FF0E022506150170F22002804DB1307CB
:100A80001C0E0B4B1C5406E013071D0E094B00F007
:100A90000F04241F1D5500BF00204FF0E02290617D
:100AA0000720106100BF3CBD00380240003C0240FE
:100AB00000E400E018ED00E01B48006800F400408E
:100AC000B0F5004F2FD018483038006840F0805003
:100AD0001549303908601548006840F480701349A2
:100AE00008601148006840F480300F4908600846EB
:100AF000006820F4803008600846006840F4014037
:100B000008600846006840F00100086000BF064821
:100B1000006800F001000028F9D00448006820F4C3
:100B200080700249086070477038024000700040D1
:100B300000B585B020208DF80000204800780228FC
:100B400004D11F481F490978405C00E007208DF858
:100B5000010000208DF80200C7208DF803001A481C
:100B600000788DF8040090208DF8050050208DF855
:100B700006008DF807007F208DF8080000208DF812
:100B80000900FF208DF80A0000208DF80B008DF879
:100B90000C008DF80D008DF80E008DF80F008DF80B
:100BA000100039208DF8110000208DF8120013225A
:100BB00069468820FFF79EFC05B000BDBF030020FA
:100BC0009E2A0008C1030020D003002010480068BE
:100BD00040F480200E4908604FF4B6700D4908605B
:100BE00042F20800091D086080200A490C310860A3
:100BF00007481038006840F40010054910390860B3
:100C00000548064988650348001F086670470000CC
:100C1000403802400848004040040008006002409C
:100C20000748006840F400200549086041F21710A9
:100C30000449086042F20C00091D0860704700007A
:100C400040380240084C004012480068401C1149DE
:100C500008600846006841F28831884218D10020B7
:100C60000C4908600C48006800F0040040B10A48D4
:100C7000001D006840F480200749091D086007E056
:100C80000548001D006840F004000349091D086084
:100C900070470000D8030020140402401448006884
:100CA00040F47000124908601248006840F00100EA
:100CB0001049086000200F49083108600D4800689D
:100CC0000D4908400B4908600C48091D0860081FC1
:100CD000006820F48020091F0860002005490C31BD
:100CE00008604FF0006002498039086070470000DA
:100CF00088ED00E000380240FFFFF6FE10300024CF
:100D00001CB5044640F6354060430D4901EB4010E8
:100D10008000C0F3CF3420128DF80000E0B28DF8CF
:100D2000010010208DF8020012208DF80300002031
:100D30008DF8040005226946C020FFF7DBFB1CBDCF
:100D4000E86E0300084A5066D1654FF06462064BB6
:100D50009A601A46926D42F001029A6500BF024AFB
:100D6000D26D002AFBD17047006002400CB5002014
:100D7000FE490861FE480078401CFD490870FDA04E
:100D800000680190FCA000680090FC4800788DF895
:100D90000100FB48006840F08050F9490860F948BC
:100DA000006900F4806000283DD00846006840F4E7
:100DB00080500860F4480078401CF34908700846E9
:100DC000007814282EDBF148007802282AD114205C
:100DD000087000208DF8040007208DF8050002221D
:100DE00001A98820FFF786FBE94908700120E7493F
:100DF000087001F021FCE749E44A127801EB021087
:100E00001021FFF79FFF6220D94908700420FFF7E7
:100E10008DFA0E2001F028FAD948006840F0080049
:100E2000D7490860F2E2D848007814287EDAD6481C
:100E3000007800287AD0D5480078022877D1D648A3
:100E40000078401CD449087008460078032801DD6A
:100E50000020087001F0F0FB00208DF80400CF485E
:100E6000CD490978405C8DF80500022201A988204F
:100E7000FFF740FBC64908700020C94908702021CF
:100E8000C848FFF75FFFC849C34A127801EB421018
:100E90002021FFF757FFC048007830B101284ED01D
:100EA00002285FD0032849D1EEE00E21BF48FFF7AA
:100EB00049FFBF4800884FF47A7190FBF1F0303061
:100EC000BC498872BA4800884FF47A7190FBF1F0FF
:100ED00000EB4001C1EBC010B5490988A1EBC0008F
:100EE000642190FBF1F03030B249C872B0480088FC
:100EF000642190FBF1F000EBC00101EB0010AC4964
:100F00000988A1EB80000A2190FBF1F03030A9495B
:100F10000873A74800880A2190FBF1F000EB8000DD
:100F2000A3490978A1EB4000303001E01CE1B5E0B5
:100F3000A049887316219F48FFF704FFADE00E21FA
:100F40009A48FFF7FFFE0020FFF7F0F99A49097869
:100F5000C1EBC10101EB4101984A88181521FFF747
:100F6000F1FE9AE00021092001F0A0FA94490870EE
:100F700008460078012804D115219248FFF7E2FEC7
:100F800081E00E219048FFF7DDFE482001F06CF96A
:100F90004C2001F069F9522001F066F98B48008875
:100FA000642190FBF1F030308949887387480088CC
:100FB000642190FBF1F000EBC00101EB00108349CC
:100FC0000988A1EB80000A2190FBF1F030308049C4
:100FD000C8737E4800880A2190FBF1F000EB800086
:100FE0007A490978A1EB4000303079490874774894
:100FF0004088642190FBF1F0303075498872734865
:101000004088642190FBF1F000EBC00101EB00107F
:101010006E494988A1EB80000A2190FBF1F0303045
:101020006B49C872694840880A2190FBF1F000EBD7
:10103000800066498978A1EB40003030644908732C
:101040006248007A88746148407AC8745F48807A40
:1010500008755E48C07A48755C48007B88755B48B7
:10106000407BC875502088774120C877552081F88B
:101070002000532081F82100452081F822002C21F6
:101080005348FFF75FFE08E00E214848FFF75AFE7D
:1010900011215048FFF756FE00BF00BF3B480078C3
:1010A000012861D102203949087001F0C5FA394997
:1010B000364A127801EB02101021FFF743FE0020A0
:1010C0008DF80400354834490978405C8DF80500F6
:1010D000022201A98820FFF70DFA2D49087000208F
:1010E0002F49087020212F48FFF72CFE2E492A4A4D
:1010F000127801EB42102021FFF724FE26480078E9
:1011000030B1012831D0022866D003287ED127E1F2
:101110000E212648FFF716FE254800884FF47A7105
:1011200090FBF1F0303023498872214800884FF459
:101130007A7190FBF1F000EB4001C1EBC0101C494B
:101140000988A1EBC000642190FBF1F0303019490F
:10115000C87217480088642190FBF1F000EBC001D1
:1011600001EB0010124938E04DE154E0002000404E
:10117000E20300200007000003000000D00300206D
:101180001804024000000240C3030020BF030020F7
:10119000C40300204C000020C10300209E2A000848
:1011A000D1030020CF0200208C0000206C0300201F
:1011B000C603002054020020C80300206A02002059
:1011C000C50300203B0300205E0300200404002030
:1011D0000F030020BE02002030E00988A1EB800050
:1011E0000A2190FBF1F03030FC490873FC4800887C
:1011F0000A2190FBF1F000EB8000F9490978A1EB9E
:1012000040003030F5498873162100E0B1E0F34822
:10121000FFF798FDADE00E21F248FFF793FD0020A7
:10122000FFF784F8F0490978C1EBC10101EB4101F6
:10123000EE4A88181521FFF785FD9AE00021092064
:1012400001F034F9EA49087008460078012804D111
:101250001521E848FFF776FD81E00E21E648FFF70B
:1012600071FD482001F000F84C2000F0FDFF5220F5
:1012700000F0FAFFE1480088642190FBF1F0303083
:10128000DF498873DD480088642190FBF1F000EBB2
:10129000C00101EB0010D9490988A1EB80000A21A7
:1012A00090FBF1F03030D649C873D44800880A2149
:1012B00090FBF1F000EB8000D0490978A1EB4000F1
:1012C0003030CF490874CD484088642190FBF1F05C
:1012D0003030CB498872C9484088642190FBF1F0D6
:1012E00000EBC00101EB0010C4494988A1EB80006C
:1012F0000A2190FBF1F03030C149C872BF484088E4
:101300000A2190FBF1F000EB8000BC498978A1EB49
:1013100040003030BA490873B848007A8874B7483A
:10132000407AC874B548807A0875B448C07A487560
:10133000B248007B8875B148407BC87550208877DB
:101340004120C877552081F82000532081F82100E2
:10135000452081F822002C21A948FFF7F3FC08E082
:101360000E21A048FFF7EEFC1121A648FFF7EAFC8A
:1013700000BF00BFA44890F90000002801DD2B2029
:1013800000E02D20A14948729F4890F900000028F4
:1013900006DD9D4890F900000A2190FBF1F006E07F
:1013A000994890F9000040420A2190FBF1F030305A
:1013B00096498872944890F9000000280DDD924803
:1013C00090F900000A2190FBF1F000EB80008E49BB
:1013D00091F90010A1EB40000EE08B4890F900005D
:1013E00040420A2190FBF1F000EB8000864991F920
:1013F00000104942A1EB400030308449C8722021DE
:101400008248FFF79FFC00208149087081480069ED
:1014100000F4805000287DD07F48006840F4805060
:101420007D4908607D480078022873D17C480078A7
:1014300020B1012858D0022855D159E068480088C9
:10144000401C6749088008460088B0F5876F02DBBA
:1014500040F25230088062480088FFF751FC01F0EA
:10146000EBF85F4800884FF47A7190FBF1F0303070
:101470005A4988725A4800884FF47A7190FBF1F00B
:1014800000EB4001C1EBC01055490988A1EBC00039
:10149000642190FBF1F030305049C8725048008808
:1014A000642190FBF1F000EBC00101EB00104C490E
:1014B0000988A1EB80000A2190FBF1F03030474908
:1014C0000873474800880A2190FBF1F000EB800088
:1014D00043490978A1EB4000303040498873162118
:1014E0003E48FFF72FFC5DE00220FEF71FFF59E0AA
:1014F00001204C49087000F0B7FE4C2000F0B4FE0B
:10150000522000F0B1FE3D484088642190FBF1F08C
:10151000303000E047E03A4988723848408864211A
:1015200090FBF1F000EBC00101EB0010334949885A
:10153000A1EB80000A2190FBF1F030303049C872F5
:101540002E4840880A2190FBF1F000EB80002B49E7
:101550008978A1EB40003030294908732748007A88
:1015600088742648407AC8742448807A08752348CD
:10157000C07A48752148007B88752048407BC87533
:10158000502088774C20C877412081F820005920CE
:1015900081F82100202081F822002C211848FFF733
:1015A000D1FB00BF00BF1B48006900F400400028C9
:1015B00074D01948006840F48050174908601748F3
:1015C000007802286AD11648007830B101282BD063
:1015D00002282DD003282AD162E060E054020020C6
:1015E000C60300206C030020C80300206A0200200C
:1015F000C50300203B0300205E03002004040020FC
:101600000F030020BE020020D0030020CF020020E4
:10161000C30300200000024018040240BF03002062
:10162000C1030020C90300200120FEF77FFE65E012
:10163000FE480078012818D10E2000F015FE002089
:10164000FA4908705020FA4988774120C877552018
:1016500081F82000532081F82100452081F82200E4
:101660002C21F348FFF76EFB17E00D2000F0FCFD86
:101670000120EE4908705020ED4988774C20C8774A
:10168000412081F82000592081F82100202081F894
:1016900022002C21E648FFF755FB2FE02FE000BF8A
:1016A000E4480078B0B10020E24908708DF80400E9
:1016B000E148E2490978405C8DF80500022201A961
:1016C0008820FEF717FFDE4908702021DD48FFF76C
:1016D00039FB13E00120D749087000208DF8040081
:1016E00007208DF80500022201A98820FEF702FFDD
:1016F000D34908702021D448FFF724FB00BFD3480A
:10170000006900F4006000287DD0D148006840F4F2
:101710008050CF490860CF480078022873D1C7486D
:10172000007820B101285AD0022857D15BE0CA487E
:101730000088401EC84908800846008840F252319F
:10174000884203DC4FF48760C3490880C2480088A0
:10175000FFF7D6FA00F070FFBF4800884FF47A71A7
:1017600090FBF1F03030BD498872BB4800884FF4DF
:101770007A7190FBF1F000EB4001C1EBC010B6496B
:101780000988A1EBC000642190FBF1F03030B3492F
:10179000C872B1480088642190FBF1F000EBC001F1
:1017A00001EB0010AC490988A1EB80000A2190FBF5
:1017B000F1F03030A9490873A74800880A2190FB4E
:1017C000F1F000EB8000A4490978A1EB4000303033
:1017D000A24988731621A148FFF7B4FA5EE00320FE
:1017E000FEF7A4FD5AE0012090490870022000F0A5
:1017F0003BFD4C2000F038FD522000F035FD9848AC
:101800004088642100E04AE090FBF1F030308849E4
:10181000887293484088642190FBF1F000EBC0018E
:1018200001EB00108E494988A1EB80000A2190FB52
:10183000F1F030307E49C872894840880A2190FB17
:10184000F1F000EB800086498978A1EB4000303050
:10185000774908738248007A88748148407AC8744E
:101860007F48807A08757E48C07A48757C48007B3E
:1018700088757B48407BC875502088774C20C87796
:10188000412081F82000592081F82100202081F892
:1018900022002C216648FFF755FA00BF00BF7148AF
:1018A000006800F48060002872D06948006840F445
:1018B00080506749086000205E4908706A480078D7
:1018C000401C40B268490870084690F900000F2893
:1018D00001DD0F20087000F0AFFE00208DF804003D
:1018E000554856490978405C8DF80500022201A947
:1018F0008820FEF7FFFD524908705B4890F9000010
:10190000002803DD584890F9000004E0564890F99B
:101910000000C0F11000C0B28DF80100022269463B
:101920008820FEF7E7FD464908704F4890F900000F
:10193000002801DD2B2000E02D20424948724A4852
:1019400090F90000002806DD474890F900000A21C0
:1019500090FBF1F006E0444890F9000040420A2173
:1019600090FBF1F03030374988723F4890F9000021
:1019700000280EDD3C4890F900000A2190FBF1F0B0
:1019800000EB8000384991F90010A1EB40000FE016
:1019900015E0354890F9000040420A2190FBF1F033
:1019A00000EB8000304991F900104942A1EB400062
:1019B00030302449C87220212248FFF7C3F9294852
:1019C000006800F4006078B32148006840F480505B
:1019D0001F49086000201749087023480078401EFE
:1019E00040B221490870084690F9000010F14F0FED
:1019F00001DAB120087000F01FFE00208DF804000D
:101A00000D480E490978405C8DF80500022201A9B5
:101A10008820FEF76FFD0A490870134890F900000E
:101A2000002826DD104821E07BE00000C9030020EB
:101A30000F030020D10300209E2A0008C1030020CC
:101A4000C4030020CF020020EF020020000002406B
:101A500018040240BF030020C603002054020020E7
:101A60000404002010080240D003002090F9000078
:101A700004E0FE4890F90000C0F11000C0B28DF8FB
:101A80000100022269468820FEF734FDF8490870FB
:101A9000F64890F90000002801DD2B2000E02D2001
:101AA000F4494872F14890F90000002806DDEF483B
:101AB00090F900000A2190FBF1F006E0EB4890F964
:101AC000000040420A2190FBF1F03030E949887271
:101AD000E64890F9000000280DDDE44890F9000088
:101AE0000A2190FBF1F000EB8000E04991F9001031
:101AF000A1EB40000EE0DD4890F9000040420A21D1
:101B000090FBF1F000EB8000D84991F900104942B8
:101B1000A1EB40003030D749C8722021D548FFF7EB
:101B200011F9D548006900F4007000287ED0D34830
:101B3000007803287AD1D2480078072877D2DFE8E6
:101B400000F0042AA6517DCFF000CE480078401C5A
:101B5000CC49087008460078182801DB002008707E
:101B6000C84800780A2190FBF1F03030C64948722D
:101B7000C44800780A2190FBF1F000EB8000C149D5
:101B80000978A1EB40003030BF4988720F21BE4870
:101B9000FFF7D8F897E1BD480078401CBB490870B2
:101BA000084600783C2801DB00200870B748007820
:101BB0000A2190FBF1F03030B3490876B348007841
:101BC0000A2190FBF1F000EB8000B0490978A1EB0D
:101BD00040003030AC4948760F21AB480F30FFF75A
:101BE000B1F870E1AA480078401CA949087008467D
:101BF00000780D2801DB01200870A54800780A2133
:101C000090FBF1F03030A04981F82700A04800781F
:101C10000A2190FBF1F000EB80009D490978A1EBCF
:101C200040003030984981F8280001E04CE149E15A
:101C30000F2195481E30FFF785F844E1954800785C
:101C4000401C9449087008460078202801DB0120D8
:101C50000870904800780A2190FBF1F030308A49F2
:101C600081F836008B4800780A2190FBF1F000EBF8
:101C7000800088490978A1EB40003030824981F822
:101C800037000F2180482D30FFF75CF81BE18248B8
:101C90000078401C80490870084600781E2801DB47
:101CA000122008707C4800780A2190FBF1F0303057
:101CB000754981F84500784800780A2190FBF1F0D9
:101CC00000EB800074490978A1EB400030306E4988
:101CD00081F846000F216C483C30FFF733F8F2E002
:101CE0006E480078401C6D49087008460078082846
:101CF00001DB0120087069480078401E00EBC0003D
:101D000067490844604902684A6542688A65007A02
:101D100081F85C0017215C484B30FFF713F8D2E0E4
:101D2000FFE760480078554908705F48006840F058
:101D300080505D4908605D48006840F480705B49F0
:101D40000860CA205A49086053200860584818386B
:101D5000006840F0800056491839086000BF5448B8
:101D60001838006800F040000028F8D04748007894
:101D70000A2190FBF1F00003444909780A2291FB03
:101D8000F2F101EB8101414A1278A2EB410140EAF4
:101D900001203C4909780A2291FBF2F140EA015105
:101DA0003848007890FBF2F000EB8000354A12785A
:101DB000A2EB400041EA00403D4924390860354823
:101DC00000780A2190FBF1F000EB8000314909789E
:101DD000A1EB40002F4909780A2291FBF2F140EA79
:101DE00001102B49097891FBF2F140EA01312848B2
:101DF000007890FBF2F000EB8000254A1278A2EB0D
:101E0000400041EA0020244909780A2291FBF2F1BE
:101E100040EA01512048007890FBF2F000EB80008E
:101E20001D4A1278A2EB400041EA00401B490978A4
:101E300040EA41301E49203908601D4818380068C2
:101E400020F080001A4918390860FF2018490860FE
:101E50001648006820F48070144908601549074A44
:101E6000127801EB0210102126E00000D0030020C0
:101E7000C4030020CF02002000000240BF03002066
:101E8000C0030020DC030020B4010020DD0300209B
:101E9000DE030020DF030020E1030020E003002038
:101EA00015020020C20300204038024000700040AC
:101EB000242800404C000020FEF744FF6420CC4959
:101EC000087000E000BF00BFCA48006900F48070DD
:101ED00000287DD0C8480078012804D0022803D00B
:101EE000032876D1FBE000BFC3480078C3490870DF
:101EF0000320C1490870C249BF4A127801EB0210A1
:101F00001021FEF71FFF0020BE490870097801EB81
:101F10004101BD4A02EBC1001821FEF713FFBB4887
:101F20000068C0F30340B9490968C1F3015101EBEE
:101F3000810100EB4100B6490870B4480068C0F365
:101F40000320B2490968C1F3023101EB810100EBC2
:101F50004100B0490870AD48001D006800F00F0056
:101F6000AA49091D0968C1F3011101EB810100EBC8
:101F70004100A9490870A548001D0068C0F303206E
:101F8000A249091D0968C1F3003101EB810100EB91
:101F90004100A24908709D48001D0068C0F303403D
:101FA0009A49091D0968C1F3035101EB810100EB56
:101FB00041009B4908709548001D0068C0F34230FD
:101FC00098490870924800780A2190FBF1F001E0EE
:101FD0009DE09AE03030944948728D4800780A219B
:101FE00090FBF1F000EB800089490978A1EB4000FB
:101FF00030308D498872874800780A2190FBF1F0D3
:10200000303089490876834800780A2190FBF1F046
:1020100000EB80007F490978A1EB40003030824915
:1020200048767E4800780A2190FBF1F030307E49F6
:1020300081F82700794800780A2190FBF1F000EB45
:10204000800076490978A1EB40003030764981F86C
:102050002800714800780A2190FBF1F03030724975
:1020600081F836006C4800780A2190FBF1F000EB13
:10207000800069490978A1EB400030306A4981F855
:102080003700674800780A2190FBF1F0303066494C
:1020900081F84500624800780A2190FBF1F000EBDE
:1020A00080005F490978A1EB400030305E4981F83B
:1020B00046005648001D0068C0F34230401E00EB49
:1020C000C0005A49014458480A6842654A68826516
:1020D000097A80F85C106121FEF734FE16E0494869
:1020E0000078401C4749087008460078062801DD42
:1020F000002008704349097801EB4101424A02EB94
:10210000C1001821FEF71EFE00E000BF00BF3A48E4
:102110000078022803D038480078012866D1344876
:102120000078642862DB002031490870FEF7FEF871
:1021300036480068C0F3032030303D498873334887
:102140000068C0F302303030487330480068C0F394
:1021500003403030C8722D480068C0F30150303061
:1021600088722A48001D006800F00F00303081F8A6
:1021700020002648001D0068C0F301103030C877E9
:102180002248001D0068C0F30320303081F823008E
:102190001E48001D0068C0F30030303081F8220076
:1021A0001A48001D0068C0F30340303081F8260053
:1021B0001648001D0068C0F30350303081F8250038
:1021C0001248001D0068C0F34230401E00EBC00002
:1021D0001649014416482B300A6802604A6842607A
:1021E000097A017238212B38FEF7ACFD0CBD0000D6
:1021F000E203002000000240BF030020C2030020D1
:102200004C000020C00300200C01002000280040EA
:10221000DC030020DD030020DF030020DE030020BC
:10222000E1030020E0030020B4010020150200209B
:102230001400002008B50A48006800F0100068B1DA
:1022400007480068009006484068009000BF0548B5
:10225000006920F001000349086100BF08BD0000CB
:10226000005000400060024030B50346002189481C
:1022700083708948006800F0200018B18648001D6E
:102280000068C2B200200DE000BF834C246804F057
:102290004004002CF9D07F4C245C7F4D2D1D2C6018
:1022A000441CE0B20428EFDB482B12D008DC012BE1
:1022B00075D0022B74D00D2B73D00E2B2FD1C5E00F
:1022C0004C2B2DD0502B7DD0512B50D0522BF5D1F3
:1022D0009FE0042421E0002105E0491C6F48814271
:1022E00001D1012030BD6C48006800F020000028BA
:1022F000F3D06948001D0068C2B2612A01DB572093
:1023000000E03020101A651EAD00A840644D2D88F5
:102310002843634D2880601EC4B2002CDBDCB0E093
:10232000042421E0002105E0491C5C48814201D1E0
:102330000120D7E75848006800F020000028F3D0BB
:102340005548001D0068C2B2612A01DB572000E039
:102350003020101A651EAD00A840514D6D882843ED
:102360004F4D6880601EC4B2002CDBDC89E0042481
:1023700025E0002105E0491C4848814201D10120A7
:10238000B0E74548006800F020000028F3D042483C
:10239000001D0068C2B2612A05DB572004E056E048
:1023A00056E052E00EE03020101A651EAD00A84045
:1023B0003B4DED8828433A4DE880601EC4B2002CA6
:1023C000D7DC5EE0042421E0002105E0491C33480D
:1023D000814201D1012085E72F48006800F02000EC
:1023E0000028F3D02C48001D0068C2B2612A01DB2E
:1023F000572000E03020101A651EAD00A840284D7F
:10240000AD882843264DA880601EC4B2002CDBDCBA
:1024100037E0002416E0002105E0491C1F488142F6
:1024200001D101205EE71C48006800F02000002870
:10243000F3D01948001D0068C2B21948083002558F
:10244000601CC4B20B2CE6DB1BE000BF00BF00BF6A
:10245000002413E0002105E0491C1248814201D10B
:1024600001203FE70C48006800F020000028F3D06E
:102470000948001D0068C5B2601CC4B2022CE9DB2B
:1024800000BF00BF002000E0401C074CA042FBD36F
:10249000002027E7B6030020004C004080841E0087
:1024A0000404002040420F0060EC530070B5024667
:1024B0000B4600212E488270C3702E48006800F041
:1024C000200018B12B48001D0068C4B200200DE0A8
:1024D00000BF284D2D6805F08005002DF9D0244D52
:1024E0002D5C244E361D3560451CE8B20528EFDB17
:1024F000092A1CD1002517E0002105E0491C1E48CF
:10250000814201D1012070BD1A48006800F020000E
:102510000028F3D01748001D0068C4B2532C01D125
:102520000120F0E7681CC5B2052DE5DB17E00025AA
:1025300013E0002105E0491C0F48814201D1012030
:10254000E1E70C48006800F020000028F3D00948BB
:10255000001D0068C4B2681CC5B2022DE9DB002072
:1025600000E0401C054DA842FBD30020CBE7000053
:10257000BA030020004C004080841E0020AA4400C2
:10258000002809DB00F01F0201219140420992005E
:1025900002F1E022C2F800117047000000B50246C7
:1025A0000D48006840F002000B49086008460068CA
:1025B00040EAC20008600846006840F480300860C5
:1025C00005E00548006820F002000349086000F0BB
:1025D00009F80028F5D000BD103C0240014608680B
:1025E0007047000002480068012121EA104070474E
:1025F0000C3C024000B502460B460E48006840F015
:1026000001000C4908600846006840F4007008604A
:1026100000BFFFF7E7FF0028FBD0136000BFFFF704
:10262000E1FF0028FBD00348006820F001000149C9
:10263000086000BD103C024000B50320FFF7AEFF6C
:102640000D48007800060D4A127840EA02400C4A14
:1026500092F900204FF47F4303EA022240EA02018C
:102660000848FFF7C7FF0848008801040548001D17
:10267000FFF7C0FF00BD0000BF030020C103002022
:10268000D003002000C00008C6030020FEF76AF94E
:10269000FEF762F8E648006840F00800E449086088
:1026A000E448006840F00050E2490860E248E3492D
:1026B0000860E3480860FDF797FFFEF787FA0721F7
:1026C000E048FEF73FFB002000E0401CDE49884266
:1026D000FBD33220DD490872352048720D21DB48DA
:1026E000FEF730FBFEF7E8F93520D84908723020B4
:1026F00048720D21D548FEF725FBFEF719F9372062
:10270000D2490872352048720D21D048FEF71AFBD5
:10271000FEF7F4F8FDF7D0FFFEF782FA002109205A
:10272000FFF7C4FECA4908700846007858B91E2150
:102730000620FFF7BBFEC649087000211120FFF7F5
:10274000B5FEC3490870C348FFF748FF000EC249F1
:102750000870C048FFF742FF00F47F00000CBF493B
:102760000870BC48FFF73AFF000A40B2BC49087045
:10277000B848001DFFF732FF000CBA490880BA497B
:10278000B54A127801EB02101021FEF7DBFAFEF7D2
:10279000CFF9B6490870B3480088FEF7B1FAB349DB
:1027A0000870AD48007802287ED1B149AB4A127852
:1027B00001EB42102021FEF7C5FAAD49A74A127875
:1027C00001EB42102021FEF7BDFAA54890F9000068
:1027D000002801DD2B2000E02D20A6494872A048EA
:1027E00090F90000002806DD9D4890F900000A21BC
:1027F00090FBF1F006E09A4890F9000040420A216F
:1028000090FBF1F030309B498872954890F90000B8
:1028100000280DDD924890F900000A2190FBF1F0AC
:1028200000EB80008E4991F90010A1EB40000EE012
:102830008B4890F9000040420A2190FBF1F000EB38
:102840008000874991F900104942A1EB40003030E7
:102850008849C87220218748FEF774FA7F480078BB
:1028600030B101284DD0022853D0032848D1CFE001
:102870007C4800884FF47A7190FBF1F030307E494B
:102880008872784800884FF47A7190FBF1F000EB81
:102890004001C1EBC01073490988A1EBC00064215D
:1028A00090FBF1F0303000E0BCE07349C8726D4835
:1028B0000088642190FBF1F000EBC00101EB0010F7
:1028C00068490988A1EB80000A2190FBF1F03030C3
:1028D00069490873634800880A2190FBF1F000EB16
:1028E000800060490978A1EB40003030624988736C
:1028F0000E216248FEF726FA16215F48FEF722FAFB
:102900008FE00E215D48FEF71DFA0020FDF70EFD59
:1029100087E04F480078012804D115215848FEF778
:1029200011FA74E04820FFF79FFC4C20FFF79CFC55
:102930005220FFF799FC53480088642190FBF1F086
:102940003030514988734F480088642190FBF1F082
:1029500000EBC00101EB00104A490988A1EB80009F
:102960000A2190FBF1F030304749C8734548008890
:102970000A2190FBF1F000EB800042490978A1EBBD
:1029800040003030404908743E484088642190FB44
:10299000F1F030303C4988723A484088642190FB1D
:1029A000F1F000EBC00101EB001036494988A1EBC2
:1029B00080000A2190FBF1F030303349C872314871
:1029C00040880A2190FBF1F000EB80002D498978C6
:1029D000A1EB400030302C4908732A48007A8874F3
:1029E0002848407AC8742748807A08752548C07AF4
:1029F00048752448007B88752248407BC8750E21A5
:102A00002248FEF79FF92C211F48FEF79BF908E0AA
:102A10000E211A48FEF796F911211D48FEF792F98A
:102A200000BF00BF3820FFF7ABFD00BFFEE700008E
:102A3000180402401808024023016745043C024084
:102A4000AB89EFCD000000208096980007000020A1
:102A5000C503002000C00008BF030020C103002000
:102A6000D0030020C60300204C000020C403002037
:102A70008C000020CF020020540200206C030020B4
:102A80003B030020040400200F0300205E0300200D
:102A9000BE0200204FF04070E1EE100A7047FAF9D4
:102AA000FCFB0000C42A000800000020E403000032
:102AB000C4010008AC2C0008E403002094060000C8
:102AC00028020008101272657374FFFFFF6C6F64B8
:102AD0002E76616C3D30300D101174696D652E7469
:102AE00078743D2200003A00002220500464617492
:102AF000133006202000002E03122001200A6461FA
:102B0000796F667765656B25100A70616765206C63
:102B10006F6164311200013110A005616F666610AB
:102B2000A0056D61696E10500573657474304004C2
:102B3000696E706423464D4F210F500B62636F3DE9
:102B4000303334383135113120B3425420A00631AE
:102B50003438343720A00455534241123641A2384C
:102B600040B00441555820100534353132F8118BEE
:102B700045052504335F680C92310C4118926D189D
:102B8000726D307004645F7930610C41188130B22D
:102B90006430926418926448927748727790619C8E
:102BA000619031C8500430302287910FE2640FC227
:102BB000641EC2790F62774B510121341405204DF8
:102BC0006F6EDA15E02005547565730A3005576598
:102BD000646E0A30055468757212300520467269B9
:102BE00008400653617475720A4275367005746543
:102BF00078745644042E3020CF8116C008204E4FE2
:102C00002044657615D008436F6E6E6563742AE0C4
:102C100007504C4159202015D005415553451555B5
:102C2000D34004766F6CFD60042D37391035E3A076
:102C3000053535333520B0044D5554205923B1BBEB
:102C4000162F0F33205F0129EC522079210A011041
:102C5000D1597431E6B007666F6E743D340EB235EB
:102C60000E29AE64044144432530062E3056202000
:102C70000725B220084154234D560D0A074241074B
:102C80004244074245072C0E4A0D0A7E0200EF7EA1
:102C9000030000EF01380310050000100405310C9B
:0C2CA000E30F00010300620000000000D0
:040000050800018965
:00000001FF
